:1000000000800020BD010000DD050000DD050000CE
:10001000DD050000DD050000DD050000A90500008C
:10002000A9050000A9050000A9050000DD050000E4
:10003000DD050000A9050000DD05000099050000B0
:10004000DD050000DD050000DD050000DD05000028
:10005000DD050000DD050000DD050000DD05000018
:10006000DD050000DD050000DD050000DD05000008
:10007000DD050000DD050000DD050000DD050000F8
:10008000DD050000DD050000DD050000DD050000E8
:10009000DD050000DD050000DD050000DD050000D8
:1000A000DD050000DD050000DD050000DD050000C8
:1000B000DD050000DD050000DD050000DD050000B8
:1000C000DD050000DD050000DD050000DD050000A8
:1000D000DD050000DD050000DD050000DD05000098
:1000E000DD050000DD050000DD050000DD05000088
:1000F000DD050000250E0000DD050000A91100004F
:10010000DD050000E1140000DD050000DD05000054
:10011000DD050000DD050000DD050000DD05000057
:10012000DD050000DD050000DD050000DD05000047
:10013000DD050000DD050000DD050000DD05000037
:10014000DD050000DD050000DD050000DD05000027
:10015000652300007D23000095230000AD230000EF
:10016000DD0500008D170000DD050000DD05000045
:10017000DD050000DD050000DD050000DD050000F7
:10018000DD050000DD050000DD050000DD050000E7
:10019000DD050000DD050000DD050000AD06000006
:1001A000FD0600008507000041080000C5080000AA
:1001B000DD050000DD050000012100004E4B4CF282
:1001C000205210B51A804DF628121A8000BF00BFC9
:1001D00000F008FA494B4FF010621A60484A9A60E2
:1001E000484ADA60484B1A6812F4807204D14749D1
:1001F0000A604FF4A8521A60454B1A7802F00802C0
:10020000D2B21AB11A7842F008021A700023414A99
:100210004148424C02E019599950043399188142DF
:10022000F9D33F4B3F4A002101E043F8041B9342BE
:10023000FBD33D4B00221A603C4B3D4A802103F822
:10024000011B9342FBD13B4B0A221A703A4B2422EA
:100250001A70A02203F8012C384A137803F0020325
:10026000DBB2002BF9D0354A137803F01003DBB270
:10027000002BF9D1314A137803F00C03082BFAD183
:100280002F4B03221A7040225A702C4A137803F025
:100290002003DBB2002BF9D0284A137803F0400387
:1002A000DBB2002BF9D0274A274B1A60274B2022BC
:1002B0001A70224A137803F00C030C2BFAD1244B4A
:1002C00002221A60234A43F8442C234B234A1A6023
:1002D000072243F8042C62B600F08CFB0B4B1B6822
:1002E000DC0702D51E4800F005FB02F049FF00F0D4
:1002F0007FF902F081FAFEE70E20054030800440CD
:10030000823F04000100002B10D0034014D00340B2
:1003100002D007400084FF1FB489FF1F083F000080
:10032000B489FF1F2490FF1F08ED00E000E400E007
:100330005FE400E0005006400140064006400640F1
:100340000440064000000301448004400040064091
:1003500048800440C010050014E000E0FF76010072
:10036000DF192A53FFFFFFFFFFFFFFFFFFFFFFFF24
:10037000FFFFFFFFFFFFFFFFFFFFFFFFFFFFFFFF8D
:10038000FFFFFFFFFFFFFFFFFFFFFFFFFFFFFFFF7D
:10039000FFFFFFFFFFFFFFFFFFFFFFFFFFFFFFFF6D
:1003A000FFFFFFFFFFFFFFFFFFFFFFFFFFFFFFFF5D
:1003B000FFFFFFFFFFFFFFFFFFFFFFFFFFFFFFFF4D
:1003C000FFFFFFFFFFFFFFFFFFFFFFFFFFFFFFFF3D
:1003D000FFFFFFFFFFFFFFFFFFFFFFFFFFFFFFFF2D
:1003E000FFFFFFFFFFFFFFFFFFFFFFFFFFFFFFFF1D
:1003F000FFFFFFFFFFFFFFFFFFFFFFFFFFFFFFFF0D
:10040000FFFFFFFFFFFFFFFFFFFFFFFFFEFFFFFFFD
:1004100008B548F6B410074BC1F6FF701B1A062B3F
:1004200000D808BD40F20003C0F20003002BF8D052
:100430009847F6E7B789FF1F08B548F6B41048F6A5
:10044000B413C1F6FF70C1F6FF731B1A9B1003EBC8
:10045000D373591000D108BD40F20002C0F200026F
:10046000002AF8D09047F6E710B548F6B414C1F664
:10047000FF74237873B9FFF7CBFF40F20003C0F29B
:1004800000032BB143F60870C0F20000AFF3008008
:100490000123237010BD00BF08B540F20003C0F275
:1004A00000034BB143F6087048F6B811C0F20000E3
:1004B000C1F6FF71AFF3008048F6B410C1F6FF70CB
:1004C00003682BB140F20003C0F2000303B1984768
:1004D000BDE80840FFF7B0BF224B60221A70E1224E
:1004E0005A70214B214A1978214B082901D1012149
:1004F00002E00A2907D13921116013221A601D4B2D
:1005000019605A600BE00C291A4901D1352000E02E
:100510003D20106012221A60174B08601A60174BBA
:1005200017491B78174A03B101230B601360164B60
:10053000164A1978164B012901D880210CE00429AC
:1005400001D8842108E0082901D8852104E0102978
:1005500001D8862100E08721116019600D4B01222E
:100560001A707047004007400484FF1F08B0034022
:100570000CB0034008B00B400CB00B40D189FF1FFA
:1005800020B0034020B00B400584FF1F24B003407F
:1005900024B00B40D089FF1F024B1A6801321A6049
:1005A000704700BF5C8AFF1F38B50B4C2546236897
:1005B000580301D501F0EAF82B68590501D500F080
:1005C00031FC2B681A0501D500F0EEFD2368DB0431
:1005D000EDD500F085FFEAE73480044008B5FFF769
:1005E000E3FFFFFF014B10221A80704700200540F7
:1005F0007047FFFF024A13681818106018467047CA
:100600000884FF1F012070477047FFFFEFF313833B
:100610009BB9EFF3108098B9EFF3058323B10F2B4B
:1006200004D9084A985C01E04FF48070EFF311831D
:100630003BB1984228BF184670474FF0FF307047D3
:1006400018467047F0E300E010B50023B0FBF2F469
:1006500002FB1400092801D8303000E03730C854BC
:1006600020460CB10133F1E7CA185470224605E068
:10067000885CCC5C8C54C8540132013B9A42F7DB55
:10068000084610BD084B4FF400021A604FF080720C
:100690001A604FF000721A604FF080621A604FF0DB
:1006A00000621A60704700BF08E100E0114B10B50E
:1006B0001C68E0041C6004D50F4BDA680AB1DB68E3
:1006C0009847A10404D50C4B1A690AB11B699847D5
:1006D000A20604D5084B1A6E0AB11B6E9847E306B2
:1006E00006D5054BD3F8842012B1D3F8843098474F
:1006F00010BD00BFA0900440D489FF1F1F4B10B550
:100700001C68E0031C6004D51D4B1A680AB11B6805
:100710009847A10304D51A4B5A680AB15B689847F9
:10072000E20704D5164B1A6C0AB11B6C9847A30755
:1007300004D5134B5A6C0AB15B6C9847200704D55B
:100740000F4B9A6C0AB19B6C9847610704D50C4B10
:10075000DA6C0AB1DB6C9847220304D5084B5A6E59
:100760000AB15B6E9847630306D5054BD3F880202A
:1007700012B1D3F88030984710BD00BFA0A004404C
:10078000D489FF1F2C4B10B51C6820071C6004D5B2
:100790002A4B5A6A0AB15B6A9847E10604D5274B8F
:1007A0009A6A0AB19B6A9847620604D5234BDA6AB3
:1007B0000AB1DB6A9847230604D5204B1A6B0AB1AD
:1007C0001B6B9847A00604D51C4B5A6B0AB15B6B98
:1007D0009847E10704D5194BDA6B0AB1DB6B9847F0
:1007E000A20704D5154B9A6D0AB19B6D9847630714
:1007F00004D5124BDA6D0AB1DB6D9847A00504D51C
:100800000E4BDA6E0AB1DB6E9847E10504D50B4B4F
:100810001A6F0AB11B6F9847620504D5074B5A6FD0
:100820000AB15B6F9847230504D5044B9A6F0AB150
:100830009B6F984710BD00BFA0B00440D489FF1F34
:100840001E4B10B51C68E0071C6004D51C4B9A6851
:100850000AB19B689847210604D5194B5A690AB119
:100860005B699847E20604D5154B9A690AB19B6902
:100870009847630704D5124BDA690AB1DB699847D8
:10088000200704D50E4B1A6A0AB11B6A9847A107C4
:1008900004D50B4B9A6B0AB19B6B9847A20604D503
:1008A000074B1A6D0AB11B6D9847630604D5044BBC
:1008B0005A6D0AB15B6D984710BD00BFA0C00440DF
:1008C000D489FF1F094B10B51C68A2071C6004D512
:1008D000074B9A6E0AB19B6E9847E30704D5044B09
:1008E000DA6F0AB1DB6F984710BD00BFA0D004409B
:1008F000D489FF1F044B054900221A600A60044A8C
:10090000106010221A60704714D0034004D00340D6
:1009100000D00340212810B518D80D4A52F83030C5
:1009200093F880423CB1012211B183F8802010BDC0
:1009300083F8002110BD02EBC00043681A6811B1B2
:1009400042F0030201E022F002021A6010BD00BF73
:10095000A43B0000212816D80B4A02EBC003012952
:100960005B6852F8302004D182F880124FF4A272F2
:1009700008E0002082F8800211B94FF4807201E093
:1009800040F203121A607047A43B000072B60B4B92
:100990000B491A680B4B1B68096862B6490102D5FE
:1009A000322A88BF0133C2F5BB32FF326021B2FB6D
:1009B000F1F24FF47A7000FB0320704718E000E07A
:1009C00004ED00E05C8AFF1F70B50446FFF7DEFF10
:1009D00005466CB140F2E736FFF7D8FF401BB04246
:1009E00003D9013C04D005F57A7501F087FBF3E7E4
:1009F00070BDFFFF10B5FFF745FE164B164A174CAA
:100A000000204BF6FF711860596028231360936033
:100A100013619361136293621363936309222260EB
:100A20000F4C20606160A360236144F8042C0D4CDE
:100A300020600D4801600D490B608B600C4B1A6003
:100A4000FFF74AFD0420FFF7BFFFBDE8104001F0AB
:100A5000B3B900BF048003400C8003400080034012
:100A60000490034004800B4008800B400C800B4036
:100A700000800B401B4B1A6842F480621A601A4ACD
:100A800000231370194A1370194A1370194A13700E
:100A9000194A1370194B40F213321A604FF4517215
:100AA0005A60174BC0F344321A70C0F347125A70A1
:100AB00000F01F00134A987202210423137051742E
:100AC000D374114B88221A703C2203F80D2C0F4B63
:100AD00040226FF44A711A705B184FF400521A608A
:100AE000704700BF34800440E28AFF1F618AFF1F05
:100AF000E88AFF1FE38AFF1F608AFF1F40A00440AF
:100B000000A0064002A0064010A006402DE400E030
:100B1000134A137800F0030103F0EC030B43410781
:100B200048BF43F01003137000F00F03042B04D1EF
:100B30000C4B1A7842F040021A700B4A1378C10627
:100B400003F0EF0348BF43F010031370054A137816
:100B5000800603F0EF0348BF43F0100313707047A3
:100B600002A0064006A0064005A006400E4B1B68EA
:100B7000580510B503D410BD01F0C0FA00E00B4CCD
:100B80002378002BF8D10A4A4FF400511160094A2A
:100B90000949137040F203120A604A60074A137051
:100BA000074A137010BD00BF34800440608AFF1FE5
:100BB00084E100E003A0064040A00440E28AFF1F59
:100BC000618AFF1F38B5094B04461D78002DFCD102
:100BD00020460121FFF7BEFE20462946FFF79AFE78
:100BE000034B53F83420034B1A6038BD608AFF1F53
:100BF000A43B0000E48AFF1F1D4B1B685A052DE92A
:100C0000F041064632D51B4B1B680BB101221A700E
:100C1000194B1A4D1C781A4FDFF86C8001343F2CA9
:100C200088BF002415E0FFF7F1FC40280DDC3B787D
:100C30001B060ED52B78134A01333F2B88BF0023A8
:100C400018F8031011702B7003E0FF2801DD01F08C
:100C500055FA2B78A342E6D00B4B1E550B4B0122C5
:100C60001A70054B1C700A4BBC221A70BDE8F0814B
:100C700034800440E48AFF1FE88AFF1FE38AFF1FD5
:100C800004A0064007A00640628AFF1F608AFF1F7B
:100C900003A006402DE9F84F254B1B680646580572
:100CA000884643D5234B1B680BB101221A70224D95
:100CB000B346A94633E0214B1C782F7801343F2CF2
:100CC00088BF0024A74209D01BF8012B1C4B1A55E2
:100CD0001C4B01221A70194B1C7020E01A4BDFF8D4
:100CE00070A0BC221A70FFF791FC40280FDC9AF824
:100CF000003019060FD52B78114A01333F2B88BFDE
:100D00000023D15C114A117089F8003003E0FF28FC
:100D100001DD01F0F3F92B78BB42E4D0D4E706EB18
:100D200008039B45C7D3084BBC221A70BDE8F88F57
:100D300034800440E48AFF1FE38AFF1FE88AFF1F14
:100D4000628AFF1F608AFF1F03A0064007A00640BB
:100D500004A0064010B5044C01E001F0CFF923785F
:100D6000002BFAD110BD00BF608AFF1F044B18781A
:100D7000044B1B78984238BF4030C01A704700BF00
:100D8000E28AFF1F618AFF1F084B094A197813780E
:100D9000994207D001333F2B88BF00230549C85C27
:100DA000137070474FF0FF30704700BFE28AFF1F9B
:100DB000618AFF1FA28AFF1F074B1A78074B1B7817
:100DC0009A4206D001333F2B88BF0023044AD05CEF
:100DD00070474FF0FF307047E28AFF1F618AFF1FA4
:100DE000A28AFF1F0A4B1B685B050FD5094B1A78B7
:100DF00002F0CB021A70084A402111701A7842F0B2
:100E000034021A70054B1A78054B1A70704700BFF0
:100E10003480044003A0064011A00640618AFF1FF1
:100E2000E28AFF1FF0B5304B1B7813F0300F20D053
:100E300072B62E4B197831B90F3B40221B782C4BE0
:100E40001A7062B615E062B62A4B2B4C1A782B4BFF
:100E50002B4D1878531C3F2B88BF002326788342E4
:100E60001CBFEE541A46013911F0FF01F2D1214B9B
:100E70001A70244B1B7819465BB2002B1FDA1A4AF2
:100E8000137818061BD5204B204E1F78204B1A4D87
:100E90001B78204CBB4209D001333F2B88BF002375
:100EA0001078F05C287020780728F3D9184A13705E
:100EB0000D4B1B781A0602D5124B7C221A7001F0DA
:100EC0004003DBB27BB1084B1B7803F04003DBB27D
:100ED0004BB1114B00221A70104B1B6803B11A70F2
:100EE000084B3C221A70F0BD04A0064016A0064034
:100EF00011A00640E28AFF1F07A00640618AFF1F7B
:100F0000A28AFF1F03A00640E88AFF1F628AFF1F14
:100F1000E38AFF1F14A00640608AFF1FE48AFF1FB8
:100F2000164B1A6842F400621A60154A00231370C7
:100F3000144A1370144A1370144A1370144A13702D
:100F4000144A40F2133111604FF451715160124A4A
:100F5000C0F344311170C0F3471100F01F0051700D
:100F60009072937013740D4B2C221A700C4B40220C
:100F70001A700C4B4FF400421A60704734800440E2
:100F8000538BFF1FEA8AFF1F558BFF1F548BFF1FD8
:100F9000E98AFF1F0CB0044000B0064003B00640D1
:100FA0002FE400E004E100E0134A137800F00301AD
:100FB00003F0EC030B43410748BF43F010031370E9
:100FC00000F00F03042B04D10C4B1A7842F04002BE
:100FD0001A700B4A1378C10603F0EF0348BF43F0C1
:100FE00010031370054A1378810603F0EF0348BF1E
:100FF00043F010031370704702B0064006B006407D
:1010000005B006400E4B1B68180510B503D410BD83
:1010100001F074F800E00B4C2378002BF8D10A4A59
:101020004FF400411160094A0949137040F203125C
:101030000A604A60074A1370074A137010BD00BF68
:1010400034800440E98AFF1F84E100E003B00640D9
:101050000CB00440538BFF1FEA8AFF1F1B4B1B6819
:101060001A052DE9F04106462DD5194B194D1C786E
:10107000194FDFF86C800134272C88BF002415E05D
:10108000FFF7C4FA40280DDC3B781B060ED52B7801
:10109000124A0133272B88BF002318F80310117060
:1010A0002B7003E0FF2801DD01F028F82B78A34224
:1010B000E6D00B4B1E550B4B01221A70044B1C70D3
:1010C000094BAC221A70BDE8F08100BF34800440A7
:1010D000558BFF1F548BFF1F04B0064007B006401E
:1010E000EB8AFF1FE98AFF1F03B0064038B5451899
:1010F000044603E014F8010BFFF7B0FFAC42F9D14E
:1011000038BDFFFF10B5044C01E000F0F7FF237875
:10111000002BFAD110BD00BFE98AFF1F044B1878DD
:10112000044B1B78984238BF4030C01A704700BF4C
:10113000538BFF1FEA8AFF1F084B094A197813785F
:10114000994207D001333F2B88BF00230549C85C73
:10115000137070474FF0FF30704700BF538BFF1F75
:10116000EA8AFF1F138BFF1F074B1A78074B1B7868
:101170009A4206D001333F2B88BF0023044AD05C3B
:1011800070474FF0FF307047538BFF1FEA8AFF1FF5
:10119000138BFF1F024B1A78024B1A70704700BF67
:1011A000EA8AFF1F538BFF1F10B5214B1B7803F0FA
:1011B0002003DBB273B11F4B1F4A18781F49137805
:1011C000097801333F2B88BF00238B4202D01C4992
:1011D000C85413701B490B7818465BB2002B15DA04
:1011E000134B1B781B0611D5174B184A1C78137824
:1011F0009C4202D16C230B7008E00133272B88BF7F
:1012000000231349CC5C0B490C70137000F04003B1
:10121000DBB25BB1064B1B7803F04003DBB22BB1B2
:101220000C4B00221A70074B2C221A7010BD00BF05
:1012300004B0064007B00640538BFF1FEA8AFF1F29
:10124000138BFF1F03B00640558BFF1F548BFF1FEE
:10125000EB8AFF1FE98AFF1F174B1A6842F480527E
:101260001A60164A00231370154A1370154A13703A
:10127000154A1370154A1370154A40F21331116064
:101280004FF451715160134AC0F344311170C0F3EF
:10129000471100F01F0051709072937013740E4B41
:1012A0002C221A700D4B40226FF44B711A705B1890
:1012B0004FF400321A60704734800440C08BFF1F27
:1012C000578BFF1FC28BFF1FC18BFF1F568BFF1F4A
:1012D00008C0044000C0064003C0064031E400E0FE
:1012E000134A137800F0030103F0EC030B434107AA
:1012F00048BF43F01003137000F00F03042B04D118
:101300000C4B1A7842F040021A700B4A1378C1064F
:1013100003F0EF0348BF43F010031370054A13783E
:10132000800603F0EF0348BF43F0100313707047CB
:1013300002C0064006C0064005C006400E4B1B68B2
:10134000D80410B503D410BD00F0D8FE00E00B4C5B
:101350002378002BF8D10A4A4FF400311160094A72
:101360000949137040F203120A604A60074A137079
:10137000074A137010BD00BF34800440568BFF1F16
:1013800084E100E003C0064008C00440C08BFF1F9A
:10139000578BFF1F1B4B1B68DA042DE9F0410646F3
:1013A0002DD5194B194D1C78194FDFF86C8001347D
:1013B000272C88BF002415E0FFF728F940280DDC12
:1013C0003B781B060ED52B78124A0133272B88BF9A
:1013D000002318F8031011702B7003E0FF2801DDC3
:1013E00000F08CFE2B78A342E6D00B4B1E550B4B26
:1013F00001221A70044B1C70094BAC221A70BDE814
:10140000F08100BF34800440C28BFF1FC18BFF1FDF
:1014100004C0064007C00640588BFF1F568BFF1FB5
:1014200003C0064038B54518044603E014F8010B24
:10143000FFF7B0FFAC42F9D138BDFFFF10B5044C47
:1014400001E000F05BFE2378002BFAD110BD00BF55
:10145000568BFF1F044B1878044B1B78984238BFFB
:101460004030C01A704700BFC08BFF1F578BFF1F53
:10147000084B094A19781378994207D001333F2B5A
:1014800088BF00230549C85C137070474FF0FF30D8
:10149000704700BFC08BFF1F578BFF1F808BFF1F44
:1014A000074B1A78074B1B789A4206D001333F2B23
:1014B00088BF0023044AD05C70474FF0FF3070476C
:1014C000C08BFF1F578BFF1F808BFF1F024B1A78AB
:1014D000024B1A70704700BF578BFF1FC08BFF1F56
:1014E00010B5214B1B7803F02003DBB273B11F4B07
:1014F0001F4A18781F491378097801333F2B88BF9A
:1015000000238B4202D01C49C85413701B490B782E
:1015100018465BB2002B15DA134B1B781B0611D54E
:10152000174B184A1C7813789C4202D16C230B701D
:1015300008E00133272B88BF00231349CC5C0B49FB
:101540000C70137000F04003DBB25BB1064B1B78EC
:1015500003F04003DBB22BB10C4B00221A70074B97
:101560002C221A7010BD00BF04C0064007C0064000
:10157000C08BFF1F578BFF1F808BFF1F03C00640D0
:10158000C28BFF1FC18BFF1F588BFF1F568BFF1F86
:101590001FB572B6124B70221A70124A4121117097
:1015A0000F2102F8011C80221A701A781206FCD54D
:1015B00062B60D4B01A918680A22FFF745F80B48DF
:1015C000002301AA9A5C2AB100EB430101330A2BE4
:1015D0004A80F6D10133054A5B00137005B000BDA7
:1015E0000000024007000240080002409484FF1FF0
:1015F000F0B50C4B0C4C1A7842F0020504EBC50612
:1016000082F00102706009481A700678002E0CBF43
:101610008827C82747EA014186F0010644F83510BB
:101620000670F0BD2C8CFF1F0080FF1FA48CFF1FD5
:10163000431E032B10B510D872B6094A52F8230086
:1016400010B1416842F82310064A018832F813406D
:10165000611A22F8131062B610BD002010BD00BF41
:101660001C8CFF1F1090FF1F013803280BD872B687
:10167000064B53F82030002001E05B680130002B5E
:10168000FBD162B670470020704700BF708CFF1F0F
:1016900070B572B6184E194C01239A1912F8012C24
:1016A00002F00802D2B2E2B19900144A54F8315063
:1016B0002DB902EB431308305860114B09E041F09B
:1016C000010154F8315065B902EBC103083058608C
:1016D0000C4B42F831300C4B1A78013A1A7062B652
:1016E00070BD0133052BD8D162B6074B00221A70AA
:1016F000BDE8704000F0CCBBB43C00000080FF1F90
:1017000088004000C80040009A8CFF1F431E032B36
:1017100030B532D84001194A40F01000101872B6A6
:10172000174CE25C032A09D8DFE802F0160218051C
:101730000830022213E00830042210E01148124A57
:1017400050F8234014B940F8231002E052F8230067
:10175000416042F823100FE0032200E00522E2542A
:1017600010F0080F01F108030A8843600CBF8823BA
:10177000C82343EA0243036062B630BD0080FF1F06
:10178000D88BFF1F708CFF1F808CFF1F2DE9F74F38
:10179000A34EA44C357805F00403DBB2ABB1A24BE9
:1017A0001B7883B1A14A137823B1013BDBB21370DC
:1017B00003B900BE9E4A13782BB1013BDBB2137014
:1017C0000BB900F079FC0423337005F00802D2B2A3
:1017D000002A00F07B82974B1B781D094FEA930982
:1017E00040F0F98104EBC903586854F83930C3F369
:1017F0008303013B0C2B00F2EB81DFE813F0A40123
:10180000A401E901E901E901E901E901E901C001F6
:10181000E901E901E9010D004368874A0168536065
:10182000864B874844F83930864D116000230360A9
:101830000120287089B240F28165A9422361A36129
:1018400019D8B1F5D06F80F02881B1F5817F00F013
:10185000D88006D8802900F0BE80822940F03981E6
:10186000BDE040F20230814200F00881B1F5A06F86
:1018700040F02F8131E1B1F5106F10D004D8B1F5EF
:10188000086F40F02681A0E042F22100814200F082
:10189000578100F50070814240F01B8115E192787C
:1018A000614B604D1A702B6A180603D5686A0838B8
:1018B00000F0EEFA644A08359542F4D1DFF8B091B1
:1018C000DFF8B0B10025A846CA4655F8090005E082
:1018D0004368009300F0DCFA009B18460028F7D11B
:1018E0005A4B4AF8050045F80B00E85807E04268F3
:1018F0000093019200F0CCFA019A009B1046002858
:10190000F5D15851524BE850524B23F81800524B26
:1019100018F80320023A032A08D8DFE802F002048C
:101920000204002200E0012203F8082008F1010867
:101930000435B8F1040FC8D1484BDFF83C910022C0
:101940001A7001259846464B05EB0902EB1812F870
:10195000012C9B001A7002F00802D2B23AB300F0D8
:1019600079FAAB0038B104EB4512083050603D4ABB
:1019700044F8332006E044F8330098F8003001338F
:1019800088F8003000F066FAAB0043F0010338B18C
:1019900004EBC30208305060284A44F8332006E0C4
:1019A00044F8330098F80030013388F80030AA007A
:1019B00042F00201013542F003020023052D44F8F4
:1019C000313044F83230BED187E0174B264D1B78BA
:1019D0002B70034684E0244D2B706B707FE092885F
:1019E000042A00D975E0204D2B706B701F4B9200BC
:1019F000D3181B7803F00203DBB2002B6FD02870E2
:101A00006DE0918801F07F03042B62DC538803B101
:101A10005FE0164A89008A18117821F0020156E029
:101A2000802007400080FF1FA38CFF1F2D8CFF1F0D
:101A3000A58CFF1F90200740908CFF1FC80040001E
:101A4000C48BFF1FA48CFF1F8080FF1F708CFF1FA3
:101A5000808CFF1F1090FF1FD88BFF1F9A8CFF1FD9
:101A600030C80110880040009B8CFF1FC020074039
:101A70001C8CFF1FC88BFF1FB43C0000918801F035
:101A80007F03042B25DC538803B122E0A04A8900A0
:101A90008A18117841F0020119E051889D4B928813
:101AA00053F8085CA3F10C009DB133F80CCC8C45C5
:101AB00009D133F80ACC944505D1090A03290CBF92
:101AC0002B7803890CE00C33EAE79178924A117085
:101AD00003E08F4B0F221A7032E01D4600E0022314
:101AE0008E4AB2F806904B4538BF9946B9F1400F7F
:101AF00034BFC8464FF0400828464146FFF778FDFE
:101B0000B9EB0809454403D1B8F1400F07D017E0FD
:101B1000B9F1400F34BFC8464FF0400800E0C84656
:101B200028464146FFF764FDB9EB0809454402D158
:101B3000B8F1400F04D17A4B7A4A1D60A2F80090A8
:101B40000122794B43E0754B1A8842F221039A42F5
:101B500011D1764A0023C15C99540133072BFAD185
:101B6000724B1B68862B02D1714B0F221A7000201A
:101B70000146FFF73DFD6F4B44F8393028E0684BD4
:101B8000D3F80080B8F1000F18D0DFF89891B9F8B9
:101B900000A0BAF1400F34BF5546402540462946C3
:101BA000FFF726FDC5EB0A039BB2A9F800300BB97D
:101BB000402D01D108EB0503594A1360574B1A8891
:101BC000B2F5A06F04D100225A709A785A4B1A705D
:101BD0000122554B6DE004EBC90803F00803D8F867
:101BE0000420013DD9B2A2F10800EDB2002937D09E
:101BF00000F04EF95148524B50F82510F1B14A68A7
:101C000040F8252001F10802C8F804205A5D032A93
:101C10000BD8DFE802F002040608032204E00222E7
:101C200002E0052200E004225A5518F0080F0A8845
:101C30000CBF8823C82343EA024342E05A5D032ACB
:101C400007D8DFE802F040400204002206E001224B
:101C500004E018F0080F0CBF022203225A5532E0AC
:101C600054F839301B0C22F8083C23B322F8061C28
:101C700042F8041C334A344952F8257017B942F827
:101C8000250002E051F825205060304A41F8250037
:101C900032F815105B1822F8153000F0DBF818B197
:101CA0000830C8F8040006E0294B44F839001A78D7
:101CB00001321A7007E01F4B264A18F0080F08BFC0
:101CC000134644F839300823337063E5E90751D5EA
:101CD00015492048204C02230B70204B1A70204BD2
:101CE000186098601F481A61D8609A615C60084B60
:101CF0000D2018701C48FF23037000F8083C027484
:101D00001A4A13701A4B9F221A7001230B704AE073
:101D1000C0200740C43C0000B48CFF1F908CFF1F04
:101D2000C48BFF1F988CFF1F942007401890FF1F43
:101D30002D8CFF1FC800400098200740708CFF1FAB
:101D4000D88BFF1F1C8CFF1FC88BFF1F1090FF1F1D
:101D50009A8CFF1F88004000DC8BFF1F2C8CFF1F1C
:101D60000080FF1F308CFF1F882007408C20074019
:101D7000842007402B0605D50C4B0D221A708022BB
:101D800003F8402C05F00203DBB22BB1084B1A78A4
:101D90001A70022203F8082C05F01005EDB215B1F7
:101DA000044B10221A70BDE8FE8F00BFC020074010
:101DB000882007408020074008B5FFF7E9FB002393
:101DC0001E491A465A50C8180833882B4260F9D168
:101DD0001B4B1A6842F480221A601A4B80221A7038
:101DE0001978184A0906FBD4144B1749C3F3072086
:101DF0000870C3F307401B0E08750B76FF2301F82C
:101E00001C3C01F8143C01F88C3C137843F040036F
:101E100013700021012302F8783C02F80C1C02F830
:101E2000883C0A4B70226FF4507C1A7063444FF464
:101E300000721A60064B10221A7008BD0080FF1F46
:101E4000348004400C2107409C20074049E400E016
:101E50000821074072B60C4A1168B1FA81F30B2BC6
:101E600002D962B6002070474FF0004020FA03F01C
:101E700021EA0001116062B6044948225343C818A0
:101E80000022CA5042607047AC84FF1FA080FF1F31
:101E90000C4B4822C31AB3FBF2F30B2B11D80A4A9E
:101EA000127822B1094A12780AB1FFF7F1BB72B673
:101EB000074A4FF0004121FA03F3116819431160FA
:101EC00062B67047A080FF1F9A8CFF1FA38CFF1F74
:101ED000AC84FF1F38B5114C23684BB10F4D2868F7
:101EE0004288811801320C7A01888A4212D30CE0B0
:101EF0000B4B1B7813B94FF0FF340CE00320FFF7B6
:101F000097FB20600028E9D1F5E7FFF7C1FF002328
:101F10002B6000E04280204638BD00BFB08CFF1F20
:101F2000A38CFF1F10B50C4C23681BB10A4B1B6818
:101F30006BB902E0094B1B7813B94FF0FF3010BDAD
:101F40000320FFF775FB20600028EFD1F5E75A88E2
:101F50009B18187A10BD00BFB08CFF1FA38CFF1F09
:101F6000044B9888044B1B681BB11A885B88D31AF2
:101F7000C01870471090FF1FB08CFF1F2DE9F84369
:101F80002D4B2E4DDFF8C08001220C461A700646FC
:101F90004BE02B682BBBDFF8A0904AF2F92798F8AA
:101FA000003013B9244A137014E00420FFF75CFBDF
:101FB000072808D8012389F80030FFF74BFF286075
:101FC00078B989F80000013F1D4B01D01A782AB179
:101FD00001221A704FF0FF30BDE8F88300F08EF850
:101FE000DDE72968164A488800231370C0F14002D3
:101FF000944238BF224600F108078018CF19488064
:10200000A41A02E0F05CF85401339342FAD1F618B6
:102010004B883F2B06D940230B800420FFF776FB2B
:1020200000232B60074B05221A70002CB1D1024B04
:1020300020461C70BDE8F883A68CFF1FA88CFF1FEC
:10204000AC8CFF1FA58CFF1FA38CFF1F07B502AB35
:10205000012103F8010D1846FFF790FF0EBDFFFFA9
:10206000F8B5114B1B78EBB1104E114B3468114D84
:1020700001271F704CB1638800272F700420238034
:102080002146FFF743FB376009E0FFF7E3FE014617
:1020900020B104202C70FFF739FB00E02F70044BB7
:1020A00000221A70F8BD00BFA38CFF1FA88CFF1F71
:1020B000A68CFF1FA58CFF1F38B50D4B1D78ADB941
:1020C0000C4C216831B14B8804200B80FFF71EFBBC
:1020D000256038BDFFF7BEFE014620B10420BDE8F3
:1020E0003840FFF713BB044B01221A7038BD00BF04
:1020F000A68CFF1FA88CFF1FA58CFF1F7047FFFF3A
:10210000F8B5164B164D1A6842F080721A60154BDE
:102110001A6842F001021A60134B2E681C680FE027
:10212000237A63B121682F680B68204698472A6894
:10213000E388D21B12099A42A28088BFE2806469B8
:10214000002CEDD1064B094A1B689B1B1B09138011
:10215000074A11888B4288BF1380F8BDFCED00E070
:10216000041000E0001000E0B88CFF1FBE8CFF1FC1
:10217000BC8CFF1F10B5084614461146FEF78AFDB9
:10218000204610BD084608B5FEF736FD012008BD03
:10219000FEF728BEFEF7DEBDFEF7F6BDFEF70CBE6D
:1021A000FEF7E4BD0846FEF70DBDFEF7DFBC4808AC
:1021B00000F1376000F5D830B0FBF1F0FEF75ABC03
:1021C000480800F1376010B500F5D830B0FBF1F0E9
:1021D0001446FEF74FFC2046BDE81040FEF798BCC1
:1021E000044B00221A711A73034A4FF47A719960F2
:1021F0001A607047C08CFF1F183D000010B50846DC
:1022000014461146FEF772FF204610BD084608B579
:10221000FEF724FF012008BDFEF7BCBFFEF772BF2A
:10222000FEF78ABFFEF7A0BFFEF778BFFEF7EABE53
:10223000480800F1376000F5D830B0FBF1F0FEF748
:102240006FBE480800F1376010B500F5D830B0FB1C
:10225000F1F01446FEF764FE2046BDE81040FEF79C
:10226000A3BEFFFF044B00221A711A73034A4FF4F6
:102270007A7199601A607047D08CFF1F503D000042
:1022800010B5084614461146FFF7CCF8204610BD9D
:10229000084608B5FFF77EF8012008BDFFF716B91C
:1022A000FFF7CCB8FFF7E4B8FFF7FAB8FFF7D2B8FA
:1022B000FFF744B8480800F1B76000F55840B0FB9C
:1022C000F1F0FEF7C9BF480800F1B76010B500F59E
:1022D0005840B0FBF1F01446FEF7BEFF2046BDE8C3
:1022E0001040FEF7FDBFFFFF044B00221A711A7366
:1022F000034A4FF47A7199601A607047E08CFF1FAF
:10230000883D00002DE9F041002407460D46264691
:102310003B190A2219792846002300F08AF82B6815
:1023200080462E211B682846984701344044032CE0
:102330000644EDD12846F9790A22002300F079F805
:102340008019BDE8F081FFFF044B054A1A600022A6
:102350001A715A719A71DA71704700BFF08CFF1FC1
:10236000C03D000008B5034B01221A60024B1B68F8
:10237000984708BD0C710340008DFF1F08B5034B43
:1023800001221A60024B5B68984708BD1C7103402C
:10239000008DFF1F08B5034B01221A60024B9B689A
:1023A000984708BD2C710340008DFF1F08B5034BF3
:1023B00001221A60024BDB68984708BD3C7103405C
:1023C000008DFF1F054B01221A60054B1A6822F48D
:1023D00000021A60034B00221A707047007003401D
:1023E0003C800440FC8CFF1F037B0122591103F049
:1023F0001F0302FA03F3084A42F8213082680023DF
:1024000013604178054A5354D15C21B90133042B40
:10241000FAD1FFF7D7BF704780E100E0F88CFF1FCB
:10242000037810B504460BB1FFF7DEFF00232370DD
:1024300010BDF0B505468BB022B90368C9B21B6860
:1024400098472CE0012A08BF0A2221B930228DF8D2
:102450002520212413E02124B1FBF2F002FB10110E
:10246000C9B2092901D8303100E037310AAF3E192D
:1024700006F8241C014610B1013CE4B2ECE733B18C
:10248000013C0AAAE4B213192D2203F8242C2B686C
:1024900001AF5B6828463919C4F1220298470BB096
:1024A000F0BD10B50446FFF7BBFF204610BDFFFF8F
:1024B00003480449044A0023037000F051BE00BFE2
:1024C000108DFF1FA32400000084FF1F0846114643
:1024D000FFF754BD0846FFF7B9BDFFF7C1BDFFF7D1
:1024E00021BDFFF7F7BCFFF73BBDFFFF044B002208
:1024F0001A711A73034A4FF47A7199601A6070471F
:10250000248DFF1FD03D0000202310B5C0F80032FD
:10251000FF23044680F8043200214FF4007201F0DA
:1025200037F9204610BDF8B50C460699002901DCA4
:10253000002701E01F460B46D0F800C2002103E04F
:102540000D01465926B101316145F9DB00240CE04B
:10255000013109D0411944518B6023684A60CF6032
:102560001B682046984700E034462046F8BD2DE918
:10257000F84306468846044600254FF003090FE05D
:1025800054F8100B80B1036854F8042C54F80C1C58
:102590001F6909FB0211434654F8082CB84701355E
:1025A000D6F800229542EBDBBDE8F8830148FFF73F
:1025B000ABBF00BF348DFF1F13B50B4942680B68DA
:1025C0000093009C8368A41A9C420AD30BB1047840
:1025D0001CB10B680193019B00E09B184360012034
:1025E00000E000201CBD00BF5C8AFF1F034B82B0CF
:1025F0001B680193019B436002B070475C8AFF1F18
:10260000002310B5044603708160FFF7EFFF2046FA
:1026100010BD08B503681B68984708BD01207047C6
:10262000704713B50368DC6800230A468DF8043050
:102630008DF805308DF8063001A9A0471CBD13B5F3
:102640000368DC6800230A468DF804308DF80530F5
:102650008DF8063001A9A0471CBD13B50368DC68DE
:1026600000230A468DF804308DF805308DF80630C9
:1026700001A9A0471CBDFFFF73B54FF4FA60FEF738
:10268000A3F9274D274B1C682B6813F001060AD1CC
:102690002846FDF7B7FF30B1234A244BD6602846C1
:1026A0001360FDF7B1FF0023214D0093204608235E
:1026B0001D49204AFFF737FF2B6813F001060AD1A6
:1026C0002846FDF79FFF30B11B4A1C4BD6602846B9
:1026D0001360FDF799FF0023194D0093204608234E
:1026E0001549184AFFF71FFF2B6813F001060AD19E
:1026F0002846FDF787FF30B1134A144BD6602846B1
:102700001360FDF781FF00230093114A0E4908234F
:102710002046FFF708FF0F4B0A2283F804227CBDF6
:102720003C8FFF1FE83D0000408FFF1FF83D000079
:10273000508FFF1F788FFF1F548FFF1F203E000018
:10274000648FFF1F908FFF1F688FFF1F483E0000A0
:10275000A88FFF1F348DFF1FF8B52348FFF72CFF0C
:10276000012840D1214B1B78ABB9194620484FF0C6
:10277000030E18274FF0FF0C26E00EFB02654419EC
:102780000132082A4155617084F802C0F5D1013345
:10279000032B08D11CE00023154819464FF0030E07
:1027A00018274FF0FF0C002207FB03F6E5E70EFBAE
:1027B000026544190132082A00F805C06170A17051
:1027C000F5D10133032B03D0002207FB03F6EEE71C
:1027D000084B186890F80412FFF7C9FE034B1A78EB
:1027E00082F001021A70F8BDD08FFF1FC08FFF1F4B
:1027F000788FFF1FE83D000008B5FFF73DFFFFF7AA
:10280000ABFFFFF77BFCFAE707200121FEF7A2B838
:1028100010B50446FFF7F8FF04236360014BA36083
:1028200010BD00BFC0F00F4010B50446FEF7AEF873
:102830002368C01A431E302B05D8C0F132035B0158
:10284000013B7FF4FDAF10BD10B50446FEF79EF8C6
:10285000206010BD2DE9F74F0323464E03FB0023F4
:1028600001933368346843F0040C24F00404424BB1
:102870003460186840F080701860404B186840F071
:10288000010018603E48002303605578036815FB7B
:1028900001F577332D121746B04665E04FF0080971
:1028A000D0F800A09A45FBD30368C6F800C0773380
:1028B00015F0800F0CBF4FF0510A4FF02B0ACAEBF6
:1028C000030A6D00D0F800B0D345FBD3B9F101097C
:1028D000C8F80040E4D192F8009019FB01F94FEAE2
:1028E00029290825D0F800A09A45FBD30368C6F82B
:1028F00000C0773319F0800F0CBF4FF0510A4FF032
:102900002B0ACAEB030A4FEA4909D0F800B0D345B5
:10291000FBD3013DC8F80040E4D192F8029019FBC6
:1029200001F94FEA292903370825D0F800A09A4574
:10293000FBD30368C6F800C0773319F0800F0CBFD3
:102940004FF0510A4FF02B0ACAEB030A4FEA49092C
:10295000D0F800B0D345FBD3013DC8F80040E4D126
:10296000557815FB01F52D12DDF804904F4595D3F0
:10297000BDE8FE8FC0F00F40FCED00E0001000E06D
:10298000041000E0F8B500F10C0528460E46144688
:102990001F46FFF749FF72B6204639463246FFF719
:1029A00059FF094B4FF46E714C4360211A6894FB38
:1029B000F1F44FF47A7194FBF1F4A4181C6062B640
:1029C0002846FFF741FFF8BD5C8AFF1F2DE9F04F55
:1029D000434F444B4FF0030808FB002838683D681C
:1029E00025F004053D601C6844F080741C603E4B7B
:1029F0001C6844F001041C603C4C002323605678A2
:102A0000236816FB01F640F0040077333612BC460B
:102A100062E04FF00809D4F800A09A45FBD3236880
:102A20003860773316F0800F0CBF4FF0510A4FF02B
:102A30002B0ACAEB030A7600D4F800B0D345FBD3C7
:102A4000B9F10109CCF80050E5D192F8009019FBDA
:102A500001F94FEA29290826D4F800A09A45FBD3AA
:102A600023683860773319F0800F0CBF4FF0510A9C
:102A70004FF02B0ACAEB030A4FEA4909D4F800B019
:102A8000D345FBD3013ECCF80050E5D192F802903B
:102A900019FB01F94FEA292903320826D4F800A0CE
:102AA0009A45FBD323683860773319F0800F0CBF49
:102AB0004FF0510A4FF02B0ACAEB030A4FEA4909BB
:102AC000D4F800B0D345FBD3013ECCF80050E5D19B
:102AD000567816FB01F6361242459AD3BDE8F08FC0
:102AE000C0F00F40FCED00E0001000E0041000E03A
:102AF000F8B500F10C0528460E4614461F46FFF7B0
:102B000093FE72B6204639463246FFF75FFF094B07
:102B10004FF46E714C4360211A6894FBF1F44FF44A
:102B20007A7194FBF1F4A4181C6062B62846FFF792
:102B30008BFEF8BD5C8AFF1F06200121FDF70ABF4E
:102B400010B50446FFF7F8FF10236360014BA36044
:102B500010BD00BFC0F00F402DE9F74F0323464ED4
:102B600003FB002301933368346843F0100C24F016
:102B70001004424B3460186840F080701860404B7D
:102B8000186840F0010018603E4800230360557843
:102B9000036815FB01F577332D121746B04665E043
:102BA0004FF00809D0F800A09A45FBD30368C6F897
:102BB00000C0773315F0800F0CBF4FF0510A4FF073
:102BC0002B0ACAEB030A6D00D0F800B0D345FBD343
:102BD000B9F10109C8F80040E4D192F8009019FB5E
:102BE00001F94FEA29290825D0F800A09A45FBD31E
:102BF0000368C6F800C0773319F0800F0CBF4FF0A0
:102C0000510A4FF02B0ACAEB030A4FEA4909D0F8E0
:102C100000B0D345FBD3013DC8F80040E4D192F8A1
:102C2000029019FB01F94FEA292903370825D0F84A
:102C300000A09A45FBD30368C6F800C0773319F0AB
:102C4000800F0CBF4FF0510A4FF02B0ACAEB030A5A
:102C50004FEA4909D0F800B0D345FBD3013DC8F88D
:102C60000040E4D1557815FB01F52D12DDF80490F4
:102C70004F4595D3BDE8FE8FC0F00F40FCED00E05E
:102C8000001000E0041000E0F8B500F10C05284643
:102C90000E4614461F46FFF7C7FD72B6204639465A
:102CA0003246FFF759FF094B4FF46E714C436021D8
:102CB0001A6894FBF1F44FF47A7194FBF1F4A418C0
:102CC0001C6062B62846FFF7BFFDF8BD5C8AFF1F97
:102CD0002DE9F04F434F444B4FF0030808FB002809
:102CE00038683D6825F010053D601C6844F080742C
:102CF0001C603E4B1C6844F001041C603C4C0023EB
:102D000023605678236816FB01F640F010007733F5
:102D10003612BC4662E04FF00809D4F800A09A458C
:102D2000FBD323683860773316F0800F0CBF4FF069
:102D3000510A4FF02B0ACAEB030A7600D4F800B010
:102D4000D345FBD3B9F10109CCF80050E5D192F895
:102D5000009019FB01F94FEA29290826D4F800A0B0
:102D60009A45FBD323683860773319F0800F0CBF86
:102D70004FF0510A4FF02B0ACAEB030A4FEA4909F8
:102D8000D4F800B0D345FBD3013ECCF80050E5D1D8
:102D900092F8029019FB01F94FEA2929033208261B
:102DA000D4F800A09A45FBD323683860773319F034
:102DB000800F0CBF4FF0510A4FF02B0ACAEB030AE9
:102DC0004FEA4909D4F800B0D345FBD3013ECCF813
:102DD0000050E5D1567816FB01F6361242459AD3DB
:102DE000BDE8F08FC0F00F40FCED00E0001000E007
:102DF000041000E0F8B500F10C0528460E46144614
:102E00001F46FFF711FD72B6204639463246FFF7DE
:102E10005FFF094B4FF46E714C4360211A6894FBBD
:102E2000F1F44FF47A7194FBF1F4A4181C6062B6CB
:102E30002846FFF709FDF8BD5C8AFF1F0520012128
:102E4000FDF788BD10B50446FFF7F8FF80236360E7
:102E5000014BA36010BD00BFC0F00F402DE9F74F3C
:102E60000323464E03FB002301933368346843F089
:102E7000800C24F08004424B3460186840F080706D
:102E80001860404B186840F0010018603E4800236D
:102E900003605578036815FB01F577332D1217464B
:102EA000B04665E04FF00809D0F800A09A45FBD382
:102EB0000368C6F800C0773315F0800F0CBF4FF0E1
:102EC000510A4FF02B0ACAEB030A6D00D0F800B08C
:102ED000D345FBD3B9F10109C8F80040E4D192F819
:102EE000009019FB01F94FEA29290825D0F800A024
:102EF0009A45FBD30368C6F800C0773319F0800FFA
:102F00000CBF4FF0510A4FF02B0ACAEB030A4FEAED
:102F10004909D0F800B0D345FBD3013DC8F80040C3
:102F2000E4D192F8029019FB01F94FEA29290337FD
:102F30000825D0F800A09A45FBD30368C6F800C066
:102F4000773319F0800F0CBF4FF0510A4FF02B0A66
:102F5000CAEB030A4FEA4909D0F800B0D345FBD3C6
:102F6000013DC8F80040E4D1557815FB01F52D125C
:102F7000DDF804904F4595D3BDE8FE8FC0F00F40BB
:102F8000FCED00E0001000E0041000E0F8B500F1F6
:102F90000C0528460E4614461F46FFF745FC72B640
:102FA000204639463246FFF759FF094B4FF46E7100
:102FB0004C4360211A6894FBF1F44FF47A7194FB4E
:102FC000F1F4A4181C6062B62846FFF73DFCF8BD7A
:102FD0005C8AFF1F2DE9F04F434F444B4FF003082D
:102FE00008FB002838683D6825F080053D601C68B6
:102FF00044F080741C603E4B1C6844F001041C606B
:103000003C4C002323605678236816FB01F640F001
:10301000800077333612BC4662E04FF00809D4F8DE
:1030200000A09A45FBD323683860773316F0800FF1
:103030000CBF4FF0510A4FF02B0ACAEB030A76007F
:10304000D4F800B0D345FBD3B9F10109CCF8005056
:10305000E5D192F8009019FB01F94FEA29290826D9
:10306000D4F800A09A45FBD323683860773319F071
:10307000800F0CBF4FF0510A4FF02B0ACAEB030A26
:103080004FEA4909D4F800B0D345FBD3013ECCF850
:103090000050E5D192F8029019FB01F94FEA292975
:1030A00003320826D4F800A09A45FBD32368386081
:1030B000773319F0800F0CBF4FF0510A4FF02B0AF5
:1030C000CAEB030A4FEA4909D4F800B0D345FBD351
:1030D000013ECCF80050E5D1567816FB01F63612C9
:1030E00042459AD3BDE8F08FC0F00F40FCED00E000
:1030F000001000E0041000E0F8B500F10C052846CF
:103100000E4614461F46FFF78FFB72B6204639461F
:103110003246FFF75FFF094B4FF46E714C4360215D
:103120001A6894FBF1F44FF47A7194FBF1F4A4184B
:103130001C6062B62846FFF787FBF8BD5C8AFF1F5C
:1031400008B54FF4FA710448FFF75AFA03480A2108
:10315000BDE80840FFF754BAC48FFF1FD08FFF1F90
:1031600003460846194600F001B800BF30B40546D2
:103170000C46134602202946224630BC00F086BB8E
:1031800070B543F6DC6643F6DC65C0F20006C0F2BB
:103190000005761BB61007D0043D002455F8043F07
:1031A00001349847A642F9D143F6007643F6DC6530
:1031B000C0F20006C0F20005761B00F089FEB610D2
:1031C00008D0043D002455F8043F01349847A64236
:1031D000F9D170BD70BD00BF48F2B0430146C1F6E1
:1031E000FF73186800F008B848F2B0430146C1F612
:1031F000FF73186800F00CBC2DE9F04F01F10B04CF
:10320000162C83B0074630D924F00704E30F8C4214
:103210002CBF194643F0010100292FD1384600F098
:103220001DFBB4F5FC7F2ED24FEAD40C48F2A45615
:10323000C1F6FF7606EBCC02D368934200F0118210
:10324000596803F10808DA68384621F003049968E0
:103250001B195C68CA6044F0010491605C6000F076
:10326000FFFA404603B0BDE8F08F002310248C42E3
:103270002CBF194643F001010029CFD00C234FF099
:1032800000083B60EDE75FEA542C04BF4FEAD40C22
:103290004FEA4C0540F08F8048F2A456C1F6FF7605
:1032A00006EB8505EB689D4206D10DE0002A80F211
:1032B0005581DB689D4207D0596821F003010A1B44
:1032C0000F2AF3DD0CF1FF3C0CF1010C48F2A45283
:1032D0003369C1F6FF7202F1080E734508BFD2F8D8
:1032E000049022D0586820F00300011B0F2900F33E
:1032F00084810029C2F814E0C2F810E066DAB0F563
:10330000007F80F04E81C1084FF0010802EBC10040
:10331000891008FA01F851688568D86048EA0109FF
:10332000C2F804909D60EB60836001224FEAAC0319
:1033300002FA03F34B4554D819EA030F0DD1934019
:103340002CF0030C19EA030F0CF1040C05D15B00FF
:103350000CF1040C19EA030FF9D006EBCC09E04696
:103360004846C268904207D15BE1002980F2838120
:10337000D268904200F05581556825F00305291B5D
:103380000F29F2DD90461319D56844F0010058F872
:10339000084F41F0010C50603846C3F804C0E560A6
:1033A000AC6073613361C3F80CE0C3F808E05950B6
:1033B00000F056FA55E7BCF1040F00F2DE804FEA48
:1033C000941C0CF1380C4FEA4C0565E71A1803F110
:1033D00008083846536843F00103536000F040FA90
:1033E0003FE7B5686B6823F0030A544504D8C4EB83
:1033F0000A030F2B00F3A48048F6DC79D6F80814F2
:10340000C1F6FF7905EB0A020131D9F800302344F7
:1034100008BF03F1100B06D003F580530F3323F4DC
:103420007F6323F00F0B38465946019200F01AFAD9
:10343000019A411C804600F06881824200F231818D
:10344000D9F8043042455B44C9F8043000F0668185
:10345000D6F8081448F2A450C1F6FF70013117BF26
:10346000C2EB0802C0F808849B18C9F8043018F0B1
:10347000070338461FBFC3F10802C3F580539044C9
:1034800003F1080208EB0B0308BF4FF480521B0541
:103490001B0DC3EB020B594600F0E4F9431C00F08E
:1034A0004981C8EB0001594441F00101D9F80430C9
:1034B000B54248F6DC72C6F808805B44C1F6FF727C
:1034C000C8F80410C9F8043018D0BAF10F0F40F250
:1034D0000B81AAF10C00696820F007004FF0050C81
:1034E00005EB000E0F2801F0010140EA01016960BF
:1034F000CEF804C0CEF808C000F2208148F6DC7295
:10350000D9F82C10C1F6FF72B5688B42D9F830108B
:1035100088BFD36248F6DC72C1F6FF728B4288BF67
:1035200013636A6822F003029442C4EB020301D8D9
:103530000F2B05DC38464FF0000800F091F990E6BB
:103540002A1943F0010344F0010438466C6005F188
:1035500008085360B26000F083F982E65918DA680F
:103560009C6838464D6803F1080845F00105E260A3
:1035700094604D6000F074F973E6BCF1140F9CBFC9
:103580000CF15B0C4FEA4C057FF686AEBCF1540F94
:1035900000F293804FEA143C0CF16E0C4FEA4C059C
:1035A0007AE6420A042A75D9142A9CBF02F15B0903
:1035B0004FEA490508D9542A00F2C9804FEA103968
:1035C00009F16E094FEA490506EB850548F2A45852
:1035D000C1F6FF78AA68AA4279D0516821F00301A8
:1035E000884202D292689542F7D1D068D6F804900A
:1035F000D8609A60D360836097E61D1941F0010698
:10360000556144F00104156138465C6003F1080817
:10361000C5F80CE0C5F808E06E60695000F020F9CC
:103620001FE608F10108083018F0030F7FF499AE87
:103630004A461CF0030FA2F108010CF1FF3C00F018
:103640009E8012688A42F4D072685B0093423FF613
:10365000C8AE002B3FF4C5AE1A4200F09580C446B8
:103660007BE603F108025B699A4208BF0CF1020C89
:103670003FF42CAEE4E590465519D368384658F827
:10368000082F6968D36041F001019A60696000F019
:10369000E7F8E6E54FEA901909F138094FEA4905DC
:1036A00092E7B54248F2A453C1F6FF733FF4C8AEA7
:1036B0009D686A6822F0030236E7BCF5AA7F19D834
:1036C0004FEAD43C0CF1770C4FEA4C05E4E50125B8
:1036D000D8F804104FEAA909104605FA09F545EA99
:1036E0000109C8F8049083E701234546C8F804306F
:1036F000002219E740F254539C450BD84FEA944CF2
:103700000CF17C0C4FEA4C05C6E5B5686A6822F0FE
:10371000030209E7FC254FF07E0CBDE51105090DFC
:1037200000297FF495AEB2680BEB0A0141F001016C
:103730005160E3E601214FF0000BB7E6384605F192
:103740000801019200F064F9019A5368D6E6B2F5D7
:10375000AA7F06D84FEAD03909F177094FEA49051F
:1037600032E740F25451FC258A424FF07E099EBF59
:103770004FEA904909F17C094FEA490524E772684C
:1037800022EA0302726060E75B0008F1040863E765
:10379000032AC9B270B408D82AB10346121803F834
:1037A000011B9342FBD170BC70478307024409D0D0
:1037B000441C04F00305234604F8011C0134002DC9
:1037C000F7D100E00346D51A01EB01243F2D04EBAD
:1037D00004442CDD1C604033D51A43F83C4C3F2D8B
:1037E00043F8384C43F8344C43F8304C43F82C4CF5
:1037F00043F8284C43F8244C43F8204C43F81C4C25
:1038000043F8184C43F8144C43F8104C43F80C4C54
:1038100043F8084C43F8044CDCDC08E01C6010332F
:10382000D51A43F80C4C43F8084C43F8044C0F2DC0
:10383000F4DC032D08DD1D1D561B45F8044C032E3A
:103840002B4605F10405F7DC9A42ACD9013301326D
:1038500003F8011C01339342FAD1A4E7704700BF7B
:10386000704700BF38B549F22004C1F6FF74054621
:10387000084600232360FCF7BDFE431C00D038BD82
:103880002368002BFBD02B6038BD00BF2DE9F04131
:1038900043F66864C0F2000484B007462568AC6C47
:1038A000002C42D066681F2E1ADD43F2D914C0F2F4
:1038B000000424B94FF0FF3004B0BDE8F0818C2043
:1038C000039102920193FFF787FC0399029A019BEF
:1038D00004460028EED0A86C002684E84100AC64C1
:1038E000DFB1D4F8886026B3D6F80081656801207E
:1038F000022F05F1200C00FA05F046F8252048EAD1
:10390000000246F82C3008BFD6F80431C6F8002172
:1039100004BF1843C6F8040100E06568AB1C002032
:103920000135656044F82310C6E705F14C04AC642A
:10393000B8E743F2D910C0F200000028BAD04FF423
:103940008470039102920193FFF746FC0399029A57
:10395000019B06460028ADD00020C6F80001C6F83D
:1039600004018046C4F88860C0E700BFF8B548F29B
:10397000A454C1F6FF740F460546FFF76FFFA36816
:103980005E6826F0030606F6EF73DF1B3F0B013F70
:103990003F03B7F5805F07DB00212846FFF762FF92
:1039A000A3689B19984204D02846FFF759FF0020CE
:1039B000F8BD79422846FFF755FF013010D048F690
:1039C000E073A168C1F6FF73F61B284646F00106B6
:1039D0001A684E60D71B1F60FFF742FF0120F8BD39
:1039E00000212846FFF73EFFA368C21A0F2ADBDD3D
:1039F00048F6AC1448F6E071C1F6FF74C1F6FF71E9
:103A000042F001025A602368C01A0860CCE700BF88
:103A10002DE9F0410E46804600295CD0FFF71EFFDD
:103A200048F2A45556F8041CC1F6FF75A6F1080427
:103A300021F00103AF68E2189742506820F00300BC
:103A400067D011F00101506035D00021161876685A
:103A500016F0010F06D11B18906800294DD0D268CE
:103A6000C260906043F00102E3506260F1B9B3F5C7
:103A7000007F32D35A0A042A6CD8980938304100A2
:103A800005EB810548F2A451C1F6FF71AA68AA426C
:103A90006BD0516821F003018B4202D292689542AB
:103AA000F7D1D368E360A260D4609C604046BDE873
:103AB000F041FFF7D5BE56F8086C05F1080CA41BC1
:103AC0009B19A668664543D0D4F80CC0C6F80CC054
:103AD000CCF80860BAE7BDE8F081DB08012168682E
:103AE00005EBC3029B1001FA03F3E26091681843EF
:103AF0006860A160CC609460D8E7294EB042AED136
:103B00006C6143F001022C61E060A0606260E350F0
:103B1000CCE7C018CB0707D456F8083CE41AC01805
:103B2000A268E368D3609A6048F6B01240F00103DF
:103B3000C1F6FF726360AC6013689842B6D348F672
:103B4000DC734046C1F6FF731968FFF70FFFADE75E
:103B500001217BE702F15B004100142A90D9542A2D
:103B60000CD8180B6E3041008AE701264D68801092
:103B7000134606FA00F005434D6093E7B2F5AA7FBD
:103B800003D8D80B773041007AE740F254518A428B
:103B900003D8980C7C30410072E7FC217E206FE74F
:103BA000AC85FF1F4008FE4340A004404408FE438C
:103BB00044A004400018FE4300C004403000FE430F
:103BC000309004403400FE43349004401C18FE43FF
:103BD0001CC004401018FE4310C004400818FE43E7
:103BE00008C004400C18FE430CC004400C10FE43F7
:103BF0000CB004401010FE4310B004401810FE43F7
:103C000018B004401C10FE431CB004401410FE43C6
:103C100014B004400418FE4304C004400010FE43E6
:103C200000B004400008FE4300A004400408FE4326
:103C300004A004400C08FE430CA004400808FE4306
:103C400008A004401418FE4314C004401818FE4392
:103C500018C004400410FE4304B004400810FE43A2
:103C600008B004401400FE43149004404C08FE4386
:103C70004CA004400420FE4304D004402410FE4322
:103C800024B004402010FE4320B004402810FE431E
:103C900028B004402C10FE432CB004400020FE430A
:103CA00000D004404808FE4348A004401000FE43F2
:103CB0001090044000151915000100000C84FF1F2E
:103CC00012000000000200003684FF1F43000000C5
:103CD000000300009084FF1F00000000010309049E
:103CE0001E84FF1F00000000020309047A84FF1FE6
:103CF00000000000030309049484FF1F000000007B
:103D0000000000000000000000000000FFFFFFFFB7
:103D10000000000000000000852100007521000067
:103D2000A1210000992100009D21000095210000A3
:103D3000AF210000C1210000AB210000A52100003F
:103D400091210000000000000000000000000000C1
:103D50000D220000FD210000292200002122000088
:103D6000252200001D220000312200004322000015
:103D70002D220000A52100001922000000000000F3
:103D800000000000000000009122000081220000DD
:103D9000AD220000A5220000A9220000A1220000FF
:103DA000B5220000C7220000B1220000A5210000BA
:103DB0009D22000000000000000000000000000044
:103DC00005230000000000000000000000000000CB
:103DD000D5240000CD240000E7240000E3240000E7
:103DE000DF240000DB240000348DFF1FFFFFFFFFF6
:103DF0000000000000000000452E00001326000017
:103E00005B2600008D2F0000F93000001D26000009
:103E1000212600000000000000000000000000005B
:103E2000412B0000132600003F260000892C0000D3
:103E3000F52D00001D2600002126000000000000D6
:103E40000000000000000000112800001326000000
:103E50002326000085290000F12A00001D2600000D
:103E60002126000000000000B484FF1F4300000072
:103E70000000000000000000000000000000000042
:103E80000000000000000000000000000000000032
:103E90000000000000000000000000000000000022
:103EA0000000000000000000000000000000000012
:103EB0000000000000000000000000000000000002
:103EC00000000000000000000000000000000000F2
:103ED000F8B500BFF8BC08BC9E46704799040000C6
:103EE000E121000065220000E922000049230000D2
:103EF000B1240000ED240000AD2500004131000098
:083F000060F2FF7F01000000E8
:103F0800000000000A0400002490FF1F12010002B4
:103F180002000040C01683040001010203011803D7
:103F28005400650065006E00730079006400750038
:103F380069006E006F0009024300020100C03209E7
:103F480004000001020201000524001001052401FB
:103F58000101042402060524060001070582031056
:103F6800004009040100020A00000007050302409E
:103F780000000705840240000000160355005300A6
:103F880042002000530065007200690061006C0067
:103F9800040309040C0300000000000000000000F6
:103FA800000000000000000000000000FFFFFFFF0D
:103FB800B484FF1F00000000B03E0000903E0000E7
:103FC800703E00000000000000000000000000003B
:103FD800000000006C3E000000000000000000002F
:103FE80000000000000000000000000000000000C9
:103FF80000000000000000000000000000000000B9
:1040080000000000000000000000000000000000A8
:104018000000000000000000000000000000000098
:104028000000000000000000000000000000000088
:104038000000000000000000000000000000000078
:104048000000000000000000000000000000000068
:104058000000000000000000000000000000000058
:104068000000000000000000000000000000000048
:104078000000000000000000000000000000000038
:104088000000000000000000000000000000000028
:104098000000000000000000000000000000000018
:1040A800000000000000000000000000A485FF1FC1
:1040B800A485FF1FAC85FF1FAC85FF1FB485FF1FBC
:1040C800B485FF1FBC85FF1FBC85FF1FC485FF1F6C
:1040D800C485FF1FCC85FF1FCC85FF1FD485FF1F1C
:1040E800D485FF1FDC85FF1FDC85FF1FE485FF1FCC
:1040F800E485FF1FEC85FF1FEC85FF1FF485FF1F7C
:10410800F485FF1FFC85FF1FFC85FF1F0486FF1F2A
:104118000486FF1F0C86FF1F0C86FF1F1486FF1FD7
:104128001486FF1F1C86FF1F1C86FF1F2486FF1F87
:104138002486FF1F2C86FF1F2C86FF1F3486FF1F37
:104148003486FF1F3C86FF1F3C86FF1F4486FF1FE7
:104158004486FF1F4C86FF1F4C86FF1F5486FF1F97
:104168005486FF1F5C86FF1F5C86FF1F6486FF1F47
:104178006486FF1F6C86FF1F6C86FF1F7486FF1FF7
:104188007486FF1F7C86FF1F7C86FF1F8486FF1FA7
:104198008486FF1F8C86FF1F8C86FF1F9486FF1F57
:1041A8009486FF1F9C86FF1F9C86FF1FA486FF1F07
:1041B800A486FF1FAC86FF1FAC86FF1FB486FF1FB7
:1041C800B486FF1FBC86FF1FBC86FF1FC486FF1F67
:1041D800C486FF1FCC86FF1FCC86FF1FD486FF1F17
:1041E800D486FF1FDC86FF1FDC86FF1FE486FF1FC7
:1041F800E486FF1FEC86FF1FEC86FF1FF486FF1F77
:10420800F486FF1FFC86FF1FFC86FF1F0487FF1F25
:104218000487FF1F0C87FF1F0C87FF1F1487FF1FD2
:104228001487FF1F1C87FF1F1C87FF1F2487FF1F82
:104238002487FF1F2C87FF1F2C87FF1F3487FF1F32
:104248003487FF1F3C87FF1F3C87FF1F4487FF1FE2
:104258004487FF1F4C87FF1F4C87FF1F5487FF1F92
:104268005487FF1F5C87FF1F5C87FF1F6487FF1F42
:104278006487FF1F6C87FF1F6C87FF1F7487FF1FF2
:104288007487FF1F7C87FF1F7C87FF1F8487FF1FA2
:104298008487FF1F8C87FF1F8C87FF1F9487FF1F52
:1042A8009487FF1F9C87FF1F9C87FF1FA487FF1F02
:1042B800A487FF1FAC87FF1FAC87FF1FB487FF1FB2
:1042C800B487FF1FBC87FF1FBC87FF1FC487FF1F62
:1042D800C487FF1FCC87FF1FCC87FF1FD487FF1F12
:1042E800D487FF1FDC87FF1FDC87FF1FE487FF1FC2
:1042F800E487FF1FEC87FF1FEC87FF1FF487FF1F72
:10430800F487FF1FFC87FF1FFC87FF1F0488FF1F20
:104318000488FF1F0C88FF1F0C88FF1F1488FF1FCD
:104328001488FF1F1C88FF1F1C88FF1F2488FF1F7D
:104338002488FF1F2C88FF1F2C88FF1F3488FF1F2D
:104348003488FF1F3C88FF1F3C88FF1F4488FF1FDD
:104358004488FF1F4C88FF1F4C88FF1F5488FF1F8D
:104368005488FF1F5C88FF1F5C88FF1F6488FF1F3D
:104378006488FF1F6C88FF1F6C88FF1F7488FF1FED
:104388007488FF1F7C88FF1F7C88FF1F8488FF1F9D
:104398008488FF1F8C88FF1F8C88FF1F9488FF1F4D
:1043A8009488FF1F9C88FF1F9C88FF1FA488FF1FFD
:1043B800A488FF1FAC88FF1FAC88FF1FB488FF1FAD
:1043C800B488FF1FBC88FF1FBC88FF1FC488FF1F5D
:1043D800C488FF1FCC88FF1FCC88FF1FD488FF1F0D
:1043E800D488FF1FDC88FF1FDC88FF1FE488FF1FBD
:1043F800E488FF1FEC88FF1FEC88FF1FF488FF1F6D
:10440800F488FF1FFC88FF1FFC88FF1F0489FF1F1B
:104418000489FF1F0C89FF1F0C89FF1F1489FF1FC8
:104428001489FF1F1C89FF1F1C89FF1F2489FF1F78
:104438002489FF1F2C89FF1F2C89FF1F3489FF1F28
:104448003489FF1F3C89FF1F3C89FF1F4489FF1FD8
:104458004489FF1F4C89FF1F4C89FF1F5489FF1F88
:104468005489FF1F5C89FF1F5C89FF1F6489FF1F38
:104478006489FF1F6C89FF1F6C89FF1F7489FF1FE8
:104488007489FF1F7C89FF1F7C89FF1F8489FF1F98
:104498008489FF1F8C89FF1F8C89FF1F9489FF1F48
:1044A8009489FF1F9C89FF1F9C89FF1FFFFFFFFF47
:0444B80000000200FE
:00000001FF
