:1000000000800020BD010000B1070000B107000022
:10001000B1070000B1070000B10700007D07000034
:100020007D0700007D0700007D070000B10700008C
:10003000B10700007D070000B10700006D07000058
:10004000B1070000B1070000B1070000B1070000D0
:10005000B1070000B1070000B1070000B1070000C0
:10006000B1070000B1070000B1070000B1070000B0
:10007000B1070000B1070000B1070000B1070000A0
:10008000B1070000B1070000B1070000B107000090
:10009000B1070000B1070000B1070000B107000080
:1000A000E92E0000B1070000B1070000B107000011
:1000B000B1070000B1070000B1070000B107000060
:1000C000B1070000B1070000B1070000B107000050
:1000D000B1070000B1070000B1070000B107000040
:1000E000B1070000B1070000B1070000B107000030
:1000F000B1070000C5100000B1070000491400005E
:10010000B107000081170000B1070000B10700002F
:10011000B1070000B1070000B1070000B1070000FF
:10012000B1070000B1070000B1070000B1070000EF
:10013000B1070000B1070000B1070000B1070000DF
:10014000B1070000B1070000B1070000B1070000CF
:10015000052600001D260000352600004D26000063
:10016000B10700002D1A0000B1070000B107000020
:10017000B1070000B1070000B1070000B10700009F
:10018000B1070000B1070000B1070000B10700008F
:10019000B1070000B1070000B107000035090000F9
:1001A000850900000D0A0000C90A00004D0B00007F
:1001B000B1070000B1070000A12300004E4B4CF234
:1001C000205210B51A804DF628121A8000BF00BFC9
:1001D00000F0F2FA494B4FF010621A60484A9A60F8
:1001E000484ADA60484B1A6812F4807204D14749D1
:1001F0000A604FF4A8521A60454B1A7802F00802C0
:10020000D2B21AB11A7842F008021A700023414A99
:100210004148424C02E019599950043399188142DF
:10022000F9D33F4B3F4A002101E043F8041B9342BE
:10023000FBD33D4B00221A603C4B3D4A802103F822
:10024000011B9342FBD13B4B0A221A703A4B2422EA
:100250001A70A02203F8012C384A137803F0020325
:10026000DBB2002BF9D0354A137803F01003DBB270
:10027000002BF9D1314A137803F00C03082BFAD183
:100280002F4B03221A7040225A702C4A137803F025
:100290002003DBB2002BF9D0284A137803F0400387
:1002A000DBB2002BF9D0274A274B1A60274B2022BC
:1002B0001A70224A137803F00C030C2BFAD1244B4A
:1002C00002221A60234A43F8442C234B234A1A6023
:1002D000072243F8042C62B600F0DCFC0B4B1B68D1
:1002E000DC0702D51E4800F049FC06F02BFB00F0AD
:1002F00069FA04F0DBFBFEE70E2005403080044085
:10030000823F04000100002B10D0034014D00340B2
:1003100002D007400084FF1FBC89FF1F2884000013
:10032000BC89FF1F389EFF1F08ED00E000E400E0DD
:100330005FE400E0005006400140064006400640F1
:100340000440064000000301448004400040064091
:1003500048800440C010050014E000E0FF76010072
:10036000BC8C6453FFFFFFFFFFFFFFFFFFFFFFFF9A
:10037000FFFFFFFFFFFFFFFFFFFFFFFFFFFFFFFF8D
:10038000FFFFFFFFFFFFFFFFFFFFFFFFFFFFFFFF7D
:10039000FFFFFFFFFFFFFFFFFFFFFFFFFFFFFFFF6D
:1003A000FFFFFFFFFFFFFFFFFFFFFFFFFFFFFFFF5D
:1003B000FFFFFFFFFFFFFFFFFFFFFFFFFFFFFFFF4D
:1003C000FFFFFFFFFFFFFFFFFFFFFFFFFFFFFFFF3D
:1003D000FFFFFFFFFFFFFFFFFFFFFFFFFFFFFFFF2D
:1003E000FFFFFFFFFFFFFFFFFFFFFFFFFFFFFFFF1D
:1003F000FFFFFFFFFFFFFFFFFFFFFFFFFFFFFFFF0D
:10040000FFFFFFFFFFFFFFFFFFFFFFFFFEFFFFFFFD
:1004100008B548F6BC10074BC1F6FF701B1A062B37
:1004200000D808BD40F20003C0F20003002BF8D052
:100430009847F6E7BF89FF1F08B548F6BC1048F695
:10044000BC13C1F6FF70C1F6FF731B1A9B1003EBC0
:10045000D373591000D108BD40F20002C0F200026F
:10046000002AF8D09047F6E710B548F6BC14C1F65C
:10047000FF74237873B9FFF7CBFF40F20003C0F29B
:1004800000032BB148F22840C0F20000AFF3008017
:100490000123237010BD00BF08B540F20003C0F275
:1004A00000034BB148F2284048F6C011C0F20000EA
:1004B000C1F6FF71AFF3008048F6BC10C1F6FF70C3
:1004C00003682BB140F20003C0F2000303B1984768
:1004D000BDE80840FFF7B0BFF0B5304830490368C9
:1004E0001B06FCD40B6813F08002F8D172B62D4BBA
:1004F0001978002950D02C4908684F688E68CD685B
:100500000C6938181431801909684019001940180D
:10051000C0F34E00254940F400400860C86A0F6BE4
:100520004E6B8D6BCC6B38184031801909684019BF
:1005300000194018C0F34E001D4940F40040086007
:1005400001F10811143151F8140C51F8107C51F8D4
:100550000C6C51F8085C51F8044C09683818801983
:10056000401900194018C0F34E00124940F40040F1
:100570000860C86A0F6B4E6B8D6BCC6B38184031BE
:1005800080190968401900194018C0F34E000A4943
:1005900040F4004008601A7062B6F0BD24B0034019
:1005A00024B00B40D989FF1F38B003402CB0034062
:1005B00030B003402CB00B4030B00B40224B6022D7
:1005C0001A70E1225A70214B214A1978214B0829CF
:1005D00001D1012102E00A2907D13921116013223A
:1005E0001A601D4B19605A600BE00C291A4901D1A1
:1005F000352000E03D20106012221A60174B086081
:100600001A60174B17491B78174A03B101230B6077
:100610001360164B164A1978164B012901D8802110
:100620000CE0042901D8842108E0082901D885219B
:1006300004E0102901D8862100E0872111601960AB
:100640000D4B01221A707047004007400484FF1FC1
:1006500008B003400CB0034008B00B400CB00B4096
:10066000DC89FF1F20B0034020B00B400584FF1F32
:1006700024B0034024B00B40D989FF1F0D282DE979
:10068000F0410FD9172801D80E380AE0A0F11A035B
:10069000052B01D8093804E0A0F12203062B4DD820
:1006A0001838C0B2274B1C5C274B1B780BB1FFF7E7
:1006B00013FF72B6200614D4244D254E01272C605A
:1006C000377062B672B62B68190603D5214B1868CD
:1006D0001F4B23E03378002BF1D062B601F05EFEB1
:1006E000F0E704F040071C4D1C4EFFB204F03F043D
:1006F0004FF001081A4B1A6817B122F0100201E0FE
:1007000042F010021A602C6086F8008062B672B661
:100710002B681A060BD5134B1868104B00221A7061
:1007200062B6114B1B7840FA03F0BDE8F0813378D4
:10073000002BDFD062B601F031FEE8E70020BDE813
:10074000F08100BFA87A0000D989FF1F00B00340E4
:10075000DB89FF1F10B0034000B00B40DA89FF1F98
:100760000CB00B4010B00B40D889FF1F024B1A6829
:1007700001321A60704700BF688AFF1F38B50B4C02
:1007800025462368580301D501F050F92B68590517
:1007900001D500F097FC2B681A0501D500F054FE36
:1007A0002368DB04EDD500F0EBFFEAE7348004407A
:1007B00008B5FFF7E3FFFFFF014B10221A807047D7
:1007C000002005407047FFFF024A136818181060A8
:1007D000184670470884FF1F012070477047FFFFCD
:1007E000EFF313839BB9EFF3108098B9EFF3058310
:1007F00023B10F2B04D9084A985C01E04FF48070B4
:10080000EFF311833BB1984228BF184670474FF071
:10081000FF30704718467047F0E300E0002300E027
:100820000133C25C002AFBD11846704710B5002383
:10083000B0FBF2F402FB1400092801D8303000E0CC
:100840003730C85420460CB10133F1E7CA18547050
:10085000224605E0885CCC5C8C54C8540132013BD4
:100860009A42F7DB084610BD031E10B50C4603DBA9
:10087000BDE81040FFF7DABF2D2001F8010B584208
:10088000FFF7D4FF204610BD084B4FF400021A605A
:100890004FF080721A604FF000721A604FF0806261
:1008A0001A604FF000621A60704700BF08E100E074
:1008B000212830B521D8042A1FD8DFE802F0070923
:1008C000050B03000B2306E00A2304E0082302E0E3
:1008D0000C2300E00923094A02EBC002526872B6F9
:1008E0001468074D24F47024146044F0807444EAC2
:1008F000034345F82010136062B630BDC07A000093
:10090000E089FF1F094B03EBC0035B6872B61A68EE
:1009100022F0877222F4803242F080721A60044B17
:10092000002243F8202062B6704700BFC07A000062
:10093000E089FF1F114B10B51C68E0041C6004D552
:100940000F4BDA680AB1DB689847A10404D50C4B59
:100950001A690AB11B699847A20604D5084B1A6E9A
:100960000AB11B6E9847E30606D5054BD3F88420E1
:1009700012B1D3F88430984710BD00BFA090044056
:10098000E089FF1F1F4B10B51C68E0031C6004D5F5
:100990001D4B1A680AB11B689847A10304D51A4B6E
:1009A0005A680AB15B689847E20704D5164B1A6C7F
:1009B0000AB11B6C9847A30704D5134B5A6C0AB1B4
:1009C0005B6C9847200704D50F4B9A6C0AB19B6C5F
:1009D0009847610704D50C4BDA6C0AB1DB6C984779
:1009E000220304D5084B5A6E0AB15B6E9847630325
:1009F00006D5054BD3F8802012B1D3F88030984744
:100A000010BD00BFA0A00440E089FF1F2C4B10B513
:100A10001C6820071C6004D52A4B5A6A0AB15B6A1D
:100A20009847E10604D5274B9A6A0AB19B6A984712
:100A3000620604D5234BDA6A0AB1DB6A98472306BB
:100A400004D5204B1A6B0AB11B6B9847A00604D53E
:100A50001C4B5A6B0AB15B6B9847E10704D5194BE5
:100A6000DA6B0AB1DB6B9847A20704D5154B9A6D78
:100A70000AB19B6D9847630704D5124BDA6D0AB132
:100A8000DB6D9847A00504D50E4BDA6E0AB1DB6E1C
:100A90009847E10504D50B4B1A6F0AB11B6F9847B5
:100AA000620504D5074B5A6F0AB15B6F984723055F
:100AB00004D5044B9A6F0AB19B6F984710BD00BFD5
:100AC000A0B00440E089FF1F1E4B10B51C68E00772
:100AD0001C6004D51C4B9A680AB19B689847210694
:100AE00004D5194B5A690AB15B699847E20604D5E7
:100AF000154B9A690AB19B699847630704D5124B55
:100B0000DA690AB1DB699847200704D50E4B1A6AE7
:100B10000AB11B6A9847A10704D50B4B9A6B0AB11F
:100B20009B6B9847A20604D5074B1A6D0AB11B6D43
:100B30009847630604D5044B5A6D0AB15B6D98471C
:100B400010BD00BFA0C00440E089FF1F094B10B5D5
:100B50001C68A2071C6004D5074B9A6E0AB19B6EF5
:100B60009847E30704D5044BDA6F0AB1DB6F984767
:100B700010BD00BFA0D00440E089FF1F044B054911
:100B800000221A600A60044A106010221A6070473E
:100B900014D0034004D0034000D00340212810B5F6
:100BA00018D80D4A52F8303093F880423CB10122F7
:100BB00011B183F8802010BD83F8002110BD02EB35
:100BC000C00043681A6811B142F0030201E022F04C
:100BD00002021A6010BD00BFC07A0000212805D8AB
:100BE000034B53F8303093F80002704700207047F1
:100BF000C07A0000212816D80B4A02EBC003012955
:100C00005B6852F8302004D182F880124FF4A2724F
:100C100008E0002082F8800211B94FF4807201E0F0
:100C200040F203121A607047C07A000072B60B4B94
:100C30000B491A680B4B1B68096862B6490102D55B
:100C4000322A88BF0133C2F5BB32FF326021B2FBCA
:100C5000F1F24FF47A7000FB0320704718E000E0D7
:100C600004ED00E0688AFF1F70B50446FFF7DEFF61
:100C700005466CB140F2E736FFF7D8FF401BB042A3
:100C800003D9013C04D005F57A7501F087FBF3E741
:100C900070BDFFFF10B5FFF7F7FD164B164A174C56
:100CA00000204BF6FF711860596028231360936091
:100CB0001361936113629362136393630922226049
:100CC0000F4C20606160A360236144F8042C0D4C3C
:100CD00020600D4801600D490B608B600C4B1A6061
:100CE000FFF76CFC0420FFF7BFFFBDE8104001F0E8
:100CF000B3B900BF048003400C8003400080034070
:100D00000490034004800B4008800B400C800B4093
:100D100000800B401B4B1A6842F480621A601A4A2A
:100D200000231370194A1370194A1370194A13706B
:100D3000194A1370194B40F213321A604FF4517272
:100D40005A60174BC0F344321A70C0F347125A70FE
:100D500000F01F00134A987202210423137051748B
:100D6000D374114B88221A703C2203F80D2C0F4BC0
:100D700040226FF44A711A705B184FF400521A60E7
:100D8000704700BF34800440EE8AFF1F6D8AFF1F4A
:100D9000F48AFF1FEF8AFF1F6C8AFF1F40A00440E8
:100DA00000A0064002A0064010A006402DE400E08E
:100DB000134A137800F0030103F0EC030B434107DF
:100DC00048BF43F01003137000F00F03042B04D14D
:100DD0000C4B1A7842F040021A700B4A1378C10685
:100DE00003F0EF0348BF43F010031370054A137874
:100DF000800603F0EF0348BF43F010031370704701
:100E000002A0064006A0064005A006400E4B1B6847
:100E1000580510B503D410BD01F0C0FA00E00B4C2A
:100E20002378002BF8D10A4A4FF400511160094A87
:100E30000949137040F203120A604A60074A1370AE
:100E4000074A137010BD00BF348004406C8AFF1F36
:100E500084E100E003A0064040A00440EE8AFF1FAA
:100E60006D8AFF1F38B5094B04461D78002DFCD153
:100E700020460121FFF7BEFE20462946FFF78EFEE1
:100E8000034B53F83420034B1A6038BD6C8AFF1FA4
:100E9000C07A0000F08AFF1F1D4B1B685A052DE920
:100EA000F041064632D51B4B1B680BB101221A706C
:100EB000194B1A4D1C781A4FDFF86C8001343F2C07
:100EC00088BF002415E0FFF78BFC40280DDC3B7841
:100ED0001B060ED52B78134A01333F2B88BF002306
:100EE00018F8031011702B7003E0FF2801DD01F0EA
:100EF00055FA2B78A342E6D00B4B1E550B4B012223
:100F00001A70054B1C700A4BBC221A70BDE8F081A8
:100F100034800440F08AFF1FF48AFF1FEF8AFF1F0E
:100F200004A0064007A006406E8AFF1F6C8AFF1FC0
:100F300003A006402DE9F84F254B1B6806465805CF
:100F4000884643D5234B1B680BB101221A70224DF2
:100F5000B346A94633E0214B1C782F7801343F2C4F
:100F600088BF0024A74209D01BF8012B1C4B1A553F
:100F70001C4B01221A70194B1C7020E01A4BDFF831
:100F800070A0BC221A70FFF72BFC40280FDC9AF8E7
:100F9000003019060FD52B78114A01333F2B88BF3B
:100FA0000023D15C114A117089F8003003E0FF285A
:100FB00001DD01F0F3F92B78BB42E4D0D4E706EB76
:100FC00008039B45C7D3084BBC221A70BDE8F88FB5
:100FD00034800440F08AFF1FEF8AFF1FF48AFF1F4E
:100FE0006E8AFF1F6C8AFF1F03A0064007A0064001
:100FF00004A0064010B5044C01E001F0CFF92378BD
:10100000002BFAD110BD00BF6C8AFF1F044B18786B
:10101000044B1B78984238BF4030C01A704700BF5D
:10102000EE8AFF1F6D8AFF1F084B094A1978137853
:10103000994207D001333F2B88BF00230549C85C84
:10104000137070474FF0FF30704700BFEE8AFF1FEC
:101050006D8AFF1FAE8AFF1F074B1A78074B1B785C
:101060009A4206D001333F2B88BF0023044AD05C4C
:1010700070474FF0FF307047EE8AFF1F6D8AFF1FE9
:10108000AE8AFF1F0A4B1B685B050FD5094B1A7808
:1010900002F0CB021A70084A402111701A7842F00F
:1010A00034021A70054B1A78054B1A70704700BF4E
:1010B0003480044003A0064011A006406D8AFF1F43
:1010C000EE8AFF1FF0B5304B1B7813F0300F20D0A5
:1010D00072B62E4B197831B90F3B40221B782C4B3E
:1010E0001A7062B615E062B62A4B2B4C1A782B4B5D
:1010F0002B4D1878531C3F2B88BF00232678834242
:101100001CBFEE541A46013911F0FF01F2D1214BF8
:101110001A70244B1B7819465BB2002B1FDA1A4A4F
:10112000137818061BD5204B204E1F78204B1A4DE4
:101130001B78204CBB4209D001333F2B88BF0023D2
:101140001078F05C287020780728F3D9184A1370BB
:101150000D4B1B781A0602D5124B7C221A7001F037
:101160004003DBB27BB1084B1B7803F04003DBB2DA
:101170004BB1114B00221A70104B1B6803B11A704F
:10118000084B3C221A70F0BD04A0064016A0064091
:1011900011A00640EE8AFF1F07A006406D8AFF1FC0
:1011A000AE8AFF1F03A00640F48AFF1F6E8AFF1F4E
:1011B000EF8AFF1F14A006406C8AFF1FF08AFF1FF2
:1011C000164B1A6842F400621A60154A0023137025
:1011D000144A1370144A1370144A1370144A13708B
:1011E000144A40F2133111604FF451715160124AA8
:1011F000C0F344311170C0F3471100F01F0051706B
:101200009072937013740D4B2C221A700C4B402269
:101210001A700C4B4FF400421A607047348004403F
:101220005F8BFF1FF68AFF1F618BFF1F608BFF1F05
:10123000F58AFF1F0CB0044000B0064003B0064022
:101240002FE400E004E100E0134A137800F003010A
:1012500003F0EC030B43410748BF43F01003137046
:1012600000F00F03042B04D10C4B1A7842F040021B
:101270001A700B4A1378C10603F0EF0348BF43F01E
:1012800010031370054A1378810603F0EF0348BF7B
:1012900043F010031370704702B0064006B00640DA
:1012A00005B006400E4B1B68180510B503D410BDE1
:1012B00001F074F800E00B4C2378002BF8D10A4AB7
:1012C0004FF400411160094A0949137040F20312BA
:1012D0000A604A60074A1370074A137010BD00BFC6
:1012E00034800440F58AFF1F84E100E003B006402B
:1012F0000CB004405F8BFF1FF68AFF1F1B4B1B685F
:101300001A052DE9F04106462DD5194B194D1C78CB
:10131000194FDFF86C800134272C88BF002415E0BA
:10132000FFF75EFA40280DDC3B781B060ED52B78C4
:10133000124A0133272B88BF002318F803101170BD
:101340002B7003E0FF2801DD01F028F82B78A34281
:10135000E6D00B4B1E550B4B01221A70044B1C7030
:10136000094BAC221A70BDE8F08100BF3480044004
:10137000618BFF1F608BFF1F04B0064007B0064063
:10138000F78AFF1FF58AFF1F03B0064038B54518DE
:10139000044603E014F8010BFFF7B0FFAC42F9D1AB
:1013A00038BDFFFF10B5044C01E000F0F7FF2378D3
:1013B000002BFAD110BD00BFF58AFF1F044B18782F
:1013C000044B1B78984238BF4030C01A704700BFAA
:1013D0005F8BFF1FF68AFF1F084B094A19781378A5
:1013E000994207D001333F2B88BF00230549C85CD1
:1013F000137070474FF0FF30704700BF5F8BFF1FC7
:10140000F68AFF1F1F8BFF1F074B1A78074B1B78AD
:101410009A4206D001333F2B88BF0023044AD05C98
:1014200070474FF0FF3070475F8BFF1FF68AFF1F3A
:101430001F8BFF1F024B1A78024B1A70704700BFB8
:10144000F68AFF1F5F8BFF1F10B5214B1B7803F03F
:101450002003DBB273B11F4B1F4A18781F49137862
:10146000097801333F2B88BF00238B4202D01C49EF
:10147000C85413701B490B7818465BB2002B15DA61
:10148000134B1B781B0611D5174B184A1C78137881
:101490009C4202D16C230B7008E00133272B88BFDC
:1014A00000231349CC5C0B490C70137000F040030F
:1014B000DBB25BB1064B1B7803F04003DBB22BB110
:1014C0000C4B00221A70074B2C221A7010BD00BF63
:1014D00004B0064007B006405F8BFF1FF68AFF1F6F
:1014E0001F8BFF1F03B00640618BFF1F608BFF1F28
:1014F000F78AFF1FF58AFF1F174B1A6842F48052C4
:101500001A60164A00231370154A1370154A137097
:10151000154A1370154A1370154A40F213311160C1
:101520004FF451715160134AC0F344311170C0F34C
:10153000471100F01F0051709072937013740E4B9E
:101540002C221A700D4B40226FF44B711A705B18ED
:101550004FF400321A60704734800440CC8BFF1F78
:10156000638BFF1FCE8BFF1FCD8BFF1F628BFF1F77
:1015700008C0044000C0064003C0064031E400E05B
:10158000134A137800F0030103F0EC030B43410707
:1015900048BF43F01003137000F00F03042B04D175
:1015A0000C4B1A7842F040021A700B4A1378C106AD
:1015B00003F0EF0348BF43F010031370054A13789C
:1015C000800603F0EF0348BF43F010031370704729
:1015D00002C0064006C0064005C006400E4B1B6810
:1015E000D80410B503D410BD00F0D8FE00E00B4CB9
:1015F0002378002BF8D10A4A4FF400311160094AD0
:101600000949137040F203120A604A60074A1370D6
:10161000074A137010BD00BF34800440628BFF1F67
:1016200084E100E003C0064008C00440CC8BFF1FEB
:10163000638BFF1F1B4B1B68DA042DE9F041064644
:101640002DD5194B194D1C78194FDFF86C800134DA
:10165000272C88BF002415E0FFF7C2F840280DDCD6
:101660003B781B060ED52B78124A0133272B88BFF7
:10167000002318F8031011702B7003E0FF2801DD20
:1016800000F08CFE2B78A342E6D00B4B1E550B4B83
:1016900001221A70044B1C70094BAC221A70BDE871
:1016A000F08100BF34800440CE8BFF1FCD8BFF1F25
:1016B00004C0064007C00640648BFF1F628BFF1FFB
:1016C00003C0064038B54518044603E014F8010B82
:1016D000FFF7B0FFAC42F9D138BDFFFF10B5044CA5
:1016E00001E000F05BFE2378002BFAD110BD00BFB3
:1016F000628BFF1F044B1878044B1B78984238BF4D
:101700004030C01A704700BFCC8BFF1F638BFF1F98
:10171000084B094A19781378994207D001333F2BB7
:1017200088BF00230549C85C137070474FF0FF3035
:10173000704700BFCC8BFF1F638BFF1F8C8BFF1F7D
:10174000074B1A78074B1B789A4206D001333F2B80
:1017500088BF0023044AD05C70474FF0FF307047C9
:10176000CC8BFF1F638BFF1F8C8BFF1F024B1A78E4
:10177000024B1A70704700BF638BFF1FCC8BFF1F9B
:1017800010B5214B1B7803F02003DBB273B11F4B64
:101790001F4A18781F491378097801333F2B88BFF7
:1017A00000238B4202D01C49C85413701B490B788C
:1017B00018465BB2002B15DA134B1B781B0611D5AC
:1017C000174B184A1C7813789C4202D16C230B707B
:1017D00008E00133272B88BF00231349CC5C0B4959
:1017E0000C70137000F04003DBB25BB1064B1B784A
:1017F00003F04003DBB22BB10C4B00221A70074BF5
:101800002C221A7010BD00BF04C0064007C006405D
:10181000CC8BFF1F638BFF1F8C8BFF1F03C0064009
:10182000CE8BFF1FCD8BFF1F648BFF1F628BFF1FB3
:101830001FB572B6124B70221A70124A41211170F4
:101840000F2102F8011C80221A701A781206FCD5AA
:1018500062B60D4B01A918680A22FEF7E7FF0B4894
:10186000002301AA9A5C2AB100EB430101330A2B41
:101870004A80F6D10133054A5B00137005B000BD04
:101880000000024007000240080002409484FF1F4D
:10189000F0B50C4B0C4C1A7842F0020504EBC5066F
:1018A00082F00102706009481A700678002E0CBFA1
:1018B0008827C82747EA014186F0010644F8351019
:1018C0000670F0BD388CFF1F0080FF1FB08CFF1F1B
:1018D000431E032B10B510D872B6094A52F82300E4
:1018E00010B1416842F82310064A018832F81340CB
:1018F000611A22F8131062B610BD002010BD00BF9F
:10190000288CFF1F249EFF1F013803280BD872B6B6
:10191000064B53F82030002001E05B680130002BBB
:10192000FBD162B670470020704700BF7C8CFF1F60
:1019300070B572B6184E194C01239A1912F8012C81
:1019400002F00802D2B2E2B19900144A54F83150C0
:101950002DB902EB431308305860114B09E041F0F8
:10196000010154F8315065B902EBC10308305860E9
:101970000C4B42F831300C4B1A78013A1A7062B6AF
:1019800070BD0133052BD8D162B6074B00221A7007
:10199000BDE8704000F0CCBBD07B00000080FF1F92
:1019A00088004000C8004000A68CFF1F431E032B88
:1019B00030B532D84001194A40F01000101872B604
:1019C000174CE25C032A09D8DFE802F0160218057A
:1019D0000830022213E00830042210E01148124AB5
:1019E00050F8234014B940F8231002E052F82300C5
:1019F000416042F823100FE0032200E00522E25488
:101A000010F0080F01F108030A8843600CBF882317
:101A1000C82343EA0243036062B630BD0080FF1F63
:101A2000E48BFF1F7C8CFF1F8C8CFF1F2DE9F74F71
:101A3000A34EA44C357805F00403DBB2ABB1A24B46
:101A40001B7883B1A14A137823B1013BDBB2137039
:101A500003B900BE9E4A13782BB1013BDBB2137071
:101A60000BB900F079FC0423337005F00802D2B200
:101A7000002A00F07B82974B1B781D094FEA9309DF
:101A800040F0F98104EBC903586854F83930C3F3C6
:101A90008303013B0C2B00F2EB81DFE813F0A40180
:101AA000A401E901E901E901E901E901E901C00154
:101AB000E901E901E9010D004368874A01685360C3
:101AC000864B874844F83930864D11600023036007
:101AD0000120287089B240F28165A9422361A36187
:101AE00019D8B1F5D06F80F02881B1F5817F00F071
:101AF000D88006D8802900F0BE80822940F0398144
:101B0000BDE040F20230814200F00881B1F5A06FE3
:101B100040F02F8131E1B1F5106F10D004D8B1F54C
:101B2000086F40F02681A0E042F22100814200F0DF
:101B3000578100F50070814240F01B8115E19278D9
:101B4000614B604D1A702B6A180603D5686A083815
:101B500000F0EEFA644A08359542F4D1DFF8B0910E
:101B6000DFF8B0B10025A846CA4655F8090005E0DF
:101B70004368009300F0DCFA009B18460028F7D178
:101B80005A4B4AF8050045F80B00E85807E0426850
:101B90000093019200F0CCFA019A009B10460028B5
:101BA000F5D15851524BE850524B23F81800524B84
:101BB00018F80320023A032A08D8DFE802F00204EA
:101BC0000204002200E0012203F8082008F10108C5
:101BD0000435B8F1040FC8D1484BDFF83C9100221E
:101BE0001A7001259846464B05EB0902EB1812F8CE
:101BF000012C9B001A7002F00802D2B23AB300F036
:101C000079FAAB0038B104EB4512083050603D4A18
:101C100044F8332006E044F8330098F800300133EC
:101C200088F8003000F066FAAB0043F0010338B1E9
:101C300004EBC30208305060284A44F8332006E021
:101C400044F8330098F80030013388F80030AA00D7
:101C500042F00201013542F003020023052D44F851
:101C6000313044F83230BED187E0174B264D1B7817
:101C70002B70034684E0244D2B706B707FE09288BC
:101C8000042A00D975E0204D2B706B701F4B920019
:101C9000D3181B7803F00203DBB2002B6FD028703F
:101CA0006DE0918801F07F03042B62DC538803B15F
:101CB0005FE0164A89008A18117821F0020156E087
:101CC000802007400080FF1FAF8CFF1F398CFF1F53
:101CD000B18CFF1F902007409C8CFF1FC800400064
:101CE000D08BFF1FB08CFF1F8080FF1F7C8CFF1FDD
:101CF0008C8CFF1F249EFF1FE48BFF1FA68CFF1FF1
:101D000030C8011088004000A78CFF1FC02007408A
:101D1000288CFF1FD48BFF1FD07B0000918801F01F
:101D20007F03042B25DC538803B122E0A04A8900FD
:101D30008A18117841F0020119E051889D4B928870
:101D400053F8085CA3F10C009DB133F80CCC8C4522
:101D500009D133F80ACC944505D1090A03290CBFEF
:101D60002B7803890CE00C33EAE79178924A1170E2
:101D700003E08F4B0F221A7032E01D4600E0022371
:101D80008E4AB2F806904B4538BF9946B9F1400FDC
:101D900034BFC8464FF0400828464146FFF778FD5B
:101DA000B9EB0809454403D1B8F1400F07D017E05B
:101DB000B9F1400F34BFC8464FF0400800E0C846B4
:101DC00028464146FFF764FDB9EB0809454402D1B6
:101DD000B8F1400F04D17A4B7A4A1D60A2F8009006
:101DE0000122794B43E0754B1A8842F221039A4253
:101DF00011D1764A0023C15C99540133072BFAD1E3
:101E0000724B1B68862B02D1714B0F221A70002077
:101E10000146FFF73DFD6F4B44F8393028E0684B31
:101E2000D3F80080B8F1000F18D0DFF89891B9F816
:101E300000A0BAF1400F34BF554640254046294620
:101E4000FFF726FDC5EB0A039BB2A9F800300BB9DA
:101E5000402D01D108EB0503594A1360574B1A88EE
:101E6000B2F5A06F04D100225A709A785A4B1A70BA
:101E70000122554B6DE004EBC90803F00803D8F8C4
:101E80000420013DD9B2A2F10800EDB2002937D0FB
:101E900000F04EF95148524B50F82510F1B14A6804
:101EA00040F8252001F10802C8F804205A5D032AF1
:101EB0000BD8DFE802F002040608032204E0022245
:101EC00002E0052200E004225A5518F0080F0A88A3
:101ED0000CBF8823C82343EA024342E05A5D032A29
:101EE00007D8DFE802F040400204002206E00122A9
:101EF00004E018F0080F0CBF022203225A5532E00A
:101F000054F839301B0C22F8083C23B322F8061C85
:101F100042F8041C334A344952F8257017B942F884
:101F2000250002E051F825205060304A41F8250094
:101F300032F815105B1822F8153000F0DBF818B1F4
:101F40000830C8F8040006E0294B44F839001A7834
:101F500001321A7007E01F4B264A18F0080F08BF1D
:101F6000134644F839300823337063E5E90751D547
:101F700015492048204C02230B70204B1A70204B2F
:101F8000186098601F481A61D8609A615C60084BBD
:101F90000D2018701C48FF23037000F8083C0274E1
:101FA0001A4A13701A4B9F221A7001230B704AE0D1
:101FB000C0200740E07B0000C08CFF1F9C8CFF1FEF
:101FC000D08BFF1FA48CFF1F942007402C9EFF1F67
:101FD000398CFF1FC8004000982007407C8CFF1FF1
:101FE000E48BFF1F288CFF1FD48BFF1F249EFF1F35
:101FF000A68CFF1F88004000E88BFF1F388CFF1F56
:102000000080FF1F3C8CFF1F882007408C2007406A
:10201000842007402B0605D50C4B0D221A70802218
:1020200003F8402C05F00203DBB22BB1084B1A7801
:102030001A70022203F8082C05F01005EDB215B154
:10204000044B10221A70BDE8FE8F00BFC02007406D
:10205000882007408020074008B5FFF7E9FB0023F0
:102060001E491A465A50C8180833882B4260F9D1C5
:102070001B4B1A6842F480221A601A4B80221A7095
:102080001978184A0906FBD4144B1749C3F30720E3
:102090000870C3F307401B0E08750B76FF2301F889
:1020A0001C3C01F8143C01F88C3C137843F04003CD
:1020B00013700021012302F8783C02F80C1C02F88E
:1020C000883C0A4B70226FF4507C1A7063444FF4C2
:1020D00000721A60064B10221A7008BD0080FF1FA4
:1020E000348004400C2107409C20074049E400E074
:1020F0000821074072B60C4A1168B1FA81F30B2B24
:1021000002D962B6002070474FF0004020FA03F079
:1021100021EA0001116062B6044948225343C818FD
:102120000022CA5042607047AC84FF1FA080FF1F8E
:102130000C4B4822C31AB3FBF2F30B2B11D80A4AFB
:10214000127822B1094A12780AB1FFF7F1BB72B6D0
:10215000074A4FF0004121FA03F311681943116057
:1021600062B67047A080FF1FA68CFF1FAF8CFF1FB9
:10217000AC84FF1F38B5114C23684BB10F4D286854
:102180004288811801320C7A01888A4212D30CE00D
:102190000B4B1B7813B94FF0FF340CE00320FFF713
:1021A00097FB20600028E9D1F5E7FFF7C1FF002386
:1021B0002B6000E04280204638BD00BFBC8CFF1F72
:1021C000AF8CFF1F10B50C4C23681BB10A4B1B686A
:1021D0006BB902E0094B1B7813B94FF0FF3010BD0B
:1021E0000320FFF775FB20600028EFD1F5E75A8840
:1021F0009B18187A10BD00BFBC8CFF1FAF8CFF1F4F
:10220000044B9888044B1B681BB11A885B88D31A4F
:10221000C0187047249EFF1FBC8CFF1F2DE9F84398
:102220002D4B2E4DDFF8C08001220C461A70064659
:102230004BE02B682BBBDFF8A0904AF2F92798F807
:10224000003013B9244A137014E00420FFF75CFB3C
:10225000072808D8012389F80030FFF74BFF2860D2
:1022600078B989F80000013F1D4B01D01A782AB1D6
:1022700001221A704FF0FF30BDE8F88300F08EF8AD
:10228000DDE72968164A488800231370C0F1400230
:10229000944238BF224600F108078018CF194880C1
:1022A000A41A02E0F05CF85401339342FAD1F61814
:1022B0004B883F2B06D940230B800420FFF776FB89
:1022C00000232B60074B05221A70002CB1D1024B62
:1022D00020461C70BDE8F883B28CFF1FB48CFF1F32
:1022E000B88CFF1FB18CFF1FAF8CFF1F07B502AB6F
:1022F000012103F8010D1846FFF790FF0EBDFFFF07
:10230000F8B5114B1B78EBB1104E114B3468114DE1
:1023100001271F704CB1638800272F700420238091
:102320002146FFF743FB376009E0FFF7E3FE014674
:1023300020B104202C70FFF739FB00E02F70044B14
:1023400000221A70F8BD00BFAF8CFF1FB48CFF1FB6
:10235000B28CFF1FB18CFF1F38B50D4B1D78ADB986
:102360000C4C216831B14B8804200B80FFF71EFB19
:10237000256038BDFFF7BEFE014620B10420BDE850
:102380003840FFF713BB044B01221A7038BD00BF61
:10239000B28CFF1FB48CFF1FB18CFF1F7047FFFF73
:1023A000F8B5164B164D1A6842F080721A60154B3C
:1023B0001A6842F001021A60134B2E681C680FE085
:1023C000237A63B121682F680B68204698472A68F2
:1023D000E388D21B12099A42A28088BFE280646916
:1023E000002CEDD1064B094A1B689B1B1B0913806F
:1023F000074A11888B4288BF1380F8BDFCED00E0CE
:10240000041000E0001000E0C48CFF1FCA8CFF1F06
:10241000C88CFF1F10B5084614461146FEF78AFD0A
:10242000204610BD084608B5FEF736FD012008BD60
:10243000FEF728BEFEF7DEBDFEF7F6BDFEF70CBECA
:10244000FEF7E4BD0846FEF70DBDFEF7DFBC480809
:1024500000F1376000F5D830B0FBF1F0FEF75ABC60
:10246000480800F1376010B500F5D830B0FBF1F046
:102470001446FEF74FFC2046BDE81040FEF798BC1E
:10248000044B00221A711A73034A4FF47A7199604F
:102490001A607047CC8CFF1F307C000010B50846D6
:1024A00014461146FEF772FF204610BD084608B5D7
:1024B000FEF724FF012008BDFEF7BCBFFEF772BF88
:1024C000FEF78ABFFEF7A0BFFEF778BFFEF7EABEB1
:1024D000480800F1376000F5D830B0FBF1F0FEF7A6
:1024E0006FBE480800F1376010B500F5D830B0FB7A
:1024F000F1F01446FEF764FE2046BDE81040FEF7FA
:10250000A3BEFFFF044B00221A711A73034A4FF453
:102510007A7199601A607047DC8CFF1F687C00003C
:1025200010B5084614461146FFF7CCF8204610BDFA
:10253000084608B5FFF77EF8012008BDFFF716B979
:10254000FFF7CCB8FFF7E4B8FFF7FAB8FFF7D2B857
:10255000FFF744B8480800F1B76000F55840B0FBF9
:10256000F1F0FEF7C9BF480800F1B76010B500F5FB
:102570005840B0FBF1F01446FEF7BEFF2046BDE820
:102580001040FEF7FDBFFFFF044B00221A711A73C3
:10259000034A4FF47A7199601A607047EC8CFF1F00
:1025A000A07C00002DE9F041002407460D46264698
:1025B0003B190A2219792846002300F0B9F82B6844
:1025C00080462E211B682846984701344044032C3E
:1025D0000644EDD12846F9790A22002300F0A8F834
:1025E0008019BDE8F081FFFF044B054A1A60002204
:1025F0001A715A719A71DA71704700BFFC8CFF1F13
:10260000D87C000008B5034B01221A60024B1B68FE
:10261000984708BD0C7103400C8DFF1F08B5034B94
:1026200001221A60024B5B68984708BD1C71034089
:102630000C8DFF1F08B5034B01221A60024B9B68EB
:10264000984708BD2C7103400C8DFF1F08B5034B44
:1026500001221A60024BDB68984708BD3C710340B9
:102660000C8DFF1F054B01221A60054B1A6822F4DE
:1026700000021A60034B00221A707047007003407A
:102680003C800440088DFF1F037B0122591103F099
:102690001F0302FA03F3084A42F82130826800233C
:1026A00013604178054A5354D15C21B90133042B9E
:1026B000FAD1FFF7D7BF704780E100E0048DFF1F1C
:1026C000037810B504460BB1FFF7DEFF002323703B
:1026D00010BD2DE9F04100258AB0074688468C6878
:1026E0002E4611E02B46404601A9212200F0BFF9F9
:1026F0003B68202C34BF224620225B68384601A963
:10270000AD18A41A98473618002CEBD130460AB001
:10271000BDE8F08107B5054B1B88ADF804300368B0
:1027200001A95B68022298470EBD00BFE07C000053
:10273000F0B505468BB022B90368C9B21B6898474B
:102740002CE0012A08BF0A2221B930228DF8252069
:10275000212413E02124B1FBF2F002FB1011C9B2D5
:10276000092901D8303100E037310AAF3E1906F8A7
:10277000241C014610B1013CE4B2ECE733B1013C4A
:102780000AAAE4B213192D2203F8242C2B6801AFF6
:102790005B6828463919C4F1220298470BB0F0BD96
:1027A000002902DA49422D2300E000230A22FFF724
:1027B000BFBFFFFFFFFFFFFF2DE9F347074691462D
:1027C0009A4610461946002200239DF8284003F03F
:1027D0006DFD20B10AF1004A4FF0010800E080468B
:1027E00000260022304B0AE0104619462CA3D3E9FC
:1027F000002303F0E9FA013602460B46F6B2A64280
:10280000F2D14846514603F02DF90D46044603F037
:1028100075FD81464346384649460A22FFF788FF40
:102820008046002E37D0484603F058FA072E28BFBE
:1028300007260B4602462946204603F011F90136C9
:102840002E238DF80030F6B24FF001091BE0002274
:10285000164B03F0B9FA0D46044603F04FFD02AAE9
:1028600002EB0903C0B200F1300203F8082C03F0B8
:1028700045FA09F1010902460B46204629465FFA4E
:1028800089F903F0EDF8B145E1D13B6838465B6862
:1028900069464A4698474046BDE8FC87AFF300804A
:1028A0009A9999999999B93F0000E03F0000244016
:1028B00010B50446FFF704FF204610BD0348044945
:1028C000044A0023037003F0C1B800BF1C8DFF1F32
:1028D000B12800000084FF1F10B5029C401AE41AC2
:1028E0004443521A94FBF2F0C01810BD10B50446D0
:1028F000006804F05BF8204610BD38B504460D466C
:102900000068013104F0B0FC10B184E8210001201E
:1029100038BD43688B4210B5044600D306E0FFF78C
:10292000ECFF20B1A3680BB922681370012010BD21
:10293000F8B504460F46154622B9036803B11A706C
:1029400000230BE01146FFF7E4FF064640B920687C
:1029500010B104F02BF8266000236360A36004E04C
:10296000A5602068394604F083FE2046F8BD38B5DE
:102970000023044603604360836003730D4639B14E
:102980000846FDF74BFF294602462046FFF7D0FFD9
:10299000204638BD81420B4603D009689A68FFF78C
:1029A000C7BF7047002310B50446036043608360CF
:1029B0000373FFF7EFFF204610BD70B504460E46C7
:1029C00085685AB155192946FFF7A3FF30B1206831
:1029D000A3683146C01804F04BFEA560204670BDC8
:1029E0001FB504460A22084601A9FDF73DFF01A8CC
:1029F000FDF714FF01A902462046FFF7DEFF20463F
:102A000004B010BD1FB504460A22084601A9FDF70F
:102A10002BFF01A8FDF702FF01A902462046FFF7A0
:102A2000CCFF204604B010BD0B4610B509689A686B
:102A30000446FFF7C2FF204610BD38B505460C46D8
:102A400039B10846FDF7EAFE214602462846FFF75F
:102A5000B4FF284638BD10B50446FFF7C1FF204635
:102A600010BD10B50446FFF7CDFF204610BD38B5A8
:102A70000C469AB191B181688B4202D30023237036
:102A800038BDCD1A013A0168954228BF1546C918CC
:102A900020462A4604F04AFE0023635538BD084606
:102AA0001146FFF7BBBB0846FFF720BCFFF728BC69
:102AB000FFF788BBFFF75EBBFFF7A2BB044B00220A
:102AC0001A711A73034A4FF47A7199601A60704749
:102AD000308DFF1FF07C0000202310B5C0F80032BD
:102AE000FF23044680F8043200214FF4007204F002
:102AF00051FB204610BDF8B50C460699002901DCB3
:102B0000002701E01F460B46D0F800C2002103E079
:102B10000D01465926B101316145F9DB00240CE075
:102B2000013109D0411944518B6023684A60CF605C
:102B30001B682046984700E034462046F8BD2DE942
:102B4000F84306468846044600254FF003090FE087
:102B500054F8100B80B1036854F8042C54F80C1C82
:102B60001F6909FB0211434654F8082CB847013588
:102B7000D6F800229542EBDBBDE8F8830148FFF769
:102B8000ABBF00BF408DFF1F30B505781C1C18BFC0
:102B900001241DB115FB03F504EB1525057008781C
:102BA00018B110FB03F004EB10200870117819B174
:102BB00011FB03F104EB1121117030BD2DE9F3413C
:102BC000067890F80180847806F01F020F465200C4
:102BD00052005523520012FB03F2120A16F0800F26
:102BE00006F0400506F0200023D101466DB918B962
:102BF000D3438DF8053010E0AB2155328DF8051028
:102C00008DF806208DF807503DE058B955006FF05B
:102C100054035B1B8DF80530553A8DF806208DF86E
:102C2000070030E000238DF80530D3438DF80630DF
:102C300027E085B948B98DF805006FF054035200BC
:102C40009B1A8DF8063055321BE08DF805208DF863
:102C50000650D24315E058B902F155018DF8051020
:102C60008DF806006FF054039B1A8DF807300AE0C8
:102C7000A2F155038DF8053000238DF80630C2F11E
:102C800055028DF80720B8F1FF0F1FD043466FEAB9
:102C900008080DF105000DF106010DF107025FFABC
:102CA00088F8FFF771FF18FB08F89DF805304FEA28
:102CB000182843448DF805309DF8063043448DF8BC
:102CC00006309DF8073098448DF80780FF2C09D016
:102CD00094B90DF105000DF106010DF1070223462F
:102CE000FFF752FF9DF805303B709DF806307B7072
:102CF0009DF80730BB7005E014FB04F4240A01348E
:102D0000E4B2E6E7BDE8FC81034B82B01B680193A7
:102D1000019B436002B07047688AFF1F002310B513
:102D2000044603708160FFF7EFFF204610BDFFFFF0
:102D3000054A137803F00203DBB2002BF9D0024BF3
:102D400002221A70704700BF03600640094B1B78CF
:102D500013B9094B1B782BB1084A1378202B03D9E0
:102D600001230371002070470548C15401331370DB
:102D700001207047AE8FFF1F718FFF1FAF8FFF1FA6
:102D8000508FFF1F7047FFFF024B1878024B1B78D4
:102D9000C01A7047AD8FFF1FAC8FFF1F064A07494F
:102DA00013780978994204D90549C85C0133137036
:102DB00070474FF0FF307047AC8FFF1FAD8FFF1F84
:102DC000728FFF1F054B064A1B7812789A4202D970
:102DD000044AD05C70474FF0FF307047AC8FFF1F44
:102DE000AD8FFF1F728FFF1F38B50E4B1B78144637
:102DF00013B90D4B1B788BB10C4B1D78C5F121031A
:102E00009C4202D9012202711C46094822464019FF
:102E100004F0A0F8054B2D191D7000E01C4620465B
:102E200038BD00BFAE8FFF1F718FFF1FAF8FFF1F19
:102E3000508FFF1F10B5104B1B7813F020040BD1DF
:102E40001220FDF75FFD0D4B1B68A3B10C4A1470F7
:102E50000C4A1078984710BD0B4A13780133DBB247
:102E6000012B137002D8094B1B7823B91220BDE83F
:102E70001040FDF747BD10BD036006404C8FFF1F9B
:102E8000AC8FFF1FAD8FFF1F988FFF1F718FFF1F2C
:102E9000002202710273034A4FF47A71816002606A
:102EA000704700BF187D00000B4B00221A700B4BBF
:102EB0001A6842F040021A60094A4FF4197313600D
:102EC00042F8043C074B27221A7004225A71202230
:102ED0001A7180225A707047718FFF1F348004402E
:102EE0000CA004400160064010B5374A137803F087
:102EF0001001C9B221B903F04002D2B242B92EE0AA
:102F00001021117003F04002D2B2002AF3D110BD9B
:102F100013F004032D4A18D0002313702C4A1370A9
:102F20002C4B1B68144603B1984722782A4B1AB9D8
:102F300027491A7001200870284AD02111701A7888
:102F4000274B1A700122274B21E001211170264ADC
:102F50001370224BC0221A7002331B7830E01F4AD4
:102F60001F4C117811F0100117D013F0010310D18C
:102F70001C4917480A780078904205D9164B9B5C8B
:102F8000013223700A7000E02370144BD0221A70B3
:102F900016E0C0231370237812E0144B122019702E
:102FA00003221349FDF784FC0F4A207813781F2B66
:102FB00006D80649097819B10E49C854013313706F
:102FC000014B02221A7010BD03600640488FFF1F9C
:102FD000AF8FFF1F948FFF1F508FFF1F02600640AF
:102FE00004600640B08FFF1FAD8FFF1F988FFF1F3B
:102FF000352E0000728FFF1F044B054A49001970DF
:1030000001231370034A1370704700BF508FFF1FD6
:10301000AE8FFF1FAF8FFF1F2DE9F041204B122213
:103020001A70204A0D46117801F02001C9B211B181
:10303000B42313700BE019460A7802F02002D3B2D1
:10304000002BF9D1184A1370164BB0221A700024C5
:10305000164E174FDFF8608013E03B5D88F80030B4
:10306000FFF766FE0E4B1B78DA0704D5002C14BF61
:10307000032002200BE003F01003DBB233B901346C
:10308000E4B23378A342E8D8002000E0042015B170
:10309000044B80221A70074B00221A70BDE8F081A1
:1030A0000360064002600640718FFF1FAF8FFF1F55
:1030B000508FFF1FAE8FFF1F046006402DE9F047C1
:1030C0001446344A1E4600231370334A1370334BA0
:1030D00012221A70324A107800F02000C0B210B1EB
:1030E000B42313700BE01846027802F02002D3B22A
:1030F000002BF9D12B4A1370294BB0221A704900CA
:10310000294D41F001012970FFF712FE234B244A9B
:103110001B7813F0110F04D0802313700020BDE83A
:10312000F0872CB9002E0CBFA02680261670F5E77C
:10313000012C01D1A82300E0A02313702B781B4F92
:10314000DFF86480DFF8589025464FF0A80A0BE0BE
:10315000013DEDB2FFF7ECFD012D08BF89F800A09D
:1031600098F8003007F8013F012DF1D1FFF7E0FD9D
:103170000B4B0F49B0221A700B4A1078621ED2B264
:10318000885420460EB180221A70034B1C70BDE893
:10319000F08700BFAC8FFF1FAD8FFF1F036006409D
:1031A00002600640718FFF1F04600640718FFF1F91
:1031B000728FFF1F0123FFF781BF0121FFF72CBF93
:1031C0000148FFF765BE00BF9C8FFF1F7047704727
:1031D0000177704738B528220C460546084600217D
:1031E00003F0D8FF0B222046084904F09FFA002381
:1031F000E3720122E260AA69636222610023022273
:103200006261A361E361236238BD00BF487D0000B5
:1032100038B528220C4605460846002103F0BAFFBF
:1032200008490B22204604F081FA0023E372696901
:10323000636201220023E26021616261A361E361B4
:10324000236238BD487D000038B5044608460D4667
:10325000FDF7E4FA236802465B6820462946984752
:1032600038BD38B50446FFF7EFFF05462046FFF7A7
:1032700051FA281838BD08B50368C9B21B689847C9
:1032800008BDFFFF70B5094C154620461E46FFF7E6
:10329000B3FE29462046FFF759FD20463146FFF789
:1032A00055FD2046BDE87040FFF787BF9C8FFF1F8C
:1032B0002DE9F047192104462548FFF79DFEA82176
:1032C0002348FFF7D8FF2248FFF777FF204819214E
:1032D0000622FFF76FFF1E48FFF756FD0528FADDAF
:1032E0001B48FFF75BFD81461948FFF757FD8246F3
:1032F0001748FFF753FD07461548FFF74FFD804677
:103300001348FFF74BFD05461148FFF747FD5FFAED
:103310008AFA5FFA89F9064649EA0A2040F30B1057
:1033200003F0C6F85FFA88F8FFB2A06047EA082009
:1033300040F30B1003F0BCF8F6B2EDB2E06045EAE2
:10334000062040F30B1003F0B3F82061BDE8F087CE
:103350009C8FFF1F73B524260C463246054608464F
:10336000002103F017FF2846FFF7A2FF6B69A8684A
:1033700063600123A3600F4B0F491B682660019314
:10338000019B236103F0E8F80C4903F0E5F8606164
:10339000E868094903F0E0F8084903F0DDF8A061A6
:1033A0002869054903F0D8F8044903F0D5F8E0612D
:1033B0007CBD00BF688AFF1F6F12833A0AE81C4178
:1033C000014A416102607047F87D000010B5044673
:1033D0000548FFF769FD2046192120225723FFF7F2
:1033E00051FF012010BD00BF9C8FFF1F70B5094C1D
:1033F000154620461E46FFF7FFFD29462046FFF7EB
:10340000A5FC20463146FFF7A1FC2046BDE87040F0
:10341000FFF7D3BE9C8FFF1F2DE9F0471E21044606
:103420002548FFF7E9FD03212348FFF724FF224841
:10343000FFF7C3FE20481E210622FFF7BBFE1E48F1
:10344000FFF7A2FC0528FADD1B48FFF7A7FC824620
:103450001948FFF7A3FC81461748FFF79FFC064673
:103460001548FFF79BFC05461348FFF797FC80467D
:103470001148FFF793FC5FFA8AFA5FFA89F9074669
:1034800049EA0A2000B203F013F85FFA88F8FFB2A5
:10349000A06047EA082000B203F00AF8F6B2EDB2E5
:1034A000E06045EA062000B203F002F80023206144
:1034B0006361BDE8F08700BF9C8FFF1F024A8161F6
:1034C0000260002202777047387D000038B50C4654
:1034D00005461E2101222346FFF788FF802C6C71D0
:1034E0001DD006D8402C10D0602C13D0202C2BD10E
:1034F00006E0C02C1DD0E02C20D0A02C24D113E05D
:10350000124A134B1A60134A1CE0134A104B1A60FC
:10351000124A17E0124A0E4B1A60124A12E0124A7F
:103520000B4B1A60114A0DE0104A094B1A60104A01
:1035300008E0104A064B1A600F4A03E00F4A044B9A
:103540001A600F4A0F4B1A6038BD00BF00808944D3
:10355000B084FF1F0000754400C0554400003E4485
:1035600000802744000016440000E1430000C843E7
:1035700000007F430000A5430080934300006643A2
:1035800000004D43B484FF1F2DE9F04F242285B085
:1035900004460D460846002103F0FCFD02262046A5
:1035A000FFF73AFF237F33BB24232B60A369A06876
:1035B0006B600223AB60674B1B680393039B2B611B
:1035C000654B1E68314603F07BF8644902F0C4FF86
:1035D0006861E068314603F073F8604902F0BCFFAF
:1035E0005F4BA8611968206903F06AF85B4902F033
:1035F000B3FFE861ABE0A06802F092FB00960246E0
:103600000B465848FFF7D8F857495648FFF71CFEB5
:10361000E06802F085FB009602460B465148FFF732
:10362000CBF851494F48FFF70FFE206902F078FBB5
:10363000009602460B464B48FFF7BEF84A494948F8
:10364000FFF70FFED4F808B04849D4F80C8027697A
:1036500058464FF0010903F027F908B94FF0000967
:10366000584643494FF0010A03F028F900B9824651
:1036700040463F4949EA0A094FF0010A03F01EF9A2
:1036800008B94FF0000A4046384949EA0A094FF0A4
:10369000010A03F009F900B982463846344949EA7B
:1036A0000A0A4FF0010803F009F908B94FF00008C1
:1036B0004AEA080A1AF0FF0F0BD138462B494FF09F
:1036C000010803F0F1F800B9804618F0FF0F3FF44D
:1036D0006BAF6379602B23D005D8202B2ED0402BE5
:1036E0007FF462AF23E0A02B0CD0C02B03D0802B43
:1036F0007FF45AAF0DE02046E021FFF7E7FE1948BE
:103700001C4921E02046C021FFF7E0FE15481A4978
:103710001AE02046A021FFF7D9FE1248174913E00E
:1037200020468021FFF7D2FE0E4815490CE02046C6
:103730006021FFF7CBFE0B48124905E020464021EF
:10374000FFF7C4FE07481049FFF78BFD27E705B0D8
:10375000BDE8F08F688AFF1FB084FF1F0000C842D9
:10376000B484FF1F308DFF1FF27E000000A07FC5D4
:1037700000A07F454F7D0000697D0000837D000033
:103780009D7D0000B77D0000D17D000010B504468E
:103790000748FFF789FB20461E2102220023FFF77E
:1037A00025FE20462021FFF791FE012010BD00BF1D
:1037B0009C8FFF1F10B504461030FFF797F8204686
:1037C000FFF794F8204610BD38B5044C044D204650
:1037D000343CFFF7EFFFAC42F9D138BD9494FF1FA2
:1037E000808FFF1F38B5054CA4F1C8052046283C42
:1037F000FFF77CF8AC42F9D138BD00BFF495FF1F4C
:1038000038B5054CA4F18C0520461C3CFFF76EF83A
:10381000AC42F9D138BD00BF3895FF1F08B5FFF79E
:1038200013FD08BDFEF7BCBF38B50446FFF70CFD1D
:1038300005462046FEF76EFF281838BD4FF0FF33CF
:1038400010B5044640F8043BFFF7C0FC04F1080043
:1038500047F25D61FFF7B4FD04F1200047F25E61BD
:10386000FFF72CFE104B114A2364002310496364B8
:10387000A364226563650F482266E3660E4A2367E8
:103880006367A367E367C4F88030C4F88430C4F882
:1038900088300A4BA065E164E1656266A266C4F8FF
:1038A0009030204610BD00BF000050410000B4C25F
:1038B0000000B4420000344300000C420000F0411C
:1038C00073B5174C174906462046FFF7BDFC306C10
:1038D00002F026FA022502460B4600952046FEF726
:1038E0006BFF20461049FFF7AFFC706C02F018FA2E
:1038F000009502460B462046FEF75EFF20460B4928
:10390000FFF7A2FCB06C02F00BFA009502460B46E2
:103910002046FEF751FF20460549FFF785FF7CBD95
:10392000308DFF1F447E00004B7E0000537E000060
:10393000F37E0000F8B50446FFF780FF04F1C800ED
:103940001A491B4EFFF713F804F1D8001949FFF785
:103950000EF804F1E8001849FFF709F804F1F8003F
:103960001649FFF704F8374604F584701449FEF74A
:10397000FEFF0FCF04F58C750FC53B6806F11407E9
:103980002B600FCF04F596750FC53B6800212B60A7
:10399000142204F5A070283603F0FCFB0FCE04F5CA
:1039A000AA750FC5336820462B60F8BD5D7E000008
:1039B000087E0000637E0000697E0000707E0000CB
:1039C000757E000038B5124C054629462046FEF7A4
:1039D00080FE20460F49FFF721FFA9692046FFF727
:1039E00021FF20460C49FFF719FF29692046FFF700
:1039F00019FF20460949FFF711FF2046297D0A22B9
:103A00000023FEF795FE2046BDE83840FEF782BE53
:103A1000308DFF1F7C7E0000857E0000937E0000BD
:103A200070B5044615461E46FEF7B4FF04F11000BB
:103A30002946FEF7AFFF9DF8103084F8206084F827
:103A400021309DF81430E36270BDFFFF10B588B0DF
:103A50000446184904A8FEF78AFF214604A8FEF789
:103A6000E3FF1549FEF7E9FF94F82010FEF7F3FF96
:103A70001249FEF7E2FF94F82110FEF7ECFF10491F
:103A8000FEF7DBFFE16A0F4CFEF7EBFF01466846ED
:103A9000FEF788FF04A8FEF729FF69462046FEF7D7
:103AA00018FE2046FEF736FE6846FEF71FFF08B0F8
:103AB00010BD00BF9D7E0000A47E0000AF7E000010
:103AC000BC7E0000308DFF1F10B500210446FEF7BC
:103AD0004EFF04F110000021FEF749FF204610BD03
:103AE0002DE9F041144F044600254FF0280808FB4B
:103AF000057696F82400FCF7C1FDD4F82C319842E5
:103B000005DA96F82400FCF7B9FDC4F82C0196F804
:103B10002400FCF7B3FDD4F84031984205DD96F857
:103B20002400FCF7ABFDC4F8400101350434052D39
:103B3000DDD1BDE8F08100BF5495FF1F37B51D46AC
:103B40000A4B00951446282202FB01322346906955
:103B500011695269FEF7C0FE20EAE070A04203DB63
:103B6000A842B4BF04462C4620463EBD5495FF1FD4
:103B70002DE9F04F89B0002207918B498B4C0491BD
:103B8000064603921746059215460399864B28224E
:103B900002FB013393F82400FCF770FD049A6423C0
:103BA00090610093116952690023FEF795FE049914
:103BB0003228C86106DD059A01231A4381F82030B6
:103BC000059203E00499002381F82030039A042A27
:103BD00002D0059B5B0005930023DFF8D0B1236181
:103BE0002375E36284F83030A36484F84C30636654
:103BF00084F86830C4F8803084F8843098464FF0F8
:103C00001C0909FB084A01219AF81800FCF7F2FF89
:103C100008F101089AF818000121FCF7BFFFCDF860
:103C2000188009FB0848002198F81800FCF7E2FF0B
:103C300098F81800FCF7D2FF8BF8300048B101214A
:103C40008BF81410D8F8183047F00107CBF8103073
:103C500000E07F0000219AF81800FCF79FFFDDF8D4
:103C60001880B8F1040F0BF11C0BCAD10023207E81
:103C7000236101212375E36284F83030A36484F862
:103C80004C30636684F86830C4F8803084F884303F
:103C9000FCF7B0FF4FF0010A4FF01C0909FB0A487E
:103CA000002198F81800FCF7A5FF98F81800FCF719
:103CB00095FF48B13E493F48FFF7B0FD4046FFF74A
:103CC00081FE47F0010700E07F000AF1010ABAF126
:103CD000050FE3D1D6F84480F16C404602F032FB88
:103CE0000021814602F0F4FD08B909F10049D6F837
:103CF00068A04846514602F0CDFD316D002818BF3E
:103D00000125404602F01EFB0021814602F0E0FD45
:103D100008B909F100494846514602F0BBFDD6F802
:103D20004090F16D002818BF0225484602F00AFBBA
:103D30000021029002F0CCFD029B08B903F1004380
:103D4000D6F864B01846594602F0A4FD316E00283A
:103D500018BF0325484602F0F5FA0021029002F050
:103D6000B7FD029B08B903F100435946184602F01B
:103D700091FD0021002818BF0425484602F0A8FD47
:103D800010B909F1004000E04846B16D02F0DAFADE
:103D9000594602F07FFDC8B14046002102F098FD6F
:103DA00050B908F1004008E05495FF1FC894FF1F68
:103DB0000A7F0000308DFF1F4046716D02F0C2FA8D
:103DC000514602F067FD002818BF0525484600212E
:103DD00002F07EFD08B909F10049D6F854B0484612
:103DE000594602F0AFFA514602F054FD80B1404608
:103DF000002102F06DFD08B908F10048594640461F
:103E000002F0A0FA514602F045FD002818BF062531
:103E1000134B059A83F8217083F82020DD62039B01
:103E2000049901332831052B039304917FF4ADAE3F
:103E30000C480D49FFF7F2FC079A72B10B4909488B
:103E4000FFF7ECFC29460748FFF7ECFC3046FFF78C
:103E500037FD04480549FFF7E1FC09B0BDE8F08FE4
:103E60001C96FF1F308DFF1F217F00002E7F00005A
:103E70002DE9F04FB74C8DB0214604A8FEF777FD31
:103E80002146B54C002608A8FEF771FD08AA334666
:103E900004A9204600960196FFF7C2FD08A8FEF788
:103EA00025FD04A8FEF722FD04A8AC490125FEF774
:103EB0005EFD04F1340A4FF0F00808A8A849FEF7A7
:103EC00056FD08AA334604A9CDF800805046019556
:103ED000FFF7A6FD08A8FEF709FD04A8FEF706FDFA
:103EE00004A8A049FEF743FD08A89F49FEF73FFD3F
:103EF000302308AA04A98DE8280004F168000223F1
:103F0000FFF78EFD08A8FEF7F1FC04A8FEF7EEFC13
:103F100004A89649FEF72BFD08A89549FEF727FD52
:103F200008AA122304A904F19C0000960195FFF74A
:103F300077FD08A8FEF7DAFC04A8FEF7D7FC04A872
:103F40008C49FEF714FD032708A88B49FEF70FFDE7
:103F500008AA334604A9CDF80080019704F1D000E7
:103F6000FFF75EFD08A8FEF7C1FC04A8FEF7BEFC43
:103F700004A88249FEF7FBFC08A88149FEF7F7FC7C
:103F80004FF0700C2023CDF800C00DEB030204A904
:103F9000019304F582701823CDF80CC0FFF740FDA3
:103FA00008A8FEF7A3FC04A8FEF7A0FC04A8754926
:103FB000FEF7DDFC08A87449FEF7D9FC08AA1A230D
:103FC00004A904F59C7000960195FFF729FD08A847
:103FD000FEF78CFC04A8FEF789FC04A86B49FEF7E9
:103FE000C6FC4FF0FF0B08A86949FEF7C0FC08AA01
:103FF0001F2304A9019704F5B670CDF800B0FFF7B0
:104000000FFD08A8FEF772FC04A8FEF76FFC04A8D9
:104010006049FEF7ACFC08A85F49FEF7A8FC08AAB7
:104020000F2304A9CDF80080019704F5D070FFF7A5
:10403000F7FC08A8FEF75AFC04A8FEF757FC04A8F2
:104040005649FEF794FC772708A85549FEF78FFCE0
:1040500008AA0F2304A9009704F5EA700195FFF759
:10406000DFFC08A8FEF742FC04A8FEF73FFC04A80A
:104070004C49FEF77CFC4FF0080908A84A49FEF7B6
:1040800076FC08AA0C2304A904F50270CDF8009070
:104090000195FFF7C5FC08A8FEF728FC04A8FEF769
:1040A00025FC04A84149FEF762FC08A84049FEF738
:1040B0005EFC08AA072304A9009704F50F70019578
:1040C000FFF7AEFC08A8FEF711FC04A8FEF70EFCF3
:1040D00004A83849FEF74BFC052708A83649FEF727
:1040E00046FC08AA1F2304A904F51C708DE8C00033
:1040F000FFF796FC08A8FEF7F9FB04A8FEF7F6FB0D
:1041000004A82E49FEF733FC08A82D49FEF72FFC22
:1041100008AA0F2304A9CDF8008004F529700195A1
:10412000FFF77EFC08A8FEF7E1FB04A8FEF7DEFB24
:1041300004A82449FEF71BFC4FF0E00808A8224918
:10414000FEF715FC08AA0E2304A904F53670CDF875
:1041500000803BE0387F0000B48FFF1F457F0000E8
:104160003D7F0000427F00004C7F0000647F000024
:10417000717F0000817F00008E7F00009C7F000027
:10418000A27F0000A77F0000B27F0000BF7F000079
:10419000C67F0000D07F0000D97F0000DE7F0000D6
:1041A000E67F0000F17F0000FD7F00000D80000031
:1041B000138000001A800000258000002F8000007E
:1041C0003B80000047800000538000000195FFF70E
:1041D00027FC08A8FEF78AFB04A8FEF787FB04A8C3
:1041E0007949FEF7C4FB08A87849FEF7C0FB08AA86
:1041F000022304A904F543708DE8C000FFF710FC0A
:1042000008A8FEF773FB04A8FEF770FB04A870492A
:10421000FEF7ADFB08A86F49FEF7A9FB08AA072324
:1042200004A904F550708DE8C000FFF7F9FB08A859
:10423000FEF75CFB04A8FEF759FB04A86649FEF7ED
:1042400096FB08A86549FEF792FBDDF80CC00195C6
:10425000CDF800C008AA102304A904F55D70FFF78B
:10426000DFFB08A8FEF742FB04A8FEF73FFB04A80B
:104270005B49FEF77CFB08A85A49FEF778FB04234C
:1042800008AA04A98DE8280004F56A700C23FFF73A
:10429000C7FB08A8FEF72AFB04A8FEF727FB04A823
:1042A0005149FEF764FB08A85049FEF760FB08AAD5
:1042B0004B4604A904F57770CDF800900195FFF7FF
:1042C000AFFB08A8FEF712FB04A8FEF70FFB04A83B
:1042D0004749FEF74CFB08A84649FEF748FB08AAE9
:1042E000102304A904F58260CDF800800195FFF742
:1042F00097FB08A8FEF7FAFA04A8FEF7F7FA04A855
:104300003D49FEF734FB08A83C49FEF730FB182373
:1043100008AA04A90AF58260CDF800900195FFF77C
:104320007FFB08A8FEF7E2FA04A8FEF7DFFA04A86C
:104330003349FEF71CFB08A83249FEF718FB08AA10
:104340000F2304A904F58F60CDF800B00197FFF7A3
:1043500067FB08A8FEF7CAFA04A8FEF7C7FA04A884
:104360002949FEF704FB08A82849FEF700FB08AA24
:104370001F2304A90AF58F6000960195FFF750FBF3
:1043800008A8FEF7B3FA04A8FEF7B0FA04A820497B
:10439000FEF7EDFA08A81F49FEF7E9FA342304A94D
:1043A00008AA8DE8280004F59C600F23FFF738FB6E
:1043B00008A8FEF79BFA04A8FEF798FA5046FFF704
:1043C00045FB0DB0BDE8F08F5E8000006680000008
:1043D0006E800000778000007D80000085800000F6
:1043E0008A8000009380000097800000A080000079
:1043F000AC800000B8800000C4800000CD800000C8
:10440000D5800000DC800000E0800000EA80000031
:10441000F1800000FC8000002DE9F74F1B4D834622
:1044200006460024AA46282202FB04A7D6F8181143
:104430000BEB041909F1C809796238464946019223
:10444000FEF7A8FAD6F82C112961D6F840114FF0E2
:104450000008696185F8208097F824004146FCF740
:10446000C9FB0B4BD6F854111C2707FB0437384601
:10447000B96101344946FEF78DFA043687F8148095
:104480002835052C019ACFD1BDE8FE8F5495FF1F2A
:10449000C894FF1F70B50446B2B0FFF7BDFF2046B9
:1044A000FFF7E6FC6846FFF7C9F9009B04AA07CAB4
:1044B00023609DF80C30237304F1100383E8070098
:1044C000079BE3619DF8243084F824309DF8253063
:1044D00084F825300AAB0FCB04F1280585E80F00DE
:1044E0000E9BA3639DF83C3084F83C30109B236402
:1044F000119B6364129BA364139BE364149B236569
:10450000159B6365169BA365179BE365189B236644
:10451000199B63661A9BA3661B9BE3661C9B236720
:104520001D9B63671E9B1FAEA3670FCE04F17C0526
:104530000FC596E8030085E80300259BC4F8943076
:10454000269BC4F89830279BC4F89C30289BC4F85D
:10455000A030299BC4F8A4302A9BC4F8A8302B9B18
:10456000C4F8AC302C9BC4F8B0302D9BC4F8B430E8
:104570002E9BC4F8B8302F9BC4F8BC30309BC4F8D5
:10458000C030319B04F10800C4F8C430FEF71EFFB0
:1045900020B908480849FFF747F9FEE704F1200071
:1045A000FFF7F4F820B903480349FEF75AFEFEE787
:1045B00032B070BD308DFF1F018100000A4B70B515
:1045C00003F1C8051126D0F84011D0F82C410A1B80
:1045D00092FBF6F2A4188A1A1C615A61283304303F
:1045E000AB42F0D170BD00BF5495FF1F10B5034919
:1045F0000446FEF7BCF9204610BD00BF3F81000015
:1046000070B51A4D0024281900212834FEF7AFF99F
:10461000C82CF8D100201649164A174D01F016FA99
:104620000024281900211C34FEF7A1F98C2CF8D1A4
:104630001249104A124D002001F008FA1148FFF704
:1046400043FA104810490B4A01F000FA002440F2E6
:10465000145628193434FFF737FAB442F9D10B490C
:10466000044A0020BDE8704001F0F0B95495FF1FE6
:10467000E53700000084FF1FC894FF1F01380000C9
:10468000B48FFF1F1C96FF1FB5370000C93700000D
:1046900008B503681B68984708BD0120704770473C
:1046A00013B50368DC6800230A468DF804308DF8E2
:1046B00005308DF8063001A9A0471CBD13B503686D
:1046C000DC6800230A468DF804308DF805308DF83B
:1046D000063001A9A0471CBD13B50368DC680023A0
:1046E0000A468DF804308DF805308DF8063001A9A2
:1046F000A0471CBD13B50368DC6800230A468DF88B
:1047000004308DF805308DF8063001A9A0471CBD96
:1047100013B50368DC6800230A468DF804308DF871
:1047200005308DF8063001A9A0471CBD70B510F109
:10473000C806044608D000F58C75B54204D0103D7B
:104740002846FEF7D3F8F8E7204670BD10B50446BA
:104750003030FFF7EBFF204610BDFFFF2DE9F3419E
:10476000714D044606460FCD0FC62B683360642694
:104770001E21666104F11800FEF7D0FA314604F1FB
:104780002400FEF7CBFA04F13000FFF7D3F8291D1F
:104790004FF48C7204F5CE7002F0DCFB04F52D7240
:1047A00004F2E441002006E0D0540833702BFBD122
:1047B00070328A4201D00023F6E70E220523C4F8A6
:1047C000E8240022C4F8E434C4F8EC24C4F8F0343B
:1047D0000222C4F8F834012384F8FC346421C4F8BC
:1047E000F42404F5A060FEF799FA504E504B1D6872
:1047F000336813F001070AD13046FBF7EDFF30B103
:104800004C4A4D4BD76030461360FBF7E7FF00235F
:104810004A4E0093284608234649494AFEF76BF959
:10482000336813F001070AD13046FBF7D5FF30B1EA
:10483000444A454BD76030461360FBF7CFFF002357
:10484000424E0093284608233E49414AFEF753F959
:10485000336813F001070AD13046FBF7BDFF30B1D2
:104860003C4A3D4BD76030461360FBF7B7FF00234F
:104870003A4E0093284608233649394AFEF73BF959
:10488000336813F001070AD13046FBF7A5FF30B1BA
:10489000344A354BD76030461360FBF79FFF002347
:1048A000324E0093284608232E49314AFEF723F959
:1048B000336813F001070AD13046FBF78DFF30B1A2
:1048C0002C4A2D4BD76030461360FBF787FF00263C
:1048D00028462849294A00960823FEF70CF9284A59
:1048E0006369D4F8E47482F80432214632460E2516
:1048F0000EE001EB830CDCF89C8103EB000C04EB75
:10490000CC0C0133CCF8B882B342F2DB013238313F
:10491000BA4205DAD4F8E864002305FB02F0F3E7B5
:104920002046BDE8FC8100BF108200005096FF1FAA
:10493000087D00005496FF1F508100006496FF1F01
:10494000B496FF1F6896FF1F788100007896FF1FBE
:10495000D896FF1F7C96FF1FA08100008C96FF1F3A
:10496000FC96FF1F9096FF1FC8810000A096FF1FB6
:104970002097FF1FA496FF1FF08100004497FF1FA0
:10498000408DFF1F2DE9FF47064623492348DFF8E6
:104990009480FEF759FC306F01F0C2F90B460221FA
:1049A000024600911D48FDF707FF306F01F09AFFA6
:1049B000FF2300936FF0B301B4220023FDF78CFFB7
:1049C0000024074606F1300021460022FF23FFF7AE
:1049D000B5F84FF024098246002509FB04F90321AC
:1049E00001FB0591FF2303A8414401358DF80C70AC
:1049F0008DF80D308DF80EA0FEF7E0F80C2DEED1FD
:104A00000134052CDED1064B186890F80412FEF72D
:104A100096F8BDE8FF8700BF3C830000308DFF1F84
:104A2000087D0000B496FF1F30B540F2DC5087B01F
:104A3000FCF71AF91248134CFFF72CFD02A8104995
:104A4000FFF7D4FD02A91048FDF743FE02A8FDF7C9
:104A50004DFF40F6B73501E0FFF742F823680848FC
:104A60000193019BAB42F7D9FFF7A8FD0749064820
:104A7000FEF7EAFB0448FDF74DFE07B030BD00BF6E
:104A80006897FF1F688AFF1F308DFF1F5283000049
:104A900008B504480021FFF76BF80348FFF772FFE1
:104AA00008BD00BF6897FF1FD498FF1F08B5FFF728
:104AB000BBFFFFF7EDFFFDF771FCFAE70D200121C9
:104AC000FCF798B810B50446FFF7F8FF20236360A1
:104AD000014BA36010BD00BF80F00F4010B504462D
:104AE000FCF7A4F82368C01A431E302B05D8C0F188
:104AF00032035B01013B7FF4FDAF10BD10B50446EE
:104B0000FCF794F8206010BD2DE9F74F0323464EC3
:104B100003FB002301933368346843F0200C24F036
:104B20002004424B3460186840F080701860404B9D
:104B3000186840F0010018603E4800230360557873
:104B4000036815FB01F577332D121746B04665E073
:104B50004FF00809D0F800A09A45FBD30368C6F8C7
:104B600000C0773315F0800F0CBF4FF0510A4FF0A3
:104B70002B0ACAEB030A6D00D0F800B0D345FBD373
:104B8000B9F10109C8F80040E4D192F8009019FB8E
:104B900001F94FEA29290825D0F800A09A45FBD34E
:104BA0000368C6F800C0773319F0800F0CBF4FF0D0
:104BB000510A4FF02B0ACAEB030A4FEA4909D0F811
:104BC00000B0D345FBD3013DC8F80040E4D192F8D2
:104BD000029019FB01F94FEA292903370825D0F87B
:104BE00000A09A45FBD30368C6F800C0773319F0DC
:104BF000800F0CBF4FF0510A4FF02B0ACAEB030A8B
:104C00004FEA4909D0F800B0D345FBD3013DC8F8BD
:104C10000040E4D1557815FB01F52D12DDF8049024
:104C20004F4595D3BDE8FE8F80F00F40FCED00E0CE
:104C3000001000E0041000E0F8B500F10C05284673
:104C40000E4614461F46FFF749FF72B62046394606
:104C50003246FFF759FF094B4FF46E714C43602108
:104C60001A6894FBF1F44FF47A7194FBF1F4A418F0
:104C70001C6062B62846FFF741FFF8BD688AFF1F37
:104C80002DE9F04F434F444B4FF0030808FB002839
:104C900038683D6825F020053D601C6844F080744C
:104CA0001C603E4B1C6844F001041C603C4C00231B
:104CB00023605678236816FB01F640F02000773316
:104CC0003612BC4662E04FF00809D4F800A09A45BD
:104CD000FBD323683860773316F0800F0CBF4FF09A
:104CE000510A4FF02B0ACAEB030A7600D4F800B041
:104CF000D345FBD3B9F10109CCF80050E5D192F8C6
:104D0000009019FB01F94FEA29290826D4F800A0E0
:104D10009A45FBD323683860773319F0800F0CBFB6
:104D20004FF0510A4FF02B0ACAEB030A4FEA490928
:104D3000D4F800B0D345FBD3013ECCF80050E5D108
:104D400092F8029019FB01F94FEA2929033208264B
:104D5000D4F800A09A45FBD323683860773319F064
:104D6000800F0CBF4FF0510A4FF02B0ACAEB030A19
:104D70004FEA4909D4F800B0D345FBD3013ECCF843
:104D80000050E5D1567816FB01F6361242459AD30B
:104D9000BDE8F08F80F00F40FCED00E0001000E077
:104DA000041000E0F8B500F10C0528460E46144644
:104DB0001F46FFF793FE72B6204639463246FFF78C
:104DC0005FFF094B4FF46E714C4360211A6894FBEE
:104DD000F1F44FF47A7194FBF1F4A4181C6062B6FC
:104DE0002846FFF78BFEF8BD688AFF1F14200121BB
:104DF000FBF700BF10B50446FFF7F8FF2023636000
:104E0000014BA36010BD00BFC0F00F402DE9F74F6C
:104E10000323464E03FB002301933368346843F0B9
:104E2000200C24F02004424B3460186840F080705D
:104E30001860404B186840F0010018603E4800239D
:104E400003605578036815FB01F577332D1217467B
:104E5000B04665E04FF00809D0F800A09A45FBD3B2
:104E60000368C6F800C0773315F0800F0CBF4FF011
:104E7000510A4FF02B0ACAEB030A6D00D0F800B0BC
:104E8000D345FBD3B9F10109C8F80040E4D192F849
:104E9000009019FB01F94FEA29290825D0F800A054
:104EA0009A45FBD30368C6F800C0773319F0800F2A
:104EB0000CBF4FF0510A4FF02B0ACAEB030A4FEA1E
:104EC0004909D0F800B0D345FBD3013DC8F80040F4
:104ED000E4D192F8029019FB01F94FEA292903372E
:104EE0000825D0F800A09A45FBD30368C6F800C097
:104EF000773319F0800F0CBF4FF0510A4FF02B0A97
:104F0000CAEB030A4FEA4909D0F800B0D345FBD3F6
:104F1000013DC8F80040E4D1557815FB01F52D128C
:104F2000DDF804904F4595D3BDE8FE8FC0F00F40EB
:104F3000FCED00E0001000E0041000E0F8B500F126
:104F40000C0528460E4614461F46FFF7C7FD72B6ED
:104F5000204639463246FFF759FF094B4FF46E7130
:104F60004C4360211A6894FBF1F44FF47A7194FB7E
:104F7000F1F4A4181C6062B62846FFF7BFFDF8BD27
:104F8000688AFF1F2DE9F04F434F444B4FF0030851
:104F900008FB002838683D6825F020053D601C6846
:104FA00044F080741C603E4B1C6844F001041C609B
:104FB0003C4C002323605678236816FB01F640F032
:104FC000200077333612BC4662E04FF00809D4F86F
:104FD00000A09A45FBD323683860773316F0800F22
:104FE0000CBF4FF0510A4FF02B0ACAEB030A7600B0
:104FF000D4F800B0D345FBD3B9F10109CCF8005087
:10500000E5D192F8009019FB01F94FEA2929082609
:10501000D4F800A09A45FBD323683860773319F0A1
:10502000800F0CBF4FF0510A4FF02B0ACAEB030A56
:105030004FEA4909D4F800B0D345FBD3013ECCF880
:105040000050E5D192F8029019FB01F94FEA2929A5
:1050500003320826D4F800A09A45FBD323683860B1
:10506000773319F0800F0CBF4FF0510A4FF02B0A25
:10507000CAEB030A4FEA4909D4F800B0D345FBD381
:10508000013ECCF80050E5D1567816FB01F63612F9
:1050900042459AD3BDE8F08FC0F00F40FCED00E030
:1050A000001000E0041000E0F8B500F10C052846FF
:1050B0000E4614461F46FFF711FD72B620463946CC
:1050C0003246FFF75FFF094B4FF46E714C4360218E
:1050D0001A6894FBF1F44FF47A7194FBF1F4A4187C
:1050E0001C6062B62846FFF709FDF8BD688AFF1FFD
:1050F00002200121FBF77EBD10B50446FFF7F8FF43
:1051000001236360014BA36010BD00BFC0F00F40DE
:105110002DE9F74F0323464E03FB00230193336829
:10512000346843F0010C24F00104424B34601868E9
:1051300040F080701860404B186840F00100186023
:105140003E48002303605578036815FB01F577336B
:105150002D121746B04665E04FF00809D0F800A0C0
:105160009A45FBD30368C6F800C0773315F0800F6B
:105170000CBF4FF0510A4FF02B0ACAEB030A6D0027
:10518000D0F800B0D345FBD3B9F10109C8F800400D
:10519000E4D192F8009019FB01F94FEA292908257A
:1051A000D0F800A09A45FBD30368C6F800C0773357
:1051B00019F0800F0CBF4FF0510A4FF02B0ACAEBC9
:1051C000030A4FEA4909D0F800B0D345FBD3013DAB
:1051D000C8F80040E4D192F8029019FB01F94FEAB7
:1051E000292903370825D0F800A09A45FBD3036886
:1051F000C6F800C0773319F0800F0CBF4FF0510A8A
:105200004FF02B0ACAEB030A4FEA4909D0F800B065
:10521000D345FBD3013DC8F80040E4D1557815FBD8
:1052200001F52D12DDF804904F4595D3BDE8FE8FB2
:10523000C0F00F40FCED00E0001000E0041000E0C2
:10524000F8B500F10C0528460E4614461F46FFF738
:1052500045FC72B6204639463246FFF759FF094BE6
:105260004FF46E714C4360211A6894FBF1F44FF4D3
:105270007A7194FBF1F4A4181C6062B62846FFF71B
:105280003DFCF8BD688AFF1F2DE9F04F434F444BAA
:105290004FF0030808FB002838683D6825F0010539
:1052A0003D601C6844F080741C603E4B1C6844F0F8
:1052B00001041C603C4C002323605678236816FBD5
:1052C00001F640F0010077333612BC4662E04FF041
:1052D0000809D4F800A09A45FBD3236838607733D7
:1052E00016F0800F0CBF4FF0510A4FF02B0ACAEB9B
:1052F000030A7600D4F800B0D345FBD3B9F1010915
:10530000CCF80050E5D192F8009019FB01F94FEA72
:1053100029290826D4F800A09A45FBD323683860D1
:10532000773319F0800F0CBF4FF0510A4FF02B0A62
:10533000CAEB030A4FEA4909D4F800B0D345FBD3BE
:10534000013ECCF80050E5D192F8029019FB01F92A
:105350004FEA292903320826D4F800A09A45FBD346
:1053600023683860773319F0800F0CBF4FF0510A73
:105370004FF02B0ACAEB030A4FEA4909D4F800B0F0
:10538000D345FBD3013ECCF80050E5D1567816FB4F
:1053900001F6361242459AD3BDE8F08FC0F00F40B7
:1053A000FCED00E0001000E0041000E0F8B500F1B2
:1053B0000C0528460E4614461F46FFF78FFB72B6B3
:1053C000204639463246FFF75FFF094B4FF46E71B6
:1053D0004C4360211A6894FBF1F44FF47A7194FB0A
:1053E000F1F4A4181C6062B62846FFF787FBF8BDED
:1053F000688AFF1F05200121FBF7FCBB10B504469E
:10540000FFF7F8FF80236360014BA36010BD00BF6E
:10541000C0F00F402DE9F74F0323464E03FB002356
:1054200001933368346843F0800C24F08004424BCD
:105430003460186840F080701860404B186840F085
:10544000010018603E48002303605578036815FB8F
:1054500001F577332D121746B04665E04FF0080985
:10546000D0F800A09A45FBD30368C6F800C0773394
:1054700015F0800F0CBF4FF0510A4FF02B0ACAEB0A
:10548000030A6D00D0F800B0D345FBD3B9F1010990
:10549000C8F80040E4D192F8009019FB01F94FEAF6
:1054A00029290825D0F800A09A45FBD30368C6F83F
:1054B00000C0773319F0800F0CBF4FF0510A4FF046
:1054C0002B0ACAEB030A4FEA4909D0F800B0D345CA
:1054D000FBD3013DC8F80040E4D192F8029019FBDB
:1054E00001F94FEA292903370825D0F800A09A4589
:1054F000FBD30368C6F800C0773319F0800F0CBFE8
:105500004FF0510A4FF02B0ACAEB030A4FEA490940
:10551000D0F800B0D345FBD3013DC8F80040E4D13A
:10552000557815FB01F52D12DDF804904F4595D304
:10553000BDE8FE8FC0F00F40FCED00E0001000E081
:10554000041000E0F8B500F10C0528460E4614469C
:105550001F46FFF7C3FA72B6204639463246FFF7B8
:1055600059FF094B4FF46E714C4360211A6894FB4C
:10557000F1F44FF47A7194FBF1F4A4181C6062B654
:105580002846FFF7BBFAF8BD688AFF1F2DE9F04FE8
:10559000434F444B4FF0030808FB002838683D6830
:1055A00025F080053D601C6844F080741C603E4B13
:1055B0001C6844F001041C603C4C002323605678B6
:1055C000236816FB01F640F0800077333612BC46A4
:1055D00062E04FF00809D4F800A09A45FBD3236895
:1055E0003860773316F0800F0CBF4FF0510A4FF040
:1055F0002B0ACAEB030A7600D4F800B0D345FBD3DC
:10560000B9F10109CCF80050E5D192F8009019FBEE
:1056100001F94FEA29290826D4F800A09A45FBD3BE
:1056200023683860773319F0800F0CBF4FF0510AB0
:105630004FF02B0ACAEB030A4FEA4909D4F800B02D
:10564000D345FBD3013ECCF80050E5D192F802904F
:1056500019FB01F94FEA292903320826D4F800A0E2
:105660009A45FBD323683860773319F0800F0CBF5D
:105670004FF0510A4FF02B0ACAEB030A4FEA4909CF
:10568000D4F800B0D345FBD3013ECCF80050E5D1AF
:10569000567816FB01F6361242459AD3BDE8F08FD4
:1056A000C0F00F40FCED00E0001000E0041000E04E
:1056B000F8B500F10C0528460E4614461F46FFF7C4
:1056C0000DFA72B6204639463246FFF75FFF094BA6
:1056D0004FF46E714C4360211A6894FBF1F44FF45F
:1056E0007A7194FBF1F4A4181C6062B62846FFF7A7
:1056F00005FAF8BD688AFF1F07200121FBF77ABA77
:1057000010B50446FFF7F8FF04236360014BA36064
:1057100010BD00BFC0F00F402DE9F74F0323464EE8
:1057200003FB002301933368346843F0040C24F036
:105730000404424B3460186840F080701860404B9D
:10574000186840F0010018603E4800230360557857
:10575000036815FB01F577332D121746B04665E057
:105760004FF00809D0F800A09A45FBD30368C6F8AB
:1057700000C0773315F0800F0CBF4FF0510A4FF087
:105780002B0ACAEB030A6D00D0F800B0D345FBD357
:10579000B9F10109C8F80040E4D192F8009019FB72
:1057A00001F94FEA29290825D0F800A09A45FBD332
:1057B0000368C6F800C0773319F0800F0CBF4FF0B4
:1057C000510A4FF02B0ACAEB030A4FEA4909D0F8F5
:1057D00000B0D345FBD3013DC8F80040E4D192F8B6
:1057E000029019FB01F94FEA292903370825D0F85F
:1057F00000A09A45FBD30368C6F800C0773319F0C0
:10580000800F0CBF4FF0510A4FF02B0ACAEB030A6E
:105810004FEA4909D0F800B0D345FBD3013DC8F8A1
:105820000040E4D1557815FB01F52D12DDF8049008
:105830004F4595D3BDE8FE8FC0F00F40FCED00E072
:10584000001000E0041000E0F8B500F10C05284657
:105850000E4614461F46FFF741F972B620463946F8
:105860003246FFF759FF094B4FF46E714C436021EC
:105870001A6894FBF1F44FF47A7194FBF1F4A418D4
:105880001C6062B62846FFF739F9F8BD688AFF1F29
:105890002DE9F04F434F444B4FF0030808FB00281D
:1058A00038683D6825F004053D601C6844F080744C
:1058B0001C603E4B1C6844F001041C603C4C0023FF
:1058C00023605678236816FB01F640F00400773316
:1058D0003612BC4662E04FF00809D4F800A09A45A1
:1058E000FBD323683860773316F0800F0CBF4FF07E
:1058F000510A4FF02B0ACAEB030A7600D4F800B025
:10590000D345FBD3B9F10109CCF80050E5D192F8A9
:10591000009019FB01F94FEA29290826D4F800A0C4
:105920009A45FBD323683860773319F0800F0CBF9A
:105930004FF0510A4FF02B0ACAEB030A4FEA49090C
:10594000D4F800B0D345FBD3013ECCF80050E5D1EC
:1059500092F8029019FB01F94FEA2929033208262F
:10596000D4F800A09A45FBD323683860773319F048
:10597000800F0CBF4FF0510A4FF02B0ACAEB030AFD
:105980004FEA4909D4F800B0D345FBD3013ECCF827
:105990000050E5D1567816FB01F6361242459AD3EF
:1059A000BDE8F08FC0F00F40FCED00E0001000E01B
:1059B000041000E0F8B500F10C0528460E46144628
:1059C0001F46FFF78BF872B6204639463246FFF77E
:1059D0005FFF094B4FF46E714C4360211A6894FBD2
:1059E000F1F44FF47A7194FBF1F4A4181C6062B6E0
:1059F0002846FFF783F8F8BD688AFF1F38B50D4DBC
:105A00000D480E4C4FF4FA71FDF788F92846FDF762
:105A100091FF28460A4D0B49224600F017F8284608
:105A2000FEF79CFE084928462246BDE8384000F0B3
:105A30000DB800BF6897FF1FE49DFF1F0084FF1F84
:105A4000D498FF1F2D4700004D470000034608462D
:105A5000194600F06DBF00BF81F0004102E000BFB9
:105A600083F0004330B54FEA41044FEA430594EA1E
:105A7000050F08BF90EA020F1FBF54EA000C55EA59
:105A8000020C7FEA645C7FEA655C00F0E2804FEA2A
:105A90005454D4EB5555B8BF6D420CDD2C4480EA0C
:105AA000020281EA030382EA000083EA010180EA3C
:105AB000020281EA0303362D88BF30BD11F0004F8A
:105AC0004FEA01314FF4801C4CEA113102D04042C0
:105AD00061EB410113F0004F4FEA03334CEA1333FB
