:1000000000800020BD010000B1070000B107000022
:10001000B1070000B1070000B10700007D07000034
:100020007D0700007D0700007D070000B10700008C
:10003000B10700007D070000B10700006D07000058
:10004000B1070000B1070000B1070000B1070000D0
:10005000B1070000B1070000B1070000B1070000C0
:10006000B1070000B1070000B1070000B1070000B0
:10007000B1070000B1070000B1070000B1070000A0
:10008000B1070000B1070000B1070000B107000090
:10009000B1070000B1070000B1070000B107000080
:1000A0007D2D0000B1070000B1070000B10700007E
:1000B000B1070000B1070000B1070000B107000060
:1000C000B1070000B1070000B1070000B107000050
:1000D000B1070000B1070000B1070000B107000040
:1000E000B1070000B1070000B1070000B107000030
:1000F000B1070000C5100000B1070000491400005E
:10010000B107000081170000B1070000B10700002F
:10011000B1070000B1070000B1070000B1070000FF
:10012000B1070000B1070000B1070000B1070000EF
:10013000B1070000B1070000B1070000B1070000DF
:10014000B1070000B1070000B1070000B1070000CF
:10015000052600001D260000352600004D26000063
:10016000B10700002D1A0000B1070000B107000020
:10017000B1070000B1070000B1070000B10700009F
:10018000B1070000B1070000B1070000B10700008F
:10019000B1070000B1070000B107000035090000F9
:1001A000850900000D0A0000C90A00004D0B00007F
:1001B000B1070000B1070000A12300004E4B4CF234
:1001C000205210B51A804DF628121A8000BF00BFC9
:1001D00000F0F2FA494B4FF010621A60484A9A60F8
:1001E000484ADA60484B1A6812F4807204D14749D1
:1001F0000A604FF4A8521A60454B1A7802F00802C0
:10020000D2B21AB11A7842F008021A700023414A99
:100210004148424C02E019599950043399188142DF
:10022000F9D33F4B3F4A002101E043F8041B9342BE
:10023000FBD33D4B00221A603C4B3D4A802103F822
:10024000011B9342FBD13B4B0A221A703A4B2422EA
:100250001A70A02203F8012C384A137803F0020325
:10026000DBB2002BF9D0354A137803F01003DBB270
:10027000002BF9D1314A137803F00C03082BFAD183
:100280002F4B03221A7040225A702C4A137803F025
:100290002003DBB2002BF9D0284A137803F0400387
:1002A000DBB2002BF9D0274A274B1A60274B2022BC
:1002B0001A70224A137803F00C030C2BFAD1244B4A
:1002C00002221A60234A43F8442C234B234A1A6023
:1002D000072243F8042C62B600F0DCFC0B4B1B68D1
:1002E000DC0702D51E4800F049FC05F04FFE00F087
:1002F00069FA03F02DFFFEE70E2005403080044030
:10030000823F04000100002B10D0034014D00340B2
:1003100002D007400084FF1FC089FF1F087700003C
:10032000C089FF1F8095FF1F08ED00E000E400E09A
:100330005FE400E0005006400140064006400640F1
:100340000440064000000301448004400040064091
:1003500048800440C010050014E000E0FF76010072
:10036000BC8C6453FFFFFFFFFFFFFFFFFFFFFFFF9A
:10037000FFFFFFFFFFFFFFFFFFFFFFFFFFFFFFFF8D
:10038000FFFFFFFFFFFFFFFFFFFFFFFFFFFFFFFF7D
:10039000FFFFFFFFFFFFFFFFFFFFFFFFFFFFFFFF6D
:1003A000FFFFFFFFFFFFFFFFFFFFFFFFFFFFFFFF5D
:1003B000FFFFFFFFFFFFFFFFFFFFFFFFFFFFFFFF4D
:1003C000FFFFFFFFFFFFFFFFFFFFFFFFFFFFFFFF3D
:1003D000FFFFFFFFFFFFFFFFFFFFFFFFFFFFFFFF2D
:1003E000FFFFFFFFFFFFFFFFFFFFFFFFFFFFFFFF1D
:1003F000FFFFFFFFFFFFFFFFFFFFFFFFFFFFFFFF0D
:10040000FFFFFFFFFFFFFFFFFFFFFFFFFEFFFFFFFD
:1004100008B548F6C010074BC1F6FF701B1A062B33
:1004200000D808BD40F20003C0F20003002BF8D052
:100430009847F6E7C389FF1F08B548F6C01048F68D
:10044000C013C1F6FF70C1F6FF731B1A9B1003EBBC
:10045000D373591000D108BD40F20002C0F200026F
:10046000002AF8D09047F6E710B548F6C014C1F658
:10047000FF74237873B9FFF7CBFF40F20003C0F29B
:1004800000032BB147F20870C0F20000AFF3008008
:100490000123237010BD00BF08B540F20003C0F275
:1004A00000034BB147F2087048F6C411C0F20000D7
:1004B000C1F6FF71AFF3008048F6C010C1F6FF70BF
:1004C00003682BB140F20003C0F2000303B1984768
:1004D000BDE80840FFF7B0BFF0B5304830490368C9
:1004E0001B06FCD40B6813F08002F8D172B62D4BBA
:1004F0001978002950D02C4908684F688E68CD685B
:100500000C6938181431801909684019001940180D
:10051000C0F34E00254940F400400860C86A0F6BE4
:100520004E6B8D6BCC6B38184031801909684019BF
:1005300000194018C0F34E001D4940F40040086007
:1005400001F10811143151F8140C51F8107C51F8D4
:100550000C6C51F8085C51F8044C09683818801983
:10056000401900194018C0F34E00124940F40040F1
:100570000860C86A0F6B4E6B8D6BCC6B38184031BE
:1005800080190968401900194018C0F34E000A4943
:1005900040F4004008601A7062B6F0BD24B0034019
:1005A00024B00B40DD89FF1F38B003402CB003405E
:1005B00030B003402CB00B4030B00B40224B6022D7
:1005C0001A70E1225A70214B214A1978214B0829CF
:1005D00001D1012102E00A2907D13921116013223A
:1005E0001A601D4B19605A600BE00C291A4901D1A1
:1005F000352000E03D20106012221A60174B086081
:100600001A60174B17491B78174A03B101230B6077
:100610001360164B164A1978164B012901D8802110
:100620000CE0042901D8842108E0082901D885219B
:1006300004E0102901D8862100E0872111601960AB
:100640000D4B01221A707047004007400484FF1FC1
:1006500008B003400CB0034008B00B400CB00B4096
:10066000E089FF1F20B0034020B00B400584FF1F2E
:1006700024B0034024B00B40DD89FF1F0D282DE975
:10068000F0410FD9172801D80E380AE0A0F11A035B
:10069000052B01D8093804E0A0F12203062B4DD820
:1006A0001838C0B2274B1C5C274B1B780BB1FFF7E7
:1006B00013FF72B6200614D4244D254E01272C605A
:1006C000377062B672B62B68190603D5214B1868CD
:1006D0001F4B23E03378002BF1D062B601F05EFEB1
:1006E000F0E704F040071C4D1C4EFFB204F03F043D
:1006F0004FF001081A4B1A6817B122F0100201E0FE
:1007000042F010021A602C6086F8008062B672B661
:100710002B681A060BD5134B1868104B00221A7061
:1007200062B6114B1B7840FA03F0BDE8F0813378D4
:10073000002BDFD062B601F031FEE8E70020BDE813
:10074000F08100BFF0700000DD89FF1F00B00340A2
:10075000DF89FF1F10B0034000B00B40DE89FF1F90
:100760000CB00B4010B00B40DC89FF1F024B1A6825
:1007700001321A60704700BF6C8AFF1F38B50B4CFE
:1007800025462368580301D501F050F92B68590517
:1007900001D500F097FC2B681A0501D500F054FE36
:1007A0002368DB04EDD500F0EBFFEAE7348004407A
:1007B00008B5FFF7E3FFFFFF014B10221A807047D7
:1007C000002005407047FFFF024A136818181060A8
:1007D000184670470884FF1F012070477047FFFFCD
:1007E000EFF313839BB9EFF3108098B9EFF3058310
:1007F00023B10F2B04D9084A985C01E04FF48070B4
:10080000EFF311833BB1984228BF184670474FF071
:10081000FF30704718467047F0E300E0002300E027
:100820000133C25C002AFBD11846704710B5002383
:10083000B0FBF2F402FB1400092801D8303000E0CC
:100840003730C85420460CB10133F1E7CA18547050
:10085000224605E0885CCC5C8C54C8540132013BD4
:100860009A42F7DB084610BD031E10B50C4603DBA9
:10087000BDE81040FFF7DABF2D2001F8010B584208
:10088000FFF7D4FF204610BD084B4FF400021A605A
:100890004FF080721A604FF000721A604FF0806261
:1008A0001A604FF000621A60704700BF08E100E074
:1008B000212830B521D8042A1FD8DFE802F0070923
:1008C000050B03000B2306E00A2304E0082302E0E3
:1008D0000C2300E00923094A02EBC002526872B6F9
:1008E0001468074D24F47024146044F0807444EAC2
:1008F000034345F82010136062B630BD0871000054
:10090000E489FF1F094B03EBC0035B6872B61A68EA
:1009100022F0877222F4803242F080721A60044B17
:10092000002243F8202062B6704700BF0871000023
:10093000E489FF1F114B10B51C68E0041C6004D54E
:100940000F4BDA680AB1DB689847A10404D50C4B59
:100950001A690AB11B699847A20604D5084B1A6E9A
:100960000AB11B6E9847E30606D5054BD3F88420E1
:1009700012B1D3F88430984710BD00BFA090044056
:10098000E489FF1F1F4B10B51C68E0031C6004D5F1
:100990001D4B1A680AB11B689847A10304D51A4B6E
:1009A0005A680AB15B689847E20704D5164B1A6C7F
:1009B0000AB11B6C9847A30704D5134B5A6C0AB1B4
:1009C0005B6C9847200704D50F4B9A6C0AB19B6C5F
:1009D0009847610704D50C4BDA6C0AB1DB6C984779
:1009E000220304D5084B5A6E0AB15B6E9847630325
:1009F00006D5054BD3F8802012B1D3F88030984744
:100A000010BD00BFA0A00440E489FF1F2C4B10B50F
:100A10001C6820071C6004D52A4B5A6A0AB15B6A1D
:100A20009847E10604D5274B9A6A0AB19B6A984712
:100A3000620604D5234BDA6A0AB1DB6A98472306BB
:100A400004D5204B1A6B0AB11B6B9847A00604D53E
:100A50001C4B5A6B0AB15B6B9847E10704D5194BE5
:100A6000DA6B0AB1DB6B9847A20704D5154B9A6D78
:100A70000AB19B6D9847630704D5124BDA6D0AB132
:100A8000DB6D9847A00504D50E4BDA6E0AB1DB6E1C
:100A90009847E10504D50B4B1A6F0AB11B6F9847B5
:100AA000620504D5074B5A6F0AB15B6F984723055F
:100AB00004D5044B9A6F0AB19B6F984710BD00BFD5
:100AC000A0B00440E489FF1F1E4B10B51C68E0076E
:100AD0001C6004D51C4B9A680AB19B689847210694
:100AE00004D5194B5A690AB15B699847E20604D5E7
:100AF000154B9A690AB19B699847630704D5124B55
:100B0000DA690AB1DB699847200704D50E4B1A6AE7
:100B10000AB11B6A9847A10704D50B4B9A6B0AB11F
:100B20009B6B9847A20604D5074B1A6D0AB11B6D43
:100B30009847630604D5044B5A6D0AB15B6D98471C
:100B400010BD00BFA0C00440E489FF1F094B10B5D1
:100B50001C68A2071C6004D5074B9A6E0AB19B6EF5
:100B60009847E30704D5044BDA6F0AB1DB6F984767
:100B700010BD00BFA0D00440E489FF1F044B05490D
:100B800000221A600A60044A106010221A6070473E
:100B900014D0034004D0034000D00340212810B5F6
:100BA00018D80D4A52F8303093F880423CB10122F7
:100BB00011B183F8802010BD83F8002110BD02EB35
:100BC000C00043681A6811B142F0030201E022F04C
:100BD00002021A6010BD00BF08710000212805D86C
:100BE000034B53F8303093F80002704700207047F1
:100BF00008710000212816D80B4A02EBC003012916
:100C00005B6852F8302004D182F880124FF4A2724F
:100C100008E0002082F8800211B94FF4807201E0F0
:100C200040F203121A6070470871000072B60B4B55
:100C30000B491A680B4B1B68096862B6490102D55B
:100C4000322A88BF0133C2F5BB32FF326021B2FBCA
:100C5000F1F24FF47A7000FB0320704718E000E0D7
:100C600004ED00E06C8AFF1F70B50446FFF7DEFF5D
:100C700005466CB140F2E736FFF7D8FF401BB042A3
:100C800003D9013C04D005F57A7501F087FBF3E741
:100C900070BDFFFF10B5FFF7F7FD164B164A174C56
:100CA00000204BF6FF711860596028231360936091
:100CB0001361936113629362136393630922226049
:100CC0000F4C20606160A360236144F8042C0D4C3C
:100CD00020600D4801600D490B608B600C4B1A6061
:100CE000FFF76CFC0420FFF7BFFFBDE8104001F0E8
:100CF000B3B900BF048003400C8003400080034070
:100D00000490034004800B4008800B400C800B4093
:100D100000800B401B4B1A6842F480621A601A4A2A
:100D200000231370194A1370194A1370194A13706B
:100D3000194A1370194B40F213321A604FF4517272
:100D40005A60174BC0F344321A70C0F347125A70FE
:100D500000F01F00134A987202210423137051748B
:100D6000D374114B88221A703C2203F80D2C0F4BC0
:100D700040226FF44A711A705B184FF400521A60E7
:100D8000704700BF34800440F28AFF1F718AFF1F42
:100D9000F88AFF1FF38AFF1F708AFF1F40A00440DC
:100DA00000A0064002A0064010A006402DE400E08E
:100DB000134A137800F0030103F0EC030B434107DF
:100DC00048BF43F01003137000F00F03042B04D14D
:100DD0000C4B1A7842F040021A700B4A1378C10685
:100DE00003F0EF0348BF43F010031370054A137874
:100DF000800603F0EF0348BF43F010031370704701
:100E000002A0064006A0064005A006400E4B1B6847
:100E1000580510B503D410BD01F0C0FA00E00B4C2A
:100E20002378002BF8D10A4A4FF400511160094A87
:100E30000949137040F203120A604A60074A1370AE
:100E4000074A137010BD00BF34800440708AFF1F32
:100E500084E100E003A0064040A00440F28AFF1FA6
:100E6000718AFF1F38B5094B04461D78002DFCD14F
:100E700020460121FFF7BEFE20462946FFF78EFEE1
:100E8000034B53F83420034B1A6038BD708AFF1FA0
:100E900008710000F48AFF1F1D4B1B685A052DE9DD
:100EA000F041064632D51B4B1B680BB101221A706C
:100EB000194B1A4D1C781A4FDFF86C8001343F2C07
:100EC00088BF002415E0FFF78BFC40280DDC3B7841
:100ED0001B060ED52B78134A01333F2B88BF002306
:100EE00018F8031011702B7003E0FF2801DD01F0EA
:100EF00055FA2B78A342E6D00B4B1E550B4B012223
:100F00001A70054B1C700A4BBC221A70BDE8F081A8
:100F100034800440F48AFF1FF88AFF1FF38AFF1F02
:100F200004A0064007A00640728AFF1F708AFF1FB8
:100F300003A006402DE9F84F254B1B6806465805CF
:100F4000884643D5234B1B680BB101221A70224DF2
:100F5000B346A94633E0214B1C782F7801343F2C4F
:100F600088BF0024A74209D01BF8012B1C4B1A553F
:100F70001C4B01221A70194B1C7020E01A4BDFF831
:100F800070A0BC221A70FFF72BFC40280FDC9AF8E7
:100F9000003019060FD52B78114A01333F2B88BF3B
:100FA0000023D15C114A117089F8003003E0FF285A
:100FB00001DD01F0F3F92B78BB42E4D0D4E706EB76
:100FC00008039B45C7D3084BBC221A70BDE8F88FB5
:100FD00034800440F48AFF1FF38AFF1FF88AFF1F42
:100FE000728AFF1F708AFF1F03A0064007A00640F9
:100FF00004A0064010B5044C01E001F0CFF92378BD
:10100000002BFAD110BD00BF708AFF1F044B187867
:10101000044B1B78984238BF4030C01A704700BF5D
:10102000F28AFF1F718AFF1F084B094A197813784B
:10103000994207D001333F2B88BF00230549C85C84
:10104000137070474FF0FF30704700BFF28AFF1FE8
:10105000718AFF1FB28AFF1F074B1A78074B1B7854
:101060009A4206D001333F2B88BF0023044AD05C4C
:1010700070474FF0FF307047F28AFF1F718AFF1FE1
:10108000B28AFF1F0A4B1B685B050FD5094B1A7804
:1010900002F0CB021A70084A402111701A7842F00F
:1010A00034021A70054B1A78054B1A70704700BF4E
:1010B0003480044003A0064011A00640718AFF1F3F
:1010C000F28AFF1FF0B5304B1B7813F0300F20D0A1
:1010D00072B62E4B197831B90F3B40221B782C4B3E
:1010E0001A7062B615E062B62A4B2B4C1A782B4B5D
:1010F0002B4D1878531C3F2B88BF00232678834242
:101100001CBFEE541A46013911F0FF01F2D1214BF8
:101110001A70244B1B7819465BB2002B1FDA1A4A4F
:10112000137818061BD5204B204E1F78204B1A4DE4
:101130001B78204CBB4209D001333F2B88BF0023D2
:101140001078F05C287020780728F3D9184A1370BB
:101150000D4B1B781A0602D5124B7C221A7001F037
:101160004003DBB27BB1084B1B7803F04003DBB2DA
:101170004BB1114B00221A70104B1B6803B11A704F
:10118000084B3C221A70F0BD04A0064016A0064091
:1011900011A00640F28AFF1F07A00640718AFF1FB8
:1011A000B28AFF1F03A00640F88AFF1F728AFF1F42
:1011B000F38AFF1F14A00640708AFF1FF48AFF1FE6
:1011C000164B1A6842F400621A60154A0023137025
:1011D000144A1370144A1370144A1370144A13708B
:1011E000144A40F2133111604FF451715160124AA8
:1011F000C0F344311170C0F3471100F01F0051706B
:101200009072937013740D4B2C221A700C4B402269
:101210001A700C4B4FF400421A607047348004403F
:10122000638BFF1FFA8AFF1F658BFF1F648BFF1FF5
:10123000F98AFF1F0CB0044000B0064003B006401E
:101240002FE400E004E100E0134A137800F003010A
:1012500003F0EC030B43410748BF43F01003137046
:1012600000F00F03042B04D10C4B1A7842F040021B
:101270001A700B4A1378C10603F0EF0348BF43F01E
:1012800010031370054A1378810603F0EF0348BF7B
:1012900043F010031370704702B0064006B00640DA
:1012A00005B006400E4B1B68180510B503D410BDE1
:1012B00001F074F800E00B4C2378002BF8D10A4AB7
:1012C0004FF400411160094A0949137040F20312BA
:1012D0000A604A60074A1370074A137010BD00BFC6
:1012E00034800440F98AFF1F84E100E003B0064027
:1012F0000CB00440638BFF1FFA8AFF1F1B4B1B6857
:101300001A052DE9F04106462DD5194B194D1C78CB
:10131000194FDFF86C800134272C88BF002415E0BA
:10132000FFF75EFA40280DDC3B781B060ED52B78C4
:10133000124A0133272B88BF002318F803101170BD
:101340002B7003E0FF2801DD01F028F82B78A34281
:10135000E6D00B4B1E550B4B01221A70044B1C7030
:10136000094BAC221A70BDE8F08100BF3480044004
:10137000658BFF1F648BFF1F04B0064007B006405B
:10138000FB8AFF1FF98AFF1F03B0064038B54518D6
:10139000044603E014F8010BFFF7B0FFAC42F9D1AB
:1013A00038BDFFFF10B5044C01E000F0F7FF2378D3
:1013B000002BFAD110BD00BFF98AFF1F044B18782B
:1013C000044B1B78984238BF4030C01A704700BFAA
:1013D000638BFF1FFA8AFF1F084B094A197813789D
:1013E000994207D001333F2B88BF00230549C85CD1
:1013F000137070474FF0FF30704700BF638BFF1FC3
:10140000FA8AFF1F238BFF1F074B1A78074B1B78A5
:101410009A4206D001333F2B88BF0023044AD05C98
:1014200070474FF0FF307047638BFF1FFA8AFF1F32
:10143000238BFF1F024B1A78024B1A70704700BFB4
:10144000FA8AFF1F638BFF1F10B5214B1B7803F037
:101450002003DBB273B11F4B1F4A18781F49137862
:10146000097801333F2B88BF00238B4202D01C49EF
:10147000C85413701B490B7818465BB2002B15DA61
:10148000134B1B781B0611D5174B184A1C78137881
:101490009C4202D16C230B7008E00133272B88BFDC
:1014A00000231349CC5C0B490C70137000F040030F
:1014B000DBB25BB1064B1B7803F04003DBB22BB110
:1014C0000C4B00221A70074B2C221A7010BD00BF63
:1014D00004B0064007B00640638BFF1FFA8AFF1F67
:1014E000238BFF1F03B00640658BFF1F648BFF1F1C
:1014F000FB8AFF1FF98AFF1F174B1A6842F48052BC
:101500001A60164A00231370154A1370154A137097
:10151000154A1370154A1370154A40F213311160C1
:101520004FF451715160134AC0F344311170C0F34C
:10153000471100F01F0051709072937013740E4B9E
:101540002C221A700D4B40226FF44B711A705B18ED
:101550004FF400321A60704734800440D08BFF1F74
:10156000678BFF1FD28BFF1FD18BFF1F668BFF1F67
:1015700008C0044000C0064003C0064031E400E05B
:10158000134A137800F0030103F0EC030B43410707
:1015900048BF43F01003137000F00F03042B04D175
:1015A0000C4B1A7842F040021A700B4A1378C106AD
:1015B00003F0EF0348BF43F010031370054A13789C
:1015C000800603F0EF0348BF43F010031370704729
:1015D00002C0064006C0064005C006400E4B1B6810
:1015E000D80410B503D410BD00F0D8FE00E00B4CB9
:1015F0002378002BF8D10A4A4FF400311160094AD0
:101600000949137040F203120A604A60074A1370D6
:10161000074A137010BD00BF34800440668BFF1F63
:1016200084E100E003C0064008C00440D08BFF1FE7
:10163000678BFF1F1B4B1B68DA042DE9F041064640
:101640002DD5194B194D1C78194FDFF86C800134DA
:10165000272C88BF002415E0FFF7C2F840280DDCD6
:101660003B781B060ED52B78124A0133272B88BFF7
:10167000002318F8031011702B7003E0FF2801DD20
:1016800000F08CFE2B78A342E6D00B4B1E550B4B83
:1016900001221A70044B1C70094BAC221A70BDE871
:1016A000F08100BF34800440D28BFF1FD18BFF1F1D
:1016B00004C0064007C00640688BFF1F668BFF1FF3
:1016C00003C0064038B54518044603E014F8010B82
:1016D000FFF7B0FFAC42F9D138BDFFFF10B5044CA5
:1016E00001E000F05BFE2378002BFAD110BD00BFB3
:1016F000668BFF1F044B1878044B1B78984238BF49
:101700004030C01A704700BFD08BFF1F678BFF1F90
:10171000084B094A19781378994207D001333F2BB7
:1017200088BF00230549C85C137070474FF0FF3035
:10173000704700BFD08BFF1F678BFF1F908BFF1F71
:10174000074B1A78074B1B789A4206D001333F2B80
:1017500088BF0023044AD05C70474FF0FF307047C9
:10176000D08BFF1F678BFF1F908BFF1F024B1A78D8
:10177000024B1A70704700BF678BFF1FD08BFF1F93
:1017800010B5214B1B7803F02003DBB273B11F4B64
:101790001F4A18781F491378097801333F2B88BFF7
:1017A00000238B4202D01C49C85413701B490B788C
:1017B00018465BB2002B15DA134B1B781B0611D5AC
:1017C000174B184A1C7813789C4202D16C230B707B
:1017D00008E00133272B88BF00231349CC5C0B4959
:1017E0000C70137000F04003DBB25BB1064B1B784A
:1017F00003F04003DBB22BB10C4B00221A70074BF5
:101800002C221A7010BD00BF04C0064007C006405D
:10181000D08BFF1F678BFF1F908BFF1F03C00640FD
:10182000D28BFF1FD18BFF1F688BFF1F668BFF1FA3
:101830001FB572B6124B70221A70124A41211170F4
:101840000F2102F8011C80221A701A781206FCD5AA
:1018500062B60D4B01A918680A22FEF7E7FF0B4894
:10186000002301AA9A5C2AB100EB430101330A2B41
:101870004A80F6D10133054A5B00137005B000BD04
:101880000000024007000240080002409484FF1F4D
:10189000F0B50C4B0C4C1A7842F0020504EBC5066F
:1018A00082F00102706009481A700678002E0CBFA1
:1018B0008827C82747EA014186F0010644F8351019
:1018C0000670F0BD3C8CFF1F0080FF1FB48CFF1F13
:1018D000431E032B10B510D872B6094A52F82300E4
:1018E00010B1416842F82310064A018832F81340CB
:1018F000611A22F8131062B610BD002010BD00BF9F
:101900002C8CFF1F6C95FF1F013803280BD872B673
:10191000064B53F82030002001E05B680130002BBB
:10192000FBD162B670470020704700BF808CFF1F5C
:1019300070B572B6184E194C01239A1912F8012C81
:1019400002F00802D2B2E2B19900144A54F83150C0
:101950002DB902EB431308305860114B09E041F0F8
:10196000010154F8315065B902EBC10308305860E9
:101970000C4B42F831300C4B1A78013A1A7062B6AF
:1019800070BD0133052BD8D162B6074B00221A7007
:10199000BDE8704000F0CCBB187200000080FF1F53
:1019A00088004000C8004000AA8CFF1F431E032B84
:1019B00030B532D84001194A40F01000101872B604
:1019C000174CE25C032A09D8DFE802F0160218057A
:1019D0000830022213E00830042210E01148124AB5
:1019E00050F8234014B940F8231002E052F82300C5
:1019F000416042F823100FE0032200E00522E25488
:101A000010F0080F01F108030A8843600CBF882317
:101A1000C82343EA0243036062B630BD0080FF1F63
:101A2000E88BFF1F808CFF1F908CFF1F2DE9F74F65
:101A3000A34EA44C357805F00403DBB2ABB1A24B46
:101A40001B7883B1A14A137823B1013BDBB2137039
:101A500003B900BE9E4A13782BB1013BDBB2137071
:101A60000BB900F079FC0423337005F00802D2B200
:101A7000002A00F07B82974B1B781D094FEA9309DF
:101A800040F0F98104EBC903586854F83930C3F3C6
:101A90008303013B0C2B00F2EB81DFE813F0A40180
:101AA000A401E901E901E901E901E901E901C00154
:101AB000E901E901E9010D004368874A01685360C3
:101AC000864B874844F83930864D11600023036007
:101AD0000120287089B240F28165A9422361A36187
:101AE00019D8B1F5D06F80F02881B1F5817F00F071
:101AF000D88006D8802900F0BE80822940F0398144
:101B0000BDE040F20230814200F00881B1F5A06FE3
:101B100040F02F8131E1B1F5106F10D004D8B1F54C
:101B2000086F40F02681A0E042F22100814200F0DF
:101B3000578100F50070814240F01B8115E19278D9
:101B4000614B604D1A702B6A180603D5686A083815
:101B500000F0EEFA644A08359542F4D1DFF8B0910E
:101B6000DFF8B0B10025A846CA4655F8090005E0DF
:101B70004368009300F0DCFA009B18460028F7D178
:101B80005A4B4AF8050045F80B00E85807E0426850
:101B90000093019200F0CCFA019A009B10460028B5
:101BA000F5D15851524BE850524B23F81800524B84
:101BB00018F80320023A032A08D8DFE802F00204EA
:101BC0000204002200E0012203F8082008F10108C5
:101BD0000435B8F1040FC8D1484BDFF83C9100221E
:101BE0001A7001259846464B05EB0902EB1812F8CE
:101BF000012C9B001A7002F00802D2B23AB300F036
:101C000079FAAB0038B104EB4512083050603D4A18
:101C100044F8332006E044F8330098F800300133EC
:101C200088F8003000F066FAAB0043F0010338B1E9
:101C300004EBC30208305060284A44F8332006E021
:101C400044F8330098F80030013388F80030AA00D7
:101C500042F00201013542F003020023052D44F851
:101C6000313044F83230BED187E0174B264D1B7817
:101C70002B70034684E0244D2B706B707FE09288BC
:101C8000042A00D975E0204D2B706B701F4B920019
:101C9000D3181B7803F00203DBB2002B6FD028703F
:101CA0006DE0918801F07F03042B62DC538803B15F
:101CB0005FE0164A89008A18117821F0020156E087
:101CC000802007400080FF1FB38CFF1F3D8CFF1F4B
:101CD000B58CFF1F90200740A08CFF1FC80040005C
:101CE000D48BFF1FB48CFF1F8080FF1F808CFF1FD1
:101CF000908CFF1F6C95FF1FE88BFF1FAA8CFF1FA6
:101D000030C8011088004000AB8CFF1FC020074086
:101D10002C8CFF1FD88BFF1F18720000918801F0D8
:101D20007F03042B25DC538803B122E0A04A8900FD
:101D30008A18117841F0020119E051889D4B928870
:101D400053F8085CA3F10C009DB133F80CCC8C4522
:101D500009D133F80ACC944505D1090A03290CBFEF
:101D60002B7803890CE00C33EAE79178924A1170E2
:101D700003E08F4B0F221A7032E01D4600E0022371
:101D80008E4AB2F806904B4538BF9946B9F1400FDC
:101D900034BFC8464FF0400828464146FFF778FD5B
:101DA000B9EB0809454403D1B8F1400F07D017E05B
:101DB000B9F1400F34BFC8464FF0400800E0C846B4
:101DC00028464146FFF764FDB9EB0809454402D1B6
:101DD000B8F1400F04D17A4B7A4A1D60A2F8009006
:101DE0000122794B43E0754B1A8842F221039A4253
:101DF00011D1764A0023C15C99540133072BFAD1E3
:101E0000724B1B68862B02D1714B0F221A70002077
:101E10000146FFF73DFD6F4B44F8393028E0684B31
:101E2000D3F80080B8F1000F18D0DFF89891B9F816
:101E300000A0BAF1400F34BF554640254046294620
:101E4000FFF726FDC5EB0A039BB2A9F800300BB9DA
:101E5000402D01D108EB0503594A1360574B1A88EE
:101E6000B2F5A06F04D100225A709A785A4B1A70BA
:101E70000122554B6DE004EBC90803F00803D8F8C4
:101E80000420013DD9B2A2F10800EDB2002937D0FB
:101E900000F04EF95148524B50F82510F1B14A6804
:101EA00040F8252001F10802C8F804205A5D032AF1
:101EB0000BD8DFE802F002040608032204E0022245
:101EC00002E0052200E004225A5518F0080F0A88A3
:101ED0000CBF8823C82343EA024342E05A5D032A29
:101EE00007D8DFE802F040400204002206E00122A9
:101EF00004E018F0080F0CBF022203225A5532E00A
:101F000054F839301B0C22F8083C23B322F8061C85
:101F100042F8041C334A344952F8257017B942F884
:101F2000250002E051F825205060304A41F8250094
:101F300032F815105B1822F8153000F0DBF818B1F4
:101F40000830C8F8040006E0294B44F839001A7834
:101F500001321A7007E01F4B264A18F0080F08BF1D
:101F6000134644F839300823337063E5E90751D547
:101F700015492048204C02230B70204B1A70204B2F
:101F8000186098601F481A61D8609A615C60084BBD
:101F90000D2018701C48FF23037000F8083C0274E1
:101FA0001A4A13701A4B9F221A7001230B704AE0D1
:101FB000C020074028720000C48CFF1FA08CFF1FA8
:101FC000D48BFF1FA88CFF1F942007407495FF1F20
:101FD0003D8CFF1FC800400098200740808CFF1FE9
:101FE000E88BFF1F2C8CFF1FD88BFF1F6C95FF1FEA
:101FF000AA8CFF1F88004000EC8BFF1F3C8CFF1F4A
:102000000080FF1F408CFF1F882007408C20074066
:10201000842007402B0605D50C4B0D221A70802218
:1020200003F8402C05F00203DBB22BB1084B1A7801
:102030001A70022203F8082C05F01005EDB215B154
:10204000044B10221A70BDE8FE8F00BFC02007406D
:10205000882007408020074008B5FFF7E9FB0023F0
:102060001E491A465A50C8180833882B4260F9D1C5
:102070001B4B1A6842F480221A601A4B80221A7095
:102080001978184A0906FBD4144B1749C3F30720E3
:102090000870C3F307401B0E08750B76FF2301F889
:1020A0001C3C01F8143C01F88C3C137843F04003CD
:1020B00013700021012302F8783C02F80C1C02F88E
:1020C000883C0A4B70226FF4507C1A7063444FF4C2
:1020D00000721A60064B10221A7008BD0080FF1FA4
:1020E000348004400C2107409C20074049E400E074
:1020F0000821074072B60C4A1168B1FA81F30B2B24
:1021000002D962B6002070474FF0004020FA03F079
:1021100021EA0001116062B6044948225343C818FD
:102120000022CA5042607047AC84FF1FA080FF1F8E
:102130000C4B4822C31AB3FBF2F30B2B11D80A4AFB
:10214000127822B1094A12780AB1FFF7F1BB72B6D0
:10215000074A4FF0004121FA03F311681943116057
:1021600062B67047A080FF1FAA8CFF1FB38CFF1FB1
:10217000AC84FF1F38B5114C23684BB10F4D286854
:102180004288811801320C7A01888A4212D30CE00D
:102190000B4B1B7813B94FF0FF340CE00320FFF713
:1021A00097FB20600028E9D1F5E7FFF7C1FF002386
:1021B0002B6000E04280204638BD00BFC08CFF1F6E
:1021C000B38CFF1F10B50C4C23681BB10A4B1B6866
:1021D0006BB902E0094B1B7813B94FF0FF3010BD0B
:1021E0000320FFF775FB20600028EFD1F5E75A8840
:1021F0009B18187A10BD00BFC08CFF1FB38CFF1F47
:10220000044B9888044B1B681BB11A885B88D31A4F
:10221000C01870476C95FF1FC08CFF1F2DE9F84355
:102220002D4B2E4DDFF8C08001220C461A70064659
:102230004BE02B682BBBDFF8A0904AF2F92798F807
:10224000003013B9244A137014E00420FFF75CFB3C
:10225000072808D8012389F80030FFF74BFF2860D2
:1022600078B989F80000013F1D4B01D01A782AB1D6
:1022700001221A704FF0FF30BDE8F88300F08EF8AD
:10228000DDE72968164A488800231370C0F1400230
:10229000944238BF224600F108078018CF194880C1
:1022A000A41A02E0F05CF85401339342FAD1F61814
:1022B0004B883F2B06D940230B800420FFF776FB89
:1022C00000232B60074B05221A70002CB1D1024B62
:1022D00020461C70BDE8F883B68CFF1FB88CFF1F2A
:1022E000BC8CFF1FB58CFF1FB38CFF1F07B502AB63
:1022F000012103F8010D1846FFF790FF0EBDFFFF07
:10230000F8B5114B1B78EBB1104E114B3468114DE1
:1023100001271F704CB1638800272F700420238091
:102320002146FFF743FB376009E0FFF7E3FE014674
:1023300020B104202C70FFF739FB00E02F70044B14
:1023400000221A70F8BD00BFB38CFF1FB88CFF1FAE
:10235000B68CFF1FB58CFF1F38B50D4B1D78ADB97E
:102360000C4C216831B14B8804200B80FFF71EFB19
:10237000256038BDFFF7BEFE014620B10420BDE850
:102380003840FFF713BB044B01221A7038BD00BF61
:10239000B68CFF1FB88CFF1FB58CFF1F7047FFFF67
:1023A000F8B5164B164D1A6842F080721A60154B3C
:1023B0001A6842F001021A60134B2E681C680FE085
:1023C000237A63B121682F680B68204698472A68F2
:1023D000E388D21B12099A42A28088BFE280646916
:1023E000002CEDD1064B094A1B689B1B1B0913806F
:1023F000074A11888B4288BF1380F8BDFCED00E0CE
:10240000041000E0001000E0C88CFF1FCE8CFF1FFE
:10241000CC8CFF1F10B5084614461146FEF78AFD06
:10242000204610BD084608B5FEF736FD012008BD60
:10243000FEF728BEFEF7DEBDFEF7F6BDFEF70CBECA
:10244000FEF7E4BD0846FEF70DBDFEF7DFBC480809
:1024500000F1376000F5D830B0FBF1F0FEF75ABC60
:10246000480800F1376010B500F5D830B0FBF1F046
:102470001446FEF74FFC2046BDE81040FEF798BC1E
:10248000044B00221A711A73034A4FF47A7199604F
:102490001A607047D08CFF1F7872000010B5084694
:1024A00014461146FEF772FF204610BD084608B5D7
:1024B000FEF724FF012008BDFEF7BCBFFEF772BF88
:1024C000FEF78ABFFEF7A0BFFEF778BFFEF7EABEB1
:1024D000480800F1376000F5D830B0FBF1F0FEF7A6
:1024E0006FBE480800F1376010B500F5D830B0FB7A
:1024F000F1F01446FEF764FE2046BDE81040FEF7FA
:10250000A3BEFFFF044B00221A711A73034A4FF453
:102510007A7199601A607047E08CFF1FB0720000FA
:1025200010B5084614461146FFF7CCF8204610BDFA
:10253000084608B5FFF77EF8012008BDFFF716B979
:10254000FFF7CCB8FFF7E4B8FFF7FAB8FFF7D2B857
:10255000FFF744B8480800F1B76000F55840B0FBF9
:10256000F1F0FEF7C9BF480800F1B76010B500F5FB
:102570005840B0FBF1F01446FEF7BEFF2046BDE820
:102580001040FEF7FDBFFFFF044B00221A711A73C3
:10259000034A4FF47A7199601A607047F08CFF1FFC
:1025A000E87200002DE9F041002407460D4626465A
:1025B0003B190A2219792846002300F0B9F82B6844
:1025C00080462E211B682846984701344044032C3E
:1025D0000644EDD12846F9790A22002300F0A8F834
:1025E0008019BDE8F081FFFF044B054A1A60002204
:1025F0001A715A719A71DA71704700BF008DFF1F0E
:102600002073000008B5034B01221A60024B1B68BF
:10261000984708BD0C710340108DFF1F08B5034B90
:1026200001221A60024B5B68984708BD1C71034089
:10263000108DFF1F08B5034B01221A60024B9B68E7
:10264000984708BD2C710340108DFF1F08B5034B40
:1026500001221A60024BDB68984708BD3C710340B9
:10266000108DFF1F054B01221A60054B1A6822F4DA
:1026700000021A60034B00221A707047007003407A
:102680003C8004400C8DFF1F037B0122591103F095
:102690001F0302FA03F3084A42F82130826800233C
:1026A00013604178054A5354D15C21B90133042B9E
:1026B000FAD1FFF7D7BF704780E100E0088DFF1F18
:1026C000037810B504460BB1FFF7DEFF002323703B
:1026D00010BD2DE9F04100258AB0074688468C6878
:1026E0002E4611E02B46404601A9212200F0C9F9EF
:1026F0003B68202C34BF224620225B68384601A963
:10270000AD18A41A98473618002CEBD130460AB001
:10271000BDE8F08107B5054B1B88ADF804300368B0
:1027200001A95B68022298470EBD00BF2873000014
:10273000F0B505468BB022B90368C9B21B6898474B
:102740002CE0012A08BF0A2221B930228DF8252069
:10275000212413E02124B1FBF2F002FB1011C9B2D5
:10276000092901D8303100E037310AAF3E1906F8A7
:10277000241C014610B1013CE4B2ECE733B1013C4A
:102780000AAAE4B213192D2203F8242C2B6801AFF6
:102790005B6828463919C4F1220298470BB0F0BD96
:1027A000002902DA49422D2300E000230A22FFF724
:1027B000BFBFFFFFFFFFFFFF2DE9F347074691462D
:1027C0009A4610461946002200239DF8284003F03F
:1027D000B7F820B10AF1004A4FF0010800E0804646
:1027E00000260022304B0AE0104619462CA3D3E9FC
:1027F000002302F033FE013602460B46F6B2A64233
:10280000F2D14846514602F077FC0D46044603F0EB
:10281000BFF881464346384649460A22FFF788FFFB
:102820008046002E37D0484602F0A2FD072E28BF72
:1028300007260B4602462946204602F05BFC01367D
:102840002E238DF80030F6B24FF001091BE0002274
:10285000164B02F003FE0D46044603F099F802AA57
:1028600002EB0903C0B200F1300203F8082C02F0B9
:102870008FFD09F1010902460B46204629465FFA01
:1028800089F902F037FCB145E1D13B6838465B6815
:1028900069464A4698474046BDE8FC87AFF300804A
:1028A0009A9999999999B93F0000E03F0000244016
:1028B00010B50446FFF704FF204610BD0348044945
:1028C000044A0023037002F00BBC00BF208DFF1FE1
:1028D000B12800000084FF1F0C4B0D4A1B680D48F7
:1028E000002B08BF134693FBF0F200FB12330A489B
:1028F000424344F2A71000FB03200028B8BF00F1B8
:102900000040024BB8BF013818607047348DFF1F7C
:1029100024D95B071DF30100ECF4FFFF10B5029C06
:10292000401AE41A4443521A94FBF2F0C01810BD46
:1029300010B50446006803F05DFB204610BD38B5B5
:1029400004460D460068013103F0B2FF10B184E87F
:102950002100012038BD43688B4210B5044600D3E6
:1029600006E0FFF7ECFF20B1A3680BB922681370F3
:10297000012010BDF8B504460F46154622B903687C
:1029800003B11A7000230BE01146FFF7E4FF06467F
:1029900040B9206810B103F02DFB2660002363606E
:1029A000A36004E0A5602068394604F085F920465C
:1029B000F8BD38B5002304460360436083600373A9
:1029C0000D4639B10846FDF729FF29460246204643
:1029D000FFF7D0FF204638BD81420B4603D009687F
:1029E0009A68FFF7C7BF7047002310B5044603601D
:1029F000436083600373FFF7EFFF204610BD70B59F
:102A000004460E4685685AB155192946FFF7A3FFBB
:102A100030B12068A3683146C01804F04DF9A560B4
:102A2000204670BD1FB504460A22084601A9FDF7DD
:102A30001BFF01A8FDF7F2FE01A902462046FFF7A1
:102A4000DEFF204604B010BD0B4610B509689A6839
:102A50000446FFF7D4FF204610BD38B505460C46A6
:102A600039B10846FDF7DAFE214602462846FFF74F
:102A7000C6FF284638BD10B50446FFF7D3FF2046F1
:102A800010BD38B50C469AB191B181688B4202D322
:102A90000023237038BDCD1A013A0168954228BF42
:102AA0001546C91820462A4604F064F900236355E8
:102AB00038BD08461146FFF7B1BB0846FFF716BC04
:102AC000FFF71EBCFFF77EBBFFF754BBFFF798BBB9
:102AD000044B00221A711A73034A4FF47A719960F9
:102AE0001A607047388DFF1F38730000202310B51F
:102AF000C0F80032FF23044680F8043200214FF46E
:102B0000007203F06BFE204610BDF8B50C46069926
:102B1000002901DC002701E01F460B46D0F800C267
:102B2000002103E00D01465926B101316145F9DB71
:102B300000240CE0013109D0411944518B60236815
:102B40004A60CF601B682046984700E03446204624
:102B5000F8BD2DE9F84306468846044600254FF0A7
:102B600003090FE054F8100B80B1036854F8042CEB
:102B700054F80C1C1F6909FB0211434654F8082C39
:102B8000B8470135D6F800229542EBDBBDE8F88363
:102B90000148FFF7ABBF00BF488DFF1F034B82B05A
:102BA0001B680193019B436002B070476C8AFF1F52
:102BB000002310B5044603708160FFF7EFFF204645
:102BC00010BDFFFF054A137803F00203DBB2002BB0
:102BD000F9D0024B02221A70704700BF0360064012
:102BE000094B1B7813B9094B1B782BB1084A137892
:102BF000202B03D901230371002070470548C154DD
:102C00000133137001207047B68FFF1F798FFF1FAC
:102C1000B78FFF1F588FFF1F7047FFFF024B1878B9
:102C2000024B1B78C01A7047B58FFF1FB48FFF1F70
:102C3000064A074913780978994204D90549C85CBE
:102C40000133137070474FF0FF307047B48FFF1F90
:102C5000B58FFF1F7A8FFF1F054B064A1B7812782E
:102C60009A4202D9044AD05C70474FF0FF30704757
:102C7000B48FFF1FB58FFF1F7A8FFF1F38B50E4B24
:102C80001B78144613B90D4B1B788BB10C4B1D7878
:102C9000C5F121039C4202D9012202711C46094858
:102CA0002246401903F07AFC054B2D191D7000E0F7
:102CB0001C46204638BD00BFB68FFF1F798FFF1F0F
:102CC000B78FFF1F588FFF1F10B5104B1B7813F0E5
:102CD00020040BD11220FDF715FE0D4B1B68A3B18C
:102CE0000C4A14700C4A1078984710BD0B4A1378A0
:102CF0000133DBB2012B137002D8094B1B7823B9C7
:102D00001220BDE81040FDF7FDBD10BD0360064078
:102D1000548FFF1FB48FFF1FB58FFF1FA08FFF1FA2
:102D2000798FFF1F002202710273034A4FF47A71F8
:102D300081600260704700BF607300000B4B00228F
:102D40001A700B4B1A6842F040021A60094A4FF49D
:102D50001973136042F8043C074B27221A700422AF
:102D60005A7120221A7180225A707047798FFF1F82
:102D7000348004400CA004400160064010B5374A7E
:102D8000137803F01001C9B221B903F04002D2B2A6
:102D900042B92EE01021117003F04002D2B2002A95
:102DA000F3D110BD13F004032D4A18D00023137083
:102DB0002C4A13702C4B1B68144603B19847227899
:102DC0002A4B1AB927491A7001200870284AD021C5
:102DD00011701A78274B1A700122274B21E001212C
:102DE0001170264A1370224BC0221A7002331B78CE
:102DF00030E01F4A1F4C117811F0100117D013F06A
:102E0000010310D11C4917480A780078904205D96F
:102E1000164B9B5C013223700A7000E02370144B48
:102E2000D0221A7016E0C0231370237812E0144BDE
:102E30001220197003221349FDF73AFD0F4A20783A
:102E400013781F2B06D80649097819B10E49C854C2
:102E500001331370014B02221A7010BD036006404B
:102E6000508FFF1FB78FFF1F9C8FFF1F588FFF1FB3
:102E70000260064004600640B88FFF1FB58FFF1F39
:102E8000A08FFF1FC92C00007A8FFF1F044B054A3B
:102E90004900197001231370034A1370704700BF73
:102EA000588FFF1FB68FFF1FB78FFF1F2DE9F0410F
:102EB000204B12221A70204A0D46117801F0200191
:102EC000C9B211B1B42313700BE019460A7802F0AD
:102ED0002002D3B2002BF9D1184A1370164BB0223E
:102EE0001A700024164E174FDFF8608013E03B5D28
:102EF00088F80030FFF766FE0E4B1B78DA0704D522
:102F0000002C14BF032002200BE003F01003DBB2FF
:102F100033B90134E4B23378A342E8D8002000E0AA
:102F2000042015B1044B80221A70074B00221A703E
:102F3000BDE8F0810360064002600640798FFF1F04
:102F4000B78FFF1F588FFF1FB68FFF1F046006400B
:102F50002DE9F0471446344A1E4600231370334AC5
:102F60001370334B12221A70324A107800F020008E
:102F7000C0B210B1B42313700BE01846027802F00F
:102F80002002D3B2002BF9D12B4A1370294BB02267
:102F90001A704900294D41F001012970FFF712FE16
:102FA000234B244A1B7813F0110F04D08023137095
:102FB0000020BDE8F0872CB9002E0CBFA02680268B
:102FC0001670F5E7012C01D1A82300E0A0231370AF
:102FD0002B781B4FDFF86480DFF8589025464FF0C0
:102FE000A80A0BE0013DEDB2FFF7ECFD012D08BF93
:102FF00089F800A098F8003007F8013F012DF1D1C1
:10300000FFF7E0FD0B4B0F49B0221A700B4A107806
:10301000621ED2B2885420460EB180221A70034B31
:103020001C70BDE8F08700BFB48FFF1FB58FFF1F76
:103030000360064002600640798FFF1F046006406F
:10304000798FFF1F7A8FFF1F0123FFF781BF0121B7
:10305000FFF72CBF0148FFF765BE00BFA48FFF1F1D
:10306000704770470177704738B528220C460546EF
:103070000846002103F0B2FB0B222046084903F06A
:1030800079FE0023E3720122E260AA696362226191
:10309000002302226261A361E361236238BD00BFA5
:1030A0009073000038B528220C46054608460021DA
:1030B00003F094FB08490B22204603F05BFE00233B
:1030C000E3726969636201220023E2602161626147
:1030D000A361E361236238BD9073000038B50446F4
:1030E00008460D46FDF79AFB236802465B682046BA
:1030F0002946984738BD38B50446FFF7EFFF054627
:103100002046FFF707FB281838BD08B50368C9B289
:103110001B68984708BDFFFF70B5094C154620464F
:103120001E46FFF7B3FE29462046FFF759FD20460D
:103130003146FFF755FD2046BDE87040FFF787BFD9
:10314000A48FFF1F2DE9F047192104462548FFF7FA
:103150009DFEA8212348FFF7D8FF2248FFF777FFFD
:10316000204819210622FFF76FFF1E48FFF756FD82
:103170000528FADD1B48FFF75BFD81461948FFF77C
:1031800057FD82461748FFF753FD07461548FFF7DE
:103190004FFD80461348FFF74BFD05461148FFF7EA
:1031A00047FD5FFA8AFA5FFA89F9064649EA0A207A
:1031B00040F30B1002F0C6FC5FFA88F8FFB2A06083
:1031C00047EA082040F30B1002F0BCFCF6B2EDB267
:1031D000E06045EA062040F30B1002F0B3FC2061EA
:1031E000BDE8F087A48FFF1F73B524260C46324636
:1031F00005460846002103F0F1FA2846FFF7A2FF32
:103200006B69A86863600123A3600F4B0F491B68BB
:1032100026600193019B236102F0E8FC0C4902F057
:10322000E5FC6061E868094902F0E0FC084902F049
:10323000DDFCA0612869054902F0D8FC044902F0D0
:10324000D5FCE0617CBD00BF6C8AFF1F6F12833A22
:103250000AE81C41014A4161026070474074000065
:1032600010B504460548FFF769FD204619212022C4
:103270005723FFF751FF012010BD00BFA48FFF1F90
:1032800070B5094C154620461E46FFF7FFFD29463E
:103290002046FFF7A5FC20463146FFF7A1FC20465B
:1032A000BDE87040FFF7D3BEA48FFF1F2DE9F047A4
:1032B0001E2104462548FFF7E9FD03212348FFF7B7
:1032C00024FF2248FFF7C3FE20481E210622FFF7F5
:1032D000BBFE1E48FFF7A2FC0528FADD1B48FFF7DE
:1032E000A7FC82461948FFF7A3FC81461748FFF761
:1032F0009FFC06461548FFF79BFC05461348FFF761
:1033000097FC80461148FFF793FC5FFA8AFA5FFA50
:1033100089F9074649EA0A2000B202F013FC5FFA75
:1033200088F8FFB2A06047EA082000B202F00AFC69
:10333000F6B2EDB2E06045EA062000B202F002FC0F
:10334000002320616361BDE8F08700BFA48FFF1FE9
:10335000024A816102600022027770478073000098
:1033600038B50C4605461E2101222346FFF788FF8B
:10337000802C6C711DD006D8402C10D0602C13D03E
:10338000202C2BD106E0C02C1DD0E02C20D0A02C6E
:1033900024D113E0124A134B1A60134A1CE0134A5B
:1033A000104B1A60124A17E0124A0E4B1A60124A6A
:1033B00012E0124A0B4B1A60114A0DE0104A094BF9
:1033C0001A60104A08E0104A064B1A600F4A03E0E0
:1033D0000F4A044B1A600F4A0F4B1A6038BD00BFEA
:1033E00000808944B484FF1F0000754400C0554428
:1033F00000003E4400802744000016440000E143E2
:103400000000C84300007F430000A54300809343B1
:103410000000664300004D43B884FF1F2DE9F04FC4
:10342000242285B004460D460846002103F0D6F953
:1034300002262046FFF73AFF237F33BB24232B606D
:10344000A369A0686B600223AB60674B1B680393A2
:10345000039B2B61654B1E68314602F07BFC64497F
:1034600002F0C4FB6861E068314602F073FC604919
:1034700002F0BCFB5F4BA8611968206902F06AFC8E
:103480005B4902F0B3FBE861ABE0A06801F092FF9A
:10349000009602460B465848FFF78EF957495648A2
:1034A000FFF71CFEE06801F085FF009602460B4620
:1034B0005148FFF781F951494F48FFF70FFE206946
:1034C00001F078FF009602460B464B48FFF774F96F
:1034D0004A494948FFF70FFED4F808B04849D4F8E4
:1034E0000C80276958464FF0010902F027FD08B902
:1034F0004FF00009584643494FF0010A02F028FDF9
:1035000000B9824640463F4949EA0A094FF0010A9C
:1035100002F01EFD08B94FF0000A4046384949EA5A
:103520000A094FF0010A02F009FD00B98246384647
:10353000344949EA0A0A4FF0010802F009FD08B9C6
:103540004FF000084AEA080A1AF0FF0F0BD138467C
:103550002B494FF0010802F0F1FC00B9804618F049
:10356000FF0F3FF46BAF6379602B23D005D8202B7E
:103570002ED0402B7FF462AF23E0A02B0CD0C02BC9
:1035800003D0802B7FF45AAF0DE02046E021FFF7F7
:10359000E7FE19481C4921E02046C021FFF7E0FE64
:1035A00015481A491AE02046A021FFF7D9FE124813
:1035B000174913E020468021FFF7D2FE0E48154937
:1035C0000CE020466021FFF7CBFE0B48124905E0D6
:1035D00020464021FFF7C4FE07481049FFF78BFD46
:1035E00027E705B0BDE8F08F6C8AFF1FB484FF1F8A
:1035F0000000C842B884FF1F388DFF1FF074000020
:1036000000A07FC500A07F4597730000B173000044
:10361000CB730000E5730000FF7300001974000015
:1036200010B504460748FFF789FB20461E210222F9
:103630000023FFF725FE20462021FFF791FE012001
:1036400010BD00BFA48FFF1F10B500210446083035
:10365000FFF7AFF904F118000021FFF7AAF920469F
:1036600010BD10B504461830FFF762F904F10800E8
:10367000FFF75EF9204610BD10B5094C04F190002B
:10368000FFF7EFFF04F16000FFF7EBFF04F13000FC
:10369000FFF7E7FF2046BDE81040FFF7E2BF00BF9D
:1036A000EC8FFF1F38B5054CA4F1C8052046283C17
:1036B000FFF73EF9AC42F9D138BD00BF7C91FF1F46
:1036C00038B5054CA4F1C8052046283CFFF730F971
:1036D000AC42F9D138BD00BF4492FF1F10B504467B
:1036E000FFF7BEFC201D47F25D61FFF7B3FD04F15B
:1036F0001C0047F25E61FFF72BFE0A4A0A49A264EA
:1037000062650A4AE164A265094A0023E36323640F
:1037100063642365E26522666366A366E3662367E6
:10372000204610BD0000B4420000B4C20000344383
:103730000000B041F8B5224E37460446FFF7CEFFF1
:103740000FCF04F1A8050FC53B681E492B6004F19B
:10375000BC00FFF72EF904F1CC001B49FFF729F953
:1037600004F1DC001949FFF724F904F1EC001849D1
:10377000FFF71FF906F1140704F1FC001549FFF7E4
:1037800018F90FCF04F586750FC53B6806F12807B9
:103790002B600FCF04F590750FC53B6806F13C0711
:1037A0002B600FCF04F59A750FC53B6850362B6020
:1037B0000FCE04F5A4750FC5336820462B60F8BD05
:1037C00050740000B4740000BA740000C0740000AB
:1037D000C7740000CC74000037B51546054A009345
:1037E000282404FB01242B46E0696169A269FFF7E4
:1037F00095F83EBDA491FF1F2DE9F74F0025374CEA
:103800008B462F462E464FF0010A207CFCF736FFF0
:10381000642300936169A269E0610023FFF77EF8E9
:103820003228206204DD84F824A046F0010602E07C
:10383000002384F82430042DDFF8BC8018BF760004
:103840004FF0000998F81000FDF7C8F988F824A097
:1038500008B147F00107B9F1070F09F1010918BFD5
:103860007F00B9F1080F08F12808EBD11C4B83F851
:10387000286083F82970BBF1000F25D0174B194839
:10388000282101FB0531FEF724FF17491548FFF7F2
:1038900025FCE1691348FEF783FF14491148FFF73F
:1038A0001DFC216A0F48FEF77BFF11490D48FFF709
:1038B00015FC94F824100B480A220023FEF738FF69
:1038C00008480C49FFF70AFC01352834052D9CD126
:1038D000044803B0BDE8F04FFEF71CBFA491FF1FE2
:1038E0006C92FF1F388DFF1FD3740000DA74000044
:1038F000E2740000ED740000DC90FF1F2DE9F04140
:103900006E4B6F4C00254FF01F088CB083F8288059
:1039100083F829506B4B0E272146684683F82870A0
:1039200083F82950FFF745F82146674C04A804F1B5
:103930000806FFF73EF869463046FFF74DF804A940
:1039400004F11800FFF748F8782384F8293084F848
:103950002880E56204A8FEF7EBFF6846FEF7E8FF63
:1039600068465A49FFF725F804A85949FFF721F896
:10397000694604F1C800FFF72FF804A904F1D80044
:10398000FFF72AF8F02384F8E9300423C4F8EC3078
:1039900084F8E85004A8FEF7CBFF6846FEF7C8FF9E
:1039A00068464C49FFF705F804A84B49FFF701F8B2
:1039B000694604F13800FFF70FF804A904F1480044
:1039C000FFF70AF8602384F859300123E36584F88F
:1039D000587004A8FEF7ACFF6846FEF7A9FF6846DA
:1039E0003E49FEF7E6FF04A83D49FEF7E2FF6946BF
:1039F00004F16800FEF7F0FF04A904F17800FEF777
:103A0000EBFF132384F8883084F889300223C4F84C
:103A10008C3004A8FEF78CFF6846FEF789FF6846E5
:103A20003049FEF7C6FF04A82F49FEF7C2FF6946DA
:103A300004F19800FEF7D0FF04A904F1A800FEF7F6
:103A4000CBFF0F2384F8B830702384F8B9300323F8
:103A5000C4F8BC3004A8FEF76BFF6846FEF768FFA9
:103A600008A82249FEF7A5FF314608A8FEF7ECFF9B
:103A70001F49FEF7F2FF94F82810FEF7FCFF1D49DE
:103A8000FEF7EBFF94F829101B4CFEF7F4FF0146FC
:103A900004A8FEF7A9FF08A8FEF74AFF04A92046DC
:103AA000FEF717FE2046FEF735FE6420FDF7DCF832
:103AB00004A8FEF73DFF0CB0BDE8F081AC90FF1FFD
:103AC000F2740000BC8FFF1FEC8FFF1FF974000021
:103AD00000750000057500000E75000016750000E9
:103AE000237500002F750000387500004075000038
:103AF0004775000052750000388DFF1F2DE9F04713
:103B00001B4C002507460646A1464FF0280AA8464A
:103B1000D6F80C3107EB05112361BC310AFB059087
:103B2000FEF75AFFD6F82031207C6361D6F8343195
:103B300084F82480A36100210135FDF75BF8043689
:103B40002834052DE4D10B4E00244FF00A083D190E
:103B5000022195F84801FDF74DF808FB0463D5F8FC
:103B600048210434102C1A61F1D1BDE8F08700BF60
:103B7000A491FF1FDC90FF1F30B50446ABB0FFF7E8
:103B8000BDFF2046FFF7BAFE6846FFF7A7FD03AA70
:103B900007CA9DF80830237204F10C0383E807007C
:103BA000069BA3619DF8203084F820309DF82130D9
:103BB00084F8213009AB0FCB04F1240585E80F0010
:103BC0000D9B63639DF8383084F838300F9BE363B6
:103BD000109B2364119B6364129BA364139BE36497
:103BE000149B2365159B6365169BA365179BE36573
:103BF000189B2366199B63661A9BA3661B9BE3664F
:103C00001C9B23671D9B63671E9BA3671F9BE3672A
:103C1000209BC4F88030219BC4F88430229BC4F8D8
:103C20008830239BC4F88C30249BC4F89030259BAB
:103C3000C4F89430269BC4F89830279BC4F89C3075
:103C4000289BC4F8A030299B201DC4F8A430FFF79E
:103C500007FB38B90B480C49FFF740FA0948FEF753
:103C600059FDFEE704F11C00FFF7DAFC38B90548FE
:103C70000549FFF733FA0348FEF74CFDFEE72BB08A
:103C800030BD00BF388DFF1F5F75000010B50349C0
:103C90000446FEF78EFE204610BD00BF9075000062
:103CA00038B5214D0024281900212834FEF781FE63
:103CB000C82CF8D100201D491D4A1E4D01F010FAF4
:103CC0000024281900212834FEF773FEC82CF8D1EF
:103CD0001949174A194D002001F002FA1848FFF758
:103CE000B3FC1849124A164801F0FAF91648FFF7D2
:103CF000ABFC14490E4A144801F0F2F91348FFF7DF
:103D0000A3FC12480F490A4A01F0EAF900242819D5
:103D10003034FFF799FCC02CF9D10D49044A00203A
:103D2000BDE8384001F0DCB9A491FF1FC1360000A6
:103D30000084FF1FDC90FF1FA5360000EC8FFF1FE3
:103D40006C92FF1F63360000AC90FF1FBC8FFF1FFB
:103D500079360000054B1A8840F60500504300F5FF
:103D6000585019301880C0B2704700BFB084FF1F90
:103D700008B503681B68984708BD01207047704765
:103D800013B50368DC6800230A468DF804308DF80B
:103D900005308DF8063001A9A0471CBD13B5036896
:103DA000DC6800230A468DF804308DF805308DF864
:103DB000063001A9A0471CBD13B50368DC680023C9
:103DC0000A468DF804308DF805308DF8063001A9CB
:103DD000A0471CBD13B50368DC6800230A468DF8B4
:103DE00004308DF805308DF8063001A9A0471CBDC0
:103DF00013B50368DC6800230A468DF804308DF89B
:103E000005308DF8063001A9A0471CBD70B510F132
:103E1000BC06044608D000F58675B54204D0103DB6
:103E20002846FEF785FDF8E7204670BD90F804129D
:103E3000FEF78FBE73B53F4B3F4D1C682B6813F0E8
:103E400001060AD12846FCF7C7FC30B13B4A3C4B7F
:103E5000D66028461360FCF7C1FC0023394D00935F
:103E6000204608233549384AFEF74FFE2B6813F0E9
:103E700001060AD12846FCF7AFFC30B1334A344B77
:103E8000D66028461360FCF7A9FC0023314D00934F
:103E9000204608232D49304AFEF737FE2B6813F0E1
:103EA00001060AD12846FCF797FC30B12B4A2C4B6F
:103EB000D66028461360FCF791FC0023294D00933F
:103EC000204608232549284AFEF71FFE2B6813F0D9
:103ED00001060AD12846FCF77FFC30B1234A244B67
:103EE000D66028461360FCF779FC0023214D00932F
:103EF000204608231D49204AFEF707FE2B6813F0D1
:103F000001060AD12846FCF767FC30B11B4A1C4B5E
:103F1000D66028461360FCF761FC00230093194A21
:103F2000164908232046FEF7F0FD174B642283F85C
:103F300004227CBD507300009C92FF1FA092FF1FC3
:103F4000A0750000B092FF1F0093FF1FB492FF1FE7
:103F5000C8750000C492FF1F2493FF1FC892FF1F63
:103F6000F0750000D892FF1F4893FF1FDC92FF1FDF
:103F700018760000EC92FF1F6C93FF1FF092FF1F5A
:103F8000407600009093FF1F488DFF1F1FB50B4C1C
:103F90004FF4FA70FCF768FEFFF74CFF2046FFF77E
:103FA000EBFD68462146FFF771FE69460448FEF7BF
:103FB00090FB6846FEF7BCFC1FBD00BFC093FF1F0F
:103FC000388DFF1F31B109B28B010902C91A0912DC
:103FD0000131C9B201F03F039B000A0603D5FF225D
:103FE0000270427006E011F0400105D0FF224370DC
:103FF00002700023837070470370417081707047B6
:104000002DE9F74F0A2778430C2390FBF3F702378B
:104010008846FFB200252F4E58E094F801A0FFF724
:1040200099FE10FB07F0AAEB202A2AEAEA7A04F8A4
:1040300001AF294B9C42F0D1A3F10D010320043BB9
:104040001A46013B1478527802EB440292FBF0F2DC
:104050008B42DA70F4D1FFF77DFE404515DAFFF7A9
:1040600079FE00B2C400241A2412DFF870A01AF8F6
:1040700004B0FFF76FFE5F2310FB03F00212603AFB
:104080005B4683FA52F30AF804302423002403FB2E
:1040900005F9124A4FF0030B115D01A8FFF792FFDB
:1040A0000BFB049B9DF8042006EB0B0A06F80B2083
:1040B0009DF8052001348AF801209DF806200C2C7B
:1040C0008AF80220E5D10135052D01D0044CA4E782
:1040D000BDE8FE8F0093FF1F2B95FF1F2095FF1F4C
:1040E0001F95FF1F38B504460D46FEF7F5FB084B3C
:1040F0001A888018188029462046FFF781FF054B53
:104100001868FFF793FE1020BDE83840FCF7ACBDFF
:10411000B084FF1F5073000038B50C4C01212046BD
:10412000FFF76AFB0021142264232046FFF754FBAB
:104130000121054632222046C823FFF74DFB0146E8
:104140002846BDE83840FFF7CDBF00BFC093FF1F32
:1041500008B5FFF71BFFFFF7DFFFFEF71FF9FAE7D0
:104160000D200121FCF746BD10B50446FFF7F8FF0E
:1041700020236360014BA36010BD00BF80F00F409F
:1041800010B50446FCF752FD2368C01A431E302BBD
:1041900005D8C0F132035B01013B7FF4FDAF10BDD8
:1041A00010B50446FCF742FD206010BD2DE9F74F25
:1041B0000323464E03FB002301933368346843F026
:1041C000200C24F02004424B3460186840F08070CA
:1041D0001860404B186840F0010018603E4800230A
:1041E00003605578036815FB01F577332D121746E8
:1041F000B04665E04FF00809D0F800A09A45FBD31F
:104200000368C6F800C0773315F0800F0CBF4FF07D
:10421000510A4FF02B0ACAEB030A6D00D0F800B028
:10422000D345FBD3B9F10109C8F80040E4D192F8B5
:10423000009019FB01F94FEA29290825D0F800A0C0
:104240009A45FBD30368C6F800C0773319F0800F96
:104250000CBF4FF0510A4FF02B0ACAEB030A4FEA8A
:104260004909D0F800B0D345FBD3013DC8F8004060
:10427000E4D192F8029019FB01F94FEA292903379A
:104280000825D0F800A09A45FBD30368C6F800C003
:10429000773319F0800F0CBF4FF0510A4FF02B0A03
:1042A000CAEB030A4FEA4909D0F800B0D345FBD363
:1042B000013DC8F80040E4D1557815FB01F52D12F9
:1042C000DDF804904F4595D3BDE8FE8F80F00F4098
:1042D000FCED00E0001000E0041000E0F8B500F193
:1042E0000C0528460E4614461F46FFF749FF72B6D6
:1042F000204639463246FFF759FF094B4FF46E719D
:104300004C4360211A6894FBF1F44FF47A7194FBEA
:10431000F1F4A4181C6062B62846FFF741FFF8BD0F
:104320006C8AFF1F2DE9F04F434F444B4FF00308B9
:1043300008FB002838683D6825F020053D601C68B2
:1043400044F080741C603E4B1C6844F001041C6007
:104350003C4C002323605678236816FB01F640F09E
:10436000200077333612BC4662E04FF00809D4F8DB
:1043700000A09A45FBD323683860773316F0800F8E
:104380000CBF4FF0510A4FF02B0ACAEB030A76001C
:10439000D4F800B0D345FBD3B9F10109CCF80050F3
:1043A000E5D192F8009019FB01F94FEA2929082676
:1043B000D4F800A09A45FBD323683860773319F00E
:1043C000800F0CBF4FF0510A4FF02B0ACAEB030AC3
:1043D0004FEA4909D4F800B0D345FBD3013ECCF8ED
:1043E0000050E5D192F8029019FB01F94FEA292912
:1043F00003320826D4F800A09A45FBD3236838601E
:10440000773319F0800F0CBF4FF0510A4FF02B0A91
:10441000CAEB030A4FEA4909D4F800B0D345FBD3ED
:10442000013ECCF80050E5D1567816FB01F6361265
:1044300042459AD3BDE8F08F80F00F40FCED00E0DC
:10444000001000E0041000E0F8B500F10C0528466B
:104450000E4614461F46FFF793FE72B620463946B5
:104460003246FFF75FFF094B4FF46E714C436021FA
:104470001A6894FBF1F44FF47A7194FBF1F4A418E8
:104480001C6062B62846FFF78BFEF8BD6C8AFF1FE2
:1044900014200121FCF7AEBB10B50446FFF7F8FF6E
:1044A00020236360014BA36010BD00BFC0F00F402C
:1044B0002DE9F74F0323464E03FB00230193336896
:1044C000346843F0200C24F02004424B3460186818
:1044D00040F080701860404B186840F00100186090
:1044E0003E48002303605578036815FB01F57733D8
:1044F0002D121746B04665E04FF00809D0F800A02D
:104500009A45FBD30368C6F800C0773315F0800FD7
:104510000CBF4FF0510A4FF02B0ACAEB030A6D0093
:10452000D0F800B0D345FBD3B9F10109C8F8004079
:10453000E4D192F8009019FB01F94FEA29290825E6
:10454000D0F800A09A45FBD30368C6F800C07733C3
:1045500019F0800F0CBF4FF0510A4FF02B0ACAEB35
:10456000030A4FEA4909D0F800B0D345FBD3013D17
:10457000C8F80040E4D192F8029019FB01F94FEA23
:10458000292903370825D0F800A09A45FBD30368F2
:10459000C6F800C0773319F0800F0CBF4FF0510AF6
:1045A0004FF02B0ACAEB030A4FEA4909D0F800B0D2
:1045B000D345FBD3013DC8F80040E4D1557815FB45
:1045C00001F52D12DDF804904F4595D3BDE8FE8F1F
:1045D000C0F00F40FCED00E0001000E0041000E02F
:1045E000F8B500F10C0528460E4614461F46FFF7A5
:1045F000C7FD72B6204639463246FFF759FF094BD0
:104600004FF46E714C4360211A6894FBF1F44FF43F
:104610007A7194FBF1F4A4181C6062B62846FFF787
:10462000BFFDF8BD6C8AFF1F2DE9F04F434F444B8F
:104630004FF0030808FB002838683D6825F0200586
:104640003D601C6844F080741C603E4B1C6844F064
:1046500001041C603C4C002323605678236816FB41
:1046600001F640F0200077333612BC4662E04FF08E
:104670000809D4F800A09A45FBD323683860773343
:1046800016F0800F0CBF4FF0510A4FF02B0ACAEB07
:10469000030A7600D4F800B0D345FBD3B9F1010981
:1046A000CCF80050E5D192F8009019FB01F94FEADF
:1046B00029290826D4F800A09A45FBD3236838603E
:1046C000773319F0800F0CBF4FF0510A4FF02B0ACF
:1046D000CAEB030A4FEA4909D4F800B0D345FBD32B
:1046E000013ECCF80050E5D192F8029019FB01F997
:1046F0004FEA292903320826D4F800A09A45FBD3B3
:1047000023683860773319F0800F0CBF4FF0510ADF
:104710004FF02B0ACAEB030A4FEA4909D4F800B05C
:10472000D345FBD3013ECCF80050E5D1567816FBBB
:1047300001F6361242459AD3BDE8F08FC0F00F4023
:10474000FCED00E0001000E0041000E0F8B500F11E
:104750000C0528460E4614461F46FFF711FD72B69B
:10476000204639463246FFF75FFF094B4FF46E7122
:104770004C4360211A6894FBF1F44FF47A7194FB76
:10478000F1F4A4181C6062B62846FFF709FDF8BDD5
:104790006C8AFF1F02200121FCF72CBA10B50446D9
:1047A000FFF7F8FF01236360014BA36010BD00BF5A
:1047B000C0F00F402DE9F74F0323464E03FB0023C3
:1047C00001933368346843F0010C24F00104424B38
:1047D0003460186840F080701860404B186840F0F2
:1047E000010018603E48002303605578036815FBFC
:1047F00001F577332D121746B04665E04FF00809F2
:10480000D0F800A09A45FBD30368C6F800C0773300
:1048100015F0800F0CBF4FF0510A4FF02B0ACAEB76
:10482000030A6D00D0F800B0D345FBD3B9F10109FC
:10483000C8F80040E4D192F8009019FB01F94FEA62
:1048400029290825D0F800A09A45FBD30368C6F8AB
:1048500000C0773319F0800F0CBF4FF0510A4FF0B2
:104860002B0ACAEB030A4FEA4909D0F800B0D34536
:10487000FBD3013DC8F80040E4D192F8029019FB47
:1048800001F94FEA292903370825D0F800A09A45F5
:10489000FBD30368C6F800C0773319F0800F0CBF54
:1048A0004FF0510A4FF02B0ACAEB030A4FEA4909AD
:1048B000D0F800B0D345FBD3013DC8F80040E4D1A7
:1048C000557815FB01F52D12DDF804904F4595D371
:1048D000BDE8FE8FC0F00F40FCED00E0001000E0EE
:1048E000041000E0F8B500F10C0528460E46144609
:1048F0001F46FFF745FC72B6204639463246FFF7A1
:1049000059FF094B4FF46E714C4360211A6894FBB8
:10491000F1F44FF47A7194FBF1F4A4181C6062B6C0
:104920002846FFF73DFCF8BD6C8AFF1F2DE9F04FCC
:10493000434F444B4FF0030808FB002838683D689C
:1049400025F001053D601C6844F080741C603E4BFE
:104950001C6844F001041C603C4C00232360567822
:10496000236816FB01F640F0010077333612BC468F
:1049700062E04FF00809D4F800A09A45FBD3236801
:104980003860773316F0800F0CBF4FF0510A4FF0AC
:104990002B0ACAEB030A7600D4F800B0D345FBD348
:1049A000B9F10109CCF80050E5D192F8009019FB5B
:1049B00001F94FEA29290826D4F800A09A45FBD32B
:1049C00023683860773319F0800F0CBF4FF0510A1D
:1049D0004FF02B0ACAEB030A4FEA4909D4F800B09A
:1049E000D345FBD3013ECCF80050E5D192F80290BC
:1049F00019FB01F94FEA292903320826D4F800A04F
:104A00009A45FBD323683860773319F0800F0CBFC9
:104A10004FF0510A4FF02B0ACAEB030A4FEA49093B
:104A2000D4F800B0D345FBD3013ECCF80050E5D11B
:104A3000567816FB01F6361242459AD3BDE8F08F40
:104A4000C0F00F40FCED00E0001000E0041000E0BA
:104A5000F8B500F10C0528460E4614461F46FFF730
:104A60008FFB72B6204639463246FFF75FFF094B8F
:104A70004FF46E714C4360211A6894FBF1F44FF4CB
:104A80007A7194FBF1F4A4181C6062B62846FFF713
:104A900087FBF8BD6C8AFF1F05200121FCF7AAB82F
:104AA00010B50446FFF7F8FF80236360014BA36055
:104AB00010BD00BFC0F00F402DE9F74F0323464E55
:104AC00003FB002301933368346843F0800C24F027
:104AD0008004424B3460186840F080701860404B8E
:104AE000186840F0010018603E48002303605578C4
:104AF000036815FB01F577332D121746B04665E0C4
:104B00004FF00809D0F800A09A45FBD30368C6F817
:104B100000C0773315F0800F0CBF4FF0510A4FF0F3
:104B20002B0ACAEB030A6D00D0F800B0D345FBD3C3
:104B3000B9F10109C8F80040E4D192F8009019FBDE
:104B400001F94FEA29290825D0F800A09A45FBD39E
:104B50000368C6F800C0773319F0800F0CBF4FF020
:104B6000510A4FF02B0ACAEB030A4FEA4909D0F861
:104B700000B0D345FBD3013DC8F80040E4D192F822
:104B8000029019FB01F94FEA292903370825D0F8CB
:104B900000A09A45FBD30368C6F800C0773319F02C
:104BA000800F0CBF4FF0510A4FF02B0ACAEB030ADB
:104BB0004FEA4909D0F800B0D345FBD3013DC8F80E
:104BC0000040E4D1557815FB01F52D12DDF8049075
:104BD0004F4595D3BDE8FE8FC0F00F40FCED00E0DF
:104BE000001000E0041000E0F8B500F10C052846C4
:104BF0000E4614461F46FFF7C3FA72B620463946E2
:104C00003246FFF759FF094B4FF46E714C43602158
:104C10001A6894FBF1F44FF47A7194FBF1F4A41840
:104C20001C6062B62846FFF7BBFAF8BD6C8AFF1F0E
:104C30002DE9F04F434F444B4FF0030808FB002889
:104C400038683D6825F080053D601C6844F080743C
:104C50001C603E4B1C6844F001041C603C4C00236B
:104C600023605678236816FB01F640F08000773306
:104C70003612BC4662E04FF00809D4F800A09A450D
:104C8000FBD323683860773316F0800F0CBF4FF0EA
:104C9000510A4FF02B0ACAEB030A7600D4F800B091
:104CA000D345FBD3B9F10109CCF80050E5D192F816
:104CB000009019FB01F94FEA29290826D4F800A031
:104CC0009A45FBD323683860773319F0800F0CBF07
:104CD0004FF0510A4FF02B0ACAEB030A4FEA490979
:104CE000D4F800B0D345FBD3013ECCF80050E5D159
:104CF00092F8029019FB01F94FEA2929033208269C
:104D0000D4F800A09A45FBD323683860773319F0B4
:104D1000800F0CBF4FF0510A4FF02B0ACAEB030A69
:104D20004FEA4909D4F800B0D345FBD3013ECCF893
:104D30000050E5D1567816FB01F6361242459AD35B
:104D4000BDE8F08FC0F00F40FCED00E0001000E087
:104D5000041000E0F8B500F10C0528460E46144694
:104D60001F46FFF70DFA72B6204639463246FFF766
:104D70005FFF094B4FF46E714C4360211A6894FB3E
:104D8000F1F44FF47A7194FBF1F4A4181C6062B64C
:104D90002846FFF705FAF8BD6C8AFF1F072001219E
:104DA000FBF728BF10B50446FFF7F8FF0423636044
:104DB000014BA36010BD00BFC0F00F402DE9F74FBD
:104DC0000323464E03FB002301933368346843F00A
:104DD000040C24F00404424B3460186840F08070E6
:104DE0001860404B186840F0010018603E480023EE
:104DF00003605578036815FB01F577332D121746CC
:104E0000B04665E04FF00809D0F800A09A45FBD302
:104E10000368C6F800C0773315F0800F0CBF4FF061
:104E2000510A4FF02B0ACAEB030A6D00D0F800B00C
:104E3000D345FBD3B9F10109C8F80040E4D192F899
:104E4000009019FB01F94FEA29290825D0F800A0A4
:104E50009A45FBD30368C6F800C0773319F0800F7A
:104E60000CBF4FF0510A4FF02B0ACAEB030A4FEA6E
:104E70004909D0F800B0D345FBD3013DC8F8004044
:104E8000E4D192F8029019FB01F94FEA292903377E
:104E90000825D0F800A09A45FBD30368C6F800C0E7
:104EA000773319F0800F0CBF4FF0510A4FF02B0AE7
:104EB000CAEB030A4FEA4909D0F800B0D345FBD347
:104EC000013DC8F80040E4D1557815FB01F52D12DD
:104ED000DDF804904F4595D3BDE8FE8FC0F00F403C
:104EE000FCED00E0001000E0041000E0F8B500F177
:104EF0000C0528460E4614461F46FFF741F972B6C8
:104F0000204639463246FFF759FF094B4FF46E7180
:104F10004C4360211A6894FBF1F44FF47A7194FBCE
:104F2000F1F4A4181C6062B62846FFF739F9F8BD01
:104F30006C8AFF1F2DE9F04F434F444B4FF003089D
:104F400008FB002838683D6825F004053D601C68B2
:104F500044F080741C603E4B1C6844F001041C60EB
:104F60003C4C002323605678236816FB01F640F082
:104F7000040077333612BC4662E04FF00809D4F8DB
:104F800000A09A45FBD323683860773316F0800F72
:104F90000CBF4FF0510A4FF02B0ACAEB030A760000
:104FA000D4F800B0D345FBD3B9F10109CCF80050D7
:104FB000E5D192F8009019FB01F94FEA292908265A
:104FC000D4F800A09A45FBD323683860773319F0F2
:104FD000800F0CBF4FF0510A4FF02B0ACAEB030AA7
:104FE0004FEA4909D4F800B0D345FBD3013ECCF8D1
:104FF0000050E5D192F8029019FB01F94FEA2929F6
:1050000003320826D4F800A09A45FBD32368386001
:10501000773319F0800F0CBF4FF0510A4FF02B0A75
:10502000CAEB030A4FEA4909D4F800B0D345FBD3D1
:10503000013ECCF80050E5D1567816FB01F6361249
:1050400042459AD3BDE8F08FC0F00F40FCED00E080
:10505000001000E0041000E0F8B500F10C0528464F
:105060000E4614461F46FFF78BF872B620463946A7
:105070003246FFF75FFF094B4FF46E714C436021DE
:105080001A6894FBF1F44FF47A7194FBF1F4A418CC
:105090001C6062B62846FFF783F8F8BD6C8AFF1FD4
:1050A00010B54FF4FA71094C0948FDF781FD1E2136
:1050B0000848FDF77DFD2046FEF73CFB0649074A00
:1050C0002046BDE8104000F00BB800BFC093FF1FA2
:1050D000B493FF1F2C95FF1F0D3E00000084FF1F9F
:1050E00003460846194600F047BF00BF81F0004163
:1050F00002E000BF83F0004330B54FEA41044FEABD
:10510000430594EA050F08BF90EA020F1FBF54EA57
:10511000000C55EA020C7FEA645C7FEA655C00F0F3
:10512000E2804FEA5454D4EB5555B8BF6D420CDDC4
:105130002C4480EA020281EA030382EA000083EA47
:10514000010180EA020281EA0303362D88BF30BDE7
:1051500011F0004F4FEA01314FF4801C4CEA11313D
:1051600002D0404261EB410113F0004F4FEA03339C
:105170004CEA133302D0524263EB430394EA050F27
:1051800000F0A780A4F10104D5F1200E0DDB02FA96
:105190000EFC22FA05F2801841F1000103FA0EF22A
:1051A000801843FA05F359410EE0A5F120050EF1F0
:1051B000200E012A03FA0EFC28BF4CF0020C43FA21
:1051C00005F3C01851EBE37101F0004507D54FF02E
:1051D000000EDCF1000C7EEB00006EEB0101B1F57E
:1051E000801F1BD3B1F5001F0CD349085FEA3000C4
:1051F0004FEA3C0C04F101044FEA445212F5800FCF
:1052000080F09A80BCF1004F08BF5FEA500C50F16B
:10521000000041EB045141EA050130BD5FEA4C0C4E
:10522000404141EB010111F4801FA4F10104E9D1D7
:1052300091F0000F04BF01460020B1FA81F308BFCE
:105240002033A3F10B03B3F120020CDA0C3208DD9A
:1052500002F1140CC2F10C0201FA0CF021FA02F175
:105260000CE002F11402D8BFC2F1200C01FA02F1E5
:1052700020FA0CFCDCBF41EA0C019040E41AA2BF0A
:1052800001EB0451294330BD6FEA04041F3C1CDAD2
:105290000C340EDC04F11404C4F1200220FA04F0F2
:1052A00001FA02F340EA030021FA04F345EA03019C
:1052B00030BDC4F10C04C4F1200220FA02F001FA5E
:1052C00004F340EA0300294630BD21FA04F02946E0
:1052D00030BD94F0000F83F4801306BF81F4801179
:1052E0000134013D4EE77FEA645C18BF7FEA655CEC
:1052F00029D094EA050F08BF90EA020F05D054EABE
:10530000000C04BF1946104630BD91EA030F1EBFC2
:105310000021002030BD5FEA545C05D140004941C6
:1053200028BF41F0004130BD14F580043CBF01F5B9
:10533000801130BD01F0004545F0FE4141F470019F
:105340004FF0000030BD7FEA645C1ABF194610467A
:105350007FEA655C1CBF0B46024650EA013406BF7B
:1053600052EA033591EA030F41F4002130BD00BF3A
:1053700090F0000F04BF0021704730B54FF48064F7
:1053800004F132044FF000054FF0000150E700BF78
:1053900090F0000F04BF0021704730B54FF48064D7
:1053A00004F1320410F0004548BF40424FF00001C4
:1053B0003EE700BF42004FEAE2014FEA31014FEA07
:1053C00002701FBF12F07F4393F07F4F81F0605156
:1053D000704792F0000F14BF93F07F4F704730B5C5
:1053E0004FF4607401F0004521F0004120E700BF58
:1053F00050EA010208BF704730B54FF000050AE0DF
:1054000050EA010208BF704730B511F0004502D5DF
:10541000404261EB41014FF4806404F132045FEAE1
:10542000915C3FF4DCAE4FF003025FEADC0C18BF86
:1054300003325FEADC0C18BF033202EBDC02C2F17C
:10544000200300FA03FC20FA02F001FA03FE40EA0E
:105450000E0021FA02F11444C1E600BF70B54FF00E
:10546000FF0C4CF4E06C1CEA11541DBF1CEA1355F0
:1054700094EA0C0F95EA0C0F00F0DEF82C4481EA58
:10548000030621EA4C5123EA4C5350EA013518BF78
:1054900052EA033541F4801143F4801338D0A0FB65
:1054A00002CE4FF00005E1FB02E506F00042E0FB12
:1054B00003E54FF00006E1FB03569CF0000F18BF18
:1054C0004EF0010EA4F1FF04B6F5007F64F54074C0
:1054D00004D25FEA4E0E6D4146EB060642EAC62153
:1054E00041EA55514FEAC52040EA5E504FEACE2EC0
:1054F000B4F1FD0C88BFBCF5E06F1ED8BEF1004FC3
:1055000008BF5FEA500E50F1000041EB045170BD3E
:1055100006F0004646EA010140EA020081EA030182
:10552000B4EB5C04C2BFD4EB0C0541EA045170BD7E
:1055300041F480114FF0000E013C00F3AB8014F1F8
:10554000360FDEBF002001F0004170BDC4F1000441
:10555000203C35DA0C341BDC04F11404C4F12005C2
:1055600000FA05F320FA04F001FA05F240EA02001D
:1055700001F0004221F0004110EBD37021FA04F653
:1055800042EB06015EEA430E08BF20EAD37070BD0D
:10559000C4F10C04C4F1200500FA04F320FA05F06C
:1055A00001FA04F240EA020001F0004110EBD3706E
:1055B00041F100015EEA430E08BF20EAD37070BDDE
:1055C000C4F1200500FA05F24EEA020E20FA04F3B7
:1055D00001FA05F243EA020321FA04F001F0004166
:1055E00021FA04F220EA020000EBD3705EEA430ED7
:1055F00008BF20EAD37070BD94F0000F0FD101F006
:105600000046400041EB010111F4801F08BF013C3E
:10561000F7D041EA060195F0000F18BF704703F07C
:105620000046520043EB030313F4801F08BF013D03
:10563000F7D043EA0603704794EA0C0F0CEA1355BF
:1056400018BF95EA0C0F0CD050EA410618BF52EA79
:105650004306D1D181EA030101F000414FF000007F
:1056600070BD50EA410606BF1046194652EA43068D
:1056700019D094EA0C0F02D150EA013613D195EA01
:105680000C0F05D152EA03361CBF104619460AD149
:1056900081EA030101F0004141F0FE4141F4700153
:1056A0004FF0000070BD41F0FE4141F4780170BD43
:1056B00070B54FF0FF0C4CF4E06C1CEA11541DBFA8
:1056C0001CEA135594EA0C0F95EA0C0F00F0A7F8AA
:1056D000A4EB050481EA030E52EA03354FEA0131D7
:1056E00000F088804FEA03334FF0805545EA1313EA
:1056F00043EA12634FEA022245EA111545EA1065B2
:105700004FEA00260EF000419D4208BF964244F148
:10571000FD0404F5407402D25B084FEA3202B61A67
:1057200065EB03055B084FEA32024FF480104FF43B
:10573000002CB6EB020E75EB030E22BFB61A7546AF
:1057400040EA0C005B084FEA3202B6EB020E75EB42
:10575000030E22BFB61A754640EA5C005B084FEAAA
:105760003202B6EB020E75EB030E22BFB61A754677
:1057700040EA9C005B084FEA3202B6EB020E75EB82
:10578000030E22BFB61A754640EADC0055EA060E43
:1057900018D04FEA051545EA16754FEA06164FEA86
:1057A000C30343EA52734FEAC2025FEA1C1CC0D132
:1057B00011F4801F0BD141EA00014FF000004FF0BF
:1057C000004CB6E711F4801F04BF01430020B4F180
:1057D000FD0C88BFBCF5E06F3FF6AFAEB5EB030C38
:1057E00004BFB6EB020C5FEA500C50F1000041EB35
:1057F000045170BD0EF0004E4EEA113114EB5C0402
:10580000C2BFD4EB0C0541EA045170BD41F48011D4
:105810004FF0000E013C90E645EA060E8DE60CEADC
:10582000135594EA0C0F08BF95EA0C0F3FF43BAFF9
:1058300094EA0C0F0AD150EA01347FF434AF95EAB0
:105840000C0F7FF425AF104619462CE795EA0C0F94
:1058500006D152EA03353FF4FDAE1046194622E761
:1058600050EA410618BF52EA43067FF4C5AE50EA3B
:1058700041047FF40DAF52EA43057FF4EBAE12E72B
:105880004FF0FF3C06E000BF4FF0010C02E000BF0C
:105890004FF0010C4DF804CD4FEA410C7FEA6C5CEF
:1058A0004FEA430C18BF7FEA6C5C1BD001B050EA92
:1058B000410C0CBF52EA430C91EA030F02BF90EA7D
:1058C000020F0020704710F1000F91EA030F58BF3C
:1058D000994208BF90422CBFD8176FEAE37040F09E
:1058E000010070474FEA410C7FEA6C5C02D150EA3C
:1058F000013C07D14FEA430C7FEA6C5CD6D152EAF7
:10590000033CD3D05DF8040B704700BF84461046BB
:1059100062468C461946634600E000BF01B5FFF7BA
:10592000B7FF002848BF10F1000F01BD4DF808ED8A
:10593000FFF7F4FF0CBF012000205DF808FB00BF5B
:105940004DF808EDFFF7EAFF34BF012000205DF8B5
:1059500008FB00BF4DF808EDFFF7E0FF94BF012002
:1059600000205DF808FB00BF4DF808EDFFF7CEFF03
:1059700094BF012000205DF808FB00BF4DF808ED42
:10598000FFF7C4FF34BF012000205DF808FB00BF13
:105990004A0011D212F5001211D20DD56FF47873AE
:1059A000B3EB62520ED44FEAC12343F0004343EA03
:1059B000505323FA02F070474FF00000704750EA4E
:1059C000013002D14FF0FF3070474FF000007047B8
:1059D00080F0004002E000BF81F0004142001FBFA4
:1059E0005FEA410392EA030F7FEA226C7FEA236CAD
:1059F0006AD04FEA1262D2EB1363C1BFD2184140A2
:105A000048404140B8BF5B42192B88BF704710F037
:105A1000004F40F4000020F07F4018BF404211F0DA
:105A2000004F41F4000121F07F4118BF494292EA42
:105A3000030F3FD0A2F1010241FA03FC10EB0C006E
:105A4000C3F1200301FA03F100F0004302D54942FB
:105A500060EB4000B0F5000F13D3B0F1807F06D3A8
:105A600040084FEA310102F10102FE2A51D2B1F1A0
:105A7000004F40EBC25008BF20F0010040EA030095
:105A80007047490040EB000010F4000FA2F1010242
:105A9000EDD1B0FA80FCACF1080CB2EB0C0200FACC
:105AA0000CF0AABF00EBC25052421843BCBFD0401A
:105AB0001843704792F0000F81F4000106BF80F494
:105AC00000000132013BB5E74FEA41037FEA226C57
:105AD00018BF7FEA236C21D092EA030F04D092F022
