:1000000000800020BD010000B1070000B107000022
:10001000B1070000B1070000B10700007D07000034
:100020007D0700007D0700007D070000B10700008C
:10003000B10700007D070000B10700006D07000058
:10004000B1070000B1070000B1070000B1070000D0
:10005000B1070000B1070000B1070000B1070000C0
:10006000B1070000B1070000B1070000B1070000B0
:10007000B1070000B1070000B1070000B1070000A0
:10008000B1070000B1070000B1070000B107000090
:10009000B1070000B1070000B1070000B107000080
:1000A000C92D0000B1070000B1070000B107000032
:1000B000B1070000B1070000B1070000B107000060
:1000C000B1070000B1070000B1070000B107000050
:1000D000B1070000B1070000B1070000B107000040
:1000E000B1070000B1070000B1070000B107000030
:1000F000B1070000C5100000B1070000491400005E
:10010000B107000081170000B1070000B10700002F
:10011000B1070000B1070000B1070000B1070000FF
:10012000B1070000B1070000B1070000B1070000EF
:10013000B1070000B1070000B1070000B1070000DF
:10014000B1070000B1070000B1070000B1070000CF
:10015000052600001D260000352600004D26000063
:10016000B10700002D1A0000B1070000B107000020
:10017000B1070000B1070000B1070000B10700009F
:10018000B1070000B1070000B1070000B10700008F
:10019000B1070000B1070000B107000035090000F9
:1001A000850900000D0A0000C90A00004D0B00007F
:1001B000B1070000B1070000A12300004E4B4CF234
:1001C000205210B51A804DF628121A8000BF00BFC9
:1001D00000F0F2FA494B4FF010621A60484A9A60F8
:1001E000484ADA60484B1A6812F4807204D14749D1
:1001F0000A604FF4A8521A60454B1A7802F00802C0
:10020000D2B21AB11A7842F008021A700023414A99
:100210004148424C02E019599950043399188142DF
:10022000F9D33F4B3F4A002101E043F8041B9342BE
:10023000FBD33D4B00221A603C4B3D4A802103F822
:10024000011B9342FBD13B4B0A221A703A4B2422EA
:100250001A70A02203F8012C384A137803F0020325
:10026000DBB2002BF9D0354A137803F01003DBB270
:10027000002BF9D1314A137803F00C03082BFAD183
:100280002F4B03221A7040225A702C4A137803F025
:100290002003DBB2002BF9D0284A137803F0400387
:1002A000DBB2002BF9D0274A274B1A60274B2022BC
:1002B0001A70224A137803F00C030C2BFAD1244B4A
:1002C00002221A60234A43F8442C234B234A1A6023
:1002D000072243F8042C62B600F0DCFC0B4B1B68D1
:1002E000DC0702D51E4800F049FC04F09BFB00F03F
:1002F00069FA03F046FBFEE70E200540308004401B
:10030000823F04000100002B10D0034014D00340B2
:1003100002D007400084FF1FB889FF1F88600000DB
:10032000B889FF1FD494FF1F08ED00E000E400E04F
:100330005FE400E0005006400140064006400640F1
:100340000440064000000301448004400040064091
:1003500048800440C010050014E000E0FF76010072
:10036000D9744C53FFFFFFFFFFFFFFFFFFFFFFFFAD
:10037000FFFFFFFFFFFFFFFFFFFFFFFFFFFFFFFF8D
:10038000FFFFFFFFFFFFFFFFFFFFFFFFFFFFFFFF7D
:10039000FFFFFFFFFFFFFFFFFFFFFFFFFFFFFFFF6D
:1003A000FFFFFFFFFFFFFFFFFFFFFFFFFFFFFFFF5D
:1003B000FFFFFFFFFFFFFFFFFFFFFFFFFFFFFFFF4D
:1003C000FFFFFFFFFFFFFFFFFFFFFFFFFFFFFFFF3D
:1003D000FFFFFFFFFFFFFFFFFFFFFFFFFFFFFFFF2D
:1003E000FFFFFFFFFFFFFFFFFFFFFFFFFFFFFFFF1D
:1003F000FFFFFFFFFFFFFFFFFFFFFFFFFFFFFFFF0D
:10040000FFFFFFFFFFFFFFFFFFFFFFFFFEFFFFFFFD
:1004100008B548F6B810074BC1F6FF701B1A062B3B
:1004200000D808BD40F20003C0F20003002BF8D052
:100430009847F6E7BB89FF1F08B548F6B81048F69D
:10044000B813C1F6FF70C1F6FF731B1A9B1003EBC4
:10045000D373591000D108BD40F20002C0F200026F
:10046000002AF8D09047F6E710B548F6B814C1F660
:10047000FF74237873B9FFF7CBFF40F20003C0F29B
:1004800000032BB146F28800C0F20000AFF30080F9
:100490000123237010BD00BF08B540F20003C0F275
:1004A00000034BB146F2880048F6BC11C0F20000D0
:1004B000C1F6FF71AFF3008048F6B810C1F6FF70C7
:1004C00003682BB140F20003C0F2000303B1984768
:1004D000BDE80840FFF7B0BFF0B5304830490368C9
:1004E0001B06FCD40B6813F08002F8D172B62D4BBA
:1004F0001978002950D02C4908684F688E68CD685B
:100500000C6938181431801909684019001940180D
:10051000C0F34E00254940F400400860C86A0F6BE4
:100520004E6B8D6BCC6B38184031801909684019BF
:1005300000194018C0F34E001D4940F40040086007
:1005400001F10811143151F8140C51F8107C51F8D4
:100550000C6C51F8085C51F8044C09683818801983
:10056000401900194018C0F34E00124940F40040F1
:100570000860C86A0F6B4E6B8D6BCC6B38184031BE
:1005800080190968401900194018C0F34E000A4943
:1005900040F4004008601A7062B6F0BD24B0034019
:1005A00024B00B40D589FF1F38B003402CB0034066
:1005B00030B003402CB00B4030B00B40224B6022D7
:1005C0001A70E1225A70214B214A1978214B0829CF
:1005D00001D1012102E00A2907D13921116013223A
:1005E0001A601D4B19605A600BE00C291A4901D1A1
:1005F000352000E03D20106012221A60174B086081
:100600001A60174B17491B78174A03B101230B6077
:100610001360164B164A1978164B012901D8802110
:100620000CE0042901D8842108E0082901D885219B
:1006300004E0102901D8862100E0872111601960AB
:100640000D4B01221A707047004007400484FF1FC1
:1006500008B003400CB0034008B00B400CB00B4096
:10066000D889FF1F20B0034020B00B400584FF1F36
:1006700024B0034024B00B40D589FF1F0D282DE97D
:10068000F0410FD9172801D80E380AE0A0F11A035B
:10069000052B01D8093804E0A0F12203062B4DD820
:1006A0001838C0B2274B1C5C274B1B780BB1FFF7E7
:1006B00013FF72B6200614D4244D254E01272C605A
:1006C000377062B672B62B68190603D5214B1868CD
:1006D0001F4B23E03378002BF1D062B601F05EFEB1
:1006E000F0E704F040071C4D1C4EFFB204F03F043D
:1006F0004FF001081A4B1A6817B122F0100201E0FE
:1007000042F010021A602C6086F8008062B672B661
:100710002B681A060BD5134B1868104B00221A7061
:1007200062B6114B1B7840FA03F0BDE8F0813378D4
:10073000002BDFD062B601F031FEE8E70020BDE813
:10074000F08100BF885B0000D589FF1F00B0034027
:10075000D789FF1F10B0034000B00B40D689FF1FA0
:100760000CB00B4010B00B40D489FF1F024B1A682D
:1007700001321A60704700BF648AFF1F38B50B4C06
:1007800025462368580301D501F050F92B68590517
:1007900001D500F097FC2B681A0501D500F054FE36
:1007A0002368DB04EDD500F0EBFFEAE7348004407A
:1007B00008B5FFF7E3FFFFFF014B10221A807047D7
:1007C000002005407047FFFF024A136818181060A8
:1007D000184670470884FF1F012070477047FFFFCD
:1007E000EFF313839BB9EFF3108098B9EFF3058310
:1007F00023B10F2B04D9084A985C01E04FF48070B4
:10080000EFF311833BB1984228BF184670474FF071
:10081000FF30704718467047F0E300E0002300E027
:100820000133C25C002AFBD11846704710B5002383
:10083000B0FBF2F402FB1400092801D8303000E0CC
:100840003730C85420460CB10133F1E7CA18547050
:10085000224605E0885CCC5C8C54C8540132013BD4
:100860009A42F7DB084610BD031E10B50C4603DBA9
:10087000BDE81040FFF7DABF2D2001F8010B584208
:10088000FFF7D4FF204610BD084B4FF400021A605A
:100890004FF080721A604FF000721A604FF0806261
:1008A0001A604FF000621A60704700BF08E100E074
:1008B000212830B521D8042A1FD8DFE802F0070923
:1008C000050B03000B2306E00A2304E0082302E0E3
:1008D0000C2300E00923094A02EBC002526872B6F9
:1008E0001468074D24F47024146044F0807444EAC2
:1008F000034345F82010136062B630BDA05B0000D2
:10090000DC89FF1F094B03EBC0035B6872B61A68F2
:1009100022F0877222F4803242F080721A60044B17
:10092000002243F8202062B6704700BFA05B0000A1
:10093000DC89FF1F114B10B51C68E0041C6004D556
:100940000F4BDA680AB1DB689847A10404D50C4B59
:100950001A690AB11B699847A20604D5084B1A6E9A
:100960000AB11B6E9847E30606D5054BD3F88420E1
:1009700012B1D3F88430984710BD00BFA090044056
:10098000DC89FF1F1F4B10B51C68E0031C6004D5F9
:100990001D4B1A680AB11B689847A10304D51A4B6E
:1009A0005A680AB15B689847E20704D5164B1A6C7F
:1009B0000AB11B6C9847A30704D5134B5A6C0AB1B4
:1009C0005B6C9847200704D50F4B9A6C0AB19B6C5F
:1009D0009847610704D50C4BDA6C0AB1DB6C984779
:1009E000220304D5084B5A6E0AB15B6E9847630325
:1009F00006D5054BD3F8802012B1D3F88030984744
:100A000010BD00BFA0A00440DC89FF1F2C4B10B517
:100A10001C6820071C6004D52A4B5A6A0AB15B6A1D
:100A20009847E10604D5274B9A6A0AB19B6A984712
:100A3000620604D5234BDA6A0AB1DB6A98472306BB
:100A400004D5204B1A6B0AB11B6B9847A00604D53E
:100A50001C4B5A6B0AB15B6B9847E10704D5194BE5
:100A6000DA6B0AB1DB6B9847A20704D5154B9A6D78
:100A70000AB19B6D9847630704D5124BDA6D0AB132
:100A8000DB6D9847A00504D50E4BDA6E0AB1DB6E1C
:100A90009847E10504D50B4B1A6F0AB11B6F9847B5
:100AA000620504D5074B5A6F0AB15B6F984723055F
:100AB00004D5044B9A6F0AB19B6F984710BD00BFD5
:100AC000A0B00440DC89FF1F1E4B10B51C68E00776
:100AD0001C6004D51C4B9A680AB19B689847210694
:100AE00004D5194B5A690AB15B699847E20604D5E7
:100AF000154B9A690AB19B699847630704D5124B55
:100B0000DA690AB1DB699847200704D50E4B1A6AE7
:100B10000AB11B6A9847A10704D50B4B9A6B0AB11F
:100B20009B6B9847A20604D5074B1A6D0AB11B6D43
:100B30009847630604D5044B5A6D0AB15B6D98471C
:100B400010BD00BFA0C00440DC89FF1F094B10B5D9
:100B50001C68A2071C6004D5074B9A6E0AB19B6EF5
:100B60009847E30704D5044BDA6F0AB1DB6F984767
:100B700010BD00BFA0D00440DC89FF1F044B054915
:100B800000221A600A60044A106010221A6070473E
:100B900014D0034004D0034000D00340212810B5F6
:100BA00018D80D4A52F8303093F880423CB10122F7
:100BB00011B183F8802010BD83F8002110BD02EB35
:100BC000C00043681A6811B142F0030201E022F04C
:100BD00002021A6010BD00BFA05B0000212805D8EA
:100BE000034B53F8303093F80002704700207047F1
:100BF000A05B0000212816D80B4A02EBC003012994
:100C00005B6852F8302004D182F880124FF4A2724F
:100C100008E0002082F8800211B94FF4807201E0F0
:100C200040F203121A607047A05B000072B60B4BD3
:100C30000B491A680B4B1B68096862B6490102D55B
:100C4000322A88BF0133C2F5BB32FF326021B2FBCA
:100C5000F1F24FF47A7000FB0320704718E000E0D7
:100C600004ED00E0648AFF1F70B50446FFF7DEFF65
:100C700005466CB140F2E736FFF7D8FF401BB042A3
:100C800003D9013C04D005F57A7501F087FBF3E741
:100C900070BDFFFF10B5FFF7F7FD164B164A174C56
:100CA00000204BF6FF711860596028231360936091
:100CB0001361936113629362136393630922226049
:100CC0000F4C20606160A360236144F8042C0D4C3C
:100CD00020600D4801600D490B608B600C4B1A6061
:100CE000FFF76CFC0420FFF7BFFFBDE8104001F0E8
:100CF000B3B900BF048003400C8003400080034070
:100D00000490034004800B4008800B400C800B4093
:100D100000800B401B4B1A6842F480621A601A4A2A
:100D200000231370194A1370194A1370194A13706B
:100D3000194A1370194B40F213321A604FF4517272
:100D40005A60174BC0F344321A70C0F347125A70FE
:100D500000F01F00134A987202210423137051748B
:100D6000D374114B88221A703C2203F80D2C0F4BC0
:100D700040226FF44A711A705B184FF400521A60E7
:100D8000704700BF34800440EA8AFF1F698AFF1F52
:100D9000F08AFF1FEB8AFF1F688AFF1F40A00440F4
:100DA00000A0064002A0064010A006402DE400E08E
:100DB000134A137800F0030103F0EC030B434107DF
:100DC00048BF43F01003137000F00F03042B04D14D
:100DD0000C4B1A7842F040021A700B4A1378C10685
:100DE00003F0EF0348BF43F010031370054A137874
:100DF000800603F0EF0348BF43F010031370704701
:100E000002A0064006A0064005A006400E4B1B6847
:100E1000580510B503D410BD01F0C0FA00E00B4C2A
:100E20002378002BF8D10A4A4FF400511160094A87
:100E30000949137040F203120A604A60074A1370AE
:100E4000074A137010BD00BF34800440688AFF1F3A
:100E500084E100E003A0064040A00440EA8AFF1FAE
:100E6000698AFF1F38B5094B04461D78002DFCD157
:100E700020460121FFF7BEFE20462946FFF78EFEE1
:100E8000034B53F83420034B1A6038BD688AFF1FA8
:100E9000A05B0000EC8AFF1F1D4B1B685A052DE963
:100EA000F041064632D51B4B1B680BB101221A706C
:100EB000194B1A4D1C781A4FDFF86C8001343F2C07
:100EC00088BF002415E0FFF78BFC40280DDC3B7841
:100ED0001B060ED52B78134A01333F2B88BF002306
:100EE00018F8031011702B7003E0FF2801DD01F0EA
:100EF00055FA2B78A342E6D00B4B1E550B4B012223
:100F00001A70054B1C700A4BBC221A70BDE8F081A8
:100F100034800440EC8AFF1FF08AFF1FEB8AFF1F1A
:100F200004A0064007A006406A8AFF1F688AFF1FC8
:100F300003A006402DE9F84F254B1B6806465805CF
:100F4000884643D5234B1B680BB101221A70224DF2
:100F5000B346A94633E0214B1C782F7801343F2C4F
:100F600088BF0024A74209D01BF8012B1C4B1A553F
:100F70001C4B01221A70194B1C7020E01A4BDFF831
:100F800070A0BC221A70FFF72BFC40280FDC9AF8E7
:100F9000003019060FD52B78114A01333F2B88BF3B
:100FA0000023D15C114A117089F8003003E0FF285A
:100FB00001DD01F0F3F92B78BB42E4D0D4E706EB76
:100FC00008039B45C7D3084BBC221A70BDE8F88FB5
:100FD00034800440EC8AFF1FEB8AFF1FF08AFF1F5A
:100FE0006A8AFF1F688AFF1F03A0064007A0064009
:100FF00004A0064010B5044C01E001F0CFF92378BD
:10100000002BFAD110BD00BF688AFF1F044B18786F
:10101000044B1B78984238BF4030C01A704700BF5D
:10102000EA8AFF1F698AFF1F084B094A197813785B
:10103000994207D001333F2B88BF00230549C85C84
:10104000137070474FF0FF30704700BFEA8AFF1FF0
:10105000698AFF1FAA8AFF1F074B1A78074B1B7864
:101060009A4206D001333F2B88BF0023044AD05C4C
:1010700070474FF0FF307047EA8AFF1F698AFF1FF1
:10108000AA8AFF1F0A4B1B685B050FD5094B1A780C
:1010900002F0CB021A70084A402111701A7842F00F
:1010A00034021A70054B1A78054B1A70704700BF4E
:1010B0003480044003A0064011A00640698AFF1F47
:1010C000EA8AFF1FF0B5304B1B7813F0300F20D0A9
:1010D00072B62E4B197831B90F3B40221B782C4B3E
:1010E0001A7062B615E062B62A4B2B4C1A782B4B5D
:1010F0002B4D1878531C3F2B88BF00232678834242
:101100001CBFEE541A46013911F0FF01F2D1214BF8
:101110001A70244B1B7819465BB2002B1FDA1A4A4F
:10112000137818061BD5204B204E1F78204B1A4DE4
:101130001B78204CBB4209D001333F2B88BF0023D2
:101140001078F05C287020780728F3D9184A1370BB
:101150000D4B1B781A0602D5124B7C221A7001F037
:101160004003DBB27BB1084B1B7803F04003DBB2DA
:101170004BB1114B00221A70104B1B6803B11A704F
:10118000084B3C221A70F0BD04A0064016A0064091
:1011900011A00640EA8AFF1F07A00640698AFF1FC8
:1011A000AA8AFF1F03A00640F08AFF1F6A8AFF1F5A
:1011B000EB8AFF1F14A00640688AFF1FEC8AFF1FFE
:1011C000164B1A6842F400621A60154A0023137025
:1011D000144A1370144A1370144A1370144A13708B
:1011E000144A40F2133111604FF451715160124AA8
:1011F000C0F344311170C0F3471100F01F0051706B
:101200009072937013740D4B2C221A700C4B402269
:101210001A700C4B4FF400421A607047348004403F
:101220005B8BFF1FF28AFF1F5D8BFF1F5C8BFF1F15
:10123000F18AFF1F0CB0044000B0064003B0064026
:101240002FE400E004E100E0134A137800F003010A
:1012500003F0EC030B43410748BF43F01003137046
:1012600000F00F03042B04D10C4B1A7842F040021B
:101270001A700B4A1378C10603F0EF0348BF43F01E
:1012800010031370054A1378810603F0EF0348BF7B
:1012900043F010031370704702B0064006B00640DA
:1012A00005B006400E4B1B68180510B503D410BDE1
:1012B00001F074F800E00B4C2378002BF8D10A4AB7
:1012C0004FF400411160094A0949137040F20312BA
:1012D0000A604A60074A1370074A137010BD00BFC6
:1012E00034800440F18AFF1F84E100E003B006402F
:1012F0000CB004405B8BFF1FF28AFF1F1B4B1B6867
:101300001A052DE9F04106462DD5194B194D1C78CB
:10131000194FDFF86C800134272C88BF002415E0BA
:10132000FFF75EFA40280DDC3B781B060ED52B78C4
:10133000124A0133272B88BF002318F803101170BD
:101340002B7003E0FF2801DD01F028F82B78A34281
:10135000E6D00B4B1E550B4B01221A70044B1C7030
:10136000094BAC221A70BDE8F08100BF3480044004
:101370005D8BFF1F5C8BFF1F04B0064007B006406B
:10138000F38AFF1FF18AFF1F03B0064038B54518E6
:10139000044603E014F8010BFFF7B0FFAC42F9D1AB
:1013A00038BDFFFF10B5044C01E000F0F7FF2378D3
:1013B000002BFAD110BD00BFF18AFF1F044B187833
:1013C000044B1B78984238BF4030C01A704700BFAA
:1013D0005B8BFF1FF28AFF1F084B094A19781378AD
:1013E000994207D001333F2B88BF00230549C85CD1
:1013F000137070474FF0FF30704700BF5B8BFF1FCB
:10140000F28AFF1F1B8BFF1F074B1A78074B1B78B5
:101410009A4206D001333F2B88BF0023044AD05C98
:1014200070474FF0FF3070475B8BFF1FF28AFF1F42
:101430001B8BFF1F024B1A78024B1A70704700BFBC
:10144000F28AFF1F5B8BFF1F10B5214B1B7803F047
:101450002003DBB273B11F4B1F4A18781F49137862
:10146000097801333F2B88BF00238B4202D01C49EF
:10147000C85413701B490B7818465BB2002B15DA61
:10148000134B1B781B0611D5174B184A1C78137881
:101490009C4202D16C230B7008E00133272B88BFDC
:1014A00000231349CC5C0B490C70137000F040030F
:1014B000DBB25BB1064B1B7803F04003DBB22BB110
:1014C0000C4B00221A70074B2C221A7010BD00BF63
:1014D00004B0064007B006405B8BFF1FF28AFF1F77
:1014E0001B8BFF1F03B006405D8BFF1F5C8BFF1F34
:1014F000F38AFF1FF18AFF1F174B1A6842F48052CC
:101500001A60164A00231370154A1370154A137097
:10151000154A1370154A1370154A40F213311160C1
:101520004FF451715160134AC0F344311170C0F34C
:10153000471100F01F0051709072937013740E4B9E
:101540002C221A700D4B40226FF44B711A705B18ED
:101550004FF400321A60704734800440C88BFF1F7C
:101560005F8BFF1FCA8BFF1FC98BFF1F5E8BFF1F87
:1015700008C0044000C0064003C0064031E400E05B
:10158000134A137800F0030103F0EC030B43410707
:1015900048BF43F01003137000F00F03042B04D175
:1015A0000C4B1A7842F040021A700B4A1378C106AD
:1015B00003F0EF0348BF43F010031370054A13789C
:1015C000800603F0EF0348BF43F010031370704729
:1015D00002C0064006C0064005C006400E4B1B6810
:1015E000D80410B503D410BD00F0D8FE00E00B4CB9
:1015F0002378002BF8D10A4A4FF400311160094AD0
:101600000949137040F203120A604A60074A1370D6
:10161000074A137010BD00BF348004405E8BFF1F6B
:1016200084E100E003C0064008C00440C88BFF1FEF
:101630005F8BFF1F1B4B1B68DA042DE9F041064648
:101640002DD5194B194D1C78194FDFF86C800134DA
:10165000272C88BF002415E0FFF7C2F840280DDCD6
:101660003B781B060ED52B78124A0133272B88BFF7
:10167000002318F8031011702B7003E0FF2801DD20
:1016800000F08CFE2B78A342E6D00B4B1E550B4B83
:1016900001221A70044B1C70094BAC221A70BDE871
:1016A000F08100BF34800440CA8BFF1FC98BFF1F2D
:1016B00004C0064007C00640608BFF1F5E8BFF1F03
:1016C00003C0064038B54518044603E014F8010B82
:1016D000FFF7B0FFAC42F9D138BDFFFF10B5044CA5
:1016E00001E000F05BFE2378002BFAD110BD00BFB3
:1016F0005E8BFF1F044B1878044B1B78984238BF51
:101700004030C01A704700BFC88BFF1F5F8BFF1FA0
:10171000084B094A19781378994207D001333F2BB7
:1017200088BF00230549C85C137070474FF0FF3035
:10173000704700BFC88BFF1F5F8BFF1F888BFF1F89
:10174000074B1A78074B1B789A4206D001333F2B80
:1017500088BF0023044AD05C70474FF0FF307047C9
:10176000C88BFF1F5F8BFF1F888BFF1F024B1A78F0
:10177000024B1A70704700BF5F8BFF1FC88BFF1FA3
:1017800010B5214B1B7803F02003DBB273B11F4B64
:101790001F4A18781F491378097801333F2B88BFF7
:1017A00000238B4202D01C49C85413701B490B788C
:1017B00018465BB2002B15DA134B1B781B0611D5AC
:1017C000174B184A1C7813789C4202D16C230B707B
:1017D00008E00133272B88BF00231349CC5C0B4959
:1017E0000C70137000F04003DBB25BB1064B1B784A
:1017F00003F04003DBB22BB10C4B00221A70074BF5
:101800002C221A7010BD00BF04C0064007C006405D
:10181000C88BFF1F5F8BFF1F888BFF1F03C0064015
:10182000CA8BFF1FC98BFF1F608BFF1F5E8BFF1FC3
:101830001FB572B6124B70221A70124A41211170F4
:101840000F2102F8011C80221A701A781206FCD5AA
:1018500062B60D4B01A918680A22FEF7E7FF0B4894
:10186000002301AA9A5C2AB100EB430101330A2B41
:101870004A80F6D10133054A5B00137005B000BD04
:101880000000024007000240080002409484FF1F4D
:10189000F0B50C4B0C4C1A7842F0020504EBC5066F
:1018A00082F00102706009481A700678002E0CBFA1
:1018B0008827C82747EA014186F0010644F8351019
:1018C0000670F0BD348CFF1F0080FF1FAC8CFF1F23
:1018D000431E032B10B510D872B6094A52F82300E4
:1018E00010B1416842F82310064A018832F81340CB
:1018F000611A22F8131062B610BD002010BD00BF9F
:10190000248CFF1FC094FF1F013803280BD872B628
:10191000064B53F82030002001E05B680130002BBB
:10192000FBD162B670470020704700BF788CFF1F64
:1019300070B572B6184E194C01239A1912F8012C81
:1019400002F00802D2B2E2B19900144A54F83150C0
:101950002DB902EB431308305860114B09E041F0F8
:10196000010154F8315065B902EBC10308305860E9
:101970000C4B42F831300C4B1A78013A1A7062B6AF
:1019800070BD0133052BD8D162B6074B00221A7007
:10199000BDE8704000F0CCBBB05C00000080FF1FD1
:1019A00088004000C8004000A28CFF1F431E032B8C
:1019B00030B532D84001194A40F01000101872B604
:1019C000174CE25C032A09D8DFE802F0160218057A
:1019D0000830022213E00830042210E01148124AB5
:1019E00050F8234014B940F8231002E052F82300C5
:1019F000416042F823100FE0032200E00522E25488
:101A000010F0080F01F108030A8843600CBF882317
:101A1000C82343EA0243036062B630BD0080FF1F63
:101A2000E08BFF1F788CFF1F888CFF1F2DE9F74F7D
:101A3000A34EA44C357805F00403DBB2ABB1A24B46
:101A40001B7883B1A14A137823B1013BDBB2137039
:101A500003B900BE9E4A13782BB1013BDBB2137071
:101A60000BB900F079FC0423337005F00802D2B200
:101A7000002A00F07B82974B1B781D094FEA9309DF
:101A800040F0F98104EBC903586854F83930C3F3C6
:101A90008303013B0C2B00F2EB81DFE813F0A40180
:101AA000A401E901E901E901E901E901E901C00154
:101AB000E901E901E9010D004368874A01685360C3
:101AC000864B874844F83930864D11600023036007
:101AD0000120287089B240F28165A9422361A36187
:101AE00019D8B1F5D06F80F02881B1F5817F00F071
:101AF000D88006D8802900F0BE80822940F0398144
:101B0000BDE040F20230814200F00881B1F5A06FE3
:101B100040F02F8131E1B1F5106F10D004D8B1F54C
:101B2000086F40F02681A0E042F22100814200F0DF
:101B3000578100F50070814240F01B8115E19278D9
:101B4000614B604D1A702B6A180603D5686A083815
:101B500000F0EEFA644A08359542F4D1DFF8B0910E
:101B6000DFF8B0B10025A846CA4655F8090005E0DF
:101B70004368009300F0DCFA009B18460028F7D178
:101B80005A4B4AF8050045F80B00E85807E0426850
:101B90000093019200F0CCFA019A009B10460028B5
:101BA000F5D15851524BE850524B23F81800524B84
:101BB00018F80320023A032A08D8DFE802F00204EA
:101BC0000204002200E0012203F8082008F10108C5
:101BD0000435B8F1040FC8D1484BDFF83C9100221E
:101BE0001A7001259846464B05EB0902EB1812F8CE
:101BF000012C9B001A7002F00802D2B23AB300F036
:101C000079FAAB0038B104EB4512083050603D4A18
:101C100044F8332006E044F8330098F800300133EC
:101C200088F8003000F066FAAB0043F0010338B1E9
:101C300004EBC30208305060284A44F8332006E021
:101C400044F8330098F80030013388F80030AA00D7
:101C500042F00201013542F003020023052D44F851
:101C6000313044F83230BED187E0174B264D1B7817
:101C70002B70034684E0244D2B706B707FE09288BC
:101C8000042A00D975E0204D2B706B701F4B920019
:101C9000D3181B7803F00203DBB2002B6FD028703F
:101CA0006DE0918801F07F03042B62DC538803B15F
:101CB0005FE0164A89008A18117821F0020156E087
:101CC000802007400080FF1FAB8CFF1F358CFF1F5B
:101CD000AD8CFF1F90200740988CFF1FC80040006C
:101CE000CC8BFF1FAC8CFF1F8080FF1F788CFF1FE9
:101CF000888CFF1FC094FF1FE08BFF1FA28CFF1F6B
:101D000030C8011088004000A38CFF1FC02007408E
:101D1000248CFF1FD08BFF1FB05C0000918801F066
:101D20007F03042B25DC538803B122E0A04A8900FD
:101D30008A18117841F0020119E051889D4B928870
:101D400053F8085CA3F10C009DB133F80CCC8C4522
:101D500009D133F80ACC944505D1090A03290CBFEF
:101D60002B7803890CE00C33EAE79178924A1170E2
:101D700003E08F4B0F221A7032E01D4600E0022371
:101D80008E4AB2F806904B4538BF9946B9F1400FDC
:101D900034BFC8464FF0400828464146FFF778FD5B
:101DA000B9EB0809454403D1B8F1400F07D017E05B
:101DB000B9F1400F34BFC8464FF0400800E0C846B4
:101DC00028464146FFF764FDB9EB0809454402D1B6
:101DD000B8F1400F04D17A4B7A4A1D60A2F8009006
:101DE0000122794B43E0754B1A8842F221039A4253
:101DF00011D1764A0023C15C99540133072BFAD1E3
:101E0000724B1B68862B02D1714B0F221A70002077
:101E10000146FFF73DFD6F4B44F8393028E0684B31
:101E2000D3F80080B8F1000F18D0DFF89891B9F816
:101E300000A0BAF1400F34BF554640254046294620
:101E4000FFF726FDC5EB0A039BB2A9F800300BB9DA
:101E5000402D01D108EB0503594A1360574B1A88EE
:101E6000B2F5A06F04D100225A709A785A4B1A70BA
:101E70000122554B6DE004EBC90803F00803D8F8C4
:101E80000420013DD9B2A2F10800EDB2002937D0FB
:101E900000F04EF95148524B50F82510F1B14A6804
:101EA00040F8252001F10802C8F804205A5D032AF1
:101EB0000BD8DFE802F002040608032204E0022245
:101EC00002E0052200E004225A5518F0080F0A88A3
:101ED0000CBF8823C82343EA024342E05A5D032A29
:101EE00007D8DFE802F040400204002206E00122A9
:101EF00004E018F0080F0CBF022203225A5532E00A
:101F000054F839301B0C22F8083C23B322F8061C85
:101F100042F8041C334A344952F8257017B942F884
:101F2000250002E051F825205060304A41F8250094
:101F300032F815105B1822F8153000F0DBF818B1F4
:101F40000830C8F8040006E0294B44F839001A7834
:101F500001321A7007E01F4B264A18F0080F08BF1D
:101F6000134644F839300823337063E5E90751D547
:101F700015492048204C02230B70204B1A70204B2F
:101F8000186098601F481A61D8609A615C60084BBD
:101F90000D2018701C48FF23037000F8083C0274E1
:101FA0001A4A13701A4B9F221A7001230B704AE0D1
:101FB000C0200740C05C0000BC8CFF1F988CFF1F36
:101FC000CC8BFF1FA08CFF1F94200740C894FF1FDD
:101FD000358CFF1FC800400098200740788CFF1FF9
:101FE000E08BFF1F248CFF1FD08BFF1FC094FF1FAF
:101FF000A28CFF1F88004000E48BFF1F348CFF1F62
:102000000080FF1F388CFF1F882007408C2007406E
:10201000842007402B0605D50C4B0D221A70802218
:1020200003F8402C05F00203DBB22BB1084B1A7801
:102030001A70022203F8082C05F01005EDB215B154
:10204000044B10221A70BDE8FE8F00BFC02007406D
:10205000882007408020074008B5FFF7E9FB0023F0
:102060001E491A465A50C8180833882B4260F9D1C5
:102070001B4B1A6842F480221A601A4B80221A7095
:102080001978184A0906FBD4144B1749C3F30720E3
:102090000870C3F307401B0E08750B76FF2301F889
:1020A0001C3C01F8143C01F88C3C137843F04003CD
:1020B00013700021012302F8783C02F80C1C02F88E
:1020C000883C0A4B70226FF4507C1A7063444FF4C2
:1020D00000721A60064B10221A7008BD0080FF1FA4
:1020E000348004400C2107409C20074049E400E074
:1020F0000821074072B60C4A1168B1FA81F30B2B24
:1021000002D962B6002070474FF0004020FA03F079
:1021100021EA0001116062B6044948225343C818FD
:102120000022CA5042607047AC84FF1FA080FF1F8E
:102130000C4B4822C31AB3FBF2F30B2B11D80A4AFB
:10214000127822B1094A12780AB1FFF7F1BB72B6D0
:10215000074A4FF0004121FA03F311681943116057
:1021600062B67047A080FF1FA28CFF1FAB8CFF1FC1
:10217000AC84FF1F38B5114C23684BB10F4D286854
:102180004288811801320C7A01888A4212D30CE00D
:102190000B4B1B7813B94FF0FF340CE00320FFF713
:1021A00097FB20600028E9D1F5E7FFF7C1FF002386
:1021B0002B6000E04280204638BD00BFB88CFF1F76
:1021C000AB8CFF1F10B50C4C23681BB10A4B1B686E
:1021D0006BB902E0094B1B7813B94FF0FF3010BD0B
:1021E0000320FFF775FB20600028EFD1F5E75A8840
:1021F0009B18187A10BD00BFB88CFF1FAB8CFF1F57
:10220000044B9888044B1B681BB11A885B88D31A4F
:10221000C0187047C094FF1FB88CFF1F2DE9F8430A
:102220002D4B2E4DDFF8C08001220C461A70064659
:102230004BE02B682BBBDFF8A0904AF2F92798F807
:10224000003013B9244A137014E00420FFF75CFB3C
:10225000072808D8012389F80030FFF74BFF2860D2
:1022600078B989F80000013F1D4B01D01A782AB1D6
:1022700001221A704FF0FF30BDE8F88300F08EF8AD
:10228000DDE72968164A488800231370C0F1400230
:10229000944238BF224600F108078018CF194880C1
:1022A000A41A02E0F05CF85401339342FAD1F61814
:1022B0004B883F2B06D940230B800420FFF776FB89
:1022C00000232B60074B05221A70002CB1D1024B62
:1022D00020461C70BDE8F883AE8CFF1FB08CFF1F3A
:1022E000B48CFF1FAD8CFF1FAB8CFF1F07B502AB7B
:1022F000012103F8010D1846FFF790FF0EBDFFFF07
:10230000F8B5114B1B78EBB1104E114B3468114DE1
:1023100001271F704CB1638800272F700420238091
:102320002146FFF743FB376009E0FFF7E3FE014674
:1023300020B104202C70FFF739FB00E02F70044B14
:1023400000221A70F8BD00BFAB8CFF1FB08CFF1FBE
:10235000AE8CFF1FAD8CFF1F38B50D4B1D78ADB98E
:102360000C4C216831B14B8804200B80FFF71EFB19
:10237000256038BDFFF7BEFE014620B10420BDE850
:102380003840FFF713BB044B01221A7038BD00BF61
:10239000AE8CFF1FB08CFF1FAD8CFF1F7047FFFF7F
:1023A000F8B5164B164D1A6842F080721A60154B3C
:1023B0001A6842F001021A60134B2E681C680FE085
:1023C000237A63B121682F680B68204698472A68F2
:1023D000E388D21B12099A42A28088BFE280646916
:1023E000002CEDD1064B094A1B689B1B1B0913806F
:1023F000074A11888B4288BF1380F8BDFCED00E0CE
:10240000041000E0001000E0C08CFF1FC68CFF1F0E
:10241000C48CFF1F10B5084614461146FEF78AFD0E
:10242000204610BD084608B5FEF736FD012008BD60
:10243000FEF728BEFEF7DEBDFEF7F6BDFEF70CBECA
:10244000FEF7E4BD0846FEF70DBDFEF7DFBC480809
:1024500000F1376000F5D830B0FBF1F0FEF75ABC60
:10246000480800F1376010B500F5D830B0FBF1F046
:102470001446FEF74FFC2046BDE81040FEF798BC1E
:10248000044B00221A711A73034A4FF47A7199604F
:102490001A607047C88CFF1F105D000010B5084619
:1024A00014461146FEF772FF204610BD084608B5D7
:1024B000FEF724FF012008BDFEF7BCBFFEF772BF88
:1024C000FEF78ABFFEF7A0BFFEF778BFFEF7EABEB1
:1024D000480800F1376000F5D830B0FBF1F0FEF7A6
:1024E0006FBE480800F1376010B500F5D830B0FB7A
:1024F000F1F01446FEF764FE2046BDE81040FEF7FA
:10250000A3BEFFFF044B00221A711A73034A4FF453
:102510007A7199601A607047D88CFF1F485D00007F
:1025200010B5084614461146FFF7CCF8204610BDFA
:10253000084608B5FFF77EF8012008BDFFF716B979
:10254000FFF7CCB8FFF7E4B8FFF7FAB8FFF7D2B857
:10255000FFF744B8480800F1B76000F55840B0FBF9
:10256000F1F0FEF7C9BF480800F1B76010B500F5FB
:102570005840B0FBF1F01446FEF7BEFF2046BDE820
:102580001040FEF7FDBFFFFF044B00221A711A73C3
:10259000034A4FF47A7199601A607047E88CFF1F04
:1025A000805D00002DE9F041002407460D462646D7
:1025B0003B190A2219792846002300F0B9F82B6844
:1025C00080462E211B682846984701344044032C3E
:1025D0000644EDD12846F9790A22002300F0A8F834
:1025E0008019BDE8F081FFFF044B054A1A60002204
:1025F0001A715A719A71DA71704700BFF88CFF1F17
:10260000B85D000008B5034B01221A60024B1B683D
:10261000984708BD0C710340088DFF1F08B5034B98
:1026200001221A60024B5B68984708BD1C71034089
:10263000088DFF1F08B5034B01221A60024B9B68EF
:10264000984708BD2C710340088DFF1F08B5034B48
:1026500001221A60024BDB68984708BD3C710340B9
:10266000088DFF1F054B01221A60054B1A6822F4E2
:1026700000021A60034B00221A707047007003407A
:102680003C800440048DFF1F037B0122591103F09D
:102690001F0302FA03F3084A42F82130826800233C
:1026A00013604178054A5354D15C21B90133042B9E
:1026B000FAD1FFF7D7BF704780E100E0008DFF1F20
:1026C000037810B504460BB1FFF7DEFF002323703B
:1026D00010BD2DE9F04100258AB0074688468C6878
:1026E0002E4611E02B46404601A9212200F029F98F
:1026F0003B68202C34BF224620225B68384601A963
:10270000AD18A41A98473618002CEBD130460AB001
:10271000BDE8F08107B5054B1B88ADF804300368B0
:1027200001A95B68022298470EBD00BFC05D000092
:10273000F0B505468BB022B90368C9B21B6898474B
:102740002CE0012A08BF0A2221B930228DF8252069
:10275000212413E02124B1FBF2F002FB1011C9B2D5
:10276000092901D8303100E037310AAF3E1906F8A7
:10277000241C014610B1013CE4B2ECE733B1013C4A
:102780000AAAE4B213192D2203F8242C2B6801AFF6
:102790005B6828463919C4F1220298470BB0F0BD96
:1027A000002902DA49422D2300E000230A22FFF724
:1027B000BFBF10B50446FFF783FF204610BDFFFFE3
:1027C00003480449044A0023037002F01BB900BF08
:1027D000188DFF1FB32700000084FF1F10B5029C57
:1027E000401AE41A4443521A94FBF2F0C01810BD88
:1027F00010B50446006802F049F9204610BD38B50E
:1028000004460D460068013102F09EFD10B184E8D7
:102810002100012038BD43688B4210B5044600D327
:1028200006E0FFF7ECFF20B1A3680BB92268137034
:10283000012010BDF8B504460F46154622B90368BD
:1028400003B11A7000230BE01146FFF7E4FF0646C0
:1028500040B9206810B102F019F9266000236360C6
:10286000A36004E0A5602068394602F071FF2046AD
:10287000F8BD38B5002304460360436083600373EA
:102880000D4639B10846FDF7C9FF294602462046E4
:10289000FFF7D0FF204638BD81420B4603D00968C0
:1028A0009A68FFF7C7BF7047002310B5044603605E
:1028B000436083600373FFF7EFFF204610BD70B5E0
:1028C00004460E4685685AB155192946FFF7A3FFFD
:1028D00030B12068A3683146C01802F039FFA56006
:1028E000204670BD1FB504460A22084601A9FDF71F
:1028F000BBFF01A8FDF792FF01A902462046FFF7A2
:10290000DEFF204604B010BD0B4610B509689A687A
:102910000446FFF7D4FF204610BD38B505460C46E7
:1029200039B10846FDF77AFF214602462846FFF7EF
:10293000C6FF284638BD10B50446FFF7D3FF204632
:1029400010BD38B50C469AB191B181688B4202D363
:102950000023237038BDCD1A013A0168954228BF83
:102960001546C91820462A4602F050FF0023635539
:1029700038BD08461146FFF751BC0846FFF7B6BC04
:10298000FFF7BEBCFFF71EBCFFF7F4BBFFF738BC78
:10299000044B00221A711A73034A4FF47A7199603A
:1029A0001A6070472C8DFF1FD05D0000202310B5EA
:1029B000C0F80032FF23044680F8043200214FF4AF
:1029C000007202F057FC204610BDF8B50C4606997F
:1029D000002901DC002701E01F460B46D0F800C2A9
:1029E000002103E00D01465926B101316145F9DBB3
:1029F00000240CE0013109D0411944518B60236857
:102A00004A60CF601B682046984700E03446204665
:102A1000F8BD2DE9F84306468846044600254FF0E8
:102A200003090FE054F8100B80B1036854F8042C2C
:102A300054F80C1C1F6909FB0211434654F8082C7A
:102A4000B8470135D6F800229542EBDBBDE8F883A4
:102A50002DE9F843064688469146054600240AE0DB
:102A600055F8100B58B1076855F8082CFF68414617
:102A70004B46B8470134D6F800028442F0DBBDE88B
:102A8000F883FFFF0148FFF791BF00BF3C8DFF1F98
:102A900030B505781C1C18BF01241DB115FB03F5CA
:102AA00004EB15250570087818B110FB03F004EB52
:102AB00010200870117819B111FB03F104EB1121FA
:102AC000117030BD2DE9F341067890F801808478CB
:102AD00006F01F020F46520052005523520012FB0F
:102AE00003F2120A16F0800F06F0400506F02000EF
:102AF00023D101466DB918B9D3438DF8053010E0E4
:102B0000AB2155328DF805108DF806208DF8075051
:102B10003DE058B955006FF054035B1B8DF805304C
:102B2000553A8DF806208DF8070030E000238DF827
:102B30000530D3438DF8063027E085B948B98DF8C4
:102B400005006FF0540352009B1A8DF80630553281
:102B50001BE08DF805208DF80650D24315E058B9DA
:102B600002F155018DF805108DF806006FF0540341
:102B70009B1A8DF807300AE0A2F155038DF8053055
:102B800000238DF80630C2F155028DF80720B8F108
:102B9000FF0F1FD043466FEA08080DF105000DF145
:102BA00006010DF107025FFA88F8FFF771FF18FBC5
:102BB00008F89DF805304FEA182843448DF8053091
:102BC0009DF8063043448DF806309DF80730984450
:102BD0008DF80780FF2C09D094B90DF105000DF197
:102BE00006010DF107022346FFF752FF9DF805305D
:102BF0003B709DF806307B709DF80730BB7005E098
:102C000014FB04F4240A0134E4B2E6E7BDE8FC81D5
:102C100013B50B4942680B680093009C8368A41AA3
:102C20009C420AD30BB104781CB10B680193019B41
:102C300000E09B184360012000E000201CBD00BFA5
:102C4000648AFF1F034B82B01B680193019B4360A2
:102C500002B07047648AFF1F002310B5044603705A
:102C60008160FFF7EFFF204610BDFFFF094B1B7887
:102C700013B9094B1B782BB1084A1378202B03D9C1
:102C800001230371002070470548C15401331370BC
:102C900001207047AA8FFF1F6D8FFF1FAB8FFF1F93
:102CA0004C8FFF1F7047FFFF024B1878024B1B78B9
:102CB000C01A7047A98FFF1FA88FFF1F064A074938
:102CC00013780978994204D90549C85C0133137017
:102CD00070474FF0FF307047A88FFF1FA98FFF1F6D
:102CE0006E8FFF1F054B064A1B7812789A4202D955
:102CF000044AD05C70474FF0FF307047A88FFF1F29
:102D0000A98FFF1F6E8FFF1F38B50E4B1B7814461F
:102D100013B90D4B1B788BB10C4B1D78C5F12103FA
:102D20009C4202D9012202711C46094822464019E0
:102D300002F080F9054B2D191D7000E01C4620465D
:102D400038BD00BFAA8FFF1F6D8FFF1FAB8FFF1F06
:102D50004C8FFF1F10B5104B1B7813F020040BD1C4
:102D60001220FDF7CFFD0D4B1B68A3B10C4A147068
:102D70000C4A1078984710BD0B4A13780133DBB228
:102D8000012B137002D8094B1B7823B91220BDE820
:102D90001040FDF7B7BD10BD03600640488FFF1F10
:102DA000A88FFF1FA98FFF1F948FFF1F6D8FFF1F1D
:102DB000002202710273034A4FF47A71816002604B
:102DC000704700BFF85D000010B5374A137803F074
:102DD0001001C9B221B903F04002D2B242B92EE0CB
:102DE0001021117003F04002D2B2002AF3D110BDBD
:102DF00013F004032D4A18D0002313702C4A1370CB
:102E00002C4B1B68144603B1984722782A4B1AB9F9
:102E100027491A7001200870284AD02111701A78A9
:102E2000274B1A700122274B21E001211170264AFD
:102E30001370224BC0221A7002331B7830E01F4AF5
:102E40001F4C117811F0100117D013F0010310D1AD
:102E50001C4917480A780078904205D9164B9B5CAC
:102E6000013223700A7000E02370144BD0221A70D4
:102E700016E0C0231370237812E0144B122019704F
:102E800003221349FDF714FD0F4A207813781F2BF6
:102E900006D80649097819B10E49C8540133137090
:102EA000014B02221A7010BD03600640448FFF1FC1
:102EB000AB8FFF1F908FFF1F4C8FFF1F02600640DC
:102EC00004600640AC8FFF1FA98FFF1F948FFF1F68
:102ED000552D00006E8FFF1F0148FFF769BF00BF2F
:102EE000988FFF1F38B5044608460D46FDF796FC3F
:102EF000236802465B6820462946984738BDFFFF95
:102F0000054B1A8840F60500504300F5585019301B
:102F10001880C0B2704700BFB084FF1F08B50368B7
:102F20001B68984708BD01207047704713B50368B8
:102F3000DC6800230A468DF804308DF805308DF8E2
:102F4000063001A9A0471CBD13B50368DC68002347
:102F50000A468DF804308DF805308DF8063001A949
:102F6000A0471CBD13B50368DC6800230A468DF832
:102F700004308DF805308DF8063001A9A0471CBD3E
:102F800013B50368DC6800230A468DF804308DF819
:102F900005308DF8063001A9A0471CBD13B50368A4
:102FA000DC6800230A468DF804308DF805308DF872
:102FB000063001A9A0471CBD10B500210446083009
:102FC000FFF757FC04F118000021FFF752FC2046E0
:102FD00010BDFFFF38B5054CA4F1C8052046283CBC
:102FE000FFF706FCAC42F9D138BD00BF2493FF1FA8
:102FF00010B504461830FFF7FBFB04F10800FFF79B
:10300000F7FB204610BDFFFF10B5094C04F19000FE
:10301000FFF7EEFF04F16000FFF7EAFF04F1300074
:10302000FFF7E6FF2046BDE81040FFF7E1BF00BF15
:103030007C93FF1F10B50B4C04F14000FFF7D8FB49
:1030400004F13000FFF7D4FB04F12000FFF7D0FBC0
:1030500004F11000FFF7CCFB2046BDE81040FFF75D
:10306000C7BB00BF3C94FF1F38B5054CA4F5A07545
:103070002046283CFFF7BCFBAC42F9D138BD00BF6D
:103080002C91FF1F38B50446FFF723FB0546204669
:10309000FFF740FB401938BD10B588B0044615490C
:1030A00004A8FFF7E6FB04F1080104A8FFF72CFCD5
:1030B0001149FFF732FC94F82810FFF73CFC0F4948
:1030C000FFF72BFC94F82910FFF735FC0146684602
:1030D000FFF7EAFB04A8FFF78BFB69460848FFF7F8
:1030E000D1FF6420FDF7C0FD6846FFF781FB08B003
:1030F00010BD00BFEC5E0000F35E0000FE5E00004D
:103100002C8DFF1F90F80412FFF783BC70B5494B5C
:10311000494C4A491F22002588B083F8282083F8AB
:103120002950474B0E26684683F8286083F82950BB
:10313000FFF79FFB04A84349FFF79BFB694604F197
:103140000800FFF7A9FB04A904F11800FFF7A4FB8E
:10315000F02304A884F8293084F82850E562FFF7AA
:1031600047FB6846FFF744FB68463749FFF781FB9A
:1031700004A83649FFF77DFB694604F13800FFF7E4
:103180008BFB04A904F14800FFF786FB602384F859
:10319000593004A80123E36584F85860FFF728FB41
:1031A0006846FFF725FB68462949FFF762FB04A83C
:1031B0002849FFF75EFB694604F16800FFF76CFBE6
:1031C00004A904F17800FFF767FB132384F8883023
:1031D00084F8893004A80223C4F88C30FFF708FB78
:1031E0006846FFF705FB68461B49FFF742FB04A84A
:1031F0001A49FFF73EFB694604F19800FFF74CFBC4
:1032000004A904F1A800FFF747FB0F2384F8B830A6
:10321000702384F8B93004A80323C4F8BC30FFF746
:10322000E7FA6846FFF7E4FA2046FFF735FF08B0F3
:1032300070BD00BF5492FF1F7C93FF1F0B5F000007
:103240004C93FF1F125F0000175F0000205F00001B
:10325000285F0000355F0000415F00004A5F00000A
:103260002DE9F0471A4CDFF87CA0DFF87C800025C0
:103270002E46A14655F80A302820236108EB061196
:1032800000FB0690FFF708FB124B207CEB586361B4
:10329000114BEB580027A36184F82470394601369E
:1032A000FDF7A8FC04352834052EE3D13C460B4E2F
:1032B0000B4F4FF00A08E5590221E8B2FDF79AFCDE
:1032C00008FB04630434102C1D61F4D1BDE8F087C1
:1032D0008492FF1FC05F0000D85E00001490FF1FA3
:1032E000D45F0000AC5F00003C94FF1F2DE9F74F56
:1032F0000025374C83462F462E464FF0010A207C8E
:10330000FDF7BCF9642300936169A269E0610023C1
:10331000FFF764FA3228206204DD84F824A046F026
:10332000010602E0002384F82430042DDFF8BC807D
:1033300018BF76004FF0000998F81000FDF74EFC1A
:1033400088F824A008B147F00107B9F1070F09F187
:10335000010918BF7F00B9F1080F08F12808EBD167
:103360001C4B83F8286083F82970BBF1000F25D02F
:10337000174B1948282101FB0531FFF7AAF9174916
:103380001548FFF7AFFDE1691348FFF709FA144943
:103390001148FFF7A7FD216A0F48FFF701FA11490D
:1033A0000D48FFF79FFD94F824100B480A220023D4
:1033B000FFF7BEF908480C49FFF794FD01352834A2
:1033C000052D9CD1044803B0BDE8F04FFFF7A2B92A
:1033D0008492FF1F2492FF1F2C8DFF1F525F00005D
:1033E000595F0000615F00006C5F00001490FF1FD8
:1033F00073B53F4B3F4D1C682B6813F001060AD193
:103400002846FDF7E9F930B13B4A3C4BD6602846E7
:103410001360FDF7E3F90023394D009320460B2399
:103420003549384AFFF7D1FA2B6813F001060AD163
:103430002846FDF7D1F930B1334A344BD6602846DF
:103440001360FDF7CBF90023314D009320460C2388
:103450002D49304AFFF7B9FA2B6813F001060AD15B
:103460002846FDF7B9F930B12B4A2C4BD6602846D7
:103470001360FDF7B3F90023294D009320460B2379
:103480002549284AFFF7A1FA2B6813F001060AD153
:103490002846FDF7A1F930B1234A244BD6602846CF
:1034A0001360FDF79BF90023214D009320460A236A
:1034B0001D49204AFFF789FA2B6813F001060AD14B
:1034C0002846FDF789F930B11B4A1C4BD6602846C7
:1034D0001360FDF783F900230093194A1649092365
:1034E0002046FFF772FA174B642283F804227CBD52
:1034F000E85D0000B08FFF1FB48FFF1F185E000053
:10350000C48FFF1F5491FF1FC88FFF1F405E000034
:10351000D88FFF1F7891FF1FDC8FFF1F685E0000B0
:10352000EC8FFF1F9C91FF1FF08FFF1F905E00002C
:103530000090FF1FC091FF1F0490FF1FB85E0000A6
:10354000E491FF1F3C8DFF1F08B54FF4FA70FDF7A3
:103550008BFBFFF74DFFFFF783FEBDE80840FFF749
:10356000D5BDFFFF2DE9F7430024154F16E0D9F82C
:10357000203003218DF8043001FB0581FF238DF8F5
:10358000053001A89623711801358DF80630FFF734
:1035900099FA0C2DEBD10134052C0AD04FF02809F3
:1035A0004FF0240809FB04790025064E08FB04F8B7
:1035B000DDE7054B1868FFF7A5FDBDE8FE8300BFFA
:1035C0008492FF1F5491FF1FE85D00002DE9F04138
:1035D00001234FF0000E67494FF0030C2427FF2012
:1035E0000CE00CFB02654C1901320C2A4855607046
:1035F00084F802E0F5D10133052B03D0002207FB4C
:1036000003F6EEE75C4B1E683046FFF77BFD1420A7
:10361000FDF72AFB0124002256494FF0030C4FF01E
:10362000240E0BE00CFB0375481901330C2B4A5593
:1036300042708270F6D10134052C03D000230EFBBA
:1036400004F7EFE73046FFF75DFD14202746FDF74E
:103650000BFB0025474C48E00CFB02F101F1240E66
:1036600004EB0E0004F80E3001F1900E43708570EB
:1036700004EB0E0004F80E3043708570D01E052850
:103680000CD901F1480E04EB0E006C3143708570CB
:10369000601804F80E3063544370857001320C2AB0
:1036A000DAD13046FFF72EFD1420FDF7DDFA4FF09A
:1036B000030801234FF0240C0BE008FB02E0211863
:1036C00001320C2A25544D708D70F6D10133052B33
:1036D00003D000220CFB03FEEFE73046FFF712FD9C
:1036E0001420FDF7C1FA013F13D000224FF0030C64
:1036F000FF23B1E704FB02CE01EB0E0501320C2AD9
:1037000001F80E006870AF70F4D10133052B06D1BB
:1037100009E01849012303244FF02408FF20002268
:1037200008FB03FCE6E73046FFF7ECFC1420FDF74E
:103730009BFA012300210F484FF0030C4FF0240E99
:103740000BE00CFB0275441901320C2A41556170E3
:10375000A170F6D10133052B03D000220EFB03F735
:10376000EFE73046FFF7CEFCC820BDE8F041FDF79B
:103770007BBA00BF5491FF1FE85D000030B5002404
:1037800085B06425C8238DF801306846962301A9C9
:103790008DF802308DF80050FFF794F9E2B201A9DC
:1037A0001748FFF755F9FFF7ABFB00B200EB4000FD
:1037B00000120130C0B20134FDF756FA802CE1D17D
:1037C0006425C8238DF8093002A8962303A98DF833
:1037D0000A308DF80850FFF775F9E2B203A90848DE
:1037E000FFF736F9FFF78CFB00B200EB4000001248
:1037F0000130C0B2FDF738FA013CE2D105B030BD6E
:103800003C8DFF1FF8B52148FFF702FA01283CD193
:103810001F4A137883F001031370ABB919461D4892
:103820004FF0030E24274FF0FF0C26E00EFB02653D
:10383000441901320C2A4155617084F802C0F5D157
:103840000133052B08D11CE00023124819464FF024
:10385000030E24274FF0FF0C002207FB03F6E5E7D9
:103860000EFB0265441901320C2A00F805C0617094
:10387000A170F5D10133052B03D0002207FB03F61D
:10388000EEE7054B1868FFF73DFCF8BD1492FF1FEB
:103890002092FF1F5491FF1FE85D0000012805D012
:1038A000022805D0002805D1FFF768BFFFF7AABF9F
:1038B000FFF78CBEFFF756BE2DE9F043002699B006
:1038C0000DEB0603254D03F108082B6824490093EE
:1038D0006B6840460193FEF7E7FF224906A8FEF712
:1038E000E3FF95F82830204A8DF8283095F82930E4
:1038F0008DF82930EB6A0B9330237343D418D358D7
:103900000C93636804F108010EA80D93FEF7CCFF39
:1039100004F1180112A8FEF7C7FF94F8293094F8B3
:1039200028708DF85930E36A9DF8289017930CA8F9
:103930008DF85870FFF75CFB6846FFF759FBB945F7
:1039400005D12046FFF7A8FBE06AFFF7A7FF013685
:10395000042EBAD119B0BDE8F08300BF2492FF1F36
:103960002C92FF1F3C92FF1F7C93FF1F08B5002085
:10397000FFF7BCFC0120FFF7B9FCBDE80840FFF7EA
:103980009BBF08B5FFF7E0FDFFF7F0FFFEF706FD70
:10399000FAE705200121FDF72DB9FFFF10B5044618
:1039A000FFF7F7FF80236360014BA36010BD00BFEA
:1039B000C0F00F4010B50446FDF738F92368C01A6F
:1039C000431E302B05D8C0F132035B01013B7FF46D
:1039D000FDAF10BD10B50446FDF728F9206010BDFD
:1039E0002DE9F74F0323464E03FB00230193336871
:1039F000346843F0800C24F08004424B3460186833
:103A000040F080701860404B186840F0010018606A
:103A10003E48002303605578036815FB01F57733B2
:103A20002D121746B04665E04FF00809D0F800A007
:103A30009A45FBD30368C6F800C0773315F0800FB2
:103A40000CBF4FF0510A4FF02B0ACAEB030A6D006E
:103A5000D0F800B0D345FBD3B9F10109C8F8004054
:103A6000E4D192F8009019FB01F94FEA29290825C1
:103A7000D0F800A09A45FBD30368C6F800C077339E
:103A800019F0800F0CBF4FF0510A4FF02B0ACAEB10
:103A9000030A4FEA4909D0F800B0D345FBD3013DF2
:103AA000C8F80040E4D192F8029019FB01F94FEAFE
:103AB000292903370825D0F800A09A45FBD30368CD
:103AC000C6F800C0773319F0800F0CBF4FF0510AD1
:103AD0004FF02B0ACAEB030A4FEA4909D0F800B0AD
:103AE000D345FBD3013DC8F80040E4D1557815FB20
:103AF00001F52D12DDF804904F4595D3BDE8FE8FFA
:103B0000C0F00F40FCED00E0001000E0041000E009
:103B1000F8B500F10C0528460E4614461F46FFF77F
:103B200049FF72B6204639463246FFF759FF094B26
:103B30004FF46E714C4360211A6894FBF1F44FF41A
:103B40007A7194FBF1F4A4181C6062B62846FFF762
:103B500041FFF8BD648AFF1F2DE9F04F434F444BEE
:103B60004FF0030808FB002838683D6825F0800501
:103B70003D601C6844F080741C603E4B1C6844F03F
:103B800001041C603C4C002323605678236816FB1C
:103B900001F640F0800077333612BC4662E04FF009
:103BA0000809D4F800A09A45FBD32368386077331E
:103BB00016F0800F0CBF4FF0510A4FF02B0ACAEBE2
:103BC000030A7600D4F800B0D345FBD3B9F101095C
:103BD000CCF80050E5D192F8009019FB01F94FEABA
:103BE00029290826D4F800A09A45FBD32368386019
:103BF000773319F0800F0CBF4FF0510A4FF02B0AAA
:103C0000CAEB030A4FEA4909D4F800B0D345FBD305
:103C1000013ECCF80050E5D192F8029019FB01F971
:103C20004FEA292903320826D4F800A09A45FBD38D
:103C300023683860773319F0800F0CBF4FF0510ABA
:103C40004FF02B0ACAEB030A4FEA4909D4F800B037
:103C5000D345FBD3013ECCF80050E5D1567816FB96
:103C600001F6361242459AD3BDE8F08FC0F00F40FE
:103C7000FCED00E0001000E0041000E0F8B500F1F9
:103C80000C0528460E4614461F46FFF793FE72B6F3
:103C9000204639463246FFF75FFF094B4FF46E71FD
:103CA0004C4360211A6894FBF1F44FF47A7194FB51
:103CB000F1F4A4181C6062B62846FFF78BFEF8BD2D
:103CC000648AFF1F07200121FCF794BF10B504464A
:103CD000FFF7F8FF04236360014BA36010BD00BF32
:103CE000C0F00F402DE9F74F0323464E03FB00239E
:103CF00001933368346843F0040C24F00404424B0D
:103D00003460186840F080701860404B186840F0CC
:103D1000010018603E48002303605578036815FBD6
:103D200001F577332D121746B04665E04FF00809CC
:103D3000D0F800A09A45FBD30368C6F800C07733DB
:103D400015F0800F0CBF4FF0510A4FF02B0ACAEB51
:103D5000030A6D00D0F800B0D345FBD3B9F10109D7
:103D6000C8F80040E4D192F8009019FB01F94FEA3D
:103D700029290825D0F800A09A45FBD30368C6F886
:103D800000C0773319F0800F0CBF4FF0510A4FF08D
:103D90002B0ACAEB030A4FEA4909D0F800B0D34511
:103DA000FBD3013DC8F80040E4D192F8029019FB22
:103DB00001F94FEA292903370825D0F800A09A45D0
:103DC000FBD30368C6F800C0773319F0800F0CBF2F
:103DD0004FF0510A4FF02B0ACAEB030A4FEA490988
:103DE000D0F800B0D345FBD3013DC8F80040E4D182
:103DF000557815FB01F52D12DDF804904F4595D34C
:103E0000BDE8FE8FC0F00F40FCED00E0001000E0C8
:103E1000041000E0F8B500F10C0528460E461446E3
:103E20001F46FFF7C7FD72B6204639463246FFF7F8
:103E300059FF094B4FF46E714C4360211A6894FB93
:103E4000F1F44FF47A7194FBF1F4A4181C6062B69B
:103E50002846FFF7BFFDF8BD648AFF1F2DE9F04F2C
:103E6000434F444B4FF0030808FB002838683D6877
:103E700025F004053D601C6844F080741C603E4BD6
:103E80001C6844F001041C603C4C002323605678FD
:103E9000236816FB01F640F0040077333612BC4667
:103EA00062E04FF00809D4F800A09A45FBD32368DC
:103EB0003860773316F0800F0CBF4FF0510A4FF087
:103EC0002B0ACAEB030A7600D4F800B0D345FBD323
:103ED000B9F10109CCF80050E5D192F8009019FB36
:103EE00001F94FEA29290826D4F800A09A45FBD306
:103EF00023683860773319F0800F0CBF4FF0510AF8
:103F00004FF02B0ACAEB030A4FEA4909D4F800B074
:103F1000D345FBD3013ECCF80050E5D192F8029096
:103F200019FB01F94FEA292903320826D4F800A029
:103F30009A45FBD323683860773319F0800F0CBFA4
:103F40004FF0510A4FF02B0ACAEB030A4FEA490916
:103F5000D4F800B0D345FBD3013ECCF80050E5D1F6
:103F6000567816FB01F6361242459AD3BDE8F08F1B
:103F7000C0F00F40FCED00E0001000E0041000E095
:103F8000F8B500F10C0528460E4614461F46FFF70B
:103F900011FD72B6204639463246FFF75FFF094BE6
:103FA0004FF46E714C4360211A6894FBF1F44FF4A6
:103FB0007A7194FBF1F4A4181C6062B62846FFF7EE
:103FC00009FDF8BD648AFF1F04200121FCF712BE21
:103FD00010B50446FFF7F8FF4FF400536360014B40
:103FE000A36010BD00F00F402DE9F74F0323464EAC
:103FF00003FB002301933368346843F4005C24F42A
:104000000054424B3460186840F080701860404B98
:10401000186840F0010018603E480023036055789E
:10402000036815FB01F577332D121746B04665E09E
:104030004FF00809D0F800A09A45FBD30368C6F8F2
:1040400000C0773315F0800F0CBF4FF0510A4FF0CE
:104050002B0ACAEB030A6D00D0F800B0D345FBD39E
:10406000B9F10109C8F80040E4D192F8009019FBB9
:1040700001F94FEA29290825D0F800A09A45FBD379
:104080000368C6F800C0773319F0800F0CBF4FF0FB
:10409000510A4FF02B0ACAEB030A4FEA4909D0F83C
:1040A00000B0D345FBD3013DC8F80040E4D192F8FD
:1040B000029019FB01F94FEA292903370825D0F8A6
:1040C00000A09A45FBD30368C6F800C0773319F007
:1040D000800F0CBF4FF0510A4FF02B0ACAEB030AB6
:1040E0004FEA4909D0F800B0D345FBD3013DC8F8E9
:1040F0000040E4D1557815FB01F52D12DDF8049050
:104100004F4595D3BDE8FE8F00F00F40FCED00E079
:10411000001000E0041000E0F8B500F10C0528469E
:104120000E4614461F46FFF745FC72B62046394638
:104130003246FFF759FF094B4FF46E714C43602133
:104140001A6894FBF1F44FF47A7194FBF1F4A4181B
:104150001C6062B62846FFF73DFCF8BD648AFF1F6D
:104160002DE9F04F434F444B4FF0030808FB002864
:1041700038683D6825F400553D601C6844F0807443
:104180001C603E4B1C6844F001041C603C4C002346
:1041900023605678236816FB01F640F4005077330D
:1041A0003612BC4662E04FF00809D4F800A09A45E8
:1041B000FBD323683860773316F0800F0CBF4FF0C5
:1041C000510A4FF02B0ACAEB030A7600D4F800B06C
:1041D000D345FBD3B9F10109CCF80050E5D192F8F1
:1041E000009019FB01F94FEA29290826D4F800A00C
:1041F0009A45FBD323683860773319F0800F0CBFE2
:104200004FF0510A4FF02B0ACAEB030A4FEA490953
:10421000D4F800B0D345FBD3013ECCF80050E5D133
:1042200092F8029019FB01F94FEA29290332082676
:10423000D4F800A09A45FBD323683860773319F08F
:10424000800F0CBF4FF0510A4FF02B0ACAEB030A44
:104250004FEA4909D4F800B0D345FBD3013ECCF86E
:104260000050E5D1567816FB01F6361242459AD336
:10427000BDE8F08F00F00F40FCED00E0001000E022
:10428000041000E0F8B500F10C0528460E4614466F
:104290001F46FFF78FFB72B6204639463246FFF7BE
:1042A0005FFF094B4FF46E714C4360211A6894FB19
:1042B000F1F44FF47A7194FBF1F4A4181C6062B627
:1042C0002846FFF787FBF8BD648AFF1F0320012102
:1042D000FCF790BC10B50446FFF7F8FF4FF480538D
:1042E0006360014BA36010BD00F00F402DE9F74F54
:1042F0000323464E03FB002301933368346843F4E1
:10430000805C24F48054424B3460186840F0807024
:104310001860404B186840F0010018603E480023C8
:1043200003605578036815FB01F577332D121746A6
:10433000B04665E04FF00809D0F800A09A45FBD3DD
:104340000368C6F800C0773315F0800F0CBF4FF03C
:10435000510A4FF02B0ACAEB030A6D00D0F800B0E7
:10436000D345FBD3B9F10109C8F80040E4D192F874
:10437000009019FB01F94FEA29290825D0F800A07F
:104380009A45FBD30368C6F800C0773319F0800F55
:104390000CBF4FF0510A4FF02B0ACAEB030A4FEA49
:1043A0004909D0F800B0D345FBD3013DC8F800401F
:1043B000E4D192F8029019FB01F94FEA2929033759
:1043C0000825D0F800A09A45FBD30368C6F800C0C2
:1043D000773319F0800F0CBF4FF0510A4FF02B0AC2
:1043E000CAEB030A4FEA4909D0F800B0D345FBD322
:1043F000013DC8F80040E4D1557815FB01F52D12B8
:10440000DDF804904F4595D3BDE8FE8F00F00F40D6
:10441000FCED00E0001000E0041000E0F8B500F151
:104420000C0528460E4614461F46FFF7C3FA72B61F
:10443000204639463246FFF759FF094B4FF46E715B
:104440004C4360211A6894FBF1F44FF47A7194FBA9
:10445000F1F4A4181C6062B62846FFF7BBFAF8BD59
:10446000648AFF1F2DE9F04F434F444B4FF0030880
:1044700008FB002838683D6825F480553D601C68BD
:1044800044F080741C603E4B1C6844F001041C60C6
:104490003C4C002323605678236816FB01F640F459
:1044A000805077333612BC4662E04FF00809D4F8EA
:1044B00000A09A45FBD323683860773316F0800F4D
:1044C0000CBF4FF0510A4FF02B0ACAEB030A7600DB
:1044D000D4F800B0D345FBD3B9F10109CCF80050B2
:1044E000E5D192F8009019FB01F94FEA2929082635
:1044F000D4F800A09A45FBD323683860773319F0CD
:10450000800F0CBF4FF0510A4FF02B0ACAEB030A81
:104510004FEA4909D4F800B0D345FBD3013ECCF8AB
:104520000050E5D192F8029019FB01F94FEA2929D0
:1045300003320826D4F800A09A45FBD323683860DC
:10454000773319F0800F0CBF4FF0510A4FF02B0A50
:10455000CAEB030A4FEA4909D4F800B0D345FBD3AC
:10456000013ECCF80050E5D1567816FB01F6361224
:1045700042459AD3BDE8F08F00F00F40FCED00E01B
:10458000001000E0041000E0F8B500F10C0528462A
:104590000E4614461F46FFF70DFA72B620463946FE
:1045A0003246FFF75FFF094B4FF46E714C436021B9
:1045B0001A6894FBF1F44FF47A7194FBF1F4A418A7
:1045C0001C6062B62846FFF705FAF8BD648AFF1F33
:1045D00006200121FCF70EBB10B50446FFF7F8FFDB
:1045E00010236360014BA36010BD00BFC0F00F40FB
:1045F0002DE9F74F0323464E03FB00230193336855
:10460000346843F0100C24F01004424B34601868F6
:1046100040F080701860404B186840F0010018604E
:104620003E48002303605578036815FB01F5773396
:104630002D121746B04665E04FF00809D0F800A0EB
:104640009A45FBD30368C6F800C0773315F0800F96
:104650000CBF4FF0510A4FF02B0ACAEB030A6D0052
:10466000D0F800B0D345FBD3B9F10109C8F8004038
:10467000E4D192F8009019FB01F94FEA29290825A5
:10468000D0F800A09A45FBD30368C6F800C0773382
:1046900019F0800F0CBF4FF0510A4FF02B0ACAEBF4
:1046A000030A4FEA4909D0F800B0D345FBD3013DD6
:1046B000C8F80040E4D192F8029019FB01F94FEAE2
:1046C000292903370825D0F800A09A45FBD30368B1
:1046D000C6F800C0773319F0800F0CBF4FF0510AB5
:1046E0004FF02B0ACAEB030A4FEA4909D0F800B091
:1046F000D345FBD3013DC8F80040E4D1557815FB04
:1047000001F52D12DDF804904F4595D3BDE8FE8FDD
:10471000C0F00F40FCED00E0001000E0041000E0ED
:10472000F8B500F10C0528460E4614461F46FFF763
:1047300041F972B6204639463246FFF759FF094B18
:104740004FF46E714C4360211A6894FBF1F44FF4FE
:104750007A7194FBF1F4A4181C6062B62846FFF746
:1047600039F9F8BD648AFF1F2DE9F04F434F444BE0
:104770004FF0030808FB002838683D6825F0100555
:104780003D601C6844F080741C603E4B1C6844F023
:1047900001041C603C4C002323605678236816FB00
:1047A00001F640F0100077333612BC4662E04FF05D
:1047B0000809D4F800A09A45FBD323683860773302
:1047C00016F0800F0CBF4FF0510A4FF02B0ACAEBC6
:1047D000030A7600D4F800B0D345FBD3B9F1010940
:1047E000CCF80050E5D192F8009019FB01F94FEA9E
:1047F00029290826D4F800A09A45FBD323683860FD
:10480000773319F0800F0CBF4FF0510A4FF02B0A8D
:10481000CAEB030A4FEA4909D4F800B0D345FBD3E9
:10482000013ECCF80050E5D192F8029019FB01F955
:104830004FEA292903320826D4F800A09A45FBD371
:1048400023683860773319F0800F0CBF4FF0510A9E
:104850004FF02B0ACAEB030A4FEA4909D4F800B01B
:10486000D345FBD3013ECCF80050E5D1567816FB7A
:1048700001F6361242459AD3BDE8F08FC0F00F40E2
:10488000FCED00E0001000E0041000E0F8B500F1DD
:104890000C0528460E4614461F46FFF78BF872B6E5
:1048A000204639463246FFF75FFF094B4FF46E71E1
:1048B0004C4360211A6894FBF1F44FF47A7194FB35
:1048C000F1F4A4181C6062B62846FFF783F8F8BD1F
:1048D000648AFF1F38B54FF4FA713248324DFEF743
:1048E000BBF91E213148FEF7B7F931493148FDF7D0
:1048F000C0FF31493148FDF7BCFF31493148FDF770
:10490000B8FF31493148FDF7B4FF31493148FDF76F
:10491000B0FF3149314A002000F074F83048FEF70A
:104920004BFB30492D4A2E4800F06CF82E48FEF71C
:1049300043FB2C49294A2C4800F064F82B48FEF729
:104940003BFB2A482749254A00F05CF80024281937
:104950003034FEF731FBC02CF9D1002024491F4A26
:10496000244D00F04FF80024281900212834FDF7C9
:1049700080FFC82CF8D100201F49184A1F4D00F0B5
:1049800041F80024281900212834FDF772FFB4F5FE
:10499000A07FF7D11A49114A0020BDE8384000F045
:1049A00031B800BF0892FF1F7C93FF1F1492FF1FB6
:1049B0008D5F00003C94FF1F935F00004C94FF1F2D
:1049C000995F00005C94FF1FA05F00006C94FF1FC4
:1049D000A55F00007C94FF1F353000000084FF1F9E
:1049E0002492FF1FF12F00005492FF1F4C93FF1FD2
:1049F000093000008492FF1FD52F00001490FF1F84
:104A00006930000003460846194600F001B800BFAF
:104A100030B405460C46134602202946224630BCD7
:104A200000F026BF70B546F2580646F25805C0F2AF
:104A30000006C0F20005761BB61007D0043D002426
:104A400055F8043F01349847A642F9D146F2800652
:104A500046F25805C0F20006C0F20005761B01F0D0
:104A6000F5FAB61008D0043D002455F8043F01348F
:104A70009847A642F9D170BD70BD00BF48F2B4435B
:104A80000146C1F6FF73186800F008B848F2B44355
:104A90000146C1F6FF73186800F0ACBF2DE9F04F76
:104AA00001F10B04162C83B0074630D924F007041B
:104AB000E30F8C422CBF194643F0010100292FD18E
:104AC000384600F03DFCB4F5FC7F2ED24FEAD40C02
:104AD00048F2A856C1F6FF7606EBCC02D3689342A3
:104AE00000F01182596803F10808DA68384621F0AD
:104AF000030499681B195C68CA6044F00104916062
:104B00005C6000F01FFC404603B0BDE8F08F00235E
:104B100010248C422CBF194643F001010029CFD04C
:104B20000C234FF000083B60EDE75FEA542C04BF14
:104B30004FEAD40C4FEA4C0540F08F8048F2A8565B
:104B4000C1F6FF7606EB8505EB689D4206D10DE0C8
:104B5000002A80F25581DB689D4207D0596821F018
:104B600003010A1B0F2AF3DD0CF1FF3C0CF1010CD1
:104B700048F2A8523369C1F6FF7202F1080E73457C
:104B800008BFD2F8049022D0586820F00300011B1F
:104B90000F2900F384810029C2F814E0C2F810E064
:104BA00066DAB0F5007F80F04E81C1084FF0010851
:104BB00002EBC100891008FA01F851688568D860D5
:104BC00048EA0109C2F804909D60EB60836001220D
:104BD0004FEAAC0302FA03F34B4554D819EA030F2A
:104BE0000DD193402CF0030C19EA030F0CF1040CC7
:104BF00005D15B000CF1040C19EA030FF9D006EBA8
:104C0000CC09E0464846C268904207D15BE10029E2
:104C100080F28381D268904200F05581556825F07A
:104C20000305291B0F29F2DD90461319D56844F0BE
:104C3000010058F8084F41F0010C50603846C3F8A5
:104C400004C0E560AC6073613361C3F80CE0C3F885
:104C500008E0595000F076FB55E7BCF1040F00F274
:104C6000DE804FEA941C0CF1380C4FEA4C0565E7E6
:104C70001A1803F108083846536843F001035360DB
:104C800000F060FB3FE7B5686B6823F0030A54450A
:104C900004D8C4EB0A030F2B00F3A48049F28C491B
:104CA000D6F80814C1F6FF7905EB0A020131D9F8EC
:104CB0000030234408BF03F1100B06D003F58053E6
:104CC0000F3323F47F6323F00F0B384659460192CC
:104CD00000F02AFD019A411C804600F06881824262
:104CE00000F23181D9F8043042455B44C9F8043000
:104CF00000F06681D6F8081448F2A850C1F6FF709B
:104D0000013117BFC2EB0802C0F808849B18C9F82C
:104D1000043018F0070338461FBFC3F10802C3F57B
:104D20008053904403F1080208EB0B0308BF4FF4D3
:104D300080521B051B0DC3EB020B594600F0F4FC1F
:104D4000431C00F04981C8EB0001594441F00101C6
:104D5000D9F80430B54249F28C42C6F808805B4469
:104D6000C1F6FF72C8F80410C9F8043018D0BAF1BF
:104D70000F0F40F20B81AAF10C00696820F00700C8
:104D80004FF0050C05EB000E0F2801F0010140EA81
:104D900001016960CEF804C0CEF808C000F220819D
:104DA00049F28C42D9F82C10C1F6FF72B5688B42DB
:104DB000D9F8301088BFD36249F28C42C1F6FF7235
:104DC0008B4288BF13636A6822F003029442C4EBEB
:104DD000020301D80F2B05DC38464FF0000800F025
:104DE000B1FA90E62A1943F0010344F00104384671
:104DF0006C6005F108085360B26000F0A3FA82E627
:104E00005918DA689C6838464D6803F1080845F07F
:104E10000105E26094604D6000F094FA73E6BCF125
:104E2000140F9CBF0CF15B0C4FEA4C057FF686AE6D
:104E3000BCF1540F00F293804FEA143C0CF16E0C5D
:104E40004FEA4C057AE6420A042A75D9142A9CBF17
:104E500002F15B094FEA490508D9542A00F2C980DA
:104E60004FEA103909F16E094FEA490506EB85054D
:104E700048F2A858C1F6FF78AA68AA4279D05168CA
:104E800021F00301884202D292689542F7D1D0689E
:104E9000D6F80490D8609A60D360836097E61D19B5
:104EA00041F00106556144F00104156138465C602B
:104EB00003F10808C5F80CE0C5F808E06E60695019
:104EC00000F040FA1FE608F10108083018F0030F5F
:104ED0007FF499AE4A461CF0030FA2F108010CF1D1
:104EE000FF3C00F09E8012688A42F4D072685B003A
:104EF00093423FF6C8AE002B3FF4C5AE1A4200F015
:104F00009580C4467BE603F108025B699A4208BFBC
:104F10000CF1020C3FF42CAEE4E590465519D36831
:104F2000384658F8082F6968D36041F001019A604B
:104F3000696000F007FAE6E54FEA901909F13809CF
:104F40004FEA490592E7B54248F2A853C1F6FF730C
:104F50003FF4C8AE9D686A6822F0030236E7BCF5EC
:104F6000AA7F19D84FEAD43C0CF1770C4FEA4C05D4
:104F7000E4E50125D8F804104FEAA909104605FA1E
:104F800009F545EA0109C8F8049083E7012345467D
:104F9000C8F80430002219E740F254539C450BD85E
:104FA0004FEA944C0CF17C0C4FEA4C05C6E5B56811
:104FB0006A6822F0030209E7FC254FF07E0CBDE58C
:104FC0001105090D00297FF495AEB2680BEB0A01BB
:104FD00041F001015160E3E601214FF0000BB7E61B
:104FE000384605F10801019200F004FD019A53686A
:104FF000D6E6B2F5AA7F06D84FEAD03909F177098B
:105000004FEA490532E740F25451FC258A424FF0FD
:105010007E099EBF4FEA904909F17C094FEA490594
:1050200024E7726822EA0302726060E75B0008F11D
:10503000040863E7032A2DE9F00F09D82AB10023F9
:10504000CC5CC45401339342FAD1BDE8F00F7047F1
:10505000830702440ED0441C4D1C15F8017C04F05B
:105060000306234601342946013504F8027C002E4C
:10507000F3D100E0034611F003046DD0D71A0D1BE5
:10508000032F2E6819DDC4F1040C4FEAC4081C1D5F
:105090004FEACC0C55F8047FC4EB020923460431D7
:1050A0000434B9F1030F26FA08FA07FA0CFB3E465E
:1050B0004BEA0A0744F8087CECDC9A42C5D9013374
:1050C0000131013211F8014C01330131934203F8EF
:1050D000024CF7D1B9E70C684033403143F8404CFB
:1050E00051F83C4C43F83C4C51F8384C43F8384CA0
:1050F00051F8344C43F8344C51F8304C43F8304CB0
:1051000051F82C4C43F82C4C51F8284C43F8284CBF
:1051100051F8244C43F8244C51F8204C43F8204CCF
:1051200051F81C4C43F81C4C51F8184C43F8184CDF
:1051300051F8144C43F8144C51F8104C43F8104CEF
:1051400051F80C4C43F80C4C51F8084C43F8084CFF
:1051500051F8044C43F8044CD41A3F2CBBDC11E04A
:105160000C681033103143F8104C51F80C4C43F8D4
:105170000C4C51F8084C43F8084C51F8044C43F8D7
:10518000044CD41A0F2CEBDC032C96DD1C1D0D1DDA
:1051900055F8047C161B2346294604340435032E97
:1051A00044F8087CF4DC88E78842F0B411D98C1804
:1051B000A0420ED28518531E4AB121462A4611F844
:1051C000014D013BB3F1FF3F02F8014DF7D1F0BCB7
:1051D00070470F2A47D941EA00039B0745D10C4687
:1051E00003461546266810331034103D0F2D43F842
:1051F000106C54F80C6C43F80C6C54F8086C43F8C1
:10520000086C54F8046C43F8046CEBD8A2F1100558
:1052100002F00F0425F00F051035032C00EB0503F9
:10522000294424D9A4F1040C1D460C464FEA9C0CD9
:1052300001EB8C07043754F8046BBC4245F8046B4F
:10524000F9D10CF1010402F00302A40009191B19A1
:10525000002ABCD001399A1811F8014F03F8014B0C
:105260009342F9D1B3E70346F2E70346F2E7224659
:10527000EEE700BF032AC9B270B408D82AB10346CA
:10528000121803F8011B9342FBD170BC70478307CF
:10529000024409D0441C04F00305234604F8011C11
:1052A0000134002DF7D100E00346D51A01EB0124AB
:1052B0003F2D04EB04442CDD1C604033D51A43F829
:1052C0003C4C3F2D43F8384C43F8344C43F8304CB9
:1052D00043F82C4C43F8284C43F8244C43F8204C1A
:1052E00043F81C4C43F8184C43F8144C43F8104C4A
:1052F00043F80C4C43F8084C43F8044CDCDC08E061
:105300001C601033D51A43F80C4C43F8084C43F892
:10531000044C0F2DF4DC032D08DD1D1D561B45F834
:10532000044C032E2B4605F10405F7DC9A42ACD958
:105330000133013203F8011C01339342FAD1A4E78F
:10534000704700BF704700BF48F2B4430A46C1F639
:10535000FF730146186800F001B800BF2DE9F04F57
:105360000C4683B081461746002900F01C8107F1E6
:105370000B05FFF7E5FF54F8042C162DA4F1080ADD
:1053800022F0030675D8102100230D46BD4238BF18
:1053900043F00103002B40F00C818E426EDA48F29C
:1053A000A85B0AEB0600C1F6FF7BDBF808E0864548
:1053B00000F00481D0F804C02CF001088044D8F833
:1053C000048018F0010F1CBF9C4660466FD0D307C5
:1053D00000F1C38054F8083CC3EB0A035A6822F07A
:1053E00003029219019200286CD0704500F03781B9
:1053F0000CEB0208884565DBC1681F468068321FD8
:10540000242A8860C16057F8080FD968C160886095
:1054100000F27881132A9CBF394620461FD92168A3
:105420001B2A98BF04F1080099606168D96098BF91
:1054300003F1100113D9A168242A14BF04F110004C
:1054400004F118001961E168596111BF03F11801F5
:10545000226903F120019A6104BF6269DA6102687E
:105460003C460A609A4642684A6082688A605A6886
:1054700005E025F007052946EB0F87E7B046C5EBA9
:1054800008030F2B55D80AEB080302F0010242EA89
:105490000802CAF804205A6842F001025A604846DD
:1054A0002746FFF74FFF384603B0BDE8F08F2CF0DA
:1054B000030C0CEB0608884589DBC3688168CB6068
:1054C0009960DCE7019A8A4247DB1F46D968321FA0
:1054D00057F8080F242AC160886000F2B180132AAF
:1054E0009CBF394620461FD921681B2A98BF04F16A
:1054F000080099606168D96098BF03F1100113D961
:10550000A168242A14BF04F1100004F118001961E5
:10551000E168596111BF03F11801226903F120010B
:105520009A6104BF6269DA6102683C46DDF8048072
:1055300097E70AEB050102F00102CE18154343F08C
:105540000103CAF804504B6048467368083143F0C1
:105550000103736000F04EFAA1E739464846FFF7B1
:105560009DFA0746D8B154F8042CA0F1080122F0A6
:1055700001035344994200F0BF80321F242A6AD8A5
:10558000132A9CBF0346224639D811681960516816
:10559000596092689A604846214600F02BFA4846C6
:1055A000FFF7D0FE7FE7114603B0BDE8F04FFFF7ED
:1055B00075BA0C230027C9F8003074E7DEF8043010
:1055C00005F1100023F0030C0CEB06038342B8BF77
:1055D0007046FFF6FCAE0AEB05025B1B43F00103CD
:1055E00048465360274654F8043CCBF8082003F0A3
:1055F00001031D4344F8045CFFF7A4FE53E723684E
:105600001B2A98BF04F1080203606368436098BFD7
:1056100000F10803B9D9A368242A14BF04F11002C9
:1056200004F118028360E368C36011BF00F1100346
:10563000216900F11803016104BF61694161A4E7B8
:10564000214638460093FFF7AFFD9DE808013C4630
:105650009A465A6813E72146FFF7A6FD9BE7019893
:1056600005F110020CEB00089045FFF62BAF1F462A
:10567000D968321F57F8080F242AC16088604BD8B8
:10568000132A9CBF3A4621461FD921681B2A98BF7E
:1056900003F1100299606168D96098BF04F10801B4
:1056A00013D9A168242A14BF03F1180203F12002C0
:1056B0001961E168596111BF04F11001206904F119
:1056C0001801986104BF6069D86108681060486873
:1056D0005060896891605A19C5EB080141F00101D9
:1056E000484651605968CBF8082001F001010D438C
:1056F0005D60FFF727FED6E650F8043C23F0030870
:10570000B044BCE6214638460093FFF74DFD009BB0
:105710003C469A465A68B2E6384621460093FFF75F
:1057200043FD009BD7E700BF38B549F2D044C1F62E
:10573000FF740546084600232360FBF745F8431C29
:1057400000D038BD2368002BFBD02B6038BD00BFD4
:1057500080EA0102844612F0030F4FD111F0030FCB
:1057600032D14DF8044D11F0040F51F8043B0BD029
:10577000A3F101329A4312F0803F04BF4CF8043B7E
:1057800051F8043B16D100BF51F8044BA3F101328C
:105790009A4312F0803FA4F101320BD14CF8043B44
:1057A000A24312F0803F04BF51F8043B4CF8044B75
:1057B000EAD023460CF8013B13F0FF0F4FEA3323E6
:1057C000F8D15DF8044B704711F0010F06D011F8C5
:1057D000012B0CF8012B002A08BF704711F0020FB3
:1057E000BFD031F8022B12F0FF0F16BF2CF8022B9E
:1057F0008CF8002012F47F4FB3D1704711F8012BC1
:105800000CF8012B002AF9D1704700BF41EA0003D0
:1058100013F0030F034670B425D0AAB10C78013AF7
:1058200003F8014B4CB11C4672B111F8015F013A0B
:1058300004F8015B2346002DF6D12AB19A18002105
:1058400003F8011B9342FBD170BC70470E4651F820
:10585000044BA4F1013525EA040515F0803F05D17C
:10586000043A43F8044B032AF0D8D6E73146D4E78C
:105870002DE9F04145F6E474C0F2000484B0074617
:105880002568AC6C002C42D066681F2E1ADD44F6E9
:105890007D24C0F2000424B94FF0FF3004B0BDE80D
:1058A000F0818C20039102920193FFF7E7F80399AE
:1058B000029A019B04460028EED0A86C002684E8DA
:1058C0004100AC64DFB1D4F8886026B3D6F800811B
:1058D00065680120022F05F1200C00FA05F046F85A
:1058E000252048EA000246F82C3008BFD6F80431DB
:1058F000C6F8002104BF1843C6F8040100E065683B
:10590000AB1C00200135656044F82310C6E705F1A3
:105910004C04AC64B8E744F67D20C0F200000028D7
:10592000BAD04FF48470039102920193FFF7A6F866
:105930000399029A019B06460028ADD00020C6F8C4
:105940000001C6F804018046C4F88860C0E700BFC3
:10595000F8B548F2A854C1F6FF740F460546FFF7A4
:10596000EFFCA3685E6826F0030606F6EF73DF1B04
:105970003F0B013F3F03B7F5805F07DB002128465F
:10598000FFF7D2FEA3689B19984204D02846FFF780
:10599000D9FC0020F8BD79422846FFF7C5FE01304A
:1059A00010D049F29043A168C1F6FF73F61B284658
:1059B00046F001061A684E60D71B1F60FFF7C2FC55
:1059C0000120F8BD00212846FFF7AEFEA368C21AE9
:1059D0000F2ADBDD48F6B01449F29041C1F6FF749E
:1059E000C1F6FF7142F001025A602368C01A0860D4
:1059F000CCE700BF2DE9F0410E46804600295CD07F
:105A0000FFF79EFC48F2A85556F8041CC1F6FF7536
:105A1000A6F1080421F00103AF68E218974250682C
:105A200020F0030067D011F00101506035D0002153
:105A30001618766816F0010F06D11B189068002919
:105A40004DD0D268C260906043F00102E3506260C2
:105A5000F1B9B3F5007F32D35A0A042A6CD89809F9
:105A60003830410005EB810548F2A851C1F6FF71BD
:105A7000AA68AA426BD0516821F003018B4202D27E
:105A800092689542F7D1D368E360A260D4609C60CD
:105A90004046BDE8F041FFF755BC56F8086C05F1EB
:105AA000080CA41B9B19A668664543D0D4F80CC00B
:105AB000C6F80CC0CCF80860BAE7BDE8F081DB0896
:105AC0000121686805EBC3029B1001FA03F3E26051
:105AD000916818436860A160CC609460D8E7294E53
