:1000000000800020BD010000B1070000B107000022
:10001000B1070000B1070000B10700007D07000034
:100020007D0700007D0700007D070000B10700008C
:10003000B10700007D070000B10700006D07000058
:10004000B1070000B1070000B1070000B1070000D0
:10005000B1070000B1070000B1070000B1070000C0
:10006000B1070000B1070000B1070000B1070000B0
:10007000B1070000B1070000B1070000B1070000A0
:10008000B1070000B1070000B1070000B107000090
:10009000B1070000B1070000B1070000B107000080
:1000A000B92E0000B1070000B1070000B107000041
:1000B000B1070000B1070000B1070000B107000060
:1000C000B1070000B1070000B1070000B107000050
:1000D000B1070000B1070000B1070000B107000040
:1000E000B1070000B1070000B1070000B107000030
:1000F000B1070000C5100000B1070000491400005E
:10010000B107000081170000B1070000B10700002F
:10011000B1070000B1070000B1070000B1070000FF
:10012000B1070000B1070000B1070000B1070000EF
:10013000B1070000B1070000B1070000B1070000DF
:10014000B1070000B1070000B1070000B1070000CF
:10015000052600001D260000352600004D26000063
:10016000B10700002D1A0000B1070000B107000020
:10017000B1070000B1070000B1070000B10700009F
:10018000B1070000B1070000B1070000B10700008F
:10019000B1070000B1070000B107000035090000F9
:1001A000850900000D0A0000C90A00004D0B00007F
:1001B000B1070000B1070000A12300004E4B4CF234
:1001C000205210B51A804DF628121A8000BF00BFC9
:1001D00000F0F2FA494B4FF010621A60484A9A60F8
:1001E000484ADA60484B1A6812F4807204D14749D1
:1001F0000A604FF4A8521A60454B1A7802F00802C0
:10020000D2B21AB11A7842F008021A700023414A99
:100210004148424C02E019599950043399188142DF
:10022000F9D33F4B3F4A002101E043F8041B9342BE
:10023000FBD33D4B00221A603C4B3D4A802103F822
:10024000011B9342FBD13B4B0A221A703A4B2422EA
:100250001A70A02203F8012C384A137803F0020325
:10026000DBB2002BF9D0354A137803F01003DBB270
:10027000002BF9D1314A137803F00C03082BFAD183
:100280002F4B03221A7040225A702C4A137803F025
:100290002003DBB2002BF9D0284A137803F0400387
:1002A000DBB2002BF9D0274A274B1A60274B2022BC
:1002B0001A70224A137803F00C030C2BFAD1244B4A
:1002C00002221A60234A43F8442C234B234A1A6023
:1002D000072243F8042C62B600F0DCFC0B4B1B68D1
:1002E000DC0702D51E4800F049FC07F05BFE00F079
:1002F00069FA04F001F9FEE70E2005403080044061
:10030000823F04000100002B10D0034014D00340B2
:1003100002D007400084FF1FC089FF1F70990000B2
:10032000C089FF1F2C95FF1F08ED00E000E400E0EE
:100330005FE400E0005006400140064006400640F1
:100340000440064000000301448004400040064091
:1003500048800440C010050014E000E0FF76010072
:10036000BC8C6453FFFFFFFFFFFFFFFFFFFFFFFF9A
:10037000FFFFFFFFFFFFFFFFFFFFFFFFFFFFFFFF8D
:10038000FFFFFFFFFFFFFFFFFFFFFFFFFFFFFFFF7D
:10039000FFFFFFFFFFFFFFFFFFFFFFFFFFFFFFFF6D
:1003A000FFFFFFFFFFFFFFFFFFFFFFFFFFFFFFFF5D
:1003B000FFFFFFFFFFFFFFFFFFFFFFFFFFFFFFFF4D
:1003C000FFFFFFFFFFFFFFFFFFFFFFFFFFFFFFFF3D
:1003D000FFFFFFFFFFFFFFFFFFFFFFFFFFFFFFFF2D
:1003E000FFFFFFFFFFFFFFFFFFFFFFFFFFFFFFFF1D
:1003F000FFFFFFFFFFFFFFFFFFFFFFFFFFFFFFFF0D
:10040000FFFFFFFFFFFFFFFFFFFFFFFFFEFFFFFFFD
:1004100008B548F6C010074BC1F6FF701B1A062B33
:1004200000D808BD40F20003C0F20003002BF8D052
:100430009847F6E7C389FF1F08B548F6C01048F68D
:10044000C013C1F6FF70C1F6FF731B1A9B1003EBBC
:10045000D373591000D108BD40F20002C0F200026F
:10046000002AF8D09047F6E710B548F6C014C1F658
:10047000FF74237873B9FFF7CBFF40F20003C0F29B
:1004800000032BB149F67010C0F20000AFF30080FA
:100490000123237010BD00BF08B540F20003C0F275
:1004A00000034BB149F6701048F6C411C0F20000C9
:1004B000C1F6FF71AFF3008048F6C010C1F6FF70BF
:1004C00003682BB140F20003C0F2000303B1984768
:1004D000BDE80840FFF7B0BFF0B5304830490368C9
:1004E0001B06FCD40B6813F08002F8D172B62D4BBA
:1004F0001978002950D02C4908684F688E68CD685B
:100500000C6938181431801909684019001940180D
:10051000C0F34E00254940F400400860C86A0F6BE4
:100520004E6B8D6BCC6B38184031801909684019BF
:1005300000194018C0F34E001D4940F40040086007
:1005400001F10811143151F8140C51F8107C51F8D4
:100550000C6C51F8085C51F8044C09683818801983
:10056000401900194018C0F34E00124940F40040F1
:100570000860C86A0F6B4E6B8D6BCC6B38184031BE
:1005800080190968401900194018C0F34E000A4943
:1005900040F4004008601A7062B6F0BD24B0034019
:1005A00024B00B40DD89FF1F38B003402CB003405E
:1005B00030B003402CB00B4030B00B40224B6022D7
:1005C0001A70E1225A70214B214A1978214B0829CF
:1005D00001D1012102E00A2907D13921116013223A
:1005E0001A601D4B19605A600BE00C291A4901D1A1
:1005F000352000E03D20106012221A60174B086081
:100600001A60174B17491B78174A03B101230B6077
:100610001360164B164A1978164B012901D8802110
:100620000CE0042901D8842108E0082901D885219B
:1006300004E0102901D8862100E0872111601960AB
:100640000D4B01221A707047004007400484FF1FC1
:1006500008B003400CB0034008B00B400CB00B4096
:10066000E089FF1F20B0034020B00B400584FF1F2E
:1006700024B0034024B00B40DD89FF1F0D282DE975
:10068000F0410FD9172801D80E380AE0A0F11A035B
:10069000052B01D8093804E0A0F12203062B4DD820
:1006A0001838C0B2274B1C5C274B1B780BB1FFF7E7
:1006B00013FF72B6200614D4244D254E01272C605A
:1006C000377062B672B62B68190603D5214B1868CD
:1006D0001F4B23E03378002BF1D062B601F05EFEB1
:1006E000F0E704F040071C4D1C4EFFB204F03F043D
:1006F0004FF001081A4B1A6817B122F0100201E0FE
:1007000042F010021A602C6086F8008062B672B661
:100710002B681A060BD5134B1868104B00221A7061
:1007200062B6114B1B7840FA03F0BDE8F0813378D4
:10073000002BDFD062B601F031FEE8E70020BDE813
:10074000F08100BF08910000DD89FF1F00B0034069
:10075000DF89FF1F10B0034000B00B40DE89FF1F90
:100760000CB00B4010B00B40DC89FF1F024B1A6825
:1007700001321A60704700BF6C8AFF1F38B50B4CFE
:1007800025462368580301D501F050F92B68590517
:1007900001D500F097FC2B681A0501D500F054FE36
:1007A0002368DB04EDD500F0EBFFEAE7348004407A
:1007B00008B5FFF7E3FFFFFF014B10221A807047D7
:1007C000002005407047FFFF024A136818181060A8
:1007D000184670470884FF1F012070477047FFFFCD
:1007E000EFF313839BB9EFF3108098B9EFF3058310
:1007F00023B10F2B04D9084A985C01E04FF48070B4
:10080000EFF311833BB1984228BF184670474FF071
:10081000FF30704718467047F0E300E0002300E027
:100820000133C25C002AFBD11846704710B5002383
:10083000B0FBF2F402FB1400092801D8303000E0CC
:100840003730C85420460CB10133F1E7CA18547050
:10085000224605E0885CCC5C8C54C8540132013BD4
:100860009A42F7DB084610BD031E10B50C4603DBA9
:10087000BDE81040FFF7DABF2D2001F8010B584208
:10088000FFF7D4FF204610BD084B4FF400021A605A
:100890004FF080721A604FF000721A604FF0806261
:1008A0001A604FF000621A60704700BF08E100E074
:1008B000212830B521D8042A1FD8DFE802F0070923
:1008C000050B03000B2306E00A2304E0082302E0E3
:1008D0000C2300E00923094A02EBC002526872B6F9
:1008E0001468074D24F47024146044F0807444EAC2
:1008F000034345F82010136062B630BD209100001C
:10090000E489FF1F094B03EBC0035B6872B61A68EA
:1009100022F0877222F4803242F080721A60044B17
:10092000002243F8202062B6704700BF20910000EB
:10093000E489FF1F114B10B51C68E0041C6004D54E
:100940000F4BDA680AB1DB689847A10404D50C4B59
:100950001A690AB11B699847A20604D5084B1A6E9A
:100960000AB11B6E9847E30606D5054BD3F88420E1
:1009700012B1D3F88430984710BD00BFA090044056
:10098000E489FF1F1F4B10B51C68E0031C6004D5F1
:100990001D4B1A680AB11B689847A10304D51A4B6E
:1009A0005A680AB15B689847E20704D5164B1A6C7F
:1009B0000AB11B6C9847A30704D5134B5A6C0AB1B4
:1009C0005B6C9847200704D50F4B9A6C0AB19B6C5F
:1009D0009847610704D50C4BDA6C0AB1DB6C984779
:1009E000220304D5084B5A6E0AB15B6E9847630325
:1009F00006D5054BD3F8802012B1D3F88030984744
:100A000010BD00BFA0A00440E489FF1F2C4B10B50F
:100A10001C6820071C6004D52A4B5A6A0AB15B6A1D
:100A20009847E10604D5274B9A6A0AB19B6A984712
:100A3000620604D5234BDA6A0AB1DB6A98472306BB
:100A400004D5204B1A6B0AB11B6B9847A00604D53E
:100A50001C4B5A6B0AB15B6B9847E10704D5194BE5
:100A6000DA6B0AB1DB6B9847A20704D5154B9A6D78
:100A70000AB19B6D9847630704D5124BDA6D0AB132
:100A8000DB6D9847A00504D50E4BDA6E0AB1DB6E1C
:100A90009847E10504D50B4B1A6F0AB11B6F9847B5
:100AA000620504D5074B5A6F0AB15B6F984723055F
:100AB00004D5044B9A6F0AB19B6F984710BD00BFD5
:100AC000A0B00440E489FF1F1E4B10B51C68E0076E
:100AD0001C6004D51C4B9A680AB19B689847210694
:100AE00004D5194B5A690AB15B699847E20604D5E7
:100AF000154B9A690AB19B699847630704D5124B55
:100B0000DA690AB1DB699847200704D50E4B1A6AE7
:100B10000AB11B6A9847A10704D50B4B9A6B0AB11F
:100B20009B6B9847A20604D5074B1A6D0AB11B6D43
:100B30009847630604D5044B5A6D0AB15B6D98471C
:100B400010BD00BFA0C00440E489FF1F094B10B5D1
:100B50001C68A2071C6004D5074B9A6E0AB19B6EF5
:100B60009847E30704D5044BDA6F0AB1DB6F984767
:100B700010BD00BFA0D00440E489FF1F044B05490D
:100B800000221A600A60044A106010221A6070473E
:100B900014D0034004D0034000D00340212810B5F6
:100BA00018D80D4A52F8303093F880423CB10122F7
:100BB00011B183F8802010BD83F8002110BD02EB35
:100BC000C00043681A6811B142F0030201E022F04C
:100BD00002021A6010BD00BF20910000212805D834
:100BE000034B53F8303093F80002704700207047F1
:100BF00020910000212816D80B4A02EBC0030129DE
:100C00005B6852F8302004D182F880124FF4A2724F
:100C100008E0002082F8800211B94FF4807201E0F0
:100C200040F203121A6070472091000072B60B4B1D
:100C30000B491A680B4B1B68096862B6490102D55B
:100C4000322A88BF0133C2F5BB32FF326021B2FBCA
:100C5000F1F24FF47A7000FB0320704718E000E0D7
:100C600004ED00E06C8AFF1F70B50446FFF7DEFF5D
:100C700005466CB140F2E736FFF7D8FF401BB042A3
:100C800003D9013C04D005F57A7501F087FBF3E741
:100C900070BDFFFF10B5FFF7F7FD164B164A174C56
:100CA00000204BF6FF711860596028231360936091
:100CB0001361936113629362136393630922226049
:100CC0000F4C20606160A360236144F8042C0D4C3C
:100CD00020600D4801600D490B608B600C4B1A6061
:100CE000FFF76CFC0420FFF7BFFFBDE8104001F0E8
:100CF000B3B900BF048003400C8003400080034070
:100D00000490034004800B4008800B400C800B4093
:100D100000800B401B4B1A6842F480621A601A4A2A
:100D200000231370194A1370194A1370194A13706B
:100D3000194A1370194B40F213321A604FF4517272
:100D40005A60174BC0F344321A70C0F347125A70FE
:100D500000F01F00134A987202210423137051748B
:100D6000D374114B88221A703C2203F80D2C0F4BC0
:100D700040226FF44A711A705B184FF400521A60E7
:100D8000704700BF34800440F28AFF1F718AFF1F42
:100D9000F88AFF1FF38AFF1F708AFF1F40A00440DC
:100DA00000A0064002A0064010A006402DE400E08E
:100DB000134A137800F0030103F0EC030B434107DF
:100DC00048BF43F01003137000F00F03042B04D14D
:100DD0000C4B1A7842F040021A700B4A1378C10685
:100DE00003F0EF0348BF43F010031370054A137874
:100DF000800603F0EF0348BF43F010031370704701
:100E000002A0064006A0064005A006400E4B1B6847
:100E1000580510B503D410BD01F0C0FA00E00B4C2A
:100E20002378002BF8D10A4A4FF400511160094A87
:100E30000949137040F203120A604A60074A1370AE
:100E4000074A137010BD00BF34800440708AFF1F32
:100E500084E100E003A0064040A00440F28AFF1FA6
:100E6000718AFF1F38B5094B04461D78002DFCD14F
:100E700020460121FFF7BEFE20462946FFF78EFEE1
:100E8000034B53F83420034B1A6038BD708AFF1FA0
:100E900020910000F48AFF1F1D4B1B685A052DE9A5
:100EA000F041064632D51B4B1B680BB101221A706C
:100EB000194B1A4D1C781A4FDFF86C8001343F2C07
:100EC00088BF002415E0FFF78BFC40280DDC3B7841
:100ED0001B060ED52B78134A01333F2B88BF002306
:100EE00018F8031011702B7003E0FF2801DD01F0EA
:100EF00055FA2B78A342E6D00B4B1E550B4B012223
:100F00001A70054B1C700A4BBC221A70BDE8F081A8
:100F100034800440F48AFF1FF88AFF1FF38AFF1F02
:100F200004A0064007A00640728AFF1F708AFF1FB8
:100F300003A006402DE9F84F254B1B6806465805CF
:100F4000884643D5234B1B680BB101221A70224DF2
:100F5000B346A94633E0214B1C782F7801343F2C4F
:100F600088BF0024A74209D01BF8012B1C4B1A553F
:100F70001C4B01221A70194B1C7020E01A4BDFF831
:100F800070A0BC221A70FFF72BFC40280FDC9AF8E7
:100F9000003019060FD52B78114A01333F2B88BF3B
:100FA0000023D15C114A117089F8003003E0FF285A
:100FB00001DD01F0F3F92B78BB42E4D0D4E706EB76
:100FC00008039B45C7D3084BBC221A70BDE8F88FB5
:100FD00034800440F48AFF1FF38AFF1FF88AFF1F42
:100FE000728AFF1F708AFF1F03A0064007A00640F9
:100FF00004A0064010B5044C01E001F0CFF92378BD
:10100000002BFAD110BD00BF708AFF1F044B187867
:10101000044B1B78984238BF4030C01A704700BF5D
:10102000F28AFF1F718AFF1F084B094A197813784B
:10103000994207D001333F2B88BF00230549C85C84
:10104000137070474FF0FF30704700BFF28AFF1FE8
:10105000718AFF1FB28AFF1F074B1A78074B1B7854
:101060009A4206D001333F2B88BF0023044AD05C4C
:1010700070474FF0FF307047F28AFF1F718AFF1FE1
:10108000B28AFF1F0A4B1B685B050FD5094B1A7804
:1010900002F0CB021A70084A402111701A7842F00F
:1010A00034021A70054B1A78054B1A70704700BF4E
:1010B0003480044003A0064011A00640718AFF1F3F
:1010C000F28AFF1FF0B5304B1B7813F0300F20D0A1
:1010D00072B62E4B197831B90F3B40221B782C4B3E
:1010E0001A7062B615E062B62A4B2B4C1A782B4B5D
:1010F0002B4D1878531C3F2B88BF00232678834242
:101100001CBFEE541A46013911F0FF01F2D1214BF8
:101110001A70244B1B7819465BB2002B1FDA1A4A4F
:10112000137818061BD5204B204E1F78204B1A4DE4
:101130001B78204CBB4209D001333F2B88BF0023D2
:101140001078F05C287020780728F3D9184A1370BB
:101150000D4B1B781A0602D5124B7C221A7001F037
:101160004003DBB27BB1084B1B7803F04003DBB2DA
:101170004BB1114B00221A70104B1B6803B11A704F
:10118000084B3C221A70F0BD04A0064016A0064091
:1011900011A00640F28AFF1F07A00640718AFF1FB8
:1011A000B28AFF1F03A00640F88AFF1F728AFF1F42
:1011B000F38AFF1F14A00640708AFF1FF48AFF1FE6
:1011C000164B1A6842F400621A60154A0023137025
:1011D000144A1370144A1370144A1370144A13708B
:1011E000144A40F2133111604FF451715160124AA8
:1011F000C0F344311170C0F3471100F01F0051706B
:101200009072937013740D4B2C221A700C4B402269
:101210001A700C4B4FF400421A607047348004403F
:10122000638BFF1FFA8AFF1F658BFF1F648BFF1FF5
:10123000F98AFF1F0CB0044000B0064003B006401E
:101240002FE400E004E100E0134A137800F003010A
:1012500003F0EC030B43410748BF43F01003137046
:1012600000F00F03042B04D10C4B1A7842F040021B
:101270001A700B4A1378C10603F0EF0348BF43F01E
:1012800010031370054A1378810603F0EF0348BF7B
:1012900043F010031370704702B0064006B00640DA
:1012A00005B006400E4B1B68180510B503D410BDE1
:1012B00001F074F800E00B4C2378002BF8D10A4AB7
:1012C0004FF400411160094A0949137040F20312BA
:1012D0000A604A60074A1370074A137010BD00BFC6
:1012E00034800440F98AFF1F84E100E003B0064027
:1012F0000CB00440638BFF1FFA8AFF1F1B4B1B6857
:101300001A052DE9F04106462DD5194B194D1C78CB
:10131000194FDFF86C800134272C88BF002415E0BA
:10132000FFF75EFA40280DDC3B781B060ED52B78C4
:10133000124A0133272B88BF002318F803101170BD
:101340002B7003E0FF2801DD01F028F82B78A34281
:10135000E6D00B4B1E550B4B01221A70044B1C7030
:10136000094BAC221A70BDE8F08100BF3480044004
:10137000658BFF1F648BFF1F04B0064007B006405B
:10138000FB8AFF1FF98AFF1F03B0064038B54518D6
:10139000044603E014F8010BFFF7B0FFAC42F9D1AB
:1013A00038BDFFFF10B5044C01E000F0F7FF2378D3
:1013B000002BFAD110BD00BFF98AFF1F044B18782B
:1013C000044B1B78984238BF4030C01A704700BFAA
:1013D000638BFF1FFA8AFF1F084B094A197813789D
:1013E000994207D001333F2B88BF00230549C85CD1
:1013F000137070474FF0FF30704700BF638BFF1FC3
:10140000FA8AFF1F238BFF1F074B1A78074B1B78A5
:101410009A4206D001333F2B88BF0023044AD05C98
:1014200070474FF0FF307047638BFF1FFA8AFF1F32
:10143000238BFF1F024B1A78024B1A70704700BFB4
:10144000FA8AFF1F638BFF1F10B5214B1B7803F037
:101450002003DBB273B11F4B1F4A18781F49137862
:10146000097801333F2B88BF00238B4202D01C49EF
:10147000C85413701B490B7818465BB2002B15DA61
:10148000134B1B781B0611D5174B184A1C78137881
:101490009C4202D16C230B7008E00133272B88BFDC
:1014A00000231349CC5C0B490C70137000F040030F
:1014B000DBB25BB1064B1B7803F04003DBB22BB110
:1014C0000C4B00221A70074B2C221A7010BD00BF63
:1014D00004B0064007B00640638BFF1FFA8AFF1F67
:1014E000238BFF1F03B00640658BFF1F648BFF1F1C
:1014F000FB8AFF1FF98AFF1F174B1A6842F48052BC
:101500001A60164A00231370154A1370154A137097
:10151000154A1370154A1370154A40F213311160C1
:101520004FF451715160134AC0F344311170C0F34C
:10153000471100F01F0051709072937013740E4B9E
:101540002C221A700D4B40226FF44B711A705B18ED
:101550004FF400321A60704734800440D08BFF1F74
:10156000678BFF1FD28BFF1FD18BFF1F668BFF1F67
:1015700008C0044000C0064003C0064031E400E05B
:10158000134A137800F0030103F0EC030B43410707
:1015900048BF43F01003137000F00F03042B04D175
:1015A0000C4B1A7842F040021A700B4A1378C106AD
:1015B00003F0EF0348BF43F010031370054A13789C
:1015C000800603F0EF0348BF43F010031370704729
:1015D00002C0064006C0064005C006400E4B1B6810
:1015E000D80410B503D410BD00F0D8FE00E00B4CB9
:1015F0002378002BF8D10A4A4FF400311160094AD0
:101600000949137040F203120A604A60074A1370D6
:10161000074A137010BD00BF34800440668BFF1F63
:1016200084E100E003C0064008C00440D08BFF1FE7
:10163000678BFF1F1B4B1B68DA042DE9F041064640
:101640002DD5194B194D1C78194FDFF86C800134DA
:10165000272C88BF002415E0FFF7C2F840280DDCD6
:101660003B781B060ED52B78124A0133272B88BFF7
:10167000002318F8031011702B7003E0FF2801DD20
:1016800000F08CFE2B78A342E6D00B4B1E550B4B83
:1016900001221A70044B1C70094BAC221A70BDE871
:1016A000F08100BF34800440D28BFF1FD18BFF1F1D
:1016B00004C0064007C00640688BFF1F668BFF1FF3
:1016C00003C0064038B54518044603E014F8010B82
:1016D000FFF7B0FFAC42F9D138BDFFFF10B5044CA5
:1016E00001E000F05BFE2378002BFAD110BD00BFB3
:1016F000668BFF1F044B1878044B1B78984238BF49
:101700004030C01A704700BFD08BFF1F678BFF1F90
:10171000084B094A19781378994207D001333F2BB7
:1017200088BF00230549C85C137070474FF0FF3035
:10173000704700BFD08BFF1F678BFF1F908BFF1F71
:10174000074B1A78074B1B789A4206D001333F2B80
:1017500088BF0023044AD05C70474FF0FF307047C9
:10176000D08BFF1F678BFF1F908BFF1F024B1A78D8
:10177000024B1A70704700BF678BFF1FD08BFF1F93
:1017800010B5214B1B7803F02003DBB273B11F4B64
:101790001F4A18781F491378097801333F2B88BFF7
:1017A00000238B4202D01C49C85413701B490B788C
:1017B00018465BB2002B15DA134B1B781B0611D5AC
:1017C000174B184A1C7813789C4202D16C230B707B
:1017D00008E00133272B88BF00231349CC5C0B4959
:1017E0000C70137000F04003DBB25BB1064B1B784A
:1017F00003F04003DBB22BB10C4B00221A70074BF5
:101800002C221A7010BD00BF04C0064007C006405D
:10181000D08BFF1F678BFF1F908BFF1F03C00640FD
:10182000D28BFF1FD18BFF1F688BFF1F668BFF1FA3
:101830001FB572B6124B70221A70124A41211170F4
:101840000F2102F8011C80221A701A781206FCD5AA
:1018500062B60D4B01A918680A22FEF7E7FF0B4894
:10186000002301AA9A5C2AB100EB430101330A2B41
:101870004A80F6D10133054A5B00137005B000BD04
:101880000000024007000240080002409484FF1F4D
:10189000F0B50C4B0C4C1A7842F0020504EBC5066F
:1018A00082F00102706009481A700678002E0CBFA1
:1018B0008827C82747EA014186F0010644F8351019
:1018C0000670F0BD3C8CFF1F0080FF1FB48CFF1F13
:1018D000431E032B10B510D872B6094A52F82300E4
:1018E00010B1416842F82310064A018832F81340CB
:1018F000611A22F8131062B610BD002010BD00BF9F
:101900002C8CFF1F1895FF1F013803280BD872B6C7
:10191000064B53F82030002001E05B680130002BBB
:10192000FBD162B670470020704700BF808CFF1F5C
:1019300070B572B6184E194C01239A1912F8012C81
:1019400002F00802D2B2E2B19900144A54F83150C0
:101950002DB902EB431308305860114B09E041F0F8
:10196000010154F8315065B902EBC10308305860E9
:101970000C4B42F831300C4B1A78013A1A7062B6AF
:1019800070BD0133052BD8D162B6074B00221A7007
:10199000BDE8704000F0CCBB309200000080FF1F1B
:1019A00088004000C8004000AA8CFF1F431E032B84
:1019B00030B532D84001194A40F01000101872B604
:1019C000174CE25C032A09D8DFE802F0160218057A
:1019D0000830022213E00830042210E01148124AB5
:1019E00050F8234014B940F8231002E052F82300C5
:1019F000416042F823100FE0032200E00522E25488
:101A000010F0080F01F108030A8843600CBF882317
:101A1000C82343EA0243036062B630BD0080FF1F63
:101A2000E88BFF1F808CFF1F908CFF1F2DE9F74F65
:101A3000A34EA44C357805F00403DBB2ABB1A24B46
:101A40001B7883B1A14A137823B1013BDBB2137039
:101A500003B900BE9E4A13782BB1013BDBB2137071
:101A60000BB900F079FC0423337005F00802D2B200
:101A7000002A00F07B82974B1B781D094FEA9309DF
:101A800040F0F98104EBC903586854F83930C3F3C6
:101A90008303013B0C2B00F2EB81DFE813F0A40180
:101AA000A401E901E901E901E901E901E901C00154
:101AB000E901E901E9010D004368874A01685360C3
:101AC000864B874844F83930864D11600023036007
:101AD0000120287089B240F28165A9422361A36187
:101AE00019D8B1F5D06F80F02881B1F5817F00F071
:101AF000D88006D8802900F0BE80822940F0398144
:101B0000BDE040F20230814200F00881B1F5A06FE3
:101B100040F02F8131E1B1F5106F10D004D8B1F54C
:101B2000086F40F02681A0E042F22100814200F0DF
:101B3000578100F50070814240F01B8115E19278D9
:101B4000614B604D1A702B6A180603D5686A083815
:101B500000F0EEFA644A08359542F4D1DFF8B0910E
:101B6000DFF8B0B10025A846CA4655F8090005E0DF
:101B70004368009300F0DCFA009B18460028F7D178
:101B80005A4B4AF8050045F80B00E85807E0426850
:101B90000093019200F0CCFA019A009B10460028B5
:101BA000F5D15851524BE850524B23F81800524B84
:101BB00018F80320023A032A08D8DFE802F00204EA
:101BC0000204002200E0012203F8082008F10108C5
:101BD0000435B8F1040FC8D1484BDFF83C9100221E
:101BE0001A7001259846464B05EB0902EB1812F8CE
:101BF000012C9B001A7002F00802D2B23AB300F036
:101C000079FAAB0038B104EB4512083050603D4A18
:101C100044F8332006E044F8330098F800300133EC
:101C200088F8003000F066FAAB0043F0010338B1E9
:101C300004EBC30208305060284A44F8332006E021
:101C400044F8330098F80030013388F80030AA00D7
:101C500042F00201013542F003020023052D44F851
:101C6000313044F83230BED187E0174B264D1B7817
:101C70002B70034684E0244D2B706B707FE09288BC
:101C8000042A00D975E0204D2B706B701F4B920019
:101C9000D3181B7803F00203DBB2002B6FD028703F
:101CA0006DE0918801F07F03042B62DC538803B15F
:101CB0005FE0164A89008A18117821F0020156E087
:101CC000802007400080FF1FB38CFF1F3D8CFF1F4B
:101CD000B58CFF1F90200740A08CFF1FC80040005C
:101CE000D48BFF1FB48CFF1F8080FF1F808CFF1FD1
:101CF000908CFF1F1895FF1FE88BFF1FAA8CFF1FFA
:101D000030C8011088004000AB8CFF1FC020074086
:101D10002C8CFF1FD88BFF1F30920000918801F0A0
:101D20007F03042B25DC538803B122E0A04A8900FD
:101D30008A18117841F0020119E051889D4B928870
:101D400053F8085CA3F10C009DB133F80CCC8C4522
:101D500009D133F80ACC944505D1090A03290CBFEF
:101D60002B7803890CE00C33EAE79178924A1170E2
:101D700003E08F4B0F221A7032E01D4600E0022371
:101D80008E4AB2F806904B4538BF9946B9F1400FDC
:101D900034BFC8464FF0400828464146FFF778FD5B
:101DA000B9EB0809454403D1B8F1400F07D017E05B
:101DB000B9F1400F34BFC8464FF0400800E0C846B4
:101DC00028464146FFF764FDB9EB0809454402D1B6
:101DD000B8F1400F04D17A4B7A4A1D60A2F8009006
:101DE0000122794B43E0754B1A8842F221039A4253
:101DF00011D1764A0023C15C99540133072BFAD1E3
:101E0000724B1B68862B02D1714B0F221A70002077
:101E10000146FFF73DFD6F4B44F8393028E0684B31
:101E2000D3F80080B8F1000F18D0DFF89891B9F816
:101E300000A0BAF1400F34BF554640254046294620
:101E4000FFF726FDC5EB0A039BB2A9F800300BB9DA
:101E5000402D01D108EB0503594A1360574B1A88EE
:101E6000B2F5A06F04D100225A709A785A4B1A70BA
:101E70000122554B6DE004EBC90803F00803D8F8C4
:101E80000420013DD9B2A2F10800EDB2002937D0FB
:101E900000F04EF95148524B50F82510F1B14A6804
:101EA00040F8252001F10802C8F804205A5D032AF1
:101EB0000BD8DFE802F002040608032204E0022245
:101EC00002E0052200E004225A5518F0080F0A88A3
:101ED0000CBF8823C82343EA024342E05A5D032A29
:101EE00007D8DFE802F040400204002206E00122A9
:101EF00004E018F0080F0CBF022203225A5532E00A
:101F000054F839301B0C22F8083C23B322F8061C85
:101F100042F8041C334A344952F8257017B942F884
:101F2000250002E051F825205060304A41F8250094
:101F300032F815105B1822F8153000F0DBF818B1F4
:101F40000830C8F8040006E0294B44F839001A7834
:101F500001321A7007E01F4B264A18F0080F08BF1D
:101F6000134644F839300823337063E5E90751D547
:101F700015492048204C02230B70204B1A70204B2F
:101F8000186098601F481A61D8609A615C60084BBD
:101F90000D2018701C48FF23037000F8083C0274E1
:101FA0001A4A13701A4B9F221A7001230B704AE0D1
:101FB000C020074040920000C48CFF1FA08CFF1F70
:101FC000D48BFF1FA88CFF1F942007402095FF1F74
:101FD0003D8CFF1FC800400098200740808CFF1FE9
:101FE000E88BFF1F2C8CFF1FD88BFF1F1895FF1F3E
:101FF000AA8CFF1F88004000EC8BFF1F3C8CFF1F4A
:102000000080FF1F408CFF1F882007408C20074066
:10201000842007402B0605D50C4B0D221A70802218
:1020200003F8402C05F00203DBB22BB1084B1A7801
:102030001A70022203F8082C05F01005EDB215B154
:10204000044B10221A70BDE8FE8F00BFC02007406D
:10205000882007408020074008B5FFF7E9FB0023F0
:102060001E491A465A50C8180833882B4260F9D1C5
:102070001B4B1A6842F480221A601A4B80221A7095
:102080001978184A0906FBD4144B1749C3F30720E3
:102090000870C3F307401B0E08750B76FF2301F889
:1020A0001C3C01F8143C01F88C3C137843F04003CD
:1020B00013700021012302F8783C02F80C1C02F88E
:1020C000883C0A4B70226FF4507C1A7063444FF4C2
:1020D00000721A60064B10221A7008BD0080FF1FA4
:1020E000348004400C2107409C20074049E400E074
:1020F0000821074072B60C4A1168B1FA81F30B2B24
:1021000002D962B6002070474FF0004020FA03F079
:1021100021EA0001116062B6044948225343C818FD
:102120000022CA5042607047AC84FF1FA080FF1F8E
:102130000C4B4822C31AB3FBF2F30B2B11D80A4AFB
:10214000127822B1094A12780AB1FFF7F1BB72B6D0
:10215000074A4FF0004121FA03F311681943116057
:1021600062B67047A080FF1FAA8CFF1FB38CFF1FB1
:10217000AC84FF1F38B5114C23684BB10F4D286854
:102180004288811801320C7A01888A4212D30CE00D
:102190000B4B1B7813B94FF0FF340CE00320FFF713
:1021A00097FB20600028E9D1F5E7FFF7C1FF002386
:1021B0002B6000E04280204638BD00BFC08CFF1F6E
:1021C000B38CFF1F10B50C4C23681BB10A4B1B6866
:1021D0006BB902E0094B1B7813B94FF0FF3010BD0B
:1021E0000320FFF775FB20600028EFD1F5E75A8840
:1021F0009B18187A10BD00BFC08CFF1FB38CFF1F47
:10220000044B9888044B1B681BB11A885B88D31A4F
:10221000C01870471895FF1FC08CFF1F2DE9F843A9
:102220002D4B2E4DDFF8C08001220C461A70064659
:102230004BE02B682BBBDFF8A0904AF2F92798F807
:10224000003013B9244A137014E00420FFF75CFB3C
:10225000072808D8012389F80030FFF74BFF2860D2
:1022600078B989F80000013F1D4B01D01A782AB1D6
:1022700001221A704FF0FF30BDE8F88300F08EF8AD
:10228000DDE72968164A488800231370C0F1400230
:10229000944238BF224600F108078018CF194880C1
:1022A000A41A02E0F05CF85401339342FAD1F61814
:1022B0004B883F2B06D940230B800420FFF776FB89
:1022C00000232B60074B05221A70002CB1D1024B62
:1022D00020461C70BDE8F883B68CFF1FB88CFF1F2A
:1022E000BC8CFF1FB58CFF1FB38CFF1F07B502AB63
:1022F000012103F8010D1846FFF790FF0EBDFFFF07
:10230000F8B5114B1B78EBB1104E114B3468114DE1
:1023100001271F704CB1638800272F700420238091
:102320002146FFF743FB376009E0FFF7E3FE014674
:1023300020B104202C70FFF739FB00E02F70044B14
:1023400000221A70F8BD00BFB38CFF1FB88CFF1FAE
:10235000B68CFF1FB58CFF1F38B50D4B1D78ADB97E
:102360000C4C216831B14B8804200B80FFF71EFB19
:10237000256038BDFFF7BEFE014620B10420BDE850
:102380003840FFF713BB044B01221A7038BD00BF61
:10239000B68CFF1FB88CFF1FB58CFF1F7047FFFF67
:1023A000F8B5164B164D1A6842F080721A60154B3C
:1023B0001A6842F001021A60134B2E681C680FE085
:1023C000237A63B121682F680B68204698472A68F2
:1023D000E388D21B12099A42A28088BFE280646916
:1023E000002CEDD1064B094A1B689B1B1B0913806F
:1023F000074A11888B4288BF1380F8BDFCED00E0CE
:10240000041000E0001000E0C88CFF1FCE8CFF1FFE
:10241000CC8CFF1F10B5084614461146FEF78AFD06
:10242000204610BD084608B5FEF736FD012008BD60
:10243000FEF728BEFEF7DEBDFEF7F6BDFEF70CBECA
:10244000FEF7E4BD0846FEF70DBDFEF7DFBC480809
:1024500000F1376000F5D830B0FBF1F0FEF75ABC60
:10246000480800F1376010B500F5D830B0FBF1F046
:102470001446FEF74FFC2046BDE81040FEF798BC1E
:10248000044B00221A711A73034A4FF47A7199604F
:102490001A607047D08CFF1F9092000010B508465C
:1024A00014461146FEF772FF204610BD084608B5D7
:1024B000FEF724FF012008BDFEF7BCBFFEF772BF88
:1024C000FEF78ABFFEF7A0BFFEF778BFFEF7EABEB1
:1024D000480800F1376000F5D830B0FBF1F0FEF7A6
:1024E0006FBE480800F1376010B500F5D830B0FB7A
:1024F000F1F01446FEF764FE2046BDE81040FEF7FA
:10250000A3BEFFFF044B00221A711A73034A4FF453
:102510007A7199601A607047E08CFF1FC8920000C2
:1025200010B5084614461146FFF7CCF8204610BDFA
:10253000084608B5FFF77EF8012008BDFFF716B979
:10254000FFF7CCB8FFF7E4B8FFF7FAB8FFF7D2B857
:10255000FFF744B8480800F1B76000F55840B0FBF9
:10256000F1F0FEF7C9BF480800F1B76010B500F5FB
:102570005840B0FBF1F01446FEF7BEFF2046BDE820
:102580001040FEF7FDBFFFFF044B00221A711A73C3
:10259000034A4FF47A7199601A607047F08CFF1FFC
:1025A000009300002DE9F041002407460D46264621
:1025B0003B190A2219792846002300F0B9F82B6844
:1025C00080462E211B682846984701344044032C3E
:1025D0000644EDD12846F9790A22002300F0A8F834
:1025E0008019BDE8F081FFFF044B054A1A60002204
:1025F0001A715A719A71DA71704700BF008DFF1F0E
:102600003893000008B5034B01221A60024B1B6887
:10261000984708BD0C710340108DFF1F08B5034B90
:1026200001221A60024B5B68984708BD1C71034089
:10263000108DFF1F08B5034B01221A60024B9B68E7
:10264000984708BD2C710340108DFF1F08B5034B40
:1026500001221A60024BDB68984708BD3C710340B9
:10266000108DFF1F054B01221A60054B1A6822F4DA
:1026700000021A60034B00221A707047007003407A
:102680003C8004400C8DFF1F037B0122591103F095
:102690001F0302FA03F3084A42F82130826800233C
:1026A00013604178054A5354D15C21B90133042B9E
:1026B000FAD1FFF7D7BF704780E100E0088DFF1F18
:1026C000037810B504460BB1FFF7DEFF002323703B
:1026D00010BD2DE9F04100258AB0074688468C6878
:1026E0002E4611E02B46404601A9212200F0A7F911
:1026F0003B68202C34BF224620225B68384601A963
:10270000AD18A41A98473618002CEBD130460AB001
:10271000BDE8F08107B5054B1B88ADF804300368B0
:1027200001A95B68022298470EBD00BF40930000DC
:10273000F0B505468BB022B90368C9B21B6898474B
:102740002CE0012A08BF0A2221B930228DF8252069
:10275000212413E02124B1FBF2F002FB1011C9B2D5
:10276000092901D8303100E037310AAF3E1906F8A7
:10277000241C014610B1013CE4B2ECE733B1013C4A
:102780000AAAE4B213192D2203F8242C2B6801AFF6
:102790005B6828463919C4F1220298470BB0F0BD96
:1027A000002902DA49422D2300E000230A22FFF724
:1027B000BFBFFFFFFFFFFFFF2DE9F347074691462D
:1027C0009A4610461946002200239DF8284005F03D
:1027D0001FF820B10AF1004A4FF0010800E08046DE
:1027E00000260022304B0AE0104619462CA3D3E9FC
:1027F000002304F09BFD013602460B46F6B2A642CA
:10280000F2D14846514604F0DFFB0D46044605F080
:102810004FF881464346384649460A22FFF788FF6B
:102820008046002E37D0484604F00AFD072E28BF08
:1028300007260B4602462946204604F0C3FB013614
:102840002E238DF80030F6B24FF001091BE0002274
:10285000164B04F06BFD0D46044605F029F802AA5C
:1028600002EB0903C0B200F1300203F8082C04F0B7
:10287000F7FC09F1010902460B46204629465FFA9A
:1028800089F904F09FFBB145E1D13B6838465B68AC
:1028900069464A4698474046BDE8FC87AFF300804A
:1028A0009A9999999999B93F0000E03F0000244016
:1028B00010B50446FFF704FF204610BD0348044945
:1028C000044A0023037002F0DFBD00BF208DFF1F0C
:1028D000B12800000084FF1F10B5029C401AE41AC2
:1028E0004443521A94FBF2F0C01810BD10B50446D0
:1028F000006805F08BFB204610BD38B504460D4638
:102900000068013105F0E0FF10B184E821000120EA
:1029100038BD43688B4210B5044600D306E0FFF78C
:10292000ECFF20B1A3680BB922681370012010BD21
:10293000F8B504460F46154622B9036803B11A706C
:1029400000230BE01146FFF7E4FF064640B920687C
:1029500010B105F05BFB266000236360A36004E018
:10296000A5602068394606F0B3F92046F8BD38B5B1
:102970000023044603604360836003730D4639B14E
:102980000846FDF74BFF294602462046FFF7D0FFD9
:10299000204638BD81420B4603D009689A68FFF78C
:1029A000C7BF7047002310B50446036043608360CF
:1029B0000373FFF7EFFF204610BD70B504460E46C7
:1029C00085685AB155192946FFF7A3FF30B1206831
:1029D000A3683146C01806F07BF9A560204670BD9B
:1029E0001FB504460A22084601A9FDF73DFF01A8CC
:1029F000FDF714FF01A902462046FFF7DEFF20463F
:102A000004B010BD0B4610B509689A680446FFF77C
:102A1000D4FF204610BD38B505460C4639B10846EE
:102A2000FDF7FCFE214602462846FFF7C6FF284672
:102A300038BD10B50446FFF7D3FF204610BD38B5AA
:102A40000C469AB191B181688B4202D30023237066
:102A500038BDCD1A013A0168954228BF1546C918FC
:102A600020462A4606F092F90023635538BD0846F1
:102A70001146FFF7D3BB0846FFF738BCFFF740BC51
:102A8000FFF7A0BBFFF776BBFFF7BABB044B0022F2
:102A90001A711A73034A4FF47A7199601A60704779
:102AA000348DFF1F50930000202310B5C0F8003272
:102AB000FF23044680F8043200214FF4007205F031
:102AC00099FE204610BDF8B50C460699002901DC98
:102AD000002701E01F460B46D0F800C2002103E0AA
:102AE0000D01465926B101316145F9DB00240CE0A6
:102AF000013109D0411944518B6023684A60CF608D
:102B00001B682046984700E034462046F8BD2DE972
:102B1000F84306468846044600254FF003090FE0B7
:102B200054F8100B80B1036854F8042C54F80C1CB2
:102B30001F6909FB0211434654F8082CB8470135B8
:102B4000D6F800229542EBDBBDE8F8830148FFF799
:102B5000ABBF00BF448DFF1F30B505781C1C18BFEC
:102B600001241DB115FB03F504EB1525057008784C
:102B700018B110FB03F004EB10200870117819B1A4
:102B800011FB03F104EB1121117030BD2DE9F3416C
:102B9000067890F80180847806F01F020F465200F4
:102BA00052005523520012FB03F2120A16F0800F56
:102BB00006F0400506F0200023D101466DB918B992
:102BC000D3438DF8053010E0AB2155328DF8051058
:102BD0008DF806208DF807503DE058B955006FF08C
:102BE00054035B1B8DF80530553A8DF806208DF89F
:102BF000070030E000238DF80530D3438DF8063010
:102C000027E085B948B98DF805006FF054035200EC
:102C10009B1A8DF8063055321BE08DF805208DF893
:102C20000650D24315E058B902F155018DF8051050
:102C30008DF806006FF054039B1A8DF807300AE0F8
:102C4000A2F155038DF8053000238DF80630C2F14E
:102C500055028DF80720B8F1FF0F1FD043466FEAE9
:102C600008080DF105000DF106010DF107025FFAEC
:102C700088F8FFF771FF18FB08F89DF805304FEA58
:102C8000182843448DF805309DF8063043448DF8EC
:102C900006309DF8073098448DF80780FF2C09D046
:102CA00094B90DF105000DF106010DF1070223465F
:102CB000FFF752FF9DF805303B709DF806307B70A2
:102CC0009DF80730BB7005E014FB04F4240A0134BE
:102CD000E4B2E6E7BDE8FC81034B82B01B680193D8
:102CE000019B436002B070476C8AFF1F002310B540
:102CF000044603708160FFF7EFFF204610BDFFFF21
:102D0000054A137803F00203DBB2002BF9D0024B23
:102D100002221A70704700BF03600640094B1B78FF
:102D200013B9094B1B782BB1084A1378202B03D910
:102D300001230371002070470548C154013313700B
:102D400001207047B28FFF1F758FFF1FB38FFF1FCA
:102D5000548FFF1F7047FFFF024B1878024B1B7800
:102D6000C01A7047B18FFF1FB08FFF1F064A074977
:102D700013780978994204D90549C85C0133137066
:102D800070474FF0FF307047B08FFF1FB18FFF1FAC
:102D9000768FFF1F054B064A1B7812789A4202D99C
:102DA000044AD05C70474FF0FF307047B08FFF1F70
:102DB000B18FFF1F768FFF1F38B50E4B1B7814465F
:102DC00013B90D4B1B788BB10C4B1D78C5F121034A
:102DD0009C4202D9012202711C4609482246401930
:102DE00005F0E8FB054B2D191D7000E01C46204640
:102DF00038BD00BFB28FFF1F758FFF1FB38FFF1F3E
:102E0000548FFF1F10B5104B1B7813F020040BD10B
:102E10001220FDF777FD0D4B1B68A3B10C4A14700F
:102E20000C4A1078984710BD0B4A13780133DBB277
:102E3000012B137002D8094B1B7823B91220BDE86F
:102E40001040FDF75FBD10BD03600640508FFF1FAF
:102E5000B08FFF1FB18FFF1F9C8FFF1F758FFF1F4C
:102E6000002202710273034A4FF47A71816002609A
:102E7000704700BF789300000B4B00221A700B4B79
:102E80001A6842F040021A60094A4FF4197313603D
:102E900042F8043C074B27221A7004225A71202260
:102EA0001A7180225A707047758FFF1F348004405A
:102EB0000CA004400160064010B5374A137803F0B7
:102EC0001001C9B221B903F04002D2B242B92EE0DA
:102ED0001021117003F04002D2B2002AF3D110BDCC
:102EE00013F004032D4A18D0002313702C4A1370DA
:102EF0002C4B1B68144603B1984722782A4B1AB909
:102F000027491A7001200870284AD02111701A78B8
:102F1000274B1A700122274B21E001211170264A0C
:102F20001370224BC0221A7002331B7830E01F4A04
:102F30001F4C117811F0100117D013F0010310D1BC
:102F40001C4917480A780078904205D9164B9B5CBB
:102F5000013223700A7000E02370144BD0221A70E3
:102F600016E0C0231370237812E0144B122019705E
:102F700003221349FDF79CFC0F4A207813781F2B7E
:102F800006D80649097819B10E49C854013313709F
:102F9000014B02221A7010BD036006404C8FFF1FC8
:102FA000B38FFF1F988FFF1F548FFF1F02600640D3
:102FB00004600640B48FFF1FB18FFF1F9C8FFF1F5F
:102FC000052E0000768FFF1F044B054A490019703B
:102FD00001231370034A1370704700BF548FFF1F03
:102FE000B28FFF1FB38FFF1F2DE9F041204B12223C
:102FF0001A70204A0D46117801F02001C9B211B1B2
:10300000B42313700BE019460A7802F02002D3B201
:10301000002BF9D1184A1370164BB0221A700024F5
:10302000164E174FDFF8608013E03B5D88F80030E4
:10303000FFF766FE0E4B1B78DA0704D5002C14BF91
:10304000032002200BE003F01003DBB233B901349C
:10305000E4B23378A342E8D8002000E0042015B1A0
:10306000044B80221A70074B00221A70BDE8F081D1
:103070000360064002600640758FFF1FB38FFF1F7D
:10308000548FFF1FB28FFF1F046006402DE9F047E9
:103090001446344A1E4600231370334A1370334BD0
:1030A00012221A70324A107800F02000C0B210B11B
:1030B000B42313700BE01846027802F02002D3B25A
:1030C000002BF9D12B4A1370294BB0221A704900FA
:1030D000294D41F001012970FFF712FE234B244ACC
:1030E0001B7813F0110F04D0802313700020BDE86B
:1030F000F0872CB9002E0CBFA02680261670F5E7AD
:10310000012C01D1A82300E0A02313702B781B4FC2
:10311000DFF86480DFF8589025464FF0A80A0BE0EE
:10312000013DEDB2FFF7ECFD012D08BF89F800A0CD
:1031300098F8003007F8013F012DF1D1FFF7E0FDCD
:103140000B4B0F49B0221A700B4A1078621ED2B294
:10315000885420460EB180221A70034B1C70BDE8C3
:10316000F08700BFB08FFF1FB18FFF1F03600640C5
:1031700002600640758FFF1F04600640758FFF1FB9
:10318000768FFF1F0123FFF781BF0121FFF72CBFBF
:103190000148FFF765BE00BFA08FFF1F7047FFFF0C
:1031A0002DE9F04D16468AB098460F46002900F0EA
:1031B000E280002A00F0E180002B00F0E0808869C6
:1031C00004F060F80446F8690D4604F05BF8024626
:1031D0000B462046294602F091FB04F089FBC8F813
:1031E000000004F04FF804460D4602F03BFB824617
:1031F0008B462046294602F0E7FACDE90001B8697E
:1032000004F040F852465B4604F090F80446F86932
:103210000D4604F037F8DDE9002304F087F8024694
:103220000B462046294603F0CFFE00220023044629
:103230000D4604F0E3FA50B17869002104F072FE03
:1032400008B1514B00E0514BC8F804300EE07869EA
:1032500000F1004004F016F822462B4604F090F9E5
:1032600002F01AF904F044FBC8F80400F06904F015
:1032700009F8CDE90201B06904F004F8CDE90401D0
:10328000D8F8040003F0FEFF04460D4602F09CFA55
:10329000CDE908012046294602F0E4FA5246CDE97C
:1032A00006015B46DDE9020104F040F8DDE9002398
:1032B00004460D46DDE9040104F038F802460B46E9
:1032C0002046294603F07EFE044670690D4603F051
:1032D000D9FFDDE9082304F029F8DDE906230646D5
:1032E0000F46DDE9040104F021F852465B4604F084
:1032F0001DF802460B463046394603F065FEDDE90F
:10330000062306460F46DDE9020104F00FF8DDE969
:10331000002304F00BF802460B463046394603F012
:1033200053FE02460B462046294602F0E7FA0446C1
:103330000D46D8F80000164904F038FC154904F091
:10334000E9FC1349C8F80000D8F8040004F02EFC8A
:10335000104904F0DFFC2946C8F80400204604F0B8
:10336000C7FA0B4904F022FC0A4904F0D3FCC8F860
:103370000800012004E0084602E0104600E018467C
:103380000AB0BDE8F08D00BFDB0FC93FDB0FC9BF3E
:1033900000003443DB0F4940704701777047FFFF5F
:1033A00038B528220C4605460846002105F022FAC9
:1033B0000B222046084905F0E9FC0023E3720122B4
:1033C000E260AA6963622261002302226261A36152
:1033D000E361236238BD00BFA893000038B52822FE
:1033E0000C4605460846002105F004FA08490B2260
:1033F000204605F0CBFC0023E37269696362012279
:103400000023E26021616261A361E361236238BD50
:10341000A893000038B5044608460D46FDF7FEF9AE
:10342000236802465B6820462946984738BD38B570
:103430000446FFF7EFFF05462046FFF76BF9281813
:1034400038BD08B50368C9B21B68984708BDFFFFBF
:1034500070B5094C154620461E46FFF7B5FD2946B6
:103460002046FFF75BFC20463146FFF757FC20461D
:10347000BDE87040FFF789BEA08FFF1F2DE9F04720
:10348000192104462548FFF79FFDA8212348FFF78F
:10349000D8FF2248FFF779FE204819210622FFF7BE
:1034A00071FE1E48FFF758FC0528FADD1B48FFF7A0
:1034B0005DFC81461948FFF759FC82461748FFF723
:1034C00055FC07461548FFF751FC80461348FFF7A7
:1034D0004DFC05461148FFF749FC5FFA8AFA5FFA8E
:1034E00089F9064649EA0A2040F30B1004F00AFB6A
:1034F0005FFA88F8FFB2A06047EA082040F30B109B
:1035000004F000FBF6B2EDB2E06045EA062040F3BD
:103510000B1004F0F7FA2061BDE8F087A08FFF1FC1
:1035200073B524260C46324605460846002105F0B0
:1035300061F92846FFF7A2FF6B69A8686360012361
:10354000A3600F4B0F491B6826600193019B236109
:1035500004F02CFB0C4904F029FB6061E868094980
:1035600004F024FB084904F021FBA0612869054907
:1035700004F01CFB044904F019FBE0617CBD00BFB2
:103580006C8AFF1F6F12833A0AE81C41014A4161AD
:10359000026070475894000010B504460548FFF7D4
:1035A0006BFC2046192120225723FFF751FF0120F1
:1035B00010BD00BFA08FFF1F70B5094C15462046F7
:1035C0001E46FFF701FD29462046FFF7A7FB2046D0
:1035D0003146FFF7A3FB2046BDE87040FFF7D5BD9D
:1035E000A08FFF1F2DE9F0471E2104462548FFF755
:1035F000EBFC03212348FFF724FF2248FFF7C5FD1A
:1036000020481E210622FFF7BDFD1E48FFF7A4FB40
:103610000528FADD1B48FFF7A9FB82461948FFF78A
:10362000A5FB81461748FFF7A1FB06461548FFF7A3
:103630009DFB05461348FFF799FB80461148FFF7AD
:1036400095FB5FFA8AFA5FFA89F9074649EA0A2088
:1036500000B204F057FA5FFA88F8FFB2A06047EAB8
:10366000082000B204F04EFAF6B2EDB2E06045EA8E
:10367000062000B204F046FA002320616361BDE831
:10368000F08700BFA08FFF1F024A81610260002205
:10369000027770479893000038B50C4605461E2106
:1036A00001222346FFF788FF802C6C711DD006D8BD
:1036B000402C10D0602C13D0202C2BD106E0C02C35
:1036C0001DD0E02C20D0A02C24D113E0124A134BA3
:1036D0001A60134A1CE0134A104B1A60124A17E092
:1036E000124A0E4B1A60124A12E0124A0B4B1A6031
:1036F000114A0DE0104A094B1A60104A08E0104ABE
:10370000064B1A600F4A03E00F4A044B1A600F4A37
:103710000F4B1A6038BD00BF00808944B084FF1F82
:103720000000754400C0554400003E44008027441A
:10373000000016440000E1430000C84300007F433E
:103740000000A543008093430000664300004D4302
:10375000B484FF1F2DE9F04F242285B004460D46A6
:103760000846002105F046F802262046FFF73AFFFA
:10377000237F33BB24232B60A369A0686B600223E3
:10378000AB60674B1B680393039B2B61654B1E6803
:10379000314604F0BFFA644904F008FA6861E06851
:1037A000314604F0B7FA604904F000FA5F4BA861B3
:1037B0001968206904F0AEFA5B4904F0F7F9E86192
:1037C000ABE0A06803F05EFD009602460B46584849
:1037D000FEF7F2FF57495648FFF71CFEE06803F07A
:1037E00051FD009602460B465148FEF7E5FF514950
:1037F0004F48FFF70FFE206903F044FD0096024694
:103800000B464B48FEF7D8FF4A494948FFF70FFEE1
:10381000D4F808B04849D4F80C80276958464FF0CE
:10382000010904F06BFB08B94FF000095846434901
:103830004FF0010A04F06CFB00B9824640463F4954
:1038400049EA0A094FF0010A04F062FB08B94FF097
:10385000000A4046384949EA0A094FF0010A04F0D3
:103860004DFB00B982463846344949EA0A0A4FF00E
:10387000010804F04DFB08B94FF000084AEA080AB5
:103880001AF0FF0F0BD138462B494FF0010804F016
:1038900035FB00B9804618F0FF0F3FF46BAF63793A
:1038A000602B23D005D8202B2ED0402B7FF462AF85
:1038B00023E0A02B0CD0C02B03D0802B7FF45AAF79
:1038C0000DE02046E021FFF7E7FE19481C4921E002
:1038D0002046C021FFF7E0FE15481A491AE02046AD
:1038E000A021FFF7D9FE1248174913E02046802196
:1038F000FFF7D2FE0E4815490CE020466021FFF785
:10390000CBFE0B48124905E020464021FFF7C4FEDC
:1039100007481049FFF78BFD27E705B0BDE8F08F9A
:103920006C8AFF1FB084FF1F0000C842B484FF1FD1
:10393000348DFF1FF494000000A07FC500A07F45D8
:10394000AF930000C9930000E3930000FD930000D3
:10395000179400003194000010B504460748FFF7A3
:103960008BFA20461E2102220023FFF725FE204667
:103970002021FFF791FE012010BD00BFA08FFF1F87
:1039800010B504461830FEF7B1FF04F10800FEF749
:10399000ADFF204610BDFFFF10B5094C04F19000AB
:1039A000FFF7EEFF04F16000FFF7EAFF04F13000DB
:1039B000FFF7E6FF2046BDE81040FFF7E1BF00BF7C
:1039C000B88FFF1F38B5054CA4F1C8052046283C28
:1039D000FEF78CFFAC42F9D138BD00BF1891FF1F34
:1039E00038B5054CA4F1C8052046283CFEF77EFFFB
:1039F000AC42F9D138BD00BFE091FF1F4FF0FF335B
:103A000010B5044640F8043BFFF7C8FB04F108007A
:103A100047F25D61FFF7BAFD04F1200047F25E61F5
:103A2000FFF732FE0E4A0F49E264A2650E4A216595
:103A3000002323646364A3646365E265A3660B4AA1
:103A4000E36623676367A367E367C4F88030C4F85D
:103A50008430074B22666266C4F88C30204610BD65
:103A60000000B4C20000B442000034430000B04182
:103A700000004041F0B597B0044604A90830FFF7B4
:103A80004FFD04F120000DA9FFF764FE201D04A9DD
:103A90000DAA6B46FFF784FB00283DD0A16E00986D
:103AA00003F07CFFE16E2064019803F077FF216F43
:103AB0006064029803F072FF0A9E0B9DA06409984F
:103AC000E6670146A067C4F8805004F06FF83146FD
:103AD0000746304604F06AF80146384603F05EFFB8
:103AE00029460646284604F061F80146304603F0B0
:103AF00055FF03F0C7FB01F003FF03F0F9FED4F814
:103B00008C10C4F8840004F00DFA18B1012384F875
:103B1000883001E084F8880017B0F0BDF8B5214E78
:103B200037460446FFF76AFF0FCF04F1C4050FC5FF
:103B30003B681D492B6004F1D800FEF718FF04F123
:103B4000E8001A49FEF713FF04F1F8001849FEF7E0
:103B50000EFF04F584701749FEF709FF06F11407FC
:103B600004F58C701449FEF702FF0FCF04F594752D
:103B70000FC53B6806F128072B600FCF04F59E7533
:103B80000FC53B6800212B60142204F5A8703C3659
:103B900004F030FE0FCE04F5B2750FC53368204631
:103BA0002B60F8BD68940000B8940000BE9400003B
:103BB000C4940000CB940000D094000070B5104C69
:103BC000054604F1C806207CFCF758FDD5F83C31C9
:103BD000984204DA207CFCF751FDC5F83C01207CBA
:103BE000FCF74CFDD5F85031984204DD207CFCF701
:103BF00045FDC5F8500128340435B442E3D170BD09
:103C00004091FF1F37B51D460A4B009514462822E8
:103C100002FB01322346D06951699269FEF75CFECE
:103C200020EAE070A04203DBA842B4BF04462C4661
:103C300020463EBD4091FF1F2DE9F74F8B46FFF711
:103C400019FF0025364C2F462E464FF0010A207CE6
:103C5000FCF714FD642300936169A269E06100230D
:103C6000FEF73AFE3228206204DD84F824A046F0F4
:103C7000010602E0002384F82430042DDFF8BC8024
:103C800018BF76004FF0000998F81000FCF7A6FF67
:103C900088F824A008B147F00107B9F1070F09F12E
:103CA000010918BF7F00B9F1080F08F12808EBD10E
:103CB0001C4B83F8286083F82970BBF1000F25D0D6
:103CC000174B1948282101FB0531FEF702FD174962
:103CD0001548FFF79FFBE1691348FEF761FD1449A2
:103CE0001148FFF797FB216A0F48FEF759FD11496C
:103CF0000D48FFF78FFB94F824100B480A2200238D
:103D0000FEF716FD08480C49FFF784FB01352834FF
:103D1000052D9CD1044803B0BDE8F04FFEF7FABC76
:103D20004091FF1F0892FF1F348DFF1FD7940000A2
:103D3000DE940000E6940000F19400007890FF1FEC
:103D40002DE9F041684C8CB021466846FEF70FFE25
:103D50002146664C04A804F10808FEF708FE6946EF
:103D600040460025FEF716FE04A904F11800FEF7F0
:103D700011FE84F8285084F8295084F82A5004A8A9
:103D8000FEF7B4FD6846FEF7B1FD68465849FEF7F8
:103D9000EEFD04A85749FEF7EAFD694604F1380034
:103DA0002027FEF7F7FDF02604A904F14800FEF7EE
:103DB000F1FD84F8585084F8596084F85A7004A8CA
:103DC000FEF794FD6846FEF791FD68464A49FEF706
:103DD000CEFD04A84949FEF7CAFD694604F1680012
:103DE000FEF7D8FD04A904F17800FEF7D3FD022305
:103DF00084F8883084F8896084F88A7004A8FEF713
:103E000075FD6846FEF772FD68463D49FEF7AFFD59
:103E100004A83C49FEF7ABFD694604F19800FEF7A3
:103E2000B9FD04A904F1A800FEF7B4FD122384F83B
:103E3000B83084F8B95084F8BA7004A8FEF756FD7B
:103E40006846FEF753FD68462F49FEF790FD04A82B
:103E50002E49FEF78CFD694604F1C800FEF79AFD75
:103E600004A904F1D800FEF795FD082384F8EA3090
:103E700084F8E85084F8E96004A8FEF737FD684646
:103E8000FEF734FD0DEB07002149FEF770FD4146BA
:103E90000DEB0700FEF7B6FD1E49FEF7BCFD94F8DA
:103EA0002810FEF7C6FD1C49FEF7B5FD94F8291051
:103EB0001A4CFEF7BEFD014604A8FEF773FD0DEB9C
:103EC0000700FEF713FD04A92046FEF702FC20467A
:103ED000FEF720FC6420FCF7C7FE04A8FEF706FDF1
:103EE0000CB0BDE8F08100BFF6940000B88FFF1F52
:103EF00003950000FB940000009500000A95000067
:103F0000229500002F9500003F9500004C95000081
:103F10005A950000619500006C950000348DFF1FDC
:103F20002DE9F0471B4C002507460646A1464FF0F9
:103F3000280AA846D6F8283107EB05112361D831A5
:103F40000AFB0590FEF726FDD6F83C31207C636124
:103F5000D6F8503184F82480A36100210135FCF7A4
:103F600049FE04362834052DE4D10B4E00244FF0D1
:103F70000A083D19022195F86401FCF73BFE08FB95
:103F80000463D5F864210434102C1A61F1D1BDE822
:103F9000F08700BF4091FF1F7890FF1F70B5044667
:103FA000B2B0FFF7BDFF2046FFF7CAFE01A8FFF73A
:103FB00025FD019B05AA07CA23609DF810302373D5
:103FC00004F1100383E80700089BE3619DF82830A3
:103FD00084F824309DF8293084F825300BAB0FCBC2
:103FE00004F1280585E80F000F9BA3639DF840307E
:103FF00084F83C30119B2364129B6364139BA3647D
:10400000149BE364159B2365169B6365179BA3654F
:10401000189BE365199B23661A9B63661B9BA3662B
:104020001C9BE3661D9B23671E9B1FAE63670FCE21
:1040300004F178050FC596E8030085E80300259B89
:10404000C4F89030269BC4F89430279BC4F898306D
:10405000289BC4F89C30299BC4F8A0302A9BC4F844
:10406000A4302B9BC4F8A8302C9BC4F8AC302D9BFB
:10407000C4F8B0302E9BC4F8B4302F9BC4F8B830CD
:10408000309BC4F8BC30319B04F10800C4F8C03048
:10409000FFF782FA38B90B480B49FFF7BBF909481B
:1040A000FEF738FBFEE704F12000FFF755FC38B9B6
:1040B00004480549FFF7AEF90248FEF72BFBFEE77F
:1040C00032B070BD348DFF1F799500000A4B70B57A
:1040D00003F1C8050A26D0F85011D0F83C410A1B5C
:1040E00092FBF6F2A4188A1A5C619A6128330430B4
:1040F000AB42F0D170BD00BF4091FF1F10B5034926
:104100000446FEF734FC204610BD00BFAA9500000F
:1041100070B5204D0024281900212834FEF727FC13
:10412000C82CF8D100201C491C4A1D4D01F0ACF9E7
:104130000024281900212834FEF719FCC82CF8D1D6
:10414000164A1849184E002001F09EF90021174820
:10415000FEF70DFC00211648FEF709FC154816492C
:104160000E4A01F091F900243519002105F10800EB
:10417000FEF7FDFB3034002105F11800FEF7F7FBD8
:10418000C02CF1D10D49054A0020BDE8704001F076
:104190007BB900BF4091FF1FE13900000084FF1F81
:1041A0007890FF1FC5390000B88FFF1F1092FF1FC6
:1041B0002092FF1F0892FF1F8139000099390000EB
:1041C00008B503681B68984708BD01207047704711
:1041D00013B50368DC6800230A468DF804308DF8B7
:1041E00005308DF8063001A9A0471CBD13B5036842
:1041F000DC6800230A468DF804308DF805308DF810
:10420000063001A9A0471CBD13B50368DC68002374
:104210000A468DF804308DF805308DF8063001A976
:10422000A0471CBD13B50368DC6800230A468DF85F
:1042300004308DF805308DF8063001A9A0471CBD6B
:1042400013B50368DC6800230A468DF804308DF846
:1042500005308DF8063001A9A0471CBD70B510F1DE
:10426000D806044608D000F59475B54204D0103D38
:104270002846FEF73BFBF8E7204670BD90F8041295
:10428000FEF745BC73B53F4B3F4D1C682B6813F0E0
:1042900001060AD12846FCF79FFA30B13B4A3C4B55
:1042A000D66028461360FCF799FA0023394D009335
:1042B000204608233549384AFEF705FC2B6813F0E1
:1042C00001060AD12846FCF787FA30B1334A344B4D
:1042D000D66028461360FCF781FA0023314D009325
:1042E000204608232D49304AFEF7EDFB2B6813F0DA
:1042F00001060AD12846FCF76FFA30B12B4A2C4B45
:10430000D66028461360FCF769FA0023294D009314
:10431000204608232549284AFEF7D5FB2B6813F0D1
:1043200001060AD12846FCF757FA30B1234A244B3C
:10433000D66028461360FCF751FA0023214D009304
:10434000204608231D49204AFEF7BDFB2B6813F0C9
:1043500001060AD12846FCF73FFA30B11B4A1C4B34
:10436000D66028461360FCF739FA00230093194AF7
:10437000164908232046FEF7A6FB174B642283F854
:1043800004227CBD689300003892FF1F3C92FF1FFF
:10439000B89500004C92FF1F9C92FF1F5092FF1F88
:1043A000E09500006092FF1FC092FF1F6492FF1F04
:1043B000089600007492FF1FE492FF1F7892FF1F7F
:1043C000309600008892FF1F0893FF1F8C92FF1FFA
:1043D000589600002C93FF1F448DFF1F30B54FF4FB
:1043E000FA7087B0FCF740FCFFF74CFF1348144C01
:1043F000FFF7D4FD02A81149FFF780FE02A911487A
:10440000FEF767F902A8FEF771FA40F6B73501E04A
:10441000FFF7D4FB236809480193019BAB42F7D90E
:10442000084CFFF753FE236807495B6820461122BA
:1044300098472046FEF76EF907B030BD5C93FF1F2A
:104440006C8AFF1F348DFF1F789600002DE9F04322
:104450001F4BDFF88880186C85B003F06DFDFF23DB
:1044600000936FF059015A220023FEF735FAFF2816
:10447000A8BFFF2020EAE077002421460022FF2386
:104480001348FFF7BFFB064631461248FEF788F98E
:104490004FF02409002509FB04F9032101FB0591D4
:1044A000FF2303A8414401358DF80C708DF80D30C1
:1044B0008DF80E60FEF76AFB0C2DEED10134052C51
:1044C000DBD1054B1868FFF7D9FE05B0BDE8F083D6
:1044D0005C93FF1F348DFF1F689300009C92FF1FA9
:1044E00008B5FFF7B3FF03480121BDE80840FFF717
:1044F000A3BB00BF5C93FF1F08B5FFF76FFFFFF77B
:10450000EFFFFDF74BFFFAE70D200121FCF772BB2F
:1045100010B50446FFF7F8FF20236360014BA3604A
:1045200010BD00BF80F00F4010B50446FCF77EFBC5
:104530002368C01A431E302B05D8C0F132035B013B
:10454000013B7FF4FDAF10BD10B50446FCF76EFBD8
:10455000206010BD2DE9F74F0323464E03FB0023D7
:1045600001933368346843F0200C24F02004424B5C
:104570003460186840F080701860404B186840F054
:10458000010018603E48002303605578036815FB5E
:1045900001F577332D121746B04665E04FF0080954
:1045A000D0F800A09A45FBD30368C6F800C0773363
:1045B00015F0800F0CBF4FF0510A4FF02B0ACAEBD9
:1045C000030A6D00D0F800B0D345FBD3B9F101095F
:1045D000C8F80040E4D192F8009019FB01F94FEAC5
:1045E00029290825D0F800A09A45FBD30368C6F80E
:1045F00000C0773319F0800F0CBF4FF0510A4FF015
:104600002B0ACAEB030A4FEA4909D0F800B0D34598
:10461000FBD3013DC8F80040E4D192F8029019FBA9
:1046200001F94FEA292903370825D0F800A09A4557
:10463000FBD30368C6F800C0773319F0800F0CBFB6
:104640004FF0510A4FF02B0ACAEB030A4FEA49090F
:10465000D0F800B0D345FBD3013DC8F80040E4D109
:10466000557815FB01F52D12DDF804904F4595D3D3
:10467000BDE8FE8F80F00F40FCED00E0001000E090
:10468000041000E0F8B500F10C0528460E4614466B
:104690001F46FFF749FF72B6204639463246FFF7FC
:1046A00059FF094B4FF46E714C4360211A6894FB1B
:1046B000F1F44FF47A7194FBF1F4A4181C6062B623
:1046C0002846FFF741FFF8BD6C8AFF1F2DE9F04F28
:1046D000434F444B4FF0030808FB002838683D68FF
:1046E00025F020053D601C6844F080741C603E4B42
:1046F0001C6844F001041C603C4C00232360567885
:10470000236816FB01F640F0200077333612BC46D2
:1047100062E04FF00809D4F800A09A45FBD3236863
:104720003860773316F0800F0CBF4FF0510A4FF00E
:104730002B0ACAEB030A7600D4F800B0D345FBD3AA
:10474000B9F10109CCF80050E5D192F8009019FBBD
:1047500001F94FEA29290826D4F800A09A45FBD38D
:1047600023683860773319F0800F0CBF4FF0510A7F
:104770004FF02B0ACAEB030A4FEA4909D4F800B0FC
:10478000D345FBD3013ECCF80050E5D192F802901E
:1047900019FB01F94FEA292903320826D4F800A0B1
:1047A0009A45FBD323683860773319F0800F0CBF2C
:1047B0004FF0510A4FF02B0ACAEB030A4FEA49099E
:1047C000D4F800B0D345FBD3013ECCF80050E5D17E
:1047D000567816FB01F6361242459AD3BDE8F08FA3
:1047E00080F00F40FCED00E0001000E0041000E05D
:1047F000F8B500F10C0528460E4614461F46FFF793
:1048000093FE72B6204639463246FFF75FFF094BEA
:104810004FF46E714C4360211A6894FBF1F44FF42D
:104820007A7194FBF1F4A4181C6062B62846FFF775
:104830008BFEF8BD6C8AFF1F14200121FCF7DAB94A
:1048400010B50446FFF7F8FF20236360014BA36017
:1048500010BD00BFC0F00F402DE9F74F0323464EB7
:1048600003FB002301933368346843F0200C24F0E9
:104870002004424B3460186840F080701860404B50
:10488000186840F0010018603E4800230360557826
:10489000036815FB01F577332D121746B04665E026
:1048A0004FF00809D0F800A09A45FBD30368C6F87A
:1048B00000C0773315F0800F0CBF4FF0510A4FF056
:1048C0002B0ACAEB030A6D00D0F800B0D345FBD326
:1048D000B9F10109C8F80040E4D192F8009019FB41
:1048E00001F94FEA29290825D0F800A09A45FBD301
:1048F0000368C6F800C0773319F0800F0CBF4FF083
:10490000510A4FF02B0ACAEB030A4FEA4909D0F8C3
:1049100000B0D345FBD3013DC8F80040E4D192F884
:10492000029019FB01F94FEA292903370825D0F82D
:1049300000A09A45FBD30368C6F800C0773319F08E
:10494000800F0CBF4FF0510A4FF02B0ACAEB030A3D
:104950004FEA4909D0F800B0D345FBD3013DC8F870
:104960000040E4D1557815FB01F52D12DDF80490D7
:104970004F4595D3BDE8FE8FC0F00F40FCED00E041
:10498000001000E0041000E0F8B500F10C05284626
:104990000E4614461F46FFF7C7FD72B6204639463D
:1049A0003246FFF759FF094B4FF46E714C436021BB
:1049B0001A6894FBF1F44FF47A7194FBF1F4A418A3
:1049C0001C6062B62846FFF7BFFDF8BD6C8AFF1F6A
:1049D0002DE9F04F434F444B4FF0030808FB0028EC
:1049E00038683D6825F020053D601C6844F08074FF
:1049F0001C603E4B1C6844F001041C603C4C0023CE
:104A000023605678236816FB01F640F020007733C8
:104A10003612BC4662E04FF00809D4F800A09A456F
:104A2000FBD323683860773316F0800F0CBF4FF04C
:104A3000510A4FF02B0ACAEB030A7600D4F800B0F3
:104A4000D345FBD3B9F10109CCF80050E5D192F878
:104A5000009019FB01F94FEA29290826D4F800A093
:104A60009A45FBD323683860773319F0800F0CBF69
:104A70004FF0510A4FF02B0ACAEB030A4FEA4909DB
:104A8000D4F800B0D345FBD3013ECCF80050E5D1BB
:104A900092F8029019FB01F94FEA292903320826FE
:104AA000D4F800A09A45FBD323683860773319F017
:104AB000800F0CBF4FF0510A4FF02B0ACAEB030ACC
:104AC0004FEA4909D4F800B0D345FBD3013ECCF8F6
:104AD0000050E5D1567816FB01F6361242459AD3BE
:104AE000BDE8F08FC0F00F40FCED00E0001000E0EA
:104AF000041000E0F8B500F10C0528460E461446F7
:104B00001F46FFF711FD72B6204639463246FFF7C1
:104B10005FFF094B4FF46E714C4360211A6894FBA0
:104B2000F1F44FF47A7194FBF1F4A4181C6062B6AE
:104B30002846FFF709FDF8BD6C8AFF1F02200121FE
:104B4000FCF758B810B50446FFF7F8FF012363607F
:104B5000014BA36010BD00BFC0F00F402DE9F74F1F
:104B60000323464E03FB002301933368346843F06C
:104B7000010C24F00104424B3460186840F080704E
:104B80001860404B186840F0010018603E48002350
:104B900003605578036815FB01F577332D1217462E
:104BA000B04665E04FF00809D0F800A09A45FBD365
:104BB0000368C6F800C0773315F0800F0CBF4FF0C4
:104BC000510A4FF02B0ACAEB030A6D00D0F800B06F
:104BD000D345FBD3B9F10109C8F80040E4D192F8FC
:104BE000009019FB01F94FEA29290825D0F800A007
:104BF0009A45FBD30368C6F800C0773319F0800FDD
:104C00000CBF4FF0510A4FF02B0ACAEB030A4FEAD0
:104C10004909D0F800B0D345FBD3013DC8F80040A6
:104C2000E4D192F8029019FB01F94FEA29290337E0
:104C30000825D0F800A09A45FBD30368C6F800C049
:104C4000773319F0800F0CBF4FF0510A4FF02B0A49
:104C5000CAEB030A4FEA4909D0F800B0D345FBD3A9
:104C6000013DC8F80040E4D1557815FB01F52D123F
:104C7000DDF804904F4595D3BDE8FE8FC0F00F409E
:104C8000FCED00E0001000E0041000E0F8B500F1D9
:104C90000C0528460E4614461F46FFF745FC72B623
:104CA000204639463246FFF759FF094B4FF46E71E3
:104CB0004C4360211A6894FBF1F44FF47A7194FB31
:104CC000F1F4A4181C6062B62846FFF73DFCF8BD5D
:104CD0006C8AFF1F2DE9F04F434F444B4FF0030800
:104CE00008FB002838683D6825F001053D601C6818
:104CF00044F080741C603E4B1C6844F001041C604E
:104D00003C4C002323605678236816FB01F640F0E4
:104D1000010077333612BC4662E04FF00809D4F840
:104D200000A09A45FBD323683860773316F0800FD4
:104D30000CBF4FF0510A4FF02B0ACAEB030A760062
:104D4000D4F800B0D345FBD3B9F10109CCF8005039
:104D5000E5D192F8009019FB01F94FEA29290826BC
:104D6000D4F800A09A45FBD323683860773319F054
:104D7000800F0CBF4FF0510A4FF02B0ACAEB030A09
:104D80004FEA4909D4F800B0D345FBD3013ECCF833
:104D90000050E5D192F8029019FB01F94FEA292958
:104DA00003320826D4F800A09A45FBD32368386064
:104DB000773319F0800F0CBF4FF0510A4FF02B0AD8
:104DC000CAEB030A4FEA4909D4F800B0D345FBD334
:104DD000013ECCF80050E5D1567816FB01F63612AC
:104DE00042459AD3BDE8F08FC0F00F40FCED00E0E3
:104DF000001000E0041000E0F8B500F10C052846B2
:104E00000E4614461F46FFF78FFB72B62046394602
:104E10003246FFF75FFF094B4FF46E714C43602140
:104E20001A6894FBF1F44FF47A7194FBF1F4A4182E
:104E30001C6062B62846FFF787FBF8BD6C8AFF1F2F
:104E400005200121FBF7D6BE10B50446FFF7F8FF99
:104E500080236360014BA36010BD00BFC0F00F4012
:104E60002DE9F74F0323464E03FB002301933368DC
:104E7000346843F0800C24F08004424B346018689E
:104E800040F080701860404B186840F001001860D6
:104E90003E48002303605578036815FB01F577331E
:104EA0002D121746B04665E04FF00809D0F800A073
:104EB0009A45FBD30368C6F800C0773315F0800F1E
:104EC0000CBF4FF0510A4FF02B0ACAEB030A6D00DA
:104ED000D0F800B0D345FBD3B9F10109C8F80040C0
:104EE000E4D192F8009019FB01F94FEA292908252D
:104EF000D0F800A09A45FBD30368C6F800C077330A
:104F000019F0800F0CBF4FF0510A4FF02B0ACAEB7B
:104F1000030A4FEA4909D0F800B0D345FBD3013D5D
:104F2000C8F80040E4D192F8029019FB01F94FEA69
:104F3000292903370825D0F800A09A45FBD3036838
:104F4000C6F800C0773319F0800F0CBF4FF0510A3C
:104F50004FF02B0ACAEB030A4FEA4909D0F800B018
:104F6000D345FBD3013DC8F80040E4D1557815FB8B
:104F700001F52D12DDF804904F4595D3BDE8FE8F65
:104F8000C0F00F40FCED00E0001000E0041000E075
:104F9000F8B500F10C0528460E4614461F46FFF7EB
:104FA000C3FA72B6204639463246FFF759FF094B1D
:104FB0004FF46E714C4360211A6894FBF1F44FF486
:104FC0007A7194FBF1F4A4181C6062B62846FFF7CE
:104FD000BBFAF8BD6C8AFF1F2DE9F04F434F444BDD
:104FE0004FF0030808FB002838683D6825F080056D
:104FF0003D601C6844F080741C603E4B1C6844F0AB
:1050000001041C603C4C002323605678236816FB87
:1050100001F640F0800077333612BC4662E04FF074
:105020000809D4F800A09A45FBD323683860773389
:1050300016F0800F0CBF4FF0510A4FF02B0ACAEB4D
:10504000030A7600D4F800B0D345FBD3B9F10109C7
:10505000CCF80050E5D192F8009019FB01F94FEA25
:1050600029290826D4F800A09A45FBD32368386084
:10507000773319F0800F0CBF4FF0510A4FF02B0A15
:10508000CAEB030A4FEA4909D4F800B0D345FBD371
:10509000013ECCF80050E5D192F8029019FB01F9DD
:1050A0004FEA292903320826D4F800A09A45FBD3F9
:1050B00023683860773319F0800F0CBF4FF0510A26
:1050C0004FF02B0ACAEB030A4FEA4909D4F800B0A3
:1050D000D345FBD3013ECCF80050E5D1567816FB02
:1050E00001F6361242459AD3BDE8F08FC0F00F406A
:1050F000FCED00E0001000E0041000E0F8B500F165
:105100000C0528460E4614461F46FFF70DFA72B6E8
:10511000204639463246FFF75FFF094B4FF46E7168
:105120004C4360211A6894FBF1F44FF47A7194FBBC
:10513000F1F4A4181C6062B62846FFF705FAF8BD22
:105140006C8AFF1F07200121FBF754BD10B50446F0
:10515000FFF7F8FF04236360014BA36010BD00BF9D
:10516000C0F00F402DE9F74F0323464E03FB002309
:1051700001933368346843F0040C24F00404424B78
:105180003460186840F080701860404B186840F038
:10519000010018603E48002303605578036815FB42
:1051A00001F577332D121746B04665E04FF0080938
:1051B000D0F800A09A45FBD30368C6F800C0773347
:1051C00015F0800F0CBF4FF0510A4FF02B0ACAEBBD
:1051D000030A6D00D0F800B0D345FBD3B9F1010943
:1051E000C8F80040E4D192F8009019FB01F94FEAA9
:1051F00029290825D0F800A09A45FBD30368C6F8F2
:1052000000C0773319F0800F0CBF4FF0510A4FF0F8
:105210002B0ACAEB030A4FEA4909D0F800B0D3457C
:10522000FBD3013DC8F80040E4D192F8029019FB8D
:1052300001F94FEA292903370825D0F800A09A453B
:10524000FBD30368C6F800C0773319F0800F0CBF9A
:105250004FF0510A4FF02B0ACAEB030A4FEA4909F3
:10526000D0F800B0D345FBD3013DC8F80040E4D1ED
:10527000557815FB01F52D12DDF804904F4595D3B7
:10528000BDE8FE8FC0F00F40FCED00E0001000E034
:10529000041000E0F8B500F10C0528460E4614464F
:1052A0001F46FFF741F972B6204639463246FFF7EE
:1052B00059FF094B4FF46E714C4360211A6894FBFF
:1052C000F1F44FF47A7194FBF1F4A4181C6062B607
:1052D0002846FFF739F9F8BD6C8AFF1F2DE9F04F1A
:1052E000434F444B4FF0030808FB002838683D68E3
:1052F00025F004053D601C6844F080741C603E4B42
:105300001C6844F001041C603C4C00232360567868
:10531000236816FB01F640F0040077333612BC46D2
:1053200062E04FF00809D4F800A09A45FBD3236847
:105330003860773316F0800F0CBF4FF0510A4FF0F2
:105340002B0ACAEB030A7600D4F800B0D345FBD38E
:10535000B9F10109CCF80050E5D192F8009019FBA1
:1053600001F94FEA29290826D4F800A09A45FBD371
:1053700023683860773319F0800F0CBF4FF0510A63
:105380004FF02B0ACAEB030A4FEA4909D4F800B0E0
:10539000D345FBD3013ECCF80050E5D192F8029002
:1053A00019FB01F94FEA292903320826D4F800A095
:1053B0009A45FBD323683860773319F0800F0CBF10
:1053C0004FF0510A4FF02B0ACAEB030A4FEA490982
:1053D000D4F800B0D345FBD3013ECCF80050E5D162
:1053E000567816FB01F6361242459AD3BDE8F08F87
:1053F000C0F00F40FCED00E0001000E0041000E001
:10540000F8B500F10C0528460E4614461F46FFF776
:105410008BF872B6204639463246FFF75FFF094BDC
:105420004FF46E714C4360211A6894FBF1F44FF411
:105430007A7194FBF1F4A4181C6062B62846FFF759
:1054400083F8F8BD6C8AFF1F10B54FF4FA71094C50
:105450000948FDF74BFC1E210848FDF747FC204694
:10546000FEF75CFB0649074A2046BDE8104000F005
:105470000BB800BF5C93FF1F5093FF1FD894FF1F12
:105480005D4200000084FF1F03460846194602F0F3
:1054900079BD00BFFFFFFFFF2DE9F84F89464FF6AA
:1054A000FF7129F00044C4F20F4180468C424A4605
:1054B000CA461FDD0023C7F6F0739C4200F3C0808C
:1054C00014BF0023012300280CBF002103F00101B9
:1054D000002940F0B58042F2FB1942F618584B46BD
:1054E000CBF6F979C3F6F973C5F24448002AC8BF70
:1054F0009946ADE04FF6FF73C3F6DB739C4200F3B1
:10550000BA804FF6FF73C3F61F639C4240F3A4803A
:105510004FF0FF3B42464B464046494601F006FFEE
:1055200002460B4606460F4601F000FF8EA3D3E964
:10553000002304460D4601F0F9FE8DA3D3E90023B4
:1055400001F042FD22462B4601F0F0FE8AA3D3E98A
:10555000002301F039FD22462B4601F0E7FE88A327
:10556000D3E9002301F030FD22462B4601F0DEFE98
:1055700085A3D3E9002301F027FD22462B4601F045
:10558000D5FE83A3D3E9002301F01EFD32463B463E
:1055900001F0CCFE80A3D3E9002306460F46204647
:1055A000294601F0C3FE7EA3D3E9002301F00AFDE2
:1055B00022462B4601F0BAFE7BA3D3E9002301F07B
:1055C00001FD22462B4601F0B1FE79A3D3E9002369
:1055D00001F0F8FC22462B4601F0A8FE76A3D3E9A1
:1055E000002301F0EFFC22462B4601F09FFEBBF1A9
:1055F000FF3F02460B4663D049F2A8643046C0F232
:105600000004394604EBCB0B01F0DEFC4B4642466E
:1056100001F08CFEDBE9082301F0D4FC4B46424646
:1056200001F0D0FC02460B46DBE9000101F0CAFCA8
:10563000BAF1000F8046B4BF01F10049894607E086
:105640004046424649464B4601F0BEFC80468946EC
:1056500040464946BDE8F88F59A3D3E9002349469F
:1056600001F0B2FC00230022C3F6F07302F0EEF862
:105670000028EDD14CE7494600F0F0F84FF6FF73F3
:10568000C3F6F2739C4206460F462ADC4FF6FF73C0
:10569000C3F6E5739C4258DC02460B4601F094FCCD
:1056A00000230022C3F6F07301F08CFC4FF0000BD6
:1056B00000224FF0804304460D46304639462CE028
:1056C0003046394601F080FC42464B4601F02EFE42
:1056D00002460B464046494601F074FC8046894626
:1056E000B6E747F6FF73C4F203039C4220DC0023B5
:1056F0000022C3F6F8734FF0020B01F063FC0023A5
:105700000022C3F6F87304460D463046394601F0D0
:105710000DFE00230022C3F6F07301F055FC024693
:105720000B462046294601F02BFF80468946F1E6CC
:1057300000210020CBF6F07132463B464FF0030BC0
:1057400001F01EFF80468946E4E600230022C3F6EE
:10575000F0734FF0010B01F035FC04460D46304666
:105760003946D6E7AFF3008011DA22E33AAD903F35
:10577000EB0D76244B7BA93F513DD0A0660DB13F88
:105780006E204CC5CD45B73FFF8300922449C23FF0
:105790000D5555555555D53F2F6C6A2C44B4A2BFB5
:1057A0009AFDDE522DDEAD3F6D9A74AFF2B0B33F7D
:1057B000711623FEC671BC3FC4EB98999999C93FF5
:1057C0009C7500883CE4377E70B542F2FB16C3F648
:1057D000E97621F00044B44286B002460B460D46FD
:1057E0001ADD4FF6FF75C7F6EF75AC4203DD01F029
:1057F000E9FB06B070BD02AA00F0EAF900F0030070
:10580000012817D002280CD0F0B9DDE90201DDE94A
:10581000042300F0D9FCECE70022002300F0D4FCC4
:10582000E7E7DDE90201DDE9042300F0CDFC01F149
:105830000041DEE70090DDE90423DDE9020101F02B
:10584000C7F901F10041D4E70123DDE9020100932A
:10585000DDE9042301F0BCF9CBE700BF21F00041F2
:10586000704700BF70B542F2FB16C3F6E97621F02F
:105870000044B44286B002460B460D461CDD4FF68E
:10588000FF75C7F6EF75AC4203DD01F09BFB06B078
:1058900070BD02AA00F09CF900F0030001281DD0A1
:1058A000022810D008BB0123DDE902010093DDE9E5
:1058B000042301F08DF9EAE700240022002300947C
:1058C00001F086F9E3E70123DDE902010093DDE958
:1058D000042301F07DF901F10041D8E7DDE902017F
:1058E000DDE9042300F070FCD1E7DDE90201DDE928
:1058F000042300F069FC01F10041C8E700F058B84A
:105900002DE9F0478AB004460D4600F095FB48F2B9
:10591000B84AC1F6FF7A9AF90030013306460F46BD
:105920000FD02046294601F08FFA50B14FF0000801
:105930004FF000092046294642464B4601F068FFD9
:1059400020B9304639460AB0BDE8F0879AF80060C1
:1059500049F2E863C0F200030122CDE904458DE875
:105960000C000023CDE90245089356B9CDE906891C
:10597000684601F091FA70B1089B8BB9DDE90667C2
:10598000DFE74046494642464B4601F0F9FD022E0C
:10599000CDE90601ECD102F0FFFA21230360EBE729
:1059A00002F0FAFA089B0360E8E700BFFFFFFFFF81
:1059B0002DE9F04784B000260446CDE90023C7F660
:1059C000F0769DE880100D46CDE902230246C7F12E
:1059D00000092CF0004849EA07090B4648EAD97942
:1059E000B1454FD8C0F1000A21F000494AEA000A47
:1059F00049EADA7AB24545D80CF1404CDDF804A00A
:105A00000CF5801C5CEA070C5CD04FEAAA7659EAD8
:105A1000020206F0020646EAD17640D058EA0707AD
:105A20004AD00022C7F6F07290455CD00022C7F63B
:105A3000F072914540D0C8EB09084FEA2858B8F1F8
:105A40003C0F4CDC18F13C0FACBF4FF000084FF09E
:105A5000010818EADA7873D000200021012E6BD0FB
:105A6000022E5AD004460D46A6B147A3D3E900231F
:105A700001F0A8FA46A3D3E9002301F0A3FA0446F3
:105A80000D4607E020462946DDE9022301F09CFA95
:105A900004460D462046294604B0BDE8F087032E93
:105AA000BCD801A252F826F0955A0000955A000081
:105AB000D75A0000CF5A0000002B2ADB36A5D5E9C3
:105AC0000045E7E704B0BDE8F047FFF7E5BC34A5C3
:105AD000D5E90045DEE72EA5D5E90045DAE72EA198
